{
  "_format": "hh-sol-artifact-1",
  "contractName": "NexusLPSushi",
  "sourceName": "contracts/NexusLPSushi.sol",
  "abi": [
    {
      "anonymous": false,
      "inputs": [
        {
          "indexed": true,
          "internalType": "address",
          "name": "owner",
          "type": "address"
        },
        {
          "indexed": true,
          "internalType": "address",
          "name": "spender",
          "type": "address"
        },
        {
          "indexed": false,
          "internalType": "uint256",
          "name": "value",
          "type": "uint256"
        }
      ],
      "name": "Approval",
      "type": "event"
    },
    {
      "anonymous": false,
      "inputs": [
        {
          "indexed": true,
          "internalType": "address",
          "name": "sender",
          "type": "address"
        },
        {
          "indexed": true,
          "internalType": "address",
          "name": "to",
          "type": "address"
        },
        {
          "indexed": false,
          "internalType": "uint256",
          "name": "exitUSDC",
          "type": "uint256"
        },
        {
          "indexed": false,
          "internalType": "uint256",
          "name": "exitETH",
          "type": "uint256"
        },
        {
          "indexed": false,
          "internalType": "uint256",
          "name": "liquidity",
          "type": "uint256"
        },
        {
          "indexed": false,
          "internalType": "uint256",
          "name": "shares",
          "type": "uint256"
        }
      ],
      "name": "Burn",
      "type": "event"
    },
    {
      "anonymous": false,
      "inputs": [
        {
          "indexed": true,
          "internalType": "address",
          "name": "sender",
          "type": "address"
        },
        {
          "indexed": false,
          "internalType": "uint256",
          "name": "amount",
          "type": "uint256"
        }
      ],
      "name": "ClaimedRewards",
      "type": "event"
    },
    {
      "anonymous": false,
      "inputs": [
        {
          "indexed": true,
          "internalType": "address",
          "name": "sender",
          "type": "address"
        },
        {
          "indexed": false,
          "internalType": "uint256",
          "name": "liquidity",
          "type": "uint256"
        }
      ],
      "name": "CompoundedProfits",
      "type": "event"
    },
    {
      "anonymous": false,
      "inputs": [
        {
          "indexed": true,
          "internalType": "address",
          "name": "sender",
          "type": "address"
        },
        {
          "indexed": true,
          "internalType": "address",
          "name": "to",
          "type": "address"
        },
        {
          "indexed": false,
          "internalType": "uint256",
          "name": "liquidity",
          "type": "uint256"
        },
        {
          "indexed": false,
          "internalType": "uint256",
          "name": "shares",
          "type": "uint256"
        }
      ],
      "name": "Mint",
      "type": "event"
    },
    {
      "anonymous": false,
      "inputs": [
        {
          "indexed": true,
          "internalType": "address",
          "name": "previousOwner",
          "type": "address"
        },
        {
          "indexed": true,
          "internalType": "address",
          "name": "newOwner",
          "type": "address"
        }
      ],
      "name": "OwnershipTransferred",
      "type": "event"
    },
    {
      "anonymous": false,
      "inputs": [
        {
          "indexed": false,
          "internalType": "address",
          "name": "account",
          "type": "address"
        }
      ],
      "name": "Paused",
      "type": "event"
    },
    {
      "anonymous": false,
      "inputs": [
        {
          "indexed": true,
          "internalType": "address",
          "name": "from",
          "type": "address"
        },
        {
          "indexed": true,
          "internalType": "address",
          "name": "to",
          "type": "address"
        },
        {
          "indexed": false,
          "internalType": "uint256",
          "name": "value",
          "type": "uint256"
        }
      ],
      "name": "Transfer",
      "type": "event"
    },
    {
      "anonymous": false,
      "inputs": [
        {
          "indexed": false,
          "internalType": "address",
          "name": "account",
          "type": "address"
        }
      ],
      "name": "Unpaused",
      "type": "event"
    },
    {
      "inputs": [],
      "name": "BASE_PERCENTMIL",
      "outputs": [
        {
          "internalType": "uint256",
          "name": "",
          "type": "uint256"
        }
      ],
      "stateMutability": "view",
      "type": "function"
    },
    {
      "inputs": [],
      "name": "MASTERCHEF",
      "outputs": [
        {
          "internalType": "address",
          "name": "",
          "type": "address"
        }
      ],
      "stateMutability": "view",
      "type": "function"
    },
    {
      "inputs": [],
      "name": "POOL_ID",
      "outputs": [
        {
          "internalType": "uint256",
          "name": "",
          "type": "uint256"
        }
      ],
      "stateMutability": "view",
      "type": "function"
    },
    {
      "inputs": [],
      "name": "REWARD",
      "outputs": [
        {
          "internalType": "address",
          "name": "",
          "type": "address"
        }
      ],
      "stateMutability": "view",
      "type": "function"
    },
    {
      "inputs": [],
      "name": "ROUTER",
      "outputs": [
        {
          "internalType": "address",
          "name": "",
          "type": "address"
        }
      ],
      "stateMutability": "view",
      "type": "function"
    },
    {
      "inputs": [],
      "name": "SLP",
      "outputs": [
        {
          "internalType": "address",
          "name": "",
          "type": "address"
        }
      ],
      "stateMutability": "view",
      "type": "function"
    },
    {
      "inputs": [],
      "name": "USDC",
      "outputs": [
        {
          "internalType": "address",
          "name": "",
          "type": "address"
        }
      ],
      "stateMutability": "view",
      "type": "function"
    },
    {
      "inputs": [],
      "name": "WETH",
      "outputs": [
        {
          "internalType": "address",
          "name": "",
          "type": "address"
        }
      ],
      "stateMutability": "view",
      "type": "function"
    },
    {
      "inputs": [
        {
          "internalType": "uint256",
          "name": "amountETH",
          "type": "uint256"
        },
        {
          "internalType": "uint256",
          "name": "deadline",
          "type": "uint256"
        }
      ],
      "name": "addLiquidity",
      "outputs": [
        {
          "internalType": "uint256",
          "name": "addedUSDC",
          "type": "uint256"
        },
        {
          "internalType": "uint256",
          "name": "addedETH",
          "type": "uint256"
        },
        {
          "internalType": "uint256",
          "name": "shares",
          "type": "uint256"
        }
      ],
      "stateMutability": "nonpayable",
      "type": "function"
    },
    {
      "inputs": [
        {
          "internalType": "uint256",
          "name": "deadline",
          "type": "uint256"
        }
      ],
      "name": "addLiquidityETH",
      "outputs": [
        {
          "internalType": "uint256",
          "name": "addedUSDC",
          "type": "uint256"
        },
        {
          "internalType": "uint256",
          "name": "addedETH",
          "type": "uint256"
        },
        {
          "internalType": "uint256",
          "name": "shares",
          "type": "uint256"
        }
      ],
      "stateMutability": "payable",
      "type": "function"
    },
    {
      "inputs": [
        {
          "internalType": "address",
          "name": "owner",
          "type": "address"
        },
        {
          "internalType": "address",
          "name": "spender",
          "type": "address"
        }
      ],
      "name": "allowance",
      "outputs": [
        {
          "internalType": "uint256",
          "name": "",
          "type": "uint256"
        }
      ],
      "stateMutability": "view",
      "type": "function"
    },
    {
      "inputs": [
        {
          "internalType": "uint256",
          "name": "outUSDC",
          "type": "uint256"
        }
      ],
      "name": "amountInETHForRequestedOutUSDC",
      "outputs": [
        {
          "internalType": "uint256",
          "name": "inETH",
          "type": "uint256"
        }
      ],
      "stateMutability": "view",
      "type": "function"
    },
    {
      "inputs": [
        {
          "internalType": "address",
          "name": "spender",
          "type": "address"
        },
        {
          "internalType": "uint256",
          "name": "amount",
          "type": "uint256"
        }
      ],
      "name": "approve",
      "outputs": [
        {
          "internalType": "bool",
          "name": "",
          "type": "bool"
        }
      ],
      "stateMutability": "nonpayable",
      "type": "function"
    },
    {
      "inputs": [],
      "name": "availableSpaceToDepositETH",
      "outputs": [
        {
          "internalType": "uint256",
          "name": "amountETH",
          "type": "uint256"
        }
      ],
      "stateMutability": "view",
      "type": "function"
    },
    {
      "inputs": [
        {
          "internalType": "address",
          "name": "account",
          "type": "address"
        }
      ],
      "name": "balanceOf",
      "outputs": [
        {
          "internalType": "uint256",
          "name": "",
          "type": "uint256"
        }
      ],
      "stateMutability": "view",
      "type": "function"
    },
    {
      "inputs": [],
      "name": "claimRewards",
      "outputs": [],
      "stateMutability": "nonpayable",
      "type": "function"
    },
    {
      "inputs": [
        {
          "internalType": "uint256",
          "name": "amountETH",
          "type": "uint256"
        }
      ],
      "name": "compoundProfits",
      "outputs": [
        {
          "internalType": "uint256",
          "name": "addedUSDC",
          "type": "uint256"
        },
        {
          "internalType": "uint256",
          "name": "addedETH",
          "type": "uint256"
        },
        {
          "internalType": "uint256",
          "name": "liquidity",
          "type": "uint256"
        }
      ],
      "stateMutability": "nonpayable",
      "type": "function"
    },
    {
      "inputs": [],
      "name": "decimals",
      "outputs": [
        {
          "internalType": "uint8",
          "name": "",
          "type": "uint8"
        }
      ],
      "stateMutability": "view",
      "type": "function"
    },
    {
      "inputs": [
        {
          "internalType": "address",
          "name": "spender",
          "type": "address"
        },
        {
          "internalType": "uint256",
          "name": "subtractedValue",
          "type": "uint256"
        }
      ],
      "name": "decreaseAllowance",
      "outputs": [
        {
          "internalType": "bool",
          "name": "",
          "type": "bool"
        }
      ],
      "stateMutability": "nonpayable",
      "type": "function"
    },
    {
      "inputs": [],
      "name": "depositAllCapital",
      "outputs": [],
      "stateMutability": "nonpayable",
      "type": "function"
    },
    {
      "inputs": [
        {
          "internalType": "uint256",
          "name": "amount",
          "type": "uint256"
        }
      ],
      "name": "depositCapital",
      "outputs": [],
      "stateMutability": "nonpayable",
      "type": "function"
    },
    {
      "inputs": [],
      "name": "emergencyExit",
      "outputs": [],
      "stateMutability": "nonpayable",
      "type": "function"
    },
    {
      "inputs": [],
      "name": "governance",
      "outputs": [
        {
          "internalType": "address",
          "name": "",
          "type": "address"
        }
      ],
      "stateMutability": "view",
      "type": "function"
    },
    {
      "inputs": [
        {
          "internalType": "address",
          "name": "spender",
          "type": "address"
        },
        {
          "internalType": "uint256",
          "name": "addedValue",
          "type": "uint256"
        }
      ],
      "name": "increaseAllowance",
      "outputs": [
        {
          "internalType": "bool",
          "name": "",
          "type": "bool"
        }
      ],
      "stateMutability": "nonpayable",
      "type": "function"
    },
    {
      "inputs": [
        {
          "internalType": "address",
          "name": "",
          "type": "address"
        }
      ],
      "name": "minters",
      "outputs": [
        {
          "internalType": "uint256",
          "name": "entryETH",
          "type": "uint256"
        },
        {
          "internalType": "uint256",
          "name": "entryUSDC",
          "type": "uint256"
        },
        {
          "internalType": "uint256",
          "name": "shares",
          "type": "uint256"
        }
      ],
      "stateMutability": "view",
      "type": "function"
    },
    {
      "inputs": [],
      "name": "name",
      "outputs": [
        {
          "internalType": "string",
          "name": "",
          "type": "string"
        }
      ],
      "stateMutability": "view",
      "type": "function"
    },
    {
      "inputs": [],
      "name": "owner",
      "outputs": [
        {
          "internalType": "address",
          "name": "",
          "type": "address"
        }
      ],
      "stateMutability": "view",
      "type": "function"
    },
    {
      "inputs": [],
      "name": "ownerRewardsPercentmil",
      "outputs": [
        {
          "internalType": "uint256",
          "name": "",
          "type": "uint256"
        }
      ],
      "stateMutability": "view",
      "type": "function"
    },
    {
      "inputs": [
        {
          "internalType": "uint256",
          "name": "",
          "type": "uint256"
        }
      ],
      "name": "pathToETH",
      "outputs": [
        {
          "internalType": "address",
          "name": "",
          "type": "address"
        }
      ],
      "stateMutability": "view",
      "type": "function"
    },
    {
      "inputs": [
        {
          "internalType": "uint256",
          "name": "",
          "type": "uint256"
        }
      ],
      "name": "pathToUSDC",
      "outputs": [
        {
          "internalType": "address",
          "name": "",
          "type": "address"
        }
      ],
      "stateMutability": "view",
      "type": "function"
    },
    {
      "inputs": [],
      "name": "pause",
      "outputs": [],
      "stateMutability": "nonpayable",
      "type": "function"
    },
    {
      "inputs": [],
      "name": "paused",
      "outputs": [
        {
          "internalType": "bool",
          "name": "",
          "type": "bool"
        }
      ],
      "stateMutability": "view",
      "type": "function"
    },
    {
      "inputs": [],
      "name": "pricePerFullShare",
      "outputs": [
        {
          "internalType": "uint256",
          "name": "",
          "type": "uint256"
        }
      ],
      "stateMutability": "view",
      "type": "function"
    },
    {
      "inputs": [
        {
          "internalType": "uint256",
          "name": "inETH",
          "type": "uint256"
        }
      ],
      "name": "quote",
      "outputs": [
        {
          "internalType": "uint256",
          "name": "outUSDC",
          "type": "uint256"
        }
      ],
      "stateMutability": "view",
      "type": "function"
    },
    {
      "inputs": [
        {
          "internalType": "uint256",
          "name": "inUSDC",
          "type": "uint256"
        }
      ],
      "name": "quoteInverse",
      "outputs": [
        {
          "internalType": "uint256",
          "name": "outETH",
          "type": "uint256"
        }
      ],
      "stateMutability": "view",
      "type": "function"
    },
    {
      "inputs": [],
      "name": "removeAllLiquidity",
      "outputs": [
        {
          "internalType": "uint256",
          "name": "exitETH",
          "type": "uint256"
        }
      ],
      "stateMutability": "nonpayable",
      "type": "function"
    },
    {
      "inputs": [],
      "name": "removeAllLiquidityETH",
      "outputs": [
        {
          "internalType": "uint256",
          "name": "exitETH",
          "type": "uint256"
        }
      ],
      "stateMutability": "nonpayable",
      "type": "function"
    },
    {
      "inputs": [
        {
          "internalType": "uint256",
          "name": "shares",
          "type": "uint256"
        },
        {
          "internalType": "uint256",
          "name": "deadline",
          "type": "uint256"
        }
      ],
      "name": "removeLiquidity",
      "outputs": [
        {
          "internalType": "uint256",
          "name": "exitETH",
          "type": "uint256"
        }
      ],
      "stateMutability": "nonpayable",
      "type": "function"
    },
    {
      "inputs": [
        {
          "internalType": "uint256",
          "name": "shares",
          "type": "uint256"
        },
        {
          "internalType": "uint256",
          "name": "deadline",
          "type": "uint256"
        }
      ],
      "name": "removeLiquidityETH",
      "outputs": [
        {
          "internalType": "uint256",
          "name": "exitETH",
          "type": "uint256"
        }
      ],
      "stateMutability": "nonpayable",
      "type": "function"
    },
    {
      "inputs": [],
      "name": "renounceOwnership",
      "outputs": [],
      "stateMutability": "nonpayable",
      "type": "function"
    },
    {
      "inputs": [
        {
          "internalType": "address[]",
          "name": "tokens_",
          "type": "address[]"
        }
      ],
      "name": "salvage",
      "outputs": [],
      "stateMutability": "nonpayable",
      "type": "function"
    },
    {
      "inputs": [
        {
          "internalType": "address",
          "name": "_governance",
          "type": "address"
        }
      ],
      "name": "setGovernance",
      "outputs": [],
      "stateMutability": "nonpayable",
      "type": "function"
    },
    {
      "inputs": [
        {
          "internalType": "uint256",
          "name": "_ownerRewardsPercentmil",
          "type": "uint256"
        }
      ],
      "name": "setOwnerRewardsPercentmil",
      "outputs": [],
      "stateMutability": "nonpayable",
      "type": "function"
    },
    {
      "inputs": [],
      "name": "symbol",
      "outputs": [
        {
          "internalType": "string",
          "name": "",
          "type": "string"
        }
      ],
      "stateMutability": "view",
      "type": "function"
    },
    {
      "inputs": [],
      "name": "totalInvestedETH",
      "outputs": [
        {
          "internalType": "uint256",
          "name": "",
          "type": "uint256"
        }
      ],
      "stateMutability": "view",
      "type": "function"
    },
    {
      "inputs": [],
      "name": "totalInvestedUSDC",
      "outputs": [
        {
          "internalType": "uint256",
          "name": "",
          "type": "uint256"
        }
      ],
      "stateMutability": "view",
      "type": "function"
    },
    {
      "inputs": [],
      "name": "totalLiquidity",
      "outputs": [
        {
          "internalType": "uint256",
          "name": "",
          "type": "uint256"
        }
      ],
      "stateMutability": "view",
      "type": "function"
    },
    {
      "inputs": [],
      "name": "totalSupply",
      "outputs": [
        {
          "internalType": "uint256",
          "name": "",
          "type": "uint256"
        }
      ],
      "stateMutability": "view",
      "type": "function"
    },
    {
      "inputs": [
        {
          "internalType": "address",
          "name": "recipient",
          "type": "address"
        },
        {
          "internalType": "uint256",
          "name": "amount",
          "type": "uint256"
        }
      ],
      "name": "transfer",
      "outputs": [
        {
          "internalType": "bool",
          "name": "",
          "type": "bool"
        }
      ],
      "stateMutability": "nonpayable",
      "type": "function"
    },
    {
      "inputs": [
        {
          "internalType": "address",
          "name": "sender",
          "type": "address"
        },
        {
          "internalType": "address",
          "name": "recipient",
          "type": "address"
        },
        {
          "internalType": "uint256",
          "name": "amount",
          "type": "uint256"
        }
      ],
      "name": "transferFrom",
      "outputs": [
        {
          "internalType": "bool",
          "name": "",
          "type": "bool"
        }
      ],
      "stateMutability": "nonpayable",
      "type": "function"
    },
    {
      "inputs": [
        {
          "internalType": "address",
          "name": "newOwner",
          "type": "address"
        }
      ],
      "name": "transferOwnership",
      "outputs": [],
      "stateMutability": "nonpayable",
      "type": "function"
    },
    {
      "inputs": [],
      "name": "unpause",
      "outputs": [],
      "stateMutability": "nonpayable",
      "type": "function"
    },
    {
      "inputs": [],
      "name": "withdrawFreeCapital",
      "outputs": [],
      "stateMutability": "nonpayable",
      "type": "function"
    },
    {
      "stateMutability": "payable",
      "type": "receive"
    }
  ],
  "bytecode": "0x6002608081815260e060405290816020016020820280368337505081516200002f92600992506020019062000546565b506040805160028082526060820183529091602083019080368337505081516200006192600a92506020019062000546565b503480156200006f57600080fd5b50604080518082018252601b81527f4e65787573204c5020537573686953776170204554482f55534443000000000060208083019182528351808501909452600484526304e534c560e41b908401528151919291620000d191600391620005b0565b508051620000e7906004906020840190620005b0565b50506005805460ff191660121790555060006200010362000542565b60058054610100600160a81b0319166101006001600160a01b03841690810291909117909155604051919250906000907f8be0079c531659141344cd1fd0a4f28419497f9722a3daafe3b4186f6b6457e0908290a3506005805460ff60a81b191690556001600655600780546001600160a01b03191633179055600a805473c02aaa39b223fe8d0a0e5c4f27ead9083c756cc29190600090620001a257fe5b9060005260206000200160006101000a8154816001600160a01b0302191690836001600160a01b0316021790555073a0b86991c6218b36c1d19d4a2e9eb0ce3606eb48600a600181548110620001f457fe5b9060005260206000200160006101000a8154816001600160a01b0302191690836001600160a01b0316021790555073a0b86991c6218b36c1d19d4a2e9eb0ce3606eb4860096000815481106200024657fe5b9060005260206000200160006101000a8154816001600160a01b0302191690836001600160a01b0316021790555073c02aaa39b223fe8d0a0e5c4f27ead9083c756cc260096001815481106200029857fe5b600091825260208083209190910180546001600160a01b0319166001600160a01b0394909416939093179092556040805163095ea7b360e01b815273d9e1ce17f2641f24ae83637ab66a2cca9c378b9f60048201526000196024820152905173a0b86991c6218b36c1d19d4a2e9eb0ce3606eb489363095ea7b3936044808501949293928390030190829087803b1580156200033357600080fd5b505af115801562000348573d6000803e3d6000fd5b505050506040513d60208110156200035f57600080fd5b50506040805163095ea7b360e01b815273d9e1ce17f2641f24ae83637ab66a2cca9c378b9f60048201526000196024820152905173c02aaa39b223fe8d0a0e5c4f27ead9083c756cc29163095ea7b39160448083019260209291908290030181600087803b158015620003d157600080fd5b505af1158015620003e6573d6000803e3d6000fd5b505050506040513d6020811015620003fd57600080fd5b50506040805163095ea7b360e01b815273d9e1ce17f2641f24ae83637ab66a2cca9c378b9f60048201526000196024820152905173397ff1542f962076d0bfe58ea045ffa2d347aca09163095ea7b39160448083019260209291908290030181600087803b1580156200046f57600080fd5b505af115801562000484573d6000803e3d6000fd5b505050506040513d60208110156200049b57600080fd5b50506040805163095ea7b360e01b815273c2edad668740f1aa35e4d8f227fb8e17dca888cd60048201526000196024820152905173397ff1542f962076d0bfe58ea045ffa2d347aca09163095ea7b39160448083019260209291908290030181600087803b1580156200050d57600080fd5b505af115801562000522573d6000803e3d6000fd5b505050506040513d60208110156200053957600080fd5b506200064a9050565b3390565b8280548282559060005260206000209081019282156200059e579160200282015b828111156200059e57825182546001600160a01b0319166001600160a01b0390911617825560209092019160019091019062000567565b50620005ac92915062000633565b5090565b828054600181600116156101000203166002900490600052602060002090601f016020900481019282620005e857600085556200059e565b82601f106200060357805160ff19168380011785556200059e565b828001600101855582156200059e579182015b828111156200059e57825182559160200191906001019062000616565b5b80821115620005ac576000815560010162000634565b613e73806200065a6000396000f3fe60806040526004361061031e5760003560e01c806389a30271116101ab578063ad5c4648116100f7578063dd62ed3e11610095578063ed1bd76c1161006f578063ed1bd76c14610ac3578063f2fde38b14610aed578063f46eccc414610b20578063fd46a17114610b5357610325565b8063dd62ed3e14610a5e578063e0d7d0e914610a99578063e3692c3614610aae57610325565b8063ca08d237116100d1578063ca08d23714610967578063cab34c081461097c578063d06d04cc14610991578063d85d515e146109ae57610325565b8063ad5c464814610913578063b1eb535214610928578063c94595401461095257610325565b80639e11ef4411610164578063a457c2d71161013e578063a457c2d714610844578063a9059cbb1461087d578063a90915ea146108b6578063ab033ea9146108e057610325565b80639e11ef44146107d55780639f98b66e146107ff578063a328b2281461081457610325565b806389a30271146107035780638da5cb5b14610718578063900d10991461072d57806395d89b41146107425780639cd441da146107575780639d7de6b3146107a557610325565b8063372500ab1161026a5780635aa6e6751161022357806370a08231116101fd57806370a0823114610691578063715018a6146106c45780638456cb59146106d957806388a780e5146106ee57610325565b80635aa6e6751461063d5780635c975abb14610652578063662fd8041461066757610325565b8063372500ab14610584578063386fed691461059b57806339509351146105b05780633f4ba83a146105e957806354115590146105fe5780635641ec031461062857610325565b806318160ddd116102d75780632509f1b9116102b15780632509f1b91461051a5780632aad5edd1461052f578063313ce5671461054457806332fe7b261461056f57610325565b806318160ddd146104ad57806318761232146104c257806323b872dd146104d757610325565b806306fdde031461032a578063095ea7b3146103b4578063131331b11461040157806314b4218c1461042857806315770f921461046e5780631598b7f81461048357610325565b3661032557005b600080fd5b34801561033657600080fd5b5061033f610b68565b6040805160208082528351818301528351919283929083019185019080838360005b83811015610379578181015183820152602001610361565b50505050905090810190601f1680156103a65780820380516001836020036101000a031916815260200191505b509250505060405180910390f35b3480156103c057600080fd5b506103ed600480360360408110156103d757600080fd5b506001600160a01b038135169060200135610bff565b604080519115158252519081900360200190f35b34801561040d57600080fd5b50610416610c1d565b60408051918252519081900360200190f35b34801561043457600080fd5b506104526004803603602081101561044b57600080fd5b5035610c23565b604080516001600160a01b039092168252519081900360200190f35b34801561047a57600080fd5b50610416610c4d565b34801561048f57600080fd5b50610416600480360360208110156104a657600080fd5b5035610c53565b3480156104b957600080fd5b50610416610d76565b3480156104ce57600080fd5b50610416610d7c565b3480156104e357600080fd5b506103ed600480360360608110156104fa57600080fd5b506001600160a01b03813581169160208101359091169060400135610d83565b34801561052657600080fd5b50610452610e0b565b34801561053b57600080fd5b50610416610e23565b34801561055057600080fd5b50610559610e29565b6040805160ff9092168252519081900360200190f35b34801561057b57600080fd5b50610452610e32565b34801561059057600080fd5b50610599610e4a565b005b3480156105a757600080fd5b50610599610fce565b3480156105bc57600080fd5b506103ed600480360360408110156105d357600080fd5b506001600160a01b0381351690602001356110b9565b3480156105f557600080fd5b50610599611107565b34801561060a57600080fd5b506105996004803603602081101561062157600080fd5b5035611171565b34801561063457600080fd5b506105996111c7565b34801561064957600080fd5b5061045261124b565b34801561065e57600080fd5b506103ed61125a565b34801561067357600080fd5b506104526004803603602081101561068a57600080fd5b503561126a565b34801561069d57600080fd5b50610416600480360360208110156106b457600080fd5b50356001600160a01b031661127a565b3480156106d057600080fd5b50610599611299565b3480156106e557600080fd5b5061059961134b565b3480156106fa57600080fd5b506104166113b5565b34801561070f57600080fd5b50610452611437565b34801561072457600080fd5b5061045261144f565b34801561073957600080fd5b50610599611463565b34801561074e57600080fd5b5061033f611570565b34801561076357600080fd5b506107876004803603604081101561077a57600080fd5b50803590602001356115d1565b60408051938452602084019290925282820152519081900360600190f35b3480156107b157600080fd5b50610416600480360360408110156107c857600080fd5b50803590602001356116a5565b3480156107e157600080fd5b50610599600480360360208110156107f857600080fd5b5035611722565b34801561080b57600080fd5b506104166117aa565b34801561082057600080fd5b506104166004803603604081101561083757600080fd5b50803590602001356117ec565b34801561085057600080fd5b506103ed6004803603604081101561086757600080fd5b506001600160a01b0381351690602001356118bb565b34801561088957600080fd5b506103ed600480360360408110156108a057600080fd5b506001600160a01b038135169060200135611923565b3480156108c257600080fd5b50610787600480360360208110156108d957600080fd5b5035611937565b3480156108ec57600080fd5b506105996004803603602081101561090357600080fd5b50356001600160a01b0316611bc2565b34801561091f57600080fd5b50610452611c82565b34801561093457600080fd5b506104166004803603602081101561094b57600080fd5b5035611c94565b34801561095e57600080fd5b50610416611e23565b34801561097357600080fd5b50610416611ef4565b34801561098857600080fd5b50610452611f7d565b610787600480360360208110156109a757600080fd5b5035611f95565b3480156109ba57600080fd5b50610599600480360360208110156109d157600080fd5b8101906020810181356401000000008111156109ec57600080fd5b8201836020820111156109fe57600080fd5b80359060200191846020830284011164010000000083111715610a2057600080fd5b9190808060200260200160405190810160405280939291908181526020018383602002808284376000920191909152509295506120b6945050505050565b348015610a6a57600080fd5b5061041660048036036040811015610a8157600080fd5b506001600160a01b038135811691602001351661222e565b348015610aa557600080fd5b50610416612259565b348015610aba57600080fd5b5061045261225e565b348015610acf57600080fd5b5061041660048036036020811015610ae657600080fd5b5035612276565b348015610af957600080fd5b5061059960048036036020811015610b1057600080fd5b50356001600160a01b0316612365565b348015610b2c57600080fd5b5061078760048036036020811015610b4357600080fd5b50356001600160a01b0316612473565b348015610b5f57600080fd5b50610416612494565b60038054604080516020601f6002600019610100600188161502019095169490940493840181900481028201810190925282815260609390929091830182828015610bf45780601f10610bc957610100808354040283529160200191610bf4565b820191906000526020600020905b815481529060010190602001808311610bd757829003601f168201915b505050505090505b90565b6000610c13610c0c61249a565b848461249e565b5060015b92915050565b60085481565b600a8181548110610c3357600080fd5b6000918252602090912001546001600160a01b0316905081565b600b5481565b600080600073397ff1542f962076d0bfe58ea045ffa2d347aca06001600160a01b0316630902f1ac6040518163ffffffff1660e01b815260040160606040518083038186803b158015610ca557600080fd5b505afa158015610cb9573d6000803e3d6000fd5b505050506040513d6060811015610ccf57600080fd5b50805160209182015160408051632b58577b60e21b8152600481018990526001600160701b03808516602483015283166044820152905192955090935073d9e1ce17f2641f24ae83637ab66a2cca9c378b9f9263ad615dec92606480840193829003018186803b158015610d4257600080fd5b505afa158015610d56573d6000803e3d6000fd5b505050506040513d6020811015610d6c57600080fd5b5051949350505050565b60025490565b620186a081565b6000610d9084848461258a565b610e0084610d9c61249a565b610dfb85604051806060016040528060288152602001613d3d602891396001600160a01b038a16600090815260016020526040812090610dda61249a565b6001600160a01b0316815260208101919091526040016000205491906126e5565b61249e565b5060015b9392505050565b73397ff1542f962076d0bfe58ea045ffa2d347aca081565b600c5481565b60055460ff1690565b73d9e1ce17f2641f24ae83637ab66a2cca9c378b9f81565b60026006541415610e90576040805162461bcd60e51b815260206004820152601f6024820152600080516020613bec833981519152604482015290519081900360640190fd5b60026006556007546001600160a01b03163314610ee6576040805162461bcd60e51b815260206004820152600f60248201526e6f6e6c7920676f7665726e616e636560881b604482015290519081900360640190fd5b610eee61277c565b604080516370a0823160e01b81523060048201529051600091736b3595068778dd592e39a122f4f5a5cf09c90fe2916370a0823191602480820192602092909190829003018186803b158015610f4357600080fd5b505afa158015610f57573d6000803e3d6000fd5b505050506040513d6020811015610f6d57600080fd5b50519050610f90736b3595068778dd592e39a122f4f5a5cf09c90fe233836127ee565b60408051828152905133917f2d5429efdeca7741a8cd94067b18d988bc4e5f1d5b8272c37b7bfc31e9bfa32c919081900360200190a2506001600655565b610fd661249a565b6001600160a01b0316610fe761144f565b6001600160a01b031614611030576040805162461bcd60e51b81526020600482018190526024820152600080516020613d65833981519152604482015290519081900360640190fd5b604080516370a0823160e01b815233600482015290516110b79173a0b86991c6218b36c1d19d4a2e9eb0ce3606eb48916370a0823191602480820192602092909190829003018186803b15801561108657600080fd5b505afa15801561109a573d6000803e3d6000fd5b505050506040513d60208110156110b057600080fd5b5051611722565b565b6000610c136110c661249a565b84610dfb85600160006110d761249a565b6001600160a01b03908116825260208083019390935260409182016000908120918c168152925290205490612840565b61110f61249a565b6001600160a01b031661112061144f565b6001600160a01b031614611169576040805162461bcd60e51b81526020600482018190526024820152600080516020613d65833981519152604482015290519081900360640190fd5b6110b761289a565b6007546001600160a01b031633146111c2576040805162461bcd60e51b815260206004820152600f60248201526e6f6e6c7920676f7665726e616e636560881b604482015290519081900360640190fd5b600855565b6111cf61249a565b6001600160a01b03166111e061144f565b6001600160a01b031614611229576040805162461bcd60e51b81526020600482018190526024820152600080516020613d65833981519152604482015290519081900360640190fd5b611235600b544261293d565b505061123f611463565b6000600b819055600c55565b6007546001600160a01b031681565b600554600160a81b900460ff1690565b60098181548110610c3357600080fd5b6001600160a01b0381166000908152602081905260409020545b919050565b6112a161249a565b6001600160a01b03166112b261144f565b6001600160a01b0316146112fb576040805162461bcd60e51b81526020600482018190526024820152600080516020613d65833981519152604482015290519081900360640190fd5b60055460405160009161010090046001600160a01b0316907f8be0079c531659141344cd1fd0a4f28419497f9722a3daafe3b4186f6b6457e0908390a360058054610100600160a81b0319169055565b61135361249a565b6001600160a01b031661136461144f565b6001600160a01b0316146113ad576040805162461bcd60e51b81526020600482018190526024820152600080516020613d65833981519152604482015290519081900360640190fd5b6110b7612aa0565b6000600260065414156113fd576040805162461bcd60e51b815260206004820152601f6024820152600080516020613bec833981519152604482015290519081900360640190fd5b600260065561141461140e3361127a565b42612b29565b905061142f600080516020613c2e83398151915233836127ee565b600160065590565b73a0b86991c6218b36c1d19d4a2e9eb0ce3606eb4881565b60055461010090046001600160a01b031690565b61146b61249a565b6001600160a01b031661147c61144f565b6001600160a01b0316146114c5576040805162461bcd60e51b81526020600482018190526024820152600080516020613d65833981519152604482015290519081900360640190fd5b604080516370a0823160e01b8152306004820152905160009173a0b86991c6218b36c1d19d4a2e9eb0ce3606eb48916370a0823191602480820192602092909190829003018186803b15801561151a57600080fd5b505afa15801561152e573d6000803e3d6000fd5b505050506040513d602081101561154457600080fd5b50519050801561156d5761156d73a0b86991c6218b36c1d19d4a2e9eb0ce3606eb4833836127ee565b50565b60048054604080516020601f6002600019610100600188161502019095169490940493840181900481028201810190925282815260609390929091830182828015610bf45780601f10610bc957610100808354040283529160200191610bf4565b60008060006002600654141561161c576040805162461bcd60e51b815260206004820152601f6024820152600080516020613bec833981519152604482015290519081900360640190fd5b600260065561162961125a565b1561166e576040805162461bcd60e51b815260206004820152601060248201526f14185d5cd8589b194e881c185d5cd95960821b604482015290519081900360640190fd5b611688600080516020613c2e833981519152333088612ce7565b6116928585612d41565b6001600655919790965090945092505050565b6000600260065414156116ed576040805162461bcd60e51b815260206004820152601f6024820152600080516020613bec833981519152604482015290519081900360640190fd5b60026006556116fc8383612b29565b9050611717600080516020613c2e83398151915233836127ee565b600160065592915050565b61172a61249a565b6001600160a01b031661173b61144f565b6001600160a01b031614611784576040805162461bcd60e51b81526020600482018190526024820152600080516020613d65833981519152604482015290519081900360640190fd5b801561156d5761156d73a0b86991c6218b36c1d19d4a2e9eb0ce3606eb48333084612ce7565b60006117b4610d76565b6117c057506000610bfc565b6117e76117cb610d76565b600b546117e190670de0b6b3a764000090612e4e565b90612ea7565b905090565b600060026006541415611834576040805162461bcd60e51b815260206004820152601f6024820152600080516020613bec833981519152604482015290519081900360640190fd5b60026006556118438383612b29565b9050600080516020613c2e8339815191526001600160a01b0316632e1a7d4d826040518263ffffffff1660e01b815260040180828152602001915050600060405180830381600087803b15801561189957600080fd5b505af11580156118ad573d6000803e3d6000fd5b505050506117173382612f0e565b6000610c136118c861249a565b84610dfb85604051806060016040528060258152602001613e1960259139600160006118f261249a565b6001600160a01b03908116825260208083019390935260409182016000908120918d168152925290205491906126e5565b6000610c1361193061249a565b848461258a565b600080600060026006541415611982576040805162461bcd60e51b815260206004820152601f6024820152600080516020613bec833981519152604482015290519081900360640190fd5b60026006556007546001600160a01b031633146119d8576040805162461bcd60e51b815260206004820152600f60248201526e6f6e6c7920676f7665726e616e636560881b604482015290519081900360640190fd5b6119f2600080516020613c2e833981519152333087612ce7565b604080516370a0823160e01b81523060048201529051600091600080516020613c2e833981519152916370a0823191602480820192602092909190829003018186803b158015611a4157600080fd5b505afa158015611a55573d6000803e3d6000fd5b505050506040513d6020811015611a6b57600080fd5b505160085490915015611ab0576000611a96620186a06117e160085485612e4e90919063ffffffff16565b9050611aa181612ff3565b50611aac82826131b9565b9150505b611ac3611abe826002612ea7565b612ff3565b50604080516370a0823160e01b81523060048201529051600080516020613c2e833981519152916370a08231916024808301926020929190829003018186803b158015611b0f57600080fd5b505afa158015611b23573d6000803e3d6000fd5b505050506040513d6020811015611b3957600080fd5b50519050611b478142613216565b600c549296509094509250611b5c9085612840565b600c55600d54611b6c9084612840565b600d55600b54611b7c9083612840565b600b5560408051838152905133917ff9e7f89e759b364406fe6f32ca22c8639767b42ef67d0f99a676c88bafb351c8919081900360200190a25060016006559193909250565b6007546001600160a01b03163314611c13576040805162461bcd60e51b815260206004820152600f60248201526e6f6e6c7920676f7665726e616e636560881b604482015290519081900360640190fd5b6001600160a01b038116611c60576040805162461bcd60e51b815260206004820152600f60248201526e6e756c6c20676f7665726e616e636560881b604482015290519081900360640190fd5b600780546001600160a01b0319166001600160a01b0392909216919091179055565b600080516020613c2e83398151915281565b600073d9e1ce17f2641f24ae83637ab66a2cca9c378b9f6001600160a01b0316631f00ca7483600a6040518363ffffffff1660e01b815260040180838152602001806020018281038252838181548152602001915080548015611d2057602002820191906000526020600020905b81546001600160a01b03168152600190910190602001808311611d02575b5050935050505060006040518083038186803b158015611d3f57600080fd5b505afa158015611d53573d6000803e3d6000fd5b505050506040513d6000823e601f3d908101601f191682016040526020811015611d7c57600080fd5b8101908080516040519392919084640100000000821115611d9c57600080fd5b908301906020820185811115611db157600080fd5b8251866020820283011164010000000082111715611dce57600080fd5b82525081516020918201928201910280838360005b83811015611dfb578181015183820152602001611de3565b50505050905001604052505050600081518110611e1457fe5b60200260200101519050919050565b600060026006541415611e6b576040805162461bcd60e51b815260206004820152601f6024820152600080516020613bec833981519152604482015290519081900360640190fd5b6002600655611e7c61140e3361127a565b9050600080516020613c2e8339815191526001600160a01b0316632e1a7d4d826040518263ffffffff1660e01b815260040180828152602001915050600060405180830381600087803b158015611ed257600080fd5b505af1158015611ee6573d6000803e3d6000fd5b5050505061142f3382612f0e565b604080516370a0823160e01b815230600482015290516000916117e79173a0b86991c6218b36c1d19d4a2e9eb0ce3606eb48916370a08231916024808301926020929190829003018186803b158015611f4c57600080fd5b505afa158015611f60573d6000803e3d6000fd5b505050506040513d6020811015611f7657600080fd5b5051610c53565b736b3595068778dd592e39a122f4f5a5cf09c90fe281565b600080600060026006541415611fe0576040805162461bcd60e51b815260206004820152601f6024820152600080516020613bec833981519152604482015290519081900360640190fd5b6002600655611fed61125a565b15612032576040805162461bcd60e51b815260206004820152601060248201526f14185d5cd8589b194e881c185d5cd95960821b604482015290519081900360640190fd5b6000349050600080516020613c2e8339815191526001600160a01b031663d0e30db0826040518263ffffffff1660e01b81526004016000604051808303818588803b15801561208057600080fd5b505af1158015612094573d6000803e3d6000fd5b50505050506120a38186612d41565b9350935093505060016006559193909250565b6120be61249a565b6001600160a01b03166120cf61144f565b6001600160a01b031614612118576040805162461bcd60e51b81526020600482018190526024820152600080516020613d65833981519152604482015290519081900360640190fd5b805160005b8181101561222957600083828151811061213357fe5b6020026020010151905061214681613529565b612188576040805162461bcd60e51b815260206004820152600e60248201526d6e6f742073616c76616761626c6560901b604482015290519081900360640190fd5b6000816001600160a01b03166370a08231306040518263ffffffff1660e01b815260040180826001600160a01b0316815260200191505060206040518083038186803b1580156121d757600080fd5b505afa1580156121eb573d6000803e3d6000fd5b505050506040513d602081101561220157600080fd5b50519050801561221f5761221f6001600160a01b03831633836127ee565b505060010161211d565b505050565b6001600160a01b03918216600090815260016020908152604080832093909416825291909152205490565b600181565b73c2edad668740f1aa35e4d8f227fb8e17dca888cd81565b600080600073397ff1542f962076d0bfe58ea045ffa2d347aca06001600160a01b0316630902f1ac6040518163ffffffff1660e01b815260040160606040518083038186803b1580156122c857600080fd5b505afa1580156122dc573d6000803e3d6000fd5b505050506040513d60608110156122f257600080fd5b50805160209182015160408051632b58577b60e21b8152600481018990526001600160701b03808416602483015284166044820152905192955090935073d9e1ce17f2641f24ae83637ab66a2cca9c378b9f9263ad615dec92606480840193829003018186803b158015610d4257600080fd5b61236d61249a565b6001600160a01b031661237e61144f565b6001600160a01b0316146123c7576040805162461bcd60e51b81526020600482018190526024820152600080516020613d65833981519152604482015290519081900360640190fd5b6001600160a01b03811661240c5760405162461bcd60e51b8152600401808060200182810382526026815260200180613c4e6026913960400191505060405180910390fd5b6005546040516001600160a01b0380841692610100900416907f8be0079c531659141344cd1fd0a4f28419497f9722a3daafe3b4186f6b6457e090600090a3600580546001600160a01b0390921661010002610100600160a81b0319909216919091179055565b600e6020526000908152604090208054600182015460029092015490919083565b600d5481565b3390565b6001600160a01b0383166124e35760405162461bcd60e51b8152600401808060200182810382526024815260200180613dcb6024913960400191505060405180910390fd5b6001600160a01b0382166125285760405162461bcd60e51b8152600401808060200182810382526022815260200180613c746022913960400191505060405180910390fd5b6001600160a01b03808416600081815260016020908152604080832094871680845294825291829020859055815185815291517f8c5be1e5ebec7d5bd14f71427d1e84f3dd0314c0f7b2291e5b200ac8c7c3b9259281900390910190a3505050565b6001600160a01b0383166125cf5760405162461bcd60e51b8152600401808060200182810382526025815260200180613da66025913960400191505060405180910390fd5b6001600160a01b0382166126145760405162461bcd60e51b8152600401808060200182810382526023815260200180613bc96023913960400191505060405180910390fd5b61261f838383612229565b61265c81604051806060016040528060268152602001613c96602691396001600160a01b03861660009081526020819052604090205491906126e5565b6001600160a01b03808516600090815260208190526040808220939093559084168152205461268b9082612840565b6001600160a01b038084166000818152602081815260409182902094909455805185815290519193928716927fddf252ad1be2c89b69c2b068fc378daa952ba7f163c4a11628f55a4df523b3ef92918290030190a3505050565b600081848411156127745760405162461bcd60e51b81526004018080602001828103825283818151815260200191508051906020019080838360005b83811015612739578181015183820152602001612721565b50505050905090810190601f1680156127665780820380516001836020036101000a031916815260200191505b509250505060405180910390fd5b505050900390565b60408051631c57762b60e31b815260016004820152600060248201819052915173c2edad668740f1aa35e4d8f227fb8e17dca888cd9263e2bbb158926044808201939182900301818387803b1580156127d457600080fd5b505af11580156127e8573d6000803e3d6000fd5b50505050565b604080516001600160a01b038416602482015260448082018490528251808303909101815260649091019091526020810180516001600160e01b031663a9059cbb60e01b17905261222990849061358b565b600082820183811015610e04576040805162461bcd60e51b815260206004820152601b60248201527f536166654d6174683a206164646974696f6e206f766572666c6f770000000000604482015290519081900360640190fd5b6128a261125a565b6128ea576040805162461bcd60e51b815260206004820152601460248201527314185d5cd8589b194e881b9bdd081c185d5cd95960621b604482015290519081900360640190fd5b6005805460ff60a81b191690557f5db9ee0a495bf2e6ff9c91a7834c1ba4fdd244a5e8aa4e537bd38aeae4b073aa61292061249a565b604080516001600160a01b039092168252519081900360200190a1565b6000808361295057506000905080612a99565b60408051630441a3e760e41b81526001600482015260248101869052905173c2edad668740f1aa35e4d8f227fb8e17dca888cd9163441a3e7091604480830192600092919082900301818387803b1580156129aa57600080fd5b505af11580156129be573d6000803e3d6000fd5b505060408051635d5155ef60e11b8152600080516020613c2e833981519152600482015273a0b86991c6218b36c1d19d4a2e9eb0ce3606eb48602482015260448101889052600060648201819052608482018190523060a483015260c48201889052825173d9e1ce17f2641f24ae83637ab66a2cca9c378b9f955063baa2abde945060e480840194939192918390030190829087803b158015612a6057600080fd5b505af1158015612a74573d6000803e3d6000fd5b505050506040513d6040811015612a8a57600080fd5b50805160209091015190925090505b9250929050565b612aa861125a565b15612aed576040805162461bcd60e51b815260206004820152601060248201526f14185d5cd8589b194e881c185d5cd95960821b604482015290519081900360640190fd5b6005805460ff60a81b1916600160a81b1790557f62e78cea01bee320cd4e420270b5ea74000d11b0c9f74754ebdbfc544b05a25861292061249a565b336000908152600e602052604081206002810154612b4890859061363c565b935060008411612b97576040805162461bcd60e51b815260206004820152601560248201527473656e646572206e6f7420696e206d696e7465727360581b604482015290519081900360640190fd5b6000612bb2612ba4610d76565b600b546117e1908890612e4e565b9050612bbe3386613652565b600080612bcb838761293d565b915091506000612bf085600201546117e18a8860010154612e4e90919063ffffffff16565b90506000612c1386600201546117e18b8960000154612e4e90919063ffffffff16565b90506000612c238486858561374e565b6001890154909950909150612c3890846131b9565b60018801558654612c4990836131b9565b87556002870154612c5a908b6131b9565b6002880155600c54612c6c90846131b9565b600c55600d54612c7c90836131b9565b600d55600b54612c8c90876131b9565b600b5560408051828152602081018a9052808201889052606081018c90529051339182917f661f25a08ee5c15fc997f7288c9cd798e1905052f21d761925800799791f130b9181900360800190a35050505050505092915050565b604080516001600160a01b0380861660248301528416604482015260648082018490528251808303909101815260849091019091526020810180516001600160e01b03166323b872dd60e01b1790526127e890859061358b565b600080600080612d518686613216565b91955093509050612d60610d76565b612d6c57809150612d87565b612d84600b546117e1612d7d610d76565b8490612e4e565b91505b600c54612d949085612840565b600c55600d54612da49084612840565b600d55600b54612db49082612840565b600b55336000908152600e602052604090206001810154612dd59086612840565b60018201558054612de69085612840565b81556002810154612df79084612840565b6002820155612e0633846137d6565b60408051838152602081018590528151339283927f2f00e3cdd69a77be7ed215ec7b2a36784dd158f921fca79ac29deffa353fe6ee929081900390910190a350509250925092565b600082612e5d57506000610c17565b82820282848281612e6a57fe5b0414610e045760405162461bcd60e51b8152600401808060200182810382526021815260200180613d1c6021913960400191505060405180910390fd5b6000808211612efd576040805162461bcd60e51b815260206004820152601a60248201527f536166654d6174683a206469766973696f6e206279207a65726f000000000000604482015290519081900360640190fd5b818381612f0657fe5b049392505050565b80471015612f63576040805162461bcd60e51b815260206004820152601d60248201527f416464726573733a20696e73756666696369656e742062616c616e6365000000604482015290519081900360640190fd5b6040516000906001600160a01b0384169083908381818185875af1925050503d8060008114612fae576040519150601f19603f3d011682016040523d82523d6000602084013e612fb3565b606091505b50509050806122295760405162461bcd60e51b815260040180806020018281038252603a815260200180613cbc603a913960400191505060405180910390fd5b60008161300257506000611294565b600073d9e1ce17f2641f24ae83637ab66a2cca9c378b9f6001600160a01b03166338ed1739846000600a30426040518663ffffffff1660e01b81526004018086815260200185815260200180602001846001600160a01b0316815260200183815260200182810382528581815481526020019150805480156130ad57602002820191906000526020600020905b81546001600160a01b0316815260019091019060200180831161308f575b50509650505050505050600060405180830381600087803b1580156130d157600080fd5b505af11580156130e5573d6000803e3d6000fd5b505050506040513d6000823e601f3d908101601f19168201604052602081101561310e57600080fd5b810190808051604051939291908464010000000082111561312e57600080fd5b90830190602082018581111561314357600080fd5b825186602082028301116401000000008211171561316057600080fd5b82525081516020918201928201910280838360005b8381101561318d578181015183820152602001613175565b505050509050016040525050509050806001815181106131a957fe5b6020026020010151915050919050565b600082821115613210576040805162461bcd60e51b815260206004820152601e60248201527f536166654d6174683a207375627472616374696f6e206f766572666c6f770000604482015290519081900360640190fd5b50900390565b600080600084600080516020613c2e8339815191526001600160a01b03166370a08231306040518263ffffffff1660e01b815260040180826001600160a01b0316815260200191505060206040518083038186803b15801561327757600080fd5b505afa15801561328b573d6000803e3d6000fd5b505050506040513d60208110156132a157600080fd5b505110156132e8576040805162461bcd60e51b815260206004820152600f60248201526e0dcdee840cadcdeeaced040ae8aa89608b1b604482015290519081900360640190fd5b60006132f386612276565b604080516370a0823160e01b81523060048201529051919250829173a0b86991c6218b36c1d19d4a2e9eb0ce3606eb48916370a08231916024808301926020929190829003018186803b15801561334957600080fd5b505afa15801561335d573d6000803e3d6000fd5b505050506040513d602081101561337357600080fd5b505110156133c8576040805162461bcd60e51b815260206004820152601760248201527f6e6f7420656e6f7567682066726565206361706974616c000000000000000000604482015290519081900360640190fd5b6040805162e8e33760e81b8152600080516020613c2e833981519152600482015273a0b86991c6218b36c1d19d4a2e9eb0ce3606eb486024820152604481018890526064810183905260848101889052600060a482018190523060c483015260e48201889052915173d9e1ce17f2641f24ae83637ab66a2cca9c378b9f9263e8e337009261010480820193606093909283900390910190829087803b15801561347057600080fd5b505af1158015613484573d6000803e3d6000fd5b505050506040513d606081101561349a57600080fd5b50805160208201516040928301518351631c57762b60e31b81526001600482015260248101829052935191975091955090935073c2edad668740f1aa35e4d8f227fb8e17dca888cd9163e2bbb15891604480830192600092919082900301818387803b15801561350957600080fd5b505af115801561351d573d6000803e3d6000fd5b50505050509250925092565b6000613534826138c6565b801561355d57506001600160a01b03821673397ff1542f962076d0bfe58ea045ffa2d347aca014155b8015610c1757506001600160a01b038216736b3595068778dd592e39a122f4f5a5cf09c90fe2141592915050565b60006135e0826040518060400160405280602081526020017f5361666545524332303a206c6f772d6c6576656c2063616c6c206661696c6564815250856001600160a01b031661390e9092919063ffffffff16565b805190915015612229578080602001905160208110156135ff57600080fd5b50516122295760405162461bcd60e51b815260040180806020018281038252602a815260200180613def602a913960400191505060405180910390fd5b600081831061364b5781610e04565b5090919050565b6001600160a01b0382166136975760405162461bcd60e51b8152600401808060200182810382526021815260200180613d856021913960400191505060405180910390fd5b6136a382600083612229565b6136e081604051806060016040528060228152602001613c0c602291396001600160a01b03851660009081526020819052604090205491906126e5565b6001600160a01b03831660009081526020819052604090205560025461370690826131b9565b6002556040805182815290516000916001600160a01b038516917fddf252ad1be2c89b69c2b068fc378daa952ba7f163c4a11628f55a4df523b3ef9181900360200190a35050565b6000808386111561378557600061376587866131b9565b905061377a61377382613925565b8790612840565b9150849250506137cd565b600061379185886131b9565b905060006137a7876137a284611c94565b61363c565b90506137bc6137b582612ff3565b8990612840565b93506137c887826131b9565b925050505b94509492505050565b6001600160a01b038216613831576040805162461bcd60e51b815260206004820152601f60248201527f45524332303a206d696e7420746f20746865207a65726f206164647265737300604482015290519081900360640190fd5b61383d60008383612229565b60025461384a9082612840565b6002556001600160a01b0382166000908152602081905260409020546138709082612840565b6001600160a01b0383166000818152602081815260408083209490945583518581529351929391927fddf252ad1be2c89b69c2b068fc378daa952ba7f163c4a11628f55a4df523b3ef9281900390910190a35050565b60006001600160a01b038216600080516020613c2e83398151915214801590610c175750506001600160a01b031673a0b86991c6218b36c1d19d4a2e9eb0ce3606eb48141590565b606061391d8484600085613a01565b949350505050565b60008161393457506000611294565b600073d9e1ce17f2641f24ae83637ab66a2cca9c378b9f6001600160a01b03166338ed1739846000600930426040518663ffffffff1660e01b81526004018086815260200185815260200180602001846001600160a01b0316815260200183815260200182810382528581815481526020019150805480156130ad576020028201919060005260206000209081546001600160a01b0316815260019091019060200180831161308f5750509650505050505050600060405180830381600087803b1580156130d157600080fd5b606082471015613a425760405162461bcd60e51b8152600401808060200182810382526026815260200180613cf66026913960400191505060405180910390fd5b613a4b85613b5c565b613a9c576040805162461bcd60e51b815260206004820152601d60248201527f416464726573733a2063616c6c20746f206e6f6e2d636f6e7472616374000000604482015290519081900360640190fd5b600080866001600160a01b031685876040518082805190602001908083835b60208310613ada5780518252601f199092019160209182019101613abb565b6001836020036101000a03801982511681845116808217855250505050505090500191505060006040518083038185875af1925050503d8060008114613b3c576040519150601f19603f3d011682016040523d82523d6000602084013e613b41565b606091505b5091509150613b51828286613b62565b979650505050505050565b3b151590565b60608315613b71575081610e04565b825115613b815782518084602001fd5b60405162461bcd60e51b815260206004820181815284516024840152845185939192839260440191908501908083836000831561273957818101518382015260200161272156fe45524332303a207472616e7366657220746f20746865207a65726f20616464726573735265656e7472616e637947756172643a207265656e7472616e742063616c6c0045524332303a206275726e20616d6f756e7420657863656564732062616c616e6365000000000000000000000000c02aaa39b223fe8d0a0e5c4f27ead9083c756cc24f776e61626c653a206e6577206f776e657220697320746865207a65726f206164647265737345524332303a20617070726f766520746f20746865207a65726f206164647265737345524332303a207472616e7366657220616d6f756e7420657863656564732062616c616e6365416464726573733a20756e61626c6520746f2073656e642076616c75652c20726563697069656e74206d61792068617665207265766572746564416464726573733a20696e73756666696369656e742062616c616e636520666f722063616c6c536166654d6174683a206d756c7469706c69636174696f6e206f766572666c6f7745524332303a207472616e7366657220616d6f756e74206578636565647320616c6c6f77616e63654f776e61626c653a2063616c6c6572206973206e6f7420746865206f776e657245524332303a206275726e2066726f6d20746865207a65726f206164647265737345524332303a207472616e736665722066726f6d20746865207a65726f206164647265737345524332303a20617070726f76652066726f6d20746865207a65726f20616464726573735361666545524332303a204552433230206f7065726174696f6e20646964206e6f74207375636365656445524332303a2064656372656173656420616c6c6f77616e63652062656c6f77207a65726fa264697066735822122091da50ba0ba66c25728f35f88bb8856ab7e9d6fdb866110f4676aad9147ec1e164736f6c63430007060033",
  "linkReferences": {},
  "deployedLinkReferences": {}
}