{
  "_format": "hh-sol-artifact-1",
  "contractName": "LiquidityNexusBase",
  "sourceName": "contracts/base/LiquidityNexusBase.sol",
  "abi": [
    {
      "inputs": [],
      "stateMutability": "nonpayable",
      "type": "constructor"
    },
    {
      "anonymous": false,
      "inputs": [
        {
          "indexed": true,
          "internalType": "address",
          "name": "previousOwner",
          "type": "address"
        },
        {
          "indexed": true,
          "internalType": "address",
          "name": "newOwner",
          "type": "address"
        }
      ],
      "name": "OwnershipTransferred",
      "type": "event"
    },
    {
      "anonymous": false,
      "inputs": [
        {
          "indexed": false,
          "internalType": "address",
          "name": "account",
          "type": "address"
        }
      ],
      "name": "Paused",
      "type": "event"
    },
    {
      "anonymous": false,
      "inputs": [
        {
          "indexed": false,
          "internalType": "address",
          "name": "account",
          "type": "address"
        }
      ],
      "name": "Unpaused",
      "type": "event"
    },
    {
      "inputs": [],
      "name": "BASE_PERCENTMIL",
      "outputs": [
        {
          "internalType": "uint256",
          "name": "",
          "type": "uint256"
        }
      ],
      "stateMutability": "view",
      "type": "function"
    },
    {
      "inputs": [],
      "name": "USDC",
      "outputs": [
        {
          "internalType": "address",
          "name": "",
          "type": "address"
        }
      ],
      "stateMutability": "view",
      "type": "function"
    },
    {
      "inputs": [],
      "name": "WETH",
      "outputs": [
        {
          "internalType": "address",
          "name": "",
          "type": "address"
        }
      ],
      "stateMutability": "view",
      "type": "function"
    },
    {
      "inputs": [],
      "name": "depositAllCapital",
      "outputs": [],
      "stateMutability": "nonpayable",
      "type": "function"
    },
    {
      "inputs": [
        {
          "internalType": "uint256",
          "name": "amount",
          "type": "uint256"
        }
      ],
      "name": "depositCapital",
      "outputs": [],
      "stateMutability": "nonpayable",
      "type": "function"
    },
    {
      "inputs": [],
      "name": "governance",
      "outputs": [
        {
          "internalType": "address",
          "name": "",
          "type": "address"
        }
      ],
      "stateMutability": "view",
      "type": "function"
    },
    {
      "inputs": [],
      "name": "owner",
      "outputs": [
        {
          "internalType": "address",
          "name": "",
          "type": "address"
        }
      ],
      "stateMutability": "view",
      "type": "function"
    },
    {
      "inputs": [],
      "name": "ownerRewardsPercentmil",
      "outputs": [
        {
          "internalType": "uint256",
          "name": "",
          "type": "uint256"
        }
      ],
      "stateMutability": "view",
      "type": "function"
    },
    {
      "inputs": [],
      "name": "pause",
      "outputs": [],
      "stateMutability": "nonpayable",
      "type": "function"
    },
    {
      "inputs": [],
      "name": "paused",
      "outputs": [
        {
          "internalType": "bool",
          "name": "",
          "type": "bool"
        }
      ],
      "stateMutability": "view",
      "type": "function"
    },
    {
      "inputs": [],
      "name": "renounceOwnership",
      "outputs": [],
      "stateMutability": "nonpayable",
      "type": "function"
    },
    {
      "inputs": [
        {
          "internalType": "address[]",
          "name": "tokens_",
          "type": "address[]"
        }
      ],
      "name": "salvage",
      "outputs": [],
      "stateMutability": "nonpayable",
      "type": "function"
    },
    {
      "inputs": [
        {
          "internalType": "address",
          "name": "_governance",
          "type": "address"
        }
      ],
      "name": "setGovernance",
      "outputs": [],
      "stateMutability": "nonpayable",
      "type": "function"
    },
    {
      "inputs": [
        {
          "internalType": "uint256",
          "name": "_ownerRewardsPercentmil",
          "type": "uint256"
        }
      ],
      "name": "setOwnerRewardsPercentmil",
      "outputs": [],
      "stateMutability": "nonpayable",
      "type": "function"
    },
    {
      "inputs": [
        {
          "internalType": "address",
          "name": "newOwner",
          "type": "address"
        }
      ],
      "name": "transferOwnership",
      "outputs": [],
      "stateMutability": "nonpayable",
      "type": "function"
    },
    {
      "inputs": [],
      "name": "unpause",
      "outputs": [],
      "stateMutability": "nonpayable",
      "type": "function"
    },
    {
      "inputs": [],
      "name": "withdrawFreeCapital",
      "outputs": [],
      "stateMutability": "nonpayable",
      "type": "function"
    },
    {
      "stateMutability": "payable",
      "type": "receive"
    }
  ],
  "bytecode": "0x608060405234801561001057600080fd5b50600061001b61008d565b600080546001600160a01b0319166001600160a01b0383169081178255604051929350917f8be0079c531659141344cd1fd0a4f28419497f9722a3daafe3b4186f6b6457e0908290a3506000805460ff60a01b1916905560018055600280546001600160a01b03191633179055610091565b3390565b611185806100a06000396000f3fe6080604052600436106101025760003560e01c80638456cb59116100955780639e11ef44116100645780639e11ef4414610263578063ab033ea91461028d578063ad5c4648146102c0578063d85d515e146102d5578063f2fde38b1461038557610109565b80638456cb591461020f57806389a30271146102245780638da5cb5b14610239578063900d10991461024e57610109565b806354115590116100d157806354115590146101765780635aa6e675146101a05780635c975abb146101d1578063715018a6146101fa57610109565b8063131331b11461010e5780631876123214610135578063386fed691461014a5780633f4ba83a1461016157610109565b3661010957005b600080fd5b34801561011a57600080fd5b506101236103b8565b60408051918252519081900360200190f35b34801561014157600080fd5b506101236103be565b34801561015657600080fd5b5061015f6103c5565b005b34801561016d57600080fd5b5061015f6104b0565b34801561018257600080fd5b5061015f6004803603602081101561019957600080fd5b503561051a565b3480156101ac57600080fd5b506101b5610570565b604080516001600160a01b039092168252519081900360200190f35b3480156101dd57600080fd5b506101e661057f565b604080519115158252519081900360200190f35b34801561020657600080fd5b5061015f61058f565b34801561021b57600080fd5b5061015f61063b565b34801561023057600080fd5b506101b56106a5565b34801561024557600080fd5b506101b56106bd565b34801561025a57600080fd5b5061015f6106cc565b34801561026f57600080fd5b5061015f6004803603602081101561028657600080fd5b50356107d9565b34801561029957600080fd5b5061015f600480360360208110156102b057600080fd5b50356001600160a01b0316610861565b3480156102cc57600080fd5b506101b5610921565b3480156102e157600080fd5b5061015f600480360360208110156102f857600080fd5b81019060208101813564010000000081111561031357600080fd5b82018360208201111561032557600080fd5b8035906020019184602083028401116401000000008311171561034757600080fd5b919080806020026020016040519081016040528093929190818152602001838360200280828437600092019190915250929550610939945050505050565b34801561039157600080fd5b5061015f600480360360208110156103a857600080fd5b50356001600160a01b0316610aaf565b60035481565b620186a081565b6103cd610bb1565b6001600160a01b03166103de6106bd565b6001600160a01b031614610427576040805162461bcd60e51b81526020600482018190526024820152600080516020611106833981519152604482015290519081900360640190fd5b604080516370a0823160e01b815233600482015290516104ae9173a0b86991c6218b36c1d19d4a2e9eb0ce3606eb48916370a0823191602480820192602092909190829003018186803b15801561047d57600080fd5b505afa158015610491573d6000803e3d6000fd5b505050506040513d60208110156104a757600080fd5b50516107d9565b565b6104b8610bb1565b6001600160a01b03166104c96106bd565b6001600160a01b031614610512576040805162461bcd60e51b81526020600482018190526024820152600080516020611106833981519152604482015290519081900360640190fd5b6104ae610bb5565b6002546001600160a01b0316331461056b576040805162461bcd60e51b815260206004820152600f60248201526e6f6e6c7920676f7665726e616e636560881b604482015290519081900360640190fd5b600355565b6002546001600160a01b031681565b600054600160a01b900460ff1690565b610597610bb1565b6001600160a01b03166105a86106bd565b6001600160a01b0316146105f1576040805162461bcd60e51b81526020600482018190526024820152600080516020611106833981519152604482015290519081900360640190fd5b600080546040516001600160a01b03909116907f8be0079c531659141344cd1fd0a4f28419497f9722a3daafe3b4186f6b6457e0908390a3600080546001600160a01b0319169055565b610643610bb1565b6001600160a01b03166106546106bd565b6001600160a01b03161461069d576040805162461bcd60e51b81526020600482018190526024820152600080516020611106833981519152604482015290519081900360640190fd5b6104ae610c58565b73a0b86991c6218b36c1d19d4a2e9eb0ce3606eb4881565b6000546001600160a01b031690565b6106d4610bb1565b6001600160a01b03166106e56106bd565b6001600160a01b03161461072e576040805162461bcd60e51b81526020600482018190526024820152600080516020611106833981519152604482015290519081900360640190fd5b604080516370a0823160e01b8152306004820152905160009173a0b86991c6218b36c1d19d4a2e9eb0ce3606eb48916370a0823191602480820192602092909190829003018186803b15801561078357600080fd5b505afa158015610797573d6000803e3d6000fd5b505050506040513d60208110156107ad57600080fd5b5051905080156107d6576107d673a0b86991c6218b36c1d19d4a2e9eb0ce3606eb483383610ce1565b50565b6107e1610bb1565b6001600160a01b03166107f26106bd565b6001600160a01b03161461083b576040805162461bcd60e51b81526020600482018190526024820152600080516020611106833981519152604482015290519081900360640190fd5b80156107d6576107d673a0b86991c6218b36c1d19d4a2e9eb0ce3606eb48333084610d38565b6002546001600160a01b031633146108b2576040805162461bcd60e51b815260206004820152600f60248201526e6f6e6c7920676f7665726e616e636560881b604482015290519081900360640190fd5b6001600160a01b0381166108ff576040805162461bcd60e51b815260206004820152600f60248201526e6e756c6c20676f7665726e616e636560881b604482015290519081900360640190fd5b600280546001600160a01b0319166001600160a01b0392909216919091179055565b73c02aaa39b223fe8d0a0e5c4f27ead9083c756cc281565b610941610bb1565b6001600160a01b03166109526106bd565b6001600160a01b03161461099b576040805162461bcd60e51b81526020600482018190526024820152600080516020611106833981519152604482015290519081900360640190fd5b60005b8151811015610aab5760008282815181106109b557fe5b602002602001015190506109c881610d98565b610a0a576040805162461bcd60e51b815260206004820152600e60248201526d6e6f742073616c76616761626c6560901b604482015290519081900360640190fd5b6000816001600160a01b03166370a08231306040518263ffffffff1660e01b815260040180826001600160a01b0316815260200191505060206040518083038186803b158015610a5957600080fd5b505afa158015610a6d573d6000803e3d6000fd5b505050506040513d6020811015610a8357600080fd5b505190508015610aa157610aa16001600160a01b0383163383610ce1565b505060010161099e565b5050565b610ab7610bb1565b6001600160a01b0316610ac86106bd565b6001600160a01b031614610b11576040805162461bcd60e51b81526020600482018190526024820152600080516020611106833981519152604482015290519081900360640190fd5b6001600160a01b038116610b565760405162461bcd60e51b81526004018080602001828103825260268152602001806110ba6026913960400191505060405180910390fd5b600080546040516001600160a01b03808516939216917f8be0079c531659141344cd1fd0a4f28419497f9722a3daafe3b4186f6b6457e091a3600080546001600160a01b0319166001600160a01b0392909216919091179055565b3390565b610bbd61057f565b610c05576040805162461bcd60e51b815260206004820152601460248201527314185d5cd8589b194e881b9bdd081c185d5cd95960621b604482015290519081900360640190fd5b6000805460ff60a01b191690557f5db9ee0a495bf2e6ff9c91a7834c1ba4fdd244a5e8aa4e537bd38aeae4b073aa610c3b610bb1565b604080516001600160a01b039092168252519081900360200190a1565b610c6061057f565b15610ca5576040805162461bcd60e51b815260206004820152601060248201526f14185d5cd8589b194e881c185d5cd95960821b604482015290519081900360640190fd5b6000805460ff60a01b1916600160a01b1790557f62e78cea01bee320cd4e420270b5ea74000d11b0c9f74754ebdbfc544b05a258610c3b610bb1565b604080516001600160a01b038416602482015260448082018490528251808303909101815260649091019091526020810180516001600160e01b031663a9059cbb60e01b179052610d33908490610dea565b505050565b604080516001600160a01b0380861660248301528416604482015260648082018490528251808303909101815260849091019091526020810180516001600160e01b03166323b872dd60e01b179052610d92908590610dea565b50505050565b60006001600160a01b03821673c02aaa39b223fe8d0a0e5c4f27ead9083c756cc214801590610de457506001600160a01b03821673a0b86991c6218b36c1d19d4a2e9eb0ce3606eb4814155b92915050565b6000610e3f826040518060400160405280602081526020017f5361666545524332303a206c6f772d6c6576656c2063616c6c206661696c6564815250856001600160a01b0316610e9b9092919063ffffffff16565b805190915015610d3357808060200190516020811015610e5e57600080fd5b5051610d335760405162461bcd60e51b815260040180806020018281038252602a815260200180611126602a913960400191505060405180910390fd5b6060610eaa8484600085610eb4565b90505b9392505050565b606082471015610ef55760405162461bcd60e51b81526004018080602001828103825260268152602001806110e06026913960400191505060405180910390fd5b610efe8561100f565b610f4f576040805162461bcd60e51b815260206004820152601d60248201527f416464726573733a2063616c6c20746f206e6f6e2d636f6e7472616374000000604482015290519081900360640190fd5b600080866001600160a01b031685876040518082805190602001908083835b60208310610f8d5780518252601f199092019160209182019101610f6e565b6001836020036101000a03801982511681845116808217855250505050505090500191505060006040518083038185875af1925050503d8060008114610fef576040519150601f19603f3d011682016040523d82523d6000602084013e610ff4565b606091505b5091509150611004828286611015565b979650505050505050565b3b151590565b60608315611024575081610ead565b8251156110345782518084602001fd5b8160405162461bcd60e51b81526004018080602001828103825283818151815260200191508051906020019080838360005b8381101561107e578181015183820152602001611066565b50505050905090810190601f1680156110ab5780820380516001836020036101000a031916815260200191505b509250505060405180910390fdfe4f776e61626c653a206e6577206f776e657220697320746865207a65726f2061646472657373416464726573733a20696e73756666696369656e742062616c616e636520666f722063616c6c4f776e61626c653a2063616c6c6572206973206e6f7420746865206f776e65725361666545524332303a204552433230206f7065726174696f6e20646964206e6f742073756363656564a264697066735822122032c7deb1e15ea5b0ca67cdfcac2d3bb836117a5b960f99b9deaef31dc766745a64736f6c63430007060033",
  "linkReferences": {},
  "deployedLinkReferences": {}
}