{
  "_format": "hh-sol-artifact-1",
  "contractName": "LiquidityNexusBase",
  "sourceName": "contracts/base/LiquidityNexusBase.sol",
  "abi": [
    {
      "inputs": [],
      "stateMutability": "nonpayable",
      "type": "constructor"
    },
    {
      "anonymous": false,
      "inputs": [
        {
          "indexed": true,
          "internalType": "address",
          "name": "previousOwner",
          "type": "address"
        },
        {
          "indexed": true,
          "internalType": "address",
          "name": "newOwner",
          "type": "address"
        }
      ],
      "name": "OwnershipTransferred",
      "type": "event"
    },
    {
      "anonymous": false,
      "inputs": [
        {
          "indexed": false,
          "internalType": "address",
          "name": "account",
          "type": "address"
        }
      ],
      "name": "Paused",
      "type": "event"
    },
    {
      "anonymous": false,
      "inputs": [
        {
          "indexed": false,
          "internalType": "address",
          "name": "account",
          "type": "address"
        }
      ],
      "name": "Unpaused",
      "type": "event"
    },
    {
      "inputs": [],
      "name": "USDC",
      "outputs": [
        {
          "internalType": "address",
          "name": "",
          "type": "address"
        }
      ],
      "stateMutability": "view",
      "type": "function"
    },
    {
      "inputs": [],
      "name": "WETH",
      "outputs": [
        {
          "internalType": "address",
          "name": "",
          "type": "address"
        }
      ],
      "stateMutability": "view",
      "type": "function"
    },
    {
      "inputs": [],
      "name": "depositAllCapital",
      "outputs": [],
      "stateMutability": "nonpayable",
      "type": "function"
    },
    {
      "inputs": [
        {
          "internalType": "uint256",
          "name": "amount",
          "type": "uint256"
        }
      ],
      "name": "depositCapital",
      "outputs": [],
      "stateMutability": "nonpayable",
      "type": "function"
    },
    {
      "inputs": [],
      "name": "governance",
      "outputs": [
        {
          "internalType": "address",
          "name": "",
          "type": "address"
        }
      ],
      "stateMutability": "view",
      "type": "function"
    },
    {
      "inputs": [],
      "name": "owner",
      "outputs": [
        {
          "internalType": "address",
          "name": "",
          "type": "address"
        }
      ],
      "stateMutability": "view",
      "type": "function"
    },
    {
      "inputs": [],
      "name": "pause",
      "outputs": [],
      "stateMutability": "nonpayable",
      "type": "function"
    },
    {
      "inputs": [],
      "name": "paused",
      "outputs": [
        {
          "internalType": "bool",
          "name": "",
          "type": "bool"
        }
      ],
      "stateMutability": "view",
      "type": "function"
    },
    {
      "inputs": [],
      "name": "renounceOwnership",
      "outputs": [],
      "stateMutability": "nonpayable",
      "type": "function"
    },
    {
      "inputs": [
        {
          "internalType": "address[]",
          "name": "tokens_",
          "type": "address[]"
        }
      ],
      "name": "salvage",
      "outputs": [],
      "stateMutability": "nonpayable",
      "type": "function"
    },
    {
      "inputs": [
        {
          "internalType": "address",
          "name": "newOwner",
          "type": "address"
        }
      ],
      "name": "transferOwnership",
      "outputs": [],
      "stateMutability": "nonpayable",
      "type": "function"
    },
    {
      "inputs": [],
      "name": "unpause",
      "outputs": [],
      "stateMutability": "nonpayable",
      "type": "function"
    },
    {
      "inputs": [],
      "name": "withdrawFreeCapital",
      "outputs": [],
      "stateMutability": "nonpayable",
      "type": "function"
    },
    {
      "stateMutability": "payable",
      "type": "receive"
    }
  ],
  "bytecode": "0x608060405234801561001057600080fd5b50600061001b61008d565b600080546001600160a01b0319166001600160a01b0383169081178255604051929350917f8be0079c531659141344cd1fd0a4f28419497f9722a3daafe3b4186f6b6457e0908290a3506000805460ff60a01b1916905560018055600280546001600160a01b03191633179055610091565b3390565b610f46806100a06000396000f3fe6080604052600436106100c65760003560e01c806389a302711161007f5780639e11ef44116100595780639e11ef44146101c1578063ad5c4648146101eb578063d85d515e14610200578063f2fde38b146102b0576100cd565b806389a30271146101825780638da5cb5b14610197578063900d1099146101ac576100cd565b8063386fed69146100d25780633f4ba83a146100e95780635aa6e675146100fe5780635c975abb1461012f578063715018a6146101585780638456cb591461016d576100cd565b366100cd57005b600080fd5b3480156100de57600080fd5b506100e76102e3565b005b3480156100f557600080fd5b506100e76103ce565b34801561010a57600080fd5b50610113610438565b604080516001600160a01b039092168252519081900360200190f35b34801561013b57600080fd5b50610144610447565b604080519115158252519081900360200190f35b34801561016457600080fd5b506100e7610457565b34801561017957600080fd5b506100e7610503565b34801561018e57600080fd5b5061011361056d565b3480156101a357600080fd5b50610113610585565b3480156101b857600080fd5b506100e7610594565b3480156101cd57600080fd5b506100e7600480360360208110156101e457600080fd5b50356106a1565b3480156101f757600080fd5b50610113610729565b34801561020c57600080fd5b506100e76004803603602081101561022357600080fd5b81019060208101813564010000000081111561023e57600080fd5b82018360208201111561025057600080fd5b8035906020019184602083028401116401000000008311171561027257600080fd5b919080806020026020016040519081016040528093929190818152602001838360200280828437600092019190915250929550610741945050505050565b3480156102bc57600080fd5b506100e7600480360360208110156102d357600080fd5b50356001600160a01b03166108c7565b6102eb6109c9565b6001600160a01b03166102fc610585565b6001600160a01b031614610345576040805162461bcd60e51b81526020600482018190526024820152600080516020610ec7833981519152604482015290519081900360640190fd5b604080516370a0823160e01b815233600482015290516103cc9173a0b86991c6218b36c1d19d4a2e9eb0ce3606eb48916370a0823191602480820192602092909190829003018186803b15801561039b57600080fd5b505afa1580156103af573d6000803e3d6000fd5b505050506040513d60208110156103c557600080fd5b50516106a1565b565b6103d66109c9565b6001600160a01b03166103e7610585565b6001600160a01b031614610430576040805162461bcd60e51b81526020600482018190526024820152600080516020610ec7833981519152604482015290519081900360640190fd5b6103cc6109cd565b6002546001600160a01b031681565b600054600160a01b900460ff1690565b61045f6109c9565b6001600160a01b0316610470610585565b6001600160a01b0316146104b9576040805162461bcd60e51b81526020600482018190526024820152600080516020610ec7833981519152604482015290519081900360640190fd5b600080546040516001600160a01b03909116907f8be0079c531659141344cd1fd0a4f28419497f9722a3daafe3b4186f6b6457e0908390a3600080546001600160a01b0319169055565b61050b6109c9565b6001600160a01b031661051c610585565b6001600160a01b031614610565576040805162461bcd60e51b81526020600482018190526024820152600080516020610ec7833981519152604482015290519081900360640190fd5b6103cc610a70565b73a0b86991c6218b36c1d19d4a2e9eb0ce3606eb4881565b6000546001600160a01b031690565b61059c6109c9565b6001600160a01b03166105ad610585565b6001600160a01b0316146105f6576040805162461bcd60e51b81526020600482018190526024820152600080516020610ec7833981519152604482015290519081900360640190fd5b604080516370a0823160e01b8152306004820152905160009173a0b86991c6218b36c1d19d4a2e9eb0ce3606eb48916370a0823191602480820192602092909190829003018186803b15801561064b57600080fd5b505afa15801561065f573d6000803e3d6000fd5b505050506040513d602081101561067557600080fd5b50519050801561069e5761069e73a0b86991c6218b36c1d19d4a2e9eb0ce3606eb483383610af9565b50565b6106a96109c9565b6001600160a01b03166106ba610585565b6001600160a01b031614610703576040805162461bcd60e51b81526020600482018190526024820152600080516020610ec7833981519152604482015290519081900360640190fd5b801561069e5761069e73a0b86991c6218b36c1d19d4a2e9eb0ce3606eb48333084610b4b565b73c02aaa39b223fe8d0a0e5c4f27ead9083c756cc281565b6107496109c9565b6001600160a01b031661075a610585565b6001600160a01b0316146107a3576040805162461bcd60e51b81526020600482018190526024820152600080516020610ec7833981519152604482015290519081900360640190fd5b805160005b818110156108c25760008382815181106107be57fe5b6020026020010151905073c02aaa39b223fe8d0a0e5c4f27ead9083c756cc26001600160a01b0316816001600160a01b03161415801561081b57506001600160a01b03811673a0b86991c6218b36c1d19d4a2e9eb0ce3606eb4814155b156108b9576000816001600160a01b03166370a08231306040518263ffffffff1660e01b815260040180826001600160a01b0316815260200191505060206040518083038186803b15801561086f57600080fd5b505afa158015610883573d6000803e3d6000fd5b505050506040513d602081101561089957600080fd5b5051905080156108b7576108b76001600160a01b0383163383610af9565b505b506001016107a8565b505050565b6108cf6109c9565b6001600160a01b03166108e0610585565b6001600160a01b031614610929576040805162461bcd60e51b81526020600482018190526024820152600080516020610ec7833981519152604482015290519081900360640190fd5b6001600160a01b03811661096e5760405162461bcd60e51b8152600401808060200182810382526026815260200180610e7b6026913960400191505060405180910390fd5b600080546040516001600160a01b03808516939216917f8be0079c531659141344cd1fd0a4f28419497f9722a3daafe3b4186f6b6457e091a3600080546001600160a01b0319166001600160a01b0392909216919091179055565b3390565b6109d5610447565b610a1d576040805162461bcd60e51b815260206004820152601460248201527314185d5cd8589b194e881b9bdd081c185d5cd95960621b604482015290519081900360640190fd5b6000805460ff60a01b191690557f5db9ee0a495bf2e6ff9c91a7834c1ba4fdd244a5e8aa4e537bd38aeae4b073aa610a536109c9565b604080516001600160a01b039092168252519081900360200190a1565b610a78610447565b15610abd576040805162461bcd60e51b815260206004820152601060248201526f14185d5cd8589b194e881c185d5cd95960821b604482015290519081900360640190fd5b6000805460ff60a01b1916600160a01b1790557f62e78cea01bee320cd4e420270b5ea74000d11b0c9f74754ebdbfc544b05a258610a536109c9565b604080516001600160a01b038416602482015260448082018490528251808303909101815260649091019091526020810180516001600160e01b031663a9059cbb60e01b1790526108c2908490610bab565b604080516001600160a01b0380861660248301528416604482015260648082018490528251808303909101815260849091019091526020810180516001600160e01b03166323b872dd60e01b179052610ba5908590610bab565b50505050565b6000610c00826040518060400160405280602081526020017f5361666545524332303a206c6f772d6c6576656c2063616c6c206661696c6564815250856001600160a01b0316610c5c9092919063ffffffff16565b8051909150156108c257808060200190516020811015610c1f57600080fd5b50516108c25760405162461bcd60e51b815260040180806020018281038252602a815260200180610ee7602a913960400191505060405180910390fd5b6060610c6b8484600085610c75565b90505b9392505050565b606082471015610cb65760405162461bcd60e51b8152600401808060200182810382526026815260200180610ea16026913960400191505060405180910390fd5b610cbf85610dd0565b610d10576040805162461bcd60e51b815260206004820152601d60248201527f416464726573733a2063616c6c20746f206e6f6e2d636f6e7472616374000000604482015290519081900360640190fd5b600080866001600160a01b031685876040518082805190602001908083835b60208310610d4e5780518252601f199092019160209182019101610d2f565b6001836020036101000a03801982511681845116808217855250505050505090500191505060006040518083038185875af1925050503d8060008114610db0576040519150601f19603f3d011682016040523d82523d6000602084013e610db5565b606091505b5091509150610dc5828286610dd6565b979650505050505050565b3b151590565b60608315610de5575081610c6e565b825115610df55782518084602001fd5b8160405162461bcd60e51b81526004018080602001828103825283818151815260200191508051906020019080838360005b83811015610e3f578181015183820152602001610e27565b50505050905090810190601f168015610e6c5780820380516001836020036101000a031916815260200191505b509250505060405180910390fdfe4f776e61626c653a206e6577206f776e657220697320746865207a65726f2061646472657373416464726573733a20696e73756666696369656e742062616c616e636520666f722063616c6c4f776e61626c653a2063616c6c6572206973206e6f7420746865206f776e65725361666545524332303a204552433230206f7065726174696f6e20646964206e6f742073756363656564a26469706673582212206fafe1aa2e60b42b884513379a3f3dc1836d618c661b44145181cb5ec60ed24364736f6c63430007060033",
  "linkReferences": {},
  "deployedLinkReferences": {}
}