{
  "_format": "hh-sol-artifact-1",
  "contractName": "LiquidityNexusBase",
  "sourceName": "contracts/base/LiquidityNexusBase.sol",
  "abi": [
    {
      "inputs": [],
      "stateMutability": "nonpayable",
      "type": "constructor"
    },
    {
      "anonymous": false,
      "inputs": [
        {
          "indexed": true,
          "internalType": "address",
          "name": "previousOwner",
          "type": "address"
        },
        {
          "indexed": true,
          "internalType": "address",
          "name": "newOwner",
          "type": "address"
        }
      ],
      "name": "OwnershipTransferred",
      "type": "event"
    },
    {
      "anonymous": false,
      "inputs": [
        {
          "indexed": false,
          "internalType": "address",
          "name": "account",
          "type": "address"
        }
      ],
      "name": "Paused",
      "type": "event"
    },
    {
      "anonymous": false,
      "inputs": [
        {
          "indexed": false,
          "internalType": "address",
          "name": "account",
          "type": "address"
        }
      ],
      "name": "Unpaused",
      "type": "event"
    },
    {
      "inputs": [],
      "name": "USDC",
      "outputs": [
        {
          "internalType": "address",
          "name": "",
          "type": "address"
        }
      ],
      "stateMutability": "view",
      "type": "function"
    },
    {
      "inputs": [],
      "name": "WETH",
      "outputs": [
        {
          "internalType": "address",
          "name": "",
          "type": "address"
        }
      ],
      "stateMutability": "view",
      "type": "function"
    },
    {
      "inputs": [],
      "name": "depositAllCapital",
      "outputs": [],
      "stateMutability": "nonpayable",
      "type": "function"
    },
    {
      "inputs": [
        {
          "internalType": "uint256",
          "name": "amount",
          "type": "uint256"
        }
      ],
      "name": "depositCapital",
      "outputs": [],
      "stateMutability": "nonpayable",
      "type": "function"
    },
    {
      "inputs": [],
      "name": "governance",
      "outputs": [
        {
          "internalType": "address",
          "name": "",
          "type": "address"
        }
      ],
      "stateMutability": "view",
      "type": "function"
    },
    {
      "inputs": [],
      "name": "owner",
      "outputs": [
        {
          "internalType": "address",
          "name": "",
          "type": "address"
        }
      ],
      "stateMutability": "view",
      "type": "function"
    },
    {
      "inputs": [],
      "name": "pause",
      "outputs": [],
      "stateMutability": "nonpayable",
      "type": "function"
    },
    {
      "inputs": [],
      "name": "paused",
      "outputs": [
        {
          "internalType": "bool",
          "name": "",
          "type": "bool"
        }
      ],
      "stateMutability": "view",
      "type": "function"
    },
    {
      "inputs": [],
      "name": "renounceOwnership",
      "outputs": [],
      "stateMutability": "nonpayable",
      "type": "function"
    },
    {
      "inputs": [
        {
          "internalType": "address[]",
          "name": "tokens_",
          "type": "address[]"
        }
      ],
      "name": "salvage",
      "outputs": [],
      "stateMutability": "nonpayable",
      "type": "function"
    },
    {
      "inputs": [
        {
          "internalType": "address",
          "name": "_governance",
          "type": "address"
        }
      ],
      "name": "setGovernance",
      "outputs": [],
      "stateMutability": "nonpayable",
      "type": "function"
    },
    {
      "inputs": [
        {
          "internalType": "address",
          "name": "newOwner",
          "type": "address"
        }
      ],
      "name": "transferOwnership",
      "outputs": [],
      "stateMutability": "nonpayable",
      "type": "function"
    },
    {
      "inputs": [],
      "name": "unpause",
      "outputs": [],
      "stateMutability": "nonpayable",
      "type": "function"
    },
    {
      "inputs": [],
      "name": "withdrawFreeCapital",
      "outputs": [],
      "stateMutability": "nonpayable",
      "type": "function"
    },
    {
      "stateMutability": "payable",
      "type": "receive"
    }
  ],
  "bytecode": "0x608060405234801561001057600080fd5b50600061001b61008d565b600080546001600160a01b0319166001600160a01b0383169081178255604051929350917f8be0079c531659141344cd1fd0a4f28419497f9722a3daafe3b4186f6b6457e0908290a3506000805460ff60a01b1916905560018055600280546001600160a01b03191633179055610091565b3390565b611054806100a06000396000f3fe6080604052600436106100e15760003560e01c80638da5cb5b1161007f578063ab033ea911610059578063ab033ea914610206578063ad5c464814610239578063d85d515e1461024e578063f2fde38b146102fe576100e8565b80638da5cb5b146101b2578063900d1099146101c75780639e11ef44146101dc576100e8565b80635c975abb116100bb5780635c975abb1461014a578063715018a6146101735780638456cb591461018857806389a302711461019d576100e8565b8063386fed69146100ed5780633f4ba83a146101045780635aa6e67514610119576100e8565b366100e857005b600080fd5b3480156100f957600080fd5b50610102610331565b005b34801561011057600080fd5b5061010261041c565b34801561012557600080fd5b5061012e610486565b604080516001600160a01b039092168252519081900360200190f35b34801561015657600080fd5b5061015f610495565b604080519115158252519081900360200190f35b34801561017f57600080fd5b506101026104a5565b34801561019457600080fd5b50610102610551565b3480156101a957600080fd5b5061012e6105bb565b3480156101be57600080fd5b5061012e6105d3565b3480156101d357600080fd5b506101026105e2565b3480156101e857600080fd5b50610102600480360360208110156101ff57600080fd5b50356106ef565b34801561021257600080fd5b506101026004803603602081101561022957600080fd5b50356001600160a01b0316610777565b34801561024557600080fd5b5061012e610837565b34801561025a57600080fd5b506101026004803603602081101561027157600080fd5b81019060208101813564010000000081111561028c57600080fd5b82018360208201111561029e57600080fd5b803590602001918460208302840111640100000000831117156102c057600080fd5b91908080602002602001604051908101604052809392919081815260200183836020028082843760009201919091525092955061084f945050505050565b34801561030a57600080fd5b506101026004803603602081101561032157600080fd5b50356001600160a01b03166109d5565b610339610ad7565b6001600160a01b031661034a6105d3565b6001600160a01b031614610393576040805162461bcd60e51b81526020600482018190526024820152600080516020610fd5833981519152604482015290519081900360640190fd5b604080516370a0823160e01b8152336004820152905161041a9173a0b86991c6218b36c1d19d4a2e9eb0ce3606eb48916370a0823191602480820192602092909190829003018186803b1580156103e957600080fd5b505afa1580156103fd573d6000803e3d6000fd5b505050506040513d602081101561041357600080fd5b50516106ef565b565b610424610ad7565b6001600160a01b03166104356105d3565b6001600160a01b03161461047e576040805162461bcd60e51b81526020600482018190526024820152600080516020610fd5833981519152604482015290519081900360640190fd5b61041a610adb565b6002546001600160a01b031681565b600054600160a01b900460ff1690565b6104ad610ad7565b6001600160a01b03166104be6105d3565b6001600160a01b031614610507576040805162461bcd60e51b81526020600482018190526024820152600080516020610fd5833981519152604482015290519081900360640190fd5b600080546040516001600160a01b03909116907f8be0079c531659141344cd1fd0a4f28419497f9722a3daafe3b4186f6b6457e0908390a3600080546001600160a01b0319169055565b610559610ad7565b6001600160a01b031661056a6105d3565b6001600160a01b0316146105b3576040805162461bcd60e51b81526020600482018190526024820152600080516020610fd5833981519152604482015290519081900360640190fd5b61041a610b7e565b73a0b86991c6218b36c1d19d4a2e9eb0ce3606eb4881565b6000546001600160a01b031690565b6105ea610ad7565b6001600160a01b03166105fb6105d3565b6001600160a01b031614610644576040805162461bcd60e51b81526020600482018190526024820152600080516020610fd5833981519152604482015290519081900360640190fd5b604080516370a0823160e01b8152306004820152905160009173a0b86991c6218b36c1d19d4a2e9eb0ce3606eb48916370a0823191602480820192602092909190829003018186803b15801561069957600080fd5b505afa1580156106ad573d6000803e3d6000fd5b505050506040513d60208110156106c357600080fd5b5051905080156106ec576106ec73a0b86991c6218b36c1d19d4a2e9eb0ce3606eb483383610c07565b50565b6106f7610ad7565b6001600160a01b03166107086105d3565b6001600160a01b031614610751576040805162461bcd60e51b81526020600482018190526024820152600080516020610fd5833981519152604482015290519081900360640190fd5b80156106ec576106ec73a0b86991c6218b36c1d19d4a2e9eb0ce3606eb48333084610c59565b6002546001600160a01b031633146107c8576040805162461bcd60e51b815260206004820152600f60248201526e6f6e6c7920676f7665726e616e636560881b604482015290519081900360640190fd5b6001600160a01b038116610815576040805162461bcd60e51b815260206004820152600f60248201526e6e756c6c20676f7665726e616e636560881b604482015290519081900360640190fd5b600280546001600160a01b0319166001600160a01b0392909216919091179055565b73c02aaa39b223fe8d0a0e5c4f27ead9083c756cc281565b610857610ad7565b6001600160a01b03166108686105d3565b6001600160a01b0316146108b1576040805162461bcd60e51b81526020600482018190526024820152600080516020610fd5833981519152604482015290519081900360640190fd5b805160005b818110156109d05760008382815181106108cc57fe5b6020026020010151905073c02aaa39b223fe8d0a0e5c4f27ead9083c756cc26001600160a01b0316816001600160a01b03161415801561092957506001600160a01b03811673a0b86991c6218b36c1d19d4a2e9eb0ce3606eb4814155b156109c7576000816001600160a01b03166370a08231306040518263ffffffff1660e01b815260040180826001600160a01b0316815260200191505060206040518083038186803b15801561097d57600080fd5b505afa158015610991573d6000803e3d6000fd5b505050506040513d60208110156109a757600080fd5b5051905080156109c5576109c56001600160a01b0383163383610c07565b505b506001016108b6565b505050565b6109dd610ad7565b6001600160a01b03166109ee6105d3565b6001600160a01b031614610a37576040805162461bcd60e51b81526020600482018190526024820152600080516020610fd5833981519152604482015290519081900360640190fd5b6001600160a01b038116610a7c5760405162461bcd60e51b8152600401808060200182810382526026815260200180610f896026913960400191505060405180910390fd5b600080546040516001600160a01b03808516939216917f8be0079c531659141344cd1fd0a4f28419497f9722a3daafe3b4186f6b6457e091a3600080546001600160a01b0319166001600160a01b0392909216919091179055565b3390565b610ae3610495565b610b2b576040805162461bcd60e51b815260206004820152601460248201527314185d5cd8589b194e881b9bdd081c185d5cd95960621b604482015290519081900360640190fd5b6000805460ff60a01b191690557f5db9ee0a495bf2e6ff9c91a7834c1ba4fdd244a5e8aa4e537bd38aeae4b073aa610b61610ad7565b604080516001600160a01b039092168252519081900360200190a1565b610b86610495565b15610bcb576040805162461bcd60e51b815260206004820152601060248201526f14185d5cd8589b194e881c185d5cd95960821b604482015290519081900360640190fd5b6000805460ff60a01b1916600160a01b1790557f62e78cea01bee320cd4e420270b5ea74000d11b0c9f74754ebdbfc544b05a258610b61610ad7565b604080516001600160a01b038416602482015260448082018490528251808303909101815260649091019091526020810180516001600160e01b031663a9059cbb60e01b1790526109d0908490610cb9565b604080516001600160a01b0380861660248301528416604482015260648082018490528251808303909101815260849091019091526020810180516001600160e01b03166323b872dd60e01b179052610cb3908590610cb9565b50505050565b6000610d0e826040518060400160405280602081526020017f5361666545524332303a206c6f772d6c6576656c2063616c6c206661696c6564815250856001600160a01b0316610d6a9092919063ffffffff16565b8051909150156109d057808060200190516020811015610d2d57600080fd5b50516109d05760405162461bcd60e51b815260040180806020018281038252602a815260200180610ff5602a913960400191505060405180910390fd5b6060610d798484600085610d83565b90505b9392505050565b606082471015610dc45760405162461bcd60e51b8152600401808060200182810382526026815260200180610faf6026913960400191505060405180910390fd5b610dcd85610ede565b610e1e576040805162461bcd60e51b815260206004820152601d60248201527f416464726573733a2063616c6c20746f206e6f6e2d636f6e7472616374000000604482015290519081900360640190fd5b600080866001600160a01b031685876040518082805190602001908083835b60208310610e5c5780518252601f199092019160209182019101610e3d565b6001836020036101000a03801982511681845116808217855250505050505090500191505060006040518083038185875af1925050503d8060008114610ebe576040519150601f19603f3d011682016040523d82523d6000602084013e610ec3565b606091505b5091509150610ed3828286610ee4565b979650505050505050565b3b151590565b60608315610ef3575081610d7c565b825115610f035782518084602001fd5b8160405162461bcd60e51b81526004018080602001828103825283818151815260200191508051906020019080838360005b83811015610f4d578181015183820152602001610f35565b50505050905090810190601f168015610f7a5780820380516001836020036101000a031916815260200191505b509250505060405180910390fdfe4f776e61626c653a206e6577206f776e657220697320746865207a65726f2061646472657373416464726573733a20696e73756666696369656e742062616c616e636520666f722063616c6c4f776e61626c653a2063616c6c6572206973206e6f7420746865206f776e65725361666545524332303a204552433230206f7065726174696f6e20646964206e6f742073756363656564a26469706673582212207330abc634843df4cd2559974f0a3ecc20f854098cb98aa40609856b73d1b65664736f6c63430007060033",
  "linkReferences": {},
  "deployedLinkReferences": {}
}