{
  "_format": "hh-sol-artifact-1",
  "contractName": "NexusLPSushi",
  "sourceName": "contracts/NexusLPSushi.sol",
  "abi": [
    {
      "anonymous": false,
      "inputs": [
        {
          "indexed": true,
          "internalType": "address",
          "name": "owner",
          "type": "address"
        },
        {
          "indexed": true,
          "internalType": "address",
          "name": "spender",
          "type": "address"
        },
        {
          "indexed": false,
          "internalType": "uint256",
          "name": "value",
          "type": "uint256"
        }
      ],
      "name": "Approval",
      "type": "event"
    },
    {
      "anonymous": false,
      "inputs": [
        {
          "indexed": true,
          "internalType": "address",
          "name": "sender",
          "type": "address"
        },
        {
          "indexed": true,
          "internalType": "address",
          "name": "beneficiary",
          "type": "address"
        },
        {
          "indexed": false,
          "internalType": "uint256",
          "name": "exitUSDC",
          "type": "uint256"
        },
        {
          "indexed": false,
          "internalType": "uint256",
          "name": "exitETH",
          "type": "uint256"
        },
        {
          "indexed": false,
          "internalType": "uint256",
          "name": "liquidity",
          "type": "uint256"
        },
        {
          "indexed": false,
          "internalType": "uint256",
          "name": "shares",
          "type": "uint256"
        }
      ],
      "name": "Burn",
      "type": "event"
    },
    {
      "anonymous": false,
      "inputs": [
        {
          "indexed": true,
          "internalType": "address",
          "name": "sender",
          "type": "address"
        },
        {
          "indexed": false,
          "internalType": "uint256",
          "name": "amount",
          "type": "uint256"
        }
      ],
      "name": "ClaimRewards",
      "type": "event"
    },
    {
      "anonymous": false,
      "inputs": [
        {
          "indexed": true,
          "internalType": "address",
          "name": "sender",
          "type": "address"
        },
        {
          "indexed": false,
          "internalType": "uint256",
          "name": "liquidity",
          "type": "uint256"
        }
      ],
      "name": "CompoundProfits",
      "type": "event"
    },
    {
      "anonymous": false,
      "inputs": [
        {
          "indexed": true,
          "internalType": "address",
          "name": "sender",
          "type": "address"
        },
        {
          "indexed": true,
          "internalType": "address",
          "name": "beneficiary",
          "type": "address"
        },
        {
          "indexed": false,
          "internalType": "uint256",
          "name": "liquidity",
          "type": "uint256"
        },
        {
          "indexed": false,
          "internalType": "uint256",
          "name": "shares",
          "type": "uint256"
        }
      ],
      "name": "Mint",
      "type": "event"
    },
    {
      "anonymous": false,
      "inputs": [
        {
          "indexed": true,
          "internalType": "address",
          "name": "previousOwner",
          "type": "address"
        },
        {
          "indexed": true,
          "internalType": "address",
          "name": "newOwner",
          "type": "address"
        }
      ],
      "name": "OwnershipTransferred",
      "type": "event"
    },
    {
      "anonymous": false,
      "inputs": [
        {
          "indexed": false,
          "internalType": "address",
          "name": "account",
          "type": "address"
        }
      ],
      "name": "Paused",
      "type": "event"
    },
    {
      "anonymous": false,
      "inputs": [
        {
          "indexed": true,
          "internalType": "address",
          "name": "from",
          "type": "address"
        },
        {
          "indexed": true,
          "internalType": "address",
          "name": "to",
          "type": "address"
        },
        {
          "indexed": false,
          "internalType": "uint256",
          "name": "value",
          "type": "uint256"
        }
      ],
      "name": "Transfer",
      "type": "event"
    },
    {
      "anonymous": false,
      "inputs": [
        {
          "indexed": false,
          "internalType": "address",
          "name": "account",
          "type": "address"
        }
      ],
      "name": "Unpaused",
      "type": "event"
    },
    {
      "inputs": [],
      "name": "BASE_PERCENTMIL",
      "outputs": [
        {
          "internalType": "uint256",
          "name": "",
          "type": "uint256"
        }
      ],
      "stateMutability": "view",
      "type": "function"
    },
    {
      "inputs": [],
      "name": "MASTERCHEF",
      "outputs": [
        {
          "internalType": "address",
          "name": "",
          "type": "address"
        }
      ],
      "stateMutability": "view",
      "type": "function"
    },
    {
      "inputs": [],
      "name": "POOL_ID",
      "outputs": [
        {
          "internalType": "uint256",
          "name": "",
          "type": "uint256"
        }
      ],
      "stateMutability": "view",
      "type": "function"
    },
    {
      "inputs": [],
      "name": "REWARD",
      "outputs": [
        {
          "internalType": "address",
          "name": "",
          "type": "address"
        }
      ],
      "stateMutability": "view",
      "type": "function"
    },
    {
      "inputs": [],
      "name": "ROUTER",
      "outputs": [
        {
          "internalType": "address",
          "name": "",
          "type": "address"
        }
      ],
      "stateMutability": "view",
      "type": "function"
    },
    {
      "inputs": [],
      "name": "SLP",
      "outputs": [
        {
          "internalType": "address",
          "name": "",
          "type": "address"
        }
      ],
      "stateMutability": "view",
      "type": "function"
    },
    {
      "inputs": [],
      "name": "USDC",
      "outputs": [
        {
          "internalType": "address",
          "name": "",
          "type": "address"
        }
      ],
      "stateMutability": "view",
      "type": "function"
    },
    {
      "inputs": [],
      "name": "WETH",
      "outputs": [
        {
          "internalType": "address",
          "name": "",
          "type": "address"
        }
      ],
      "stateMutability": "view",
      "type": "function"
    },
    {
      "inputs": [
        {
          "internalType": "address",
          "name": "beneficiary",
          "type": "address"
        },
        {
          "internalType": "uint256",
          "name": "amountETH",
          "type": "uint256"
        },
        {
          "internalType": "uint256",
          "name": "deadline",
          "type": "uint256"
        }
      ],
      "name": "addLiquidity",
      "outputs": [
        {
          "internalType": "uint256",
          "name": "addedUSDC",
          "type": "uint256"
        },
        {
          "internalType": "uint256",
          "name": "addedETH",
          "type": "uint256"
        },
        {
          "internalType": "uint256",
          "name": "shares",
          "type": "uint256"
        }
      ],
      "stateMutability": "nonpayable",
      "type": "function"
    },
    {
      "inputs": [
        {
          "internalType": "address",
          "name": "beneficiary",
          "type": "address"
        },
        {
          "internalType": "uint256",
          "name": "deadline",
          "type": "uint256"
        }
      ],
      "name": "addLiquidityETH",
      "outputs": [
        {
          "internalType": "uint256",
          "name": "addedUSDC",
          "type": "uint256"
        },
        {
          "internalType": "uint256",
          "name": "addedETH",
          "type": "uint256"
        },
        {
          "internalType": "uint256",
          "name": "shares",
          "type": "uint256"
        }
      ],
      "stateMutability": "payable",
      "type": "function"
    },
    {
      "inputs": [
        {
          "internalType": "address",
          "name": "owner",
          "type": "address"
        },
        {
          "internalType": "address",
          "name": "spender",
          "type": "address"
        }
      ],
      "name": "allowance",
      "outputs": [
        {
          "internalType": "uint256",
          "name": "",
          "type": "uint256"
        }
      ],
      "stateMutability": "view",
      "type": "function"
    },
    {
      "inputs": [
        {
          "internalType": "uint256",
          "name": "outUSDC",
          "type": "uint256"
        }
      ],
      "name": "amountInETHForRequestedOutUSDC",
      "outputs": [
        {
          "internalType": "uint256",
          "name": "inETH",
          "type": "uint256"
        }
      ],
      "stateMutability": "view",
      "type": "function"
    },
    {
      "inputs": [
        {
          "internalType": "address",
          "name": "spender",
          "type": "address"
        },
        {
          "internalType": "uint256",
          "name": "amount",
          "type": "uint256"
        }
      ],
      "name": "approve",
      "outputs": [
        {
          "internalType": "bool",
          "name": "",
          "type": "bool"
        }
      ],
      "stateMutability": "nonpayable",
      "type": "function"
    },
    {
      "inputs": [],
      "name": "availableSpaceToDepositETH",
      "outputs": [
        {
          "internalType": "uint256",
          "name": "amountETH",
          "type": "uint256"
        }
      ],
      "stateMutability": "view",
      "type": "function"
    },
    {
      "inputs": [
        {
          "internalType": "address",
          "name": "account",
          "type": "address"
        }
      ],
      "name": "balanceOf",
      "outputs": [
        {
          "internalType": "uint256",
          "name": "",
          "type": "uint256"
        }
      ],
      "stateMutability": "view",
      "type": "function"
    },
    {
      "inputs": [],
      "name": "claimRewards",
      "outputs": [],
      "stateMutability": "nonpayable",
      "type": "function"
    },
    {
      "inputs": [
        {
          "internalType": "uint256",
          "name": "amountETH",
          "type": "uint256"
        }
      ],
      "name": "compoundProfits",
      "outputs": [
        {
          "internalType": "uint256",
          "name": "addedUSDC",
          "type": "uint256"
        },
        {
          "internalType": "uint256",
          "name": "addedETH",
          "type": "uint256"
        },
        {
          "internalType": "uint256",
          "name": "liquidity",
          "type": "uint256"
        }
      ],
      "stateMutability": "nonpayable",
      "type": "function"
    },
    {
      "inputs": [],
      "name": "decimals",
      "outputs": [
        {
          "internalType": "uint8",
          "name": "",
          "type": "uint8"
        }
      ],
      "stateMutability": "view",
      "type": "function"
    },
    {
      "inputs": [
        {
          "internalType": "address",
          "name": "spender",
          "type": "address"
        },
        {
          "internalType": "uint256",
          "name": "subtractedValue",
          "type": "uint256"
        }
      ],
      "name": "decreaseAllowance",
      "outputs": [
        {
          "internalType": "bool",
          "name": "",
          "type": "bool"
        }
      ],
      "stateMutability": "nonpayable",
      "type": "function"
    },
    {
      "inputs": [],
      "name": "depositAllCapital",
      "outputs": [],
      "stateMutability": "nonpayable",
      "type": "function"
    },
    {
      "inputs": [
        {
          "internalType": "uint256",
          "name": "amount",
          "type": "uint256"
        }
      ],
      "name": "depositCapital",
      "outputs": [],
      "stateMutability": "nonpayable",
      "type": "function"
    },
    {
      "inputs": [
        {
          "internalType": "address[]",
          "name": "_minters",
          "type": "address[]"
        }
      ],
      "name": "emergencyExit",
      "outputs": [],
      "stateMutability": "nonpayable",
      "type": "function"
    },
    {
      "inputs": [],
      "name": "governance",
      "outputs": [
        {
          "internalType": "address",
          "name": "",
          "type": "address"
        }
      ],
      "stateMutability": "view",
      "type": "function"
    },
    {
      "inputs": [
        {
          "internalType": "address",
          "name": "spender",
          "type": "address"
        },
        {
          "internalType": "uint256",
          "name": "addedValue",
          "type": "uint256"
        }
      ],
      "name": "increaseAllowance",
      "outputs": [
        {
          "internalType": "bool",
          "name": "",
          "type": "bool"
        }
      ],
      "stateMutability": "nonpayable",
      "type": "function"
    },
    {
      "inputs": [
        {
          "internalType": "address",
          "name": "",
          "type": "address"
        }
      ],
      "name": "minters",
      "outputs": [
        {
          "internalType": "uint256",
          "name": "entryETH",
          "type": "uint256"
        },
        {
          "internalType": "uint256",
          "name": "entryUSDC",
          "type": "uint256"
        },
        {
          "internalType": "uint256",
          "name": "shares",
          "type": "uint256"
        }
      ],
      "stateMutability": "view",
      "type": "function"
    },
    {
      "inputs": [],
      "name": "name",
      "outputs": [
        {
          "internalType": "string",
          "name": "",
          "type": "string"
        }
      ],
      "stateMutability": "view",
      "type": "function"
    },
    {
      "inputs": [],
      "name": "owner",
      "outputs": [
        {
          "internalType": "address",
          "name": "",
          "type": "address"
        }
      ],
      "stateMutability": "view",
      "type": "function"
    },
    {
      "inputs": [],
      "name": "ownerRewardsPercentmil",
      "outputs": [
        {
          "internalType": "uint256",
          "name": "",
          "type": "uint256"
        }
      ],
      "stateMutability": "view",
      "type": "function"
    },
    {
      "inputs": [
        {
          "internalType": "uint256",
          "name": "",
          "type": "uint256"
        }
      ],
      "name": "pathToETH",
      "outputs": [
        {
          "internalType": "address",
          "name": "",
          "type": "address"
        }
      ],
      "stateMutability": "view",
      "type": "function"
    },
    {
      "inputs": [
        {
          "internalType": "uint256",
          "name": "",
          "type": "uint256"
        }
      ],
      "name": "pathToUSDC",
      "outputs": [
        {
          "internalType": "address",
          "name": "",
          "type": "address"
        }
      ],
      "stateMutability": "view",
      "type": "function"
    },
    {
      "inputs": [],
      "name": "pause",
      "outputs": [],
      "stateMutability": "nonpayable",
      "type": "function"
    },
    {
      "inputs": [],
      "name": "paused",
      "outputs": [
        {
          "internalType": "bool",
          "name": "",
          "type": "bool"
        }
      ],
      "stateMutability": "view",
      "type": "function"
    },
    {
      "inputs": [],
      "name": "pricePerFullShare",
      "outputs": [
        {
          "internalType": "uint256",
          "name": "",
          "type": "uint256"
        }
      ],
      "stateMutability": "view",
      "type": "function"
    },
    {
      "inputs": [
        {
          "internalType": "uint256",
          "name": "inETH",
          "type": "uint256"
        }
      ],
      "name": "quote",
      "outputs": [
        {
          "internalType": "uint256",
          "name": "outUSDC",
          "type": "uint256"
        }
      ],
      "stateMutability": "view",
      "type": "function"
    },
    {
      "inputs": [
        {
          "internalType": "uint256",
          "name": "inUSDC",
          "type": "uint256"
        }
      ],
      "name": "quoteInverse",
      "outputs": [
        {
          "internalType": "uint256",
          "name": "outETH",
          "type": "uint256"
        }
      ],
      "stateMutability": "view",
      "type": "function"
    },
    {
      "inputs": [
        {
          "internalType": "address",
          "name": "beneficiary",
          "type": "address"
        },
        {
          "internalType": "uint256",
          "name": "deadline",
          "type": "uint256"
        }
      ],
      "name": "removeAllLiquidity",
      "outputs": [
        {
          "internalType": "uint256",
          "name": "exitETH",
          "type": "uint256"
        }
      ],
      "stateMutability": "nonpayable",
      "type": "function"
    },
    {
      "inputs": [
        {
          "internalType": "address payable",
          "name": "beneficiary",
          "type": "address"
        },
        {
          "internalType": "uint256",
          "name": "deadline",
          "type": "uint256"
        }
      ],
      "name": "removeAllLiquidityETH",
      "outputs": [
        {
          "internalType": "uint256",
          "name": "exitETH",
          "type": "uint256"
        }
      ],
      "stateMutability": "nonpayable",
      "type": "function"
    },
    {
      "inputs": [
        {
          "internalType": "address",
          "name": "beneficiary",
          "type": "address"
        },
        {
          "internalType": "uint256",
          "name": "shares",
          "type": "uint256"
        },
        {
          "internalType": "uint256",
          "name": "deadline",
          "type": "uint256"
        }
      ],
      "name": "removeLiquidity",
      "outputs": [
        {
          "internalType": "uint256",
          "name": "exitETH",
          "type": "uint256"
        }
      ],
      "stateMutability": "nonpayable",
      "type": "function"
    },
    {
      "inputs": [
        {
          "internalType": "address payable",
          "name": "beneficiary",
          "type": "address"
        },
        {
          "internalType": "uint256",
          "name": "shares",
          "type": "uint256"
        },
        {
          "internalType": "uint256",
          "name": "deadline",
          "type": "uint256"
        }
      ],
      "name": "removeLiquidityETH",
      "outputs": [
        {
          "internalType": "uint256",
          "name": "exitETH",
          "type": "uint256"
        }
      ],
      "stateMutability": "nonpayable",
      "type": "function"
    },
    {
      "inputs": [],
      "name": "renounceOwnership",
      "outputs": [],
      "stateMutability": "nonpayable",
      "type": "function"
    },
    {
      "inputs": [
        {
          "internalType": "address[]",
          "name": "tokens_",
          "type": "address[]"
        }
      ],
      "name": "salvage",
      "outputs": [],
      "stateMutability": "nonpayable",
      "type": "function"
    },
    {
      "inputs": [
        {
          "internalType": "address",
          "name": "_governance",
          "type": "address"
        }
      ],
      "name": "setGovernance",
      "outputs": [],
      "stateMutability": "nonpayable",
      "type": "function"
    },
    {
      "inputs": [
        {
          "internalType": "uint256",
          "name": "_ownerRewardsPercentmil",
          "type": "uint256"
        }
      ],
      "name": "setOwnerRewardsPercentmil",
      "outputs": [],
      "stateMutability": "nonpayable",
      "type": "function"
    },
    {
      "inputs": [],
      "name": "symbol",
      "outputs": [
        {
          "internalType": "string",
          "name": "",
          "type": "string"
        }
      ],
      "stateMutability": "view",
      "type": "function"
    },
    {
      "inputs": [],
      "name": "totalInvestedETH",
      "outputs": [
        {
          "internalType": "uint256",
          "name": "",
          "type": "uint256"
        }
      ],
      "stateMutability": "view",
      "type": "function"
    },
    {
      "inputs": [],
      "name": "totalInvestedUSDC",
      "outputs": [
        {
          "internalType": "uint256",
          "name": "",
          "type": "uint256"
        }
      ],
      "stateMutability": "view",
      "type": "function"
    },
    {
      "inputs": [],
      "name": "totalLiquidity",
      "outputs": [
        {
          "internalType": "uint256",
          "name": "",
          "type": "uint256"
        }
      ],
      "stateMutability": "view",
      "type": "function"
    },
    {
      "inputs": [],
      "name": "totalSupply",
      "outputs": [
        {
          "internalType": "uint256",
          "name": "",
          "type": "uint256"
        }
      ],
      "stateMutability": "view",
      "type": "function"
    },
    {
      "inputs": [
        {
          "internalType": "address",
          "name": "recipient",
          "type": "address"
        },
        {
          "internalType": "uint256",
          "name": "amount",
          "type": "uint256"
        }
      ],
      "name": "transfer",
      "outputs": [
        {
          "internalType": "bool",
          "name": "",
          "type": "bool"
        }
      ],
      "stateMutability": "nonpayable",
      "type": "function"
    },
    {
      "inputs": [
        {
          "internalType": "address",
          "name": "sender",
          "type": "address"
        },
        {
          "internalType": "address",
          "name": "recipient",
          "type": "address"
        },
        {
          "internalType": "uint256",
          "name": "amount",
          "type": "uint256"
        }
      ],
      "name": "transferFrom",
      "outputs": [
        {
          "internalType": "bool",
          "name": "",
          "type": "bool"
        }
      ],
      "stateMutability": "nonpayable",
      "type": "function"
    },
    {
      "inputs": [
        {
          "internalType": "address",
          "name": "newOwner",
          "type": "address"
        }
      ],
      "name": "transferOwnership",
      "outputs": [],
      "stateMutability": "nonpayable",
      "type": "function"
    },
    {
      "inputs": [],
      "name": "unpause",
      "outputs": [],
      "stateMutability": "nonpayable",
      "type": "function"
    },
    {
      "inputs": [],
      "name": "withdrawFreeCapital",
      "outputs": [],
      "stateMutability": "nonpayable",
      "type": "function"
    },
    {
      "stateMutability": "payable",
      "type": "receive"
    }
  ],
  "bytecode": "0x6002608081815260e060405290816020016020820280368337505081516200002f92600992506020019062000546565b506040805160028082526060820183529091602083019080368337505081516200006192600a92506020019062000546565b503480156200006f57600080fd5b50604080518082018252601b81527f4e65787573204c5020537573686953776170204554482f55534443000000000060208083019182528351808501909452600484526304e534c560e41b908401528151919291620000d191600391620005b0565b508051620000e7906004906020840190620005b0565b50506005805460ff191660121790555060006200010362000542565b60058054610100600160a81b0319166101006001600160a01b03841690810291909117909155604051919250906000907f8be0079c531659141344cd1fd0a4f28419497f9722a3daafe3b4186f6b6457e0908290a3506005805460ff60a81b191690556001600655600780546001600160a01b03191633179055600a805473c02aaa39b223fe8d0a0e5c4f27ead9083c756cc29190600090620001a257fe5b9060005260206000200160006101000a8154816001600160a01b0302191690836001600160a01b0316021790555073a0b86991c6218b36c1d19d4a2e9eb0ce3606eb48600a600181548110620001f457fe5b9060005260206000200160006101000a8154816001600160a01b0302191690836001600160a01b0316021790555073a0b86991c6218b36c1d19d4a2e9eb0ce3606eb4860096000815481106200024657fe5b9060005260206000200160006101000a8154816001600160a01b0302191690836001600160a01b0316021790555073c02aaa39b223fe8d0a0e5c4f27ead9083c756cc260096001815481106200029857fe5b600091825260208083209190910180546001600160a01b0319166001600160a01b0394909416939093179092556040805163095ea7b360e01b815273d9e1ce17f2641f24ae83637ab66a2cca9c378b9f60048201526000196024820152905173a0b86991c6218b36c1d19d4a2e9eb0ce3606eb489363095ea7b3936044808501949293928390030190829087803b1580156200033357600080fd5b505af115801562000348573d6000803e3d6000fd5b505050506040513d60208110156200035f57600080fd5b50506040805163095ea7b360e01b815273d9e1ce17f2641f24ae83637ab66a2cca9c378b9f60048201526000196024820152905173c02aaa39b223fe8d0a0e5c4f27ead9083c756cc29163095ea7b39160448083019260209291908290030181600087803b158015620003d157600080fd5b505af1158015620003e6573d6000803e3d6000fd5b505050506040513d6020811015620003fd57600080fd5b50506040805163095ea7b360e01b815273d9e1ce17f2641f24ae83637ab66a2cca9c378b9f60048201526000196024820152905173397ff1542f962076d0bfe58ea045ffa2d347aca09163095ea7b39160448083019260209291908290030181600087803b1580156200046f57600080fd5b505af115801562000484573d6000803e3d6000fd5b505050506040513d60208110156200049b57600080fd5b50506040805163095ea7b360e01b815273c2edad668740f1aa35e4d8f227fb8e17dca888cd60048201526000196024820152905173397ff1542f962076d0bfe58ea045ffa2d347aca09163095ea7b39160448083019260209291908290030181600087803b1580156200050d57600080fd5b505af115801562000522573d6000803e3d6000fd5b505050506040513d60208110156200053957600080fd5b506200064a9050565b3390565b8280548282559060005260206000209081019282156200059e579160200282015b828111156200059e57825182546001600160a01b0319166001600160a01b0390911617825560209092019160019091019062000567565b50620005ac92915062000633565b5090565b828054600181600116156101000203166002900490600052602060002090601f016020900481019282620005e857600085556200059e565b82601f106200060357805160ff19168380011785556200059e565b828001600101855582156200059e579182015b828111156200059e57825182559160200191906001019062000616565b5b80821115620005ac576000815560010162000634565b6141b6806200065a6000396000f3fe60806040526004361061031e5760003560e01c80637282d548116101ab578063af33fc62116100f7578063e0d7d0e911610095578063ed1bd76c1161006f578063ed1bd76c14610bde578063f2fde38b14610c08578063f46eccc414610c3b578063fd46a17114610c6e57610325565b8063e0d7d0e914610b75578063e3692c3614610b8a578063e38192e314610b9f57610325565b8063ca08d237116100d1578063ca08d23714610a62578063cab34c0814610a77578063d85d515e14610a8c578063dd62ed3e14610b3a57610325565b8063af33fc6214610951578063b1eb5352146109ff578063bf5c29ce14610a2957610325565b80639e11ef4411610164578063a9059cbb1161013e578063a9059cbb146108a6578063a90915ea146108df578063ab033ea914610909578063ad5c46481461093c57610325565b80639e11ef441461082e5780639f98b66e14610858578063a457c2d71461086d57610325565b80637282d548146107995780638456cb59146107c557806389a30271146107da5780638da5cb5b146107ef578063900d10991461080457806395d89b411461081957610325565b806332fe7b261161026a57806355776b7711610223578063662fd804116101fd578063662fd804146106ee57806366e2d97e1461071857806370a0823114610751578063715018a61461078457610325565b806355776b77146106675780635aa6e675146106c45780635c975abb146106d957610325565b806332fe7b26146105ae578063372500ab146105c3578063386fed69146105da57806339509351146105ef5780633f4ba83a14610628578063541155901461063d57610325565b806318160ddd116102d757806323b872dd116102b157806323b872dd146105165780632509f1b9146105595780632aad5edd1461056e578063313ce5671461058357610325565b806318160ddd146104ad57806318761232146104c257806320ec7d7c146104d757610325565b806306fdde031461032a578063095ea7b3146103b4578063131331b11461040157806314b4218c1461042857806315770f921461046e5780631598b7f81461048357610325565b3661032557005b600080fd5b34801561033657600080fd5b5061033f610c83565b6040805160208082528351818301528351919283929083019185019080838360005b83811015610379578181015183820152602001610361565b50505050905090810190601f1680156103a65780820380516001836020036101000a031916815260200191505b509250505060405180910390f35b3480156103c057600080fd5b506103ed600480360360408110156103d757600080fd5b506001600160a01b038135169060200135610d1a565b604080519115158252519081900360200190f35b34801561040d57600080fd5b50610416610d38565b60408051918252519081900360200190f35b34801561043457600080fd5b506104526004803603602081101561044b57600080fd5b5035610d3e565b604080516001600160a01b039092168252519081900360200190f35b34801561047a57600080fd5b50610416610d68565b34801561048f57600080fd5b50610416600480360360208110156104a657600080fd5b5035610d6e565b3480156104b957600080fd5b50610416610e91565b3480156104ce57600080fd5b50610416610e97565b3480156104e357600080fd5b50610416600480360360608110156104fa57600080fd5b506001600160a01b038135169060208101359060400135610e9e565b34801561052257600080fd5b506103ed6004803603606081101561053957600080fd5b506001600160a01b03813581169160208101359091169060400135610f7b565b34801561056557600080fd5b50610452611003565b34801561057a57600080fd5b5061041661101b565b34801561058f57600080fd5b50610598611021565b6040805160ff9092168252519081900360200190f35b3480156105ba57600080fd5b5061045261102a565b3480156105cf57600080fd5b506105d8611042565b005b3480156105e657600080fd5b506105d86111c6565b3480156105fb57600080fd5b506103ed6004803603604081101561061257600080fd5b506001600160a01b0381351690602001356112b1565b34801561063457600080fd5b506105d86112ff565b34801561064957600080fd5b506105d86004803603602081101561066057600080fd5b5035611369565b34801561067357600080fd5b506106a66004803603606081101561068a57600080fd5b506001600160a01b0381351690602081013590604001356113bf565b60408051938452602084019290925282820152519081900360600190f35b3480156106d057600080fd5b50610452611495565b3480156106e557600080fd5b506103ed6114a4565b3480156106fa57600080fd5b506104526004803603602081101561071157600080fd5b50356114b4565b34801561072457600080fd5b506104166004803603604081101561073b57600080fd5b506001600160a01b0381351690602001356114c4565b34801561075d57600080fd5b506104166004803603602081101561077457600080fd5b50356001600160a01b031661154b565b34801561079057600080fd5b506105d861156a565b6106a6600480360360408110156107af57600080fd5b506001600160a01b03813516906020013561161c565b3480156107d157600080fd5b506105d861175c565b3480156107e657600080fd5b506104526117c6565b3480156107fb57600080fd5b506104526117de565b34801561081057600080fd5b506105d86117f2565b34801561082557600080fd5b5061033f6118ff565b34801561083a57600080fd5b506105d86004803603602081101561085157600080fd5b5035611960565b34801561086457600080fd5b506104166119e8565b34801561087957600080fd5b506103ed6004803603604081101561089057600080fd5b506001600160a01b038135169060200135611a2a565b3480156108b257600080fd5b506103ed600480360360408110156108c957600080fd5b506001600160a01b038135169060200135611a92565b3480156108eb57600080fd5b506106a66004803603602081101561090257600080fd5b5035611aa6565b34801561091557600080fd5b506105d86004803603602081101561092c57600080fd5b50356001600160a01b0316611d31565b34801561094857600080fd5b50610452611df1565b34801561095d57600080fd5b506105d86004803603602081101561097457600080fd5b810190602081018135600160201b81111561098e57600080fd5b8201836020820111156109a057600080fd5b803590602001918460208302840111600160201b831117156109c157600080fd5b919080806020026020016040519081016040528093929190818152602001838360200280828437600092019190915250929550611e03945050505050565b348015610a0b57600080fd5b5061041660048036036020811015610a2257600080fd5b5035611ed1565b348015610a3557600080fd5b5061041660048036036040811015610a4c57600080fd5b506001600160a01b03813516906020013561205e565b348015610a6e57600080fd5b50610416612131565b348015610a8357600080fd5b506104526121ba565b348015610a9857600080fd5b506105d860048036036020811015610aaf57600080fd5b810190602081018135600160201b811115610ac957600080fd5b820183602082011115610adb57600080fd5b803590602001918460208302840111600160201b83111715610afc57600080fd5b9190808060200260200160405190810160405280939291908181526020018383602002808284376000920191909152509295506121d2945050505050565b348015610b4657600080fd5b5061041660048036036040811015610b5d57600080fd5b506001600160a01b0381358116916020013516612348565b348015610b8157600080fd5b50610416612373565b348015610b9657600080fd5b50610452612378565b348015610bab57600080fd5b5061041660048036036060811015610bc257600080fd5b506001600160a01b038135169060208101359060400135612390565b348015610bea57600080fd5b5061041660048036036020811015610c0157600080fd5b5035612404565b348015610c1457600080fd5b506105d860048036036020811015610c2b57600080fd5b50356001600160a01b03166124f3565b348015610c4757600080fd5b506106a660048036036020811015610c5e57600080fd5b50356001600160a01b0316612601565b348015610c7a57600080fd5b50610416612622565b60038054604080516020601f6002600019610100600188161502019095169490940493840181900481028201810190925282815260609390929091830182828015610d0f5780601f10610ce457610100808354040283529160200191610d0f565b820191906000526020600020905b815481529060010190602001808311610cf257829003601f168201915b505050505090505b90565b6000610d2e610d27612628565b848461262c565b5060015b92915050565b60085481565b600a8181548110610d4e57600080fd5b6000918252602090912001546001600160a01b0316905081565b600b5481565b600080600073397ff1542f962076d0bfe58ea045ffa2d347aca06001600160a01b0316630902f1ac6040518163ffffffff1660e01b815260040160606040518083038186803b158015610dc057600080fd5b505afa158015610dd4573d6000803e3d6000fd5b505050506040513d6060811015610dea57600080fd5b50805160209182015160408051632b58577b60e21b8152600481018990526001600160701b03808516602483015283166044820152905192955090935073d9e1ce17f2641f24ae83637ab66a2cca9c378b9f9263ad615dec92606480840193829003018186803b158015610e5d57600080fd5b505afa158015610e71573d6000803e3d6000fd5b505050506040513d6020811015610e8757600080fd5b5051949350505050565b60025490565b620186a081565b600060026006541415610ee6576040805162461bcd60e51b815260206004820152601f6024820152600080516020613f2f833981519152604482015290519081900360640190fd5b6002600655610ef733858585612718565b9050600080516020613f718339815191526001600160a01b0316632e1a7d4d826040518263ffffffff1660e01b815260040180828152602001915050600060405180830381600087803b158015610f4d57600080fd5b505af1158015610f61573d6000803e3d6000fd5b50505050610f6f84826128ed565b60016006559392505050565b6000610f888484846129d7565b610ff884610f94612628565b610ff385604051806060016040528060288152602001614080602891396001600160a01b038a16600090815260016020526040812090610fd2612628565b6001600160a01b031681526020810191909152604001600020549190612b32565b61262c565b5060015b9392505050565b73397ff1542f962076d0bfe58ea045ffa2d347aca081565b600c5481565b60055460ff1690565b73d9e1ce17f2641f24ae83637ab66a2cca9c378b9f81565b60026006541415611088576040805162461bcd60e51b815260206004820152601f6024820152600080516020613f2f833981519152604482015290519081900360640190fd5b60026006556007546001600160a01b031633146110de576040805162461bcd60e51b815260206004820152600f60248201526e6f6e6c7920676f7665726e616e636560881b604482015290519081900360640190fd5b6110e6612bc9565b604080516370a0823160e01b81523060048201529051600091736b3595068778dd592e39a122f4f5a5cf09c90fe2916370a0823191602480820192602092909190829003018186803b15801561113b57600080fd5b505afa15801561114f573d6000803e3d6000fd5b505050506040513d602081101561116557600080fd5b50519050611188736b3595068778dd592e39a122f4f5a5cf09c90fe23383612c3b565b60408051828152905133917f1f89f96333d3133000ee447473151fa9606543368f02271c9d95ae14f13bcc67919081900360200190a2506001600655565b6111ce612628565b6001600160a01b03166111df6117de565b6001600160a01b031614611228576040805162461bcd60e51b815260206004820181905260248201526000805160206140a8833981519152604482015290519081900360640190fd5b604080516370a0823160e01b815233600482015290516112af9173a0b86991c6218b36c1d19d4a2e9eb0ce3606eb48916370a0823191602480820192602092909190829003018186803b15801561127e57600080fd5b505afa158015611292573d6000803e3d6000fd5b505050506040513d60208110156112a857600080fd5b5051611960565b565b6000610d2e6112be612628565b84610ff385600160006112cf612628565b6001600160a01b03908116825260208083019390935260409182016000908120918c168152925290205490612c8d565b611307612628565b6001600160a01b03166113186117de565b6001600160a01b031614611361576040805162461bcd60e51b815260206004820181905260248201526000805160206140a8833981519152604482015290519081900360640190fd5b6112af612ce7565b6007546001600160a01b031633146113ba576040805162461bcd60e51b815260206004820152600f60248201526e6f6e6c7920676f7665726e616e636560881b604482015290519081900360640190fd5b600855565b60008060006002600654141561140a576040805162461bcd60e51b815260206004820152601f6024820152600080516020613f2f833981519152604482015290519081900360640190fd5b60026006556114176114a4565b1561145c576040805162461bcd60e51b815260206004820152601060248201526f14185d5cd8589b194e881c185d5cd95960821b604482015290519081900360640190fd5b611476600080516020613f71833981519152333088612d8a565b611481868686612de4565b600160065591989097509095509350505050565b6007546001600160a01b031681565b600554600160a81b900460ff1690565b60098181548110610d4e57600080fd5b60006002600654141561150c576040805162461bcd60e51b815260206004820152601f6024820152600080516020613f2f833981519152604482015290519081900360640190fd5b6002600655611525338461151f8261154b565b85612718565b9050611540600080516020613f718339815191528483612c3b565b600160065592915050565b6001600160a01b0381166000908152602081905260409020545b919050565b611572612628565b6001600160a01b03166115836117de565b6001600160a01b0316146115cc576040805162461bcd60e51b815260206004820181905260248201526000805160206140a8833981519152604482015290519081900360640190fd5b60055460405160009161010090046001600160a01b0316907f8be0079c531659141344cd1fd0a4f28419497f9722a3daafe3b4186f6b6457e0908390a360058054610100600160a81b0319169055565b600080600060026006541415611667576040805162461bcd60e51b815260206004820152601f6024820152600080516020613f2f833981519152604482015290519081900360640190fd5b60026006556116746114a4565b156116b9576040805162461bcd60e51b815260206004820152601060248201526f14185d5cd8589b194e881c185d5cd95960821b604482015290519081900360640190fd5b6116c38585612f05565b6040805180820190915260098152680c2dadeeadce88aa8960bb1b602082015234906116ef9082612f55565b600080516020613f718339815191526001600160a01b031663d0e30db0826040518263ffffffff1660e01b81526004016000604051808303818588803b15801561173857600080fd5b505af115801561174c573d6000803e3d6000fd5b5050505050611481868287612de4565b611764612628565b6001600160a01b03166117756117de565b6001600160a01b0316146117be576040805162461bcd60e51b815260206004820181905260248201526000805160206140a8833981519152604482015290519081900360640190fd5b6112af613003565b73a0b86991c6218b36c1d19d4a2e9eb0ce3606eb4881565b60055461010090046001600160a01b031690565b6117fa612628565b6001600160a01b031661180b6117de565b6001600160a01b031614611854576040805162461bcd60e51b815260206004820181905260248201526000805160206140a8833981519152604482015290519081900360640190fd5b604080516370a0823160e01b8152306004820152905160009173a0b86991c6218b36c1d19d4a2e9eb0ce3606eb48916370a0823191602480820192602092909190829003018186803b1580156118a957600080fd5b505afa1580156118bd573d6000803e3d6000fd5b505050506040513d60208110156118d357600080fd5b5051905080156118fc576118fc73a0b86991c6218b36c1d19d4a2e9eb0ce3606eb483383612c3b565b50565b60048054604080516020601f6002600019610100600188161502019095169490940493840181900481028201810190925282815260609390929091830182828015610d0f5780601f10610ce457610100808354040283529160200191610d0f565b611968612628565b6001600160a01b03166119796117de565b6001600160a01b0316146119c2576040805162461bcd60e51b815260206004820181905260248201526000805160206140a8833981519152604482015290519081900360640190fd5b80156118fc576118fc73a0b86991c6218b36c1d19d4a2e9eb0ce3606eb48333084612d8a565b60006119f2610e91565b6119fe57506000610d17565b611a25611a09610e91565b600b54611a1f90670de0b6b3a76400009061308c565b906130e5565b905090565b6000610d2e611a37612628565b84610ff38560405180606001604052806025815260200161415c6025913960016000611a61612628565b6001600160a01b03908116825260208083019390935260409182016000908120918d16815292529020549190612b32565b6000610d2e611a9f612628565b84846129d7565b600080600060026006541415611af1576040805162461bcd60e51b815260206004820152601f6024820152600080516020613f2f833981519152604482015290519081900360640190fd5b60026006556007546001600160a01b03163314611b47576040805162461bcd60e51b815260206004820152600f60248201526e6f6e6c7920676f7665726e616e636560881b604482015290519081900360640190fd5b611b61600080516020613f71833981519152333087612d8a565b604080516370a0823160e01b81523060048201529051600091600080516020613f71833981519152916370a0823191602480820192602092909190829003018186803b158015611bb057600080fd5b505afa158015611bc4573d6000803e3d6000fd5b505050506040513d6020811015611bda57600080fd5b505160085490915015611c1f576000611c05620186a0611a1f6008548561308c90919063ffffffff16565b9050611c108161314c565b50611c1b8282613310565b9150505b611c32611c2d8260026130e5565b61314c565b50604080516370a0823160e01b81523060048201529051600080516020613f71833981519152916370a08231916024808301926020929190829003018186803b158015611c7e57600080fd5b505afa158015611c92573d6000803e3d6000fd5b505050506040513d6020811015611ca857600080fd5b50519050611cb6814261336d565b600c549296509094509250611ccb9085612c8d565b600c55600d54611cdb9084612c8d565b600d55600b54611ceb9083612c8d565b600b5560408051838152905133917ff1c12aad057a0fa9c03151851242f7e4b0ab1952166ab967451e72a1a69e5210919081900360200190a25060016006559193909250565b6007546001600160a01b03163314611d82576040805162461bcd60e51b815260206004820152600f60248201526e6f6e6c7920676f7665726e616e636560881b604482015290519081900360640190fd5b6001600160a01b038116611dcf576040805162461bcd60e51b815260206004820152600f60248201526e6e756c6c20676f7665726e616e636560881b604482015290519081900360640190fd5b600780546001600160a01b0319166001600160a01b0392909216919091179055565b600080516020613f7183398151915281565b611e0b612628565b6001600160a01b0316611e1c6117de565b6001600160a01b031614611e65576040805162461bcd60e51b815260206004820181905260248201526000805160206140a8833981519152604482015290519081900360640190fd5b611e6d6114a4565b611e7957611e79613003565b60005b8151811015611ec8576000828281518110611e9357fe5b602002602001015190506000611ea88261154b565b90508015611ebe57611ebc82838342612718565b505b5050600101611e7c565b506118fc6117f2565b600073d9e1ce17f2641f24ae83637ab66a2cca9c378b9f6001600160a01b0316631f00ca7483600a6040518363ffffffff1660e01b815260040180838152602001806020018281038252838181548152602001915080548015611f5d57602002820191906000526020600020905b81546001600160a01b03168152600190910190602001808311611f3f575b5050935050505060006040518083038186803b158015611f7c57600080fd5b505afa158015611f90573d6000803e3d6000fd5b505050506040513d6000823e601f3d908101601f191682016040526020811015611fb957600080fd5b8101908080516040519392919084600160201b821115611fd857600080fd5b908301906020820185811115611fed57600080fd5b82518660208202830111600160201b8211171561200957600080fd5b82525081516020918201928201910280838360005b8381101561203657818101518382015260200161201e565b5050505090500160405250505060008151811061204f57fe5b60200260200101519050919050565b6000600260065414156120a6576040805162461bcd60e51b815260206004820152601f6024820152600080516020613f2f833981519152604482015290519081900360640190fd5b60026006556120b9338461151f8261154b565b9050600080516020613f718339815191526001600160a01b0316632e1a7d4d826040518263ffffffff1660e01b815260040180828152602001915050600060405180830381600087803b15801561210f57600080fd5b505af1158015612123573d6000803e3d6000fd5b5050505061154083826128ed565b604080516370a0823160e01b81523060048201529051600091611a259173a0b86991c6218b36c1d19d4a2e9eb0ce3606eb48916370a08231916024808301926020929190829003018186803b15801561218957600080fd5b505afa15801561219d573d6000803e3d6000fd5b505050506040513d60208110156121b357600080fd5b5051610d6e565b736b3595068778dd592e39a122f4f5a5cf09c90fe281565b6121da612628565b6001600160a01b03166121eb6117de565b6001600160a01b031614612234576040805162461bcd60e51b815260206004820181905260248201526000805160206140a8833981519152604482015290519081900360640190fd5b60005b815181101561234457600082828151811061224e57fe5b60200260200101519050612261816136a7565b6122a3576040805162461bcd60e51b815260206004820152600e60248201526d6e6f742073616c76616761626c6560901b604482015290519081900360640190fd5b6000816001600160a01b03166370a08231306040518263ffffffff1660e01b815260040180826001600160a01b0316815260200191505060206040518083038186803b1580156122f257600080fd5b505afa158015612306573d6000803e3d6000fd5b505050506040513d602081101561231c57600080fd5b50519050801561233a5761233a6001600160a01b0383163383612c3b565b5050600101612237565b5050565b6001600160a01b03918216600090815260016020908152604080832093909416825291909152205490565b600181565b73c2edad668740f1aa35e4d8f227fb8e17dca888cd81565b6000600260065414156123d8576040805162461bcd60e51b815260206004820152601f6024820152600080516020613f2f833981519152604482015290519081900360640190fd5b60026006556123e933858585612718565b9050610f6f600080516020613f718339815191528583612c3b565b600080600073397ff1542f962076d0bfe58ea045ffa2d347aca06001600160a01b0316630902f1ac6040518163ffffffff1660e01b815260040160606040518083038186803b15801561245657600080fd5b505afa15801561246a573d6000803e3d6000fd5b505050506040513d606081101561248057600080fd5b50805160209182015160408051632b58577b60e21b8152600481018990526001600160701b03808416602483015284166044820152905192955090935073d9e1ce17f2641f24ae83637ab66a2cca9c378b9f9263ad615dec92606480840193829003018186803b158015610e5d57600080fd5b6124fb612628565b6001600160a01b031661250c6117de565b6001600160a01b031614612555576040805162461bcd60e51b815260206004820181905260248201526000805160206140a8833981519152604482015290519081900360640190fd5b6001600160a01b03811661259a5760405162461bcd60e51b8152600401808060200182810382526026815260200180613f916026913960400191505060405180910390fd5b6005546040516001600160a01b0380841692610100900416907f8be0079c531659141344cd1fd0a4f28419497f9722a3daafe3b4186f6b6457e090600090a3600580546001600160a01b0390921661010002610100600160a81b0319909216919091179055565b600e6020526000908152604090208054600182015460029092015490919083565b600d5481565b3390565b6001600160a01b0383166126715760405162461bcd60e51b815260040180806020018281038252602481526020018061410e6024913960400191505060405180910390fd5b6001600160a01b0382166126b65760405162461bcd60e51b8152600401808060200182810382526022815260200180613fb76022913960400191505060405180910390fd5b6001600160a01b03808416600081815260016020908152604080832094871680845294825291829020859055815185815291517f8c5be1e5ebec7d5bd14f71427d1e84f3dd0314c0f7b2291e5b200ac8c7c3b9259281900390910190a3505050565b6001600160a01b0384166000908152600e602052604081206002810154612740908590613709565b93506000841161278f576040805162461bcd60e51b815260206004820152601560248201527473656e646572206e6f7420696e206d696e7465727360581b604482015290519081900360640190fd5b60006127aa61279c610e91565b600b54611a1f90889061308c565b90506127b6878661371f565b6000806127c3838761381b565b9150915060006127e88560020154611a1f8a886001015461308c90919063ffffffff16565b9050600061280b8660020154611a1f8b896000015461308c90919063ffffffff16565b9050600061281b8486858561397e565b60018901549099509091506128309084613310565b600188015586546128419083613310565b87556002870154612852908b613310565b6002880155600c546128649084613310565b600c55600d546128749083613310565b600d55600b546128849087613310565b600b5560408051828152602081018a9052808201889052606081018c905290516001600160a01b03808e1692908f16917f661f25a08ee5c15fc997f7288c9cd798e1905052f21d761925800799791f130b9181900360800190a350505050505050949350505050565b80471015612942576040805162461bcd60e51b815260206004820152601d60248201527f416464726573733a20696e73756666696369656e742062616c616e6365000000604482015290519081900360640190fd5b6040516000906001600160a01b0384169083908381818185875af1925050503d806000811461298d576040519150601f19603f3d011682016040523d82523d6000602084013e612992565b606091505b50509050806129d25760405162461bcd60e51b815260040180806020018281038252603a815260200180613fff603a913960400191505060405180910390fd5b505050565b6001600160a01b038316612a1c5760405162461bcd60e51b81526004018080602001828103825260258152602001806140e96025913960400191505060405180910390fd5b6001600160a01b038216612a615760405162461bcd60e51b8152600401808060200182810382526023815260200180613f0c6023913960400191505060405180910390fd5b612a6c8383836129d2565b612aa981604051806060016040528060268152602001613fd9602691396001600160a01b0386166000908152602081905260409020549190612b32565b6001600160a01b038085166000908152602081905260408082209390935590841681522054612ad89082612c8d565b6001600160a01b038084166000818152602081815260409182902094909455805185815290519193928716927fddf252ad1be2c89b69c2b068fc378daa952ba7f163c4a11628f55a4df523b3ef92918290030190a3505050565b60008184841115612bc15760405162461bcd60e51b81526004018080602001828103825283818151815260200191508051906020019080838360005b83811015612b86578181015183820152602001612b6e565b50505050905090810190601f168015612bb35780820380516001836020036101000a031916815260200191505b509250505060405180910390fd5b505050900390565b60408051631c57762b60e31b815260016004820152600060248201819052915173c2edad668740f1aa35e4d8f227fb8e17dca888cd9263e2bbb158926044808201939182900301818387803b158015612c2157600080fd5b505af1158015612c35573d6000803e3d6000fd5b50505050565b604080516001600160a01b038416602482015260448082018490528251808303909101815260649091019091526020810180516001600160e01b031663a9059cbb60e01b1790526129d2908490613a06565b600082820183811015610ffc576040805162461bcd60e51b815260206004820152601b60248201527f536166654d6174683a206164646974696f6e206f766572666c6f770000000000604482015290519081900360640190fd5b612cef6114a4565b612d37576040805162461bcd60e51b815260206004820152601460248201527314185d5cd8589b194e881b9bdd081c185d5cd95960621b604482015290519081900360640190fd5b6005805460ff60a81b191690557f5db9ee0a495bf2e6ff9c91a7834c1ba4fdd244a5e8aa4e537bd38aeae4b073aa612d6d612628565b604080516001600160a01b039092168252519081900360200190a1565b604080516001600160a01b0380861660248301528416604482015260648082018490528251808303909101815260849091019091526020810180516001600160e01b03166323b872dd60e01b179052612c35908590613a06565b600080600080612df4868661336d565b91955093509050612e03610e91565b612e0f57809150612e2a565b612e27600b54611a1f612e20610e91565b849061308c565b91505b600c54612e379085612c8d565b600c55600d54612e479084612c8d565b600d55600b54612e579082612c8d565b600b556001600160a01b0387166000908152600e602052604090206001810154612e819086612c8d565b60018201558054612e929085612c8d565b81556002810154612ea39084612c8d565b6002820155612eb28884613ab7565b604080518381526020810185905281516001600160a01b038b169233927f2f00e3cdd69a77be7ed215ec7b2a36784dd158f921fca79ac29deffa353fe6ee929081900390910190a3505093509350939050565b604080516001600160a01b038416602482015260448082018490528251808303909101815260649091019091526020810180516001600160e01b0316632243cfa360e01b17905261234490613ba7565b61234482826040516024018080602001838152602001828103825284818151815260200191508051906020019080838360005b83811015612fa0578181015183820152602001612f88565b50505050905090810190601f168015612fcd5780820380516001836020036101000a031916815260200191505b5060408051601f198184030181529190526020810180516001600160e01b03166309710a9d60e41b1790529350613ba792505050565b61300b6114a4565b15613050576040805162461bcd60e51b815260206004820152601060248201526f14185d5cd8589b194e881c185d5cd95960821b604482015290519081900360640190fd5b6005805460ff60a81b1916600160a81b1790557f62e78cea01bee320cd4e420270b5ea74000d11b0c9f74754ebdbfc544b05a258612d6d612628565b60008261309b57506000610d32565b828202828482816130a857fe5b0414610ffc5760405162461bcd60e51b815260040180806020018281038252602181526020018061405f6021913960400191505060405180910390fd5b600080821161313b576040805162461bcd60e51b815260206004820152601a60248201527f536166654d6174683a206469766973696f6e206279207a65726f000000000000604482015290519081900360640190fd5b81838161314457fe5b049392505050565b60008161315b57506000611565565b600073d9e1ce17f2641f24ae83637ab66a2cca9c378b9f6001600160a01b03166338ed1739846000600a30426040518663ffffffff1660e01b81526004018086815260200185815260200180602001846001600160a01b03168152602001838152602001828103825285818154815260200191508054801561320657602002820191906000526020600020905b81546001600160a01b031681526001909101906020018083116131e8575b50509650505050505050600060405180830381600087803b15801561322a57600080fd5b505af115801561323e573d6000803e3d6000fd5b505050506040513d6000823e601f3d908101601f19168201604052602081101561326757600080fd5b8101908080516040519392919084600160201b82111561328657600080fd5b90830190602082018581111561329b57600080fd5b82518660208202830111600160201b821117156132b757600080fd5b82525081516020918201928201910280838360005b838110156132e45781810151838201526020016132cc565b5050505090500160405250505090508060018151811061330057fe5b6020026020010151915050919050565b600082821115613367576040805162461bcd60e51b815260206004820152601e60248201527f536166654d6174683a207375627472616374696f6e206f766572666c6f770000604482015290519081900360640190fd5b50900390565b600080600061337b85613bc8565b604080516370a0823160e01b815230600482015290518691600080516020613f71833981519152916370a0823191602480820192602092909190829003018186803b1580156133c957600080fd5b505afa1580156133dd573d6000803e3d6000fd5b505050506040513d60208110156133f357600080fd5b5051101561343a576040805162461bcd60e51b815260206004820152600f60248201526e0dcdee840cadcdeeaced040ae8aa89608b1b604482015290519081900360640190fd5b600061344586612404565b90506134736040518060400160405280600a81526020016971756f7465645553444360b01b81525082612f55565b604080516370a0823160e01b81523060048201529051829173a0b86991c6218b36c1d19d4a2e9eb0ce3606eb48916370a0823191602480820192602092909190829003018186803b1580156134c757600080fd5b505afa1580156134db573d6000803e3d6000fd5b505050506040513d60208110156134f157600080fd5b50511015613546576040805162461bcd60e51b815260206004820152601760248201527f6e6f7420656e6f7567682066726565206361706974616c000000000000000000604482015290519081900360640190fd5b6040805162e8e33760e81b8152600080516020613f71833981519152600482015273a0b86991c6218b36c1d19d4a2e9eb0ce3606eb486024820152604481018890526064810183905260848101889052600060a482018190523060c483015260e48201889052915173d9e1ce17f2641f24ae83637ab66a2cca9c378b9f9263e8e337009261010480820193606093909283900390910190829087803b1580156135ee57600080fd5b505af1158015613602573d6000803e3d6000fd5b505050506040513d606081101561361857600080fd5b50805160208201516040928301518351631c57762b60e31b81526001600482015260248101829052935191975091955090935073c2edad668740f1aa35e4d8f227fb8e17dca888cd9163e2bbb15891604480830192600092919082900301818387803b15801561368757600080fd5b505af115801561369b573d6000803e3d6000fd5b50505050509250925092565b60006136b282613c09565b80156136db57506001600160a01b03821673397ff1542f962076d0bfe58ea045ffa2d347aca014155b8015610d3257506001600160a01b038216736b3595068778dd592e39a122f4f5a5cf09c90fe2141592915050565b60008183106137185781610ffc565b5090919050565b6001600160a01b0382166137645760405162461bcd60e51b81526004018080602001828103825260218152602001806140c86021913960400191505060405180910390fd5b613770826000836129d2565b6137ad81604051806060016040528060228152602001613f4f602291396001600160a01b0385166000908152602081905260409020549190612b32565b6001600160a01b0383166000908152602081905260409020556002546137d39082613310565b6002556040805182815290516000916001600160a01b038516917fddf252ad1be2c89b69c2b068fc378daa952ba7f163c4a11628f55a4df523b3ef9181900360200190a35050565b6000808361382e57506000905080613977565b60408051630441a3e760e41b81526001600482015260248101869052905173c2edad668740f1aa35e4d8f227fb8e17dca888cd9163441a3e7091604480830192600092919082900301818387803b15801561388857600080fd5b505af115801561389c573d6000803e3d6000fd5b505060408051635d5155ef60e11b8152600080516020613f71833981519152600482015273a0b86991c6218b36c1d19d4a2e9eb0ce3606eb48602482015260448101889052600060648201819052608482018190523060a483015260c48201889052825173d9e1ce17f2641f24ae83637ab66a2cca9c378b9f955063baa2abde945060e480840194939192918390030190829087803b15801561393e57600080fd5b505af1158015613952573d6000803e3d6000fd5b505050506040513d604081101561396857600080fd5b50805160209091015190925090505b9250929050565b600080838611156139b55760006139958786613310565b90506139aa6139a382613c51565b8790612c8d565b9150849250506139fd565b60006139c18588613310565b905060006139d7876139d284611ed1565b613709565b90506139ec6139e58261314c565b8990612c8d565b93506139f88782613310565b925050505b94509492505050565b6000613a5b826040518060400160405280602081526020017f5361666545524332303a206c6f772d6c6576656c2063616c6c206661696c6564815250856001600160a01b0316613d2d9092919063ffffffff16565b8051909150156129d257808060200190516020811015613a7a57600080fd5b50516129d25760405162461bcd60e51b815260040180806020018281038252602a815260200180614132602a913960400191505060405180910390fd5b6001600160a01b038216613b12576040805162461bcd60e51b815260206004820152601f60248201527f45524332303a206d696e7420746f20746865207a65726f206164647265737300604482015290519081900360640190fd5b613b1e600083836129d2565b600254613b2b9082612c8d565b6002556001600160a01b038216600090815260208190526040902054613b519082612c8d565b6001600160a01b0383166000818152602081815260408083209490945583518581529351929391927fddf252ad1be2c89b69c2b068fc378daa952ba7f163c4a11628f55a4df523b3ef9281900390910190a35050565b80516a636f6e736f6c652e6c6f67602083016000808483855afa5050505050565b6040805160248082018490528251808303909101815260449091019091526020810180516001600160e01b031663f5b1bba960e01b1790526118fc90613ba7565b60006001600160a01b038216600080516020613f7183398151915214801590610d325750506001600160a01b031673a0b86991c6218b36c1d19d4a2e9eb0ce3606eb48141590565b600081613c6057506000611565565b600073d9e1ce17f2641f24ae83637ab66a2cca9c378b9f6001600160a01b03166338ed1739846000600930426040518663ffffffff1660e01b81526004018086815260200185815260200180602001846001600160a01b031681526020018381526020018281038252858181548152602001915080548015613206576020028201919060005260206000209081546001600160a01b031681526001909101906020018083116131e85750509650505050505050600060405180830381600087803b15801561322a57600080fd5b6060613d3c8484600085613d44565b949350505050565b606082471015613d855760405162461bcd60e51b81526004018080602001828103825260268152602001806140396026913960400191505060405180910390fd5b613d8e85613e9f565b613ddf576040805162461bcd60e51b815260206004820152601d60248201527f416464726573733a2063616c6c20746f206e6f6e2d636f6e7472616374000000604482015290519081900360640190fd5b600080866001600160a01b031685876040518082805190602001908083835b60208310613e1d5780518252601f199092019160209182019101613dfe565b6001836020036101000a03801982511681845116808217855250505050505090500191505060006040518083038185875af1925050503d8060008114613e7f576040519150601f19603f3d011682016040523d82523d6000602084013e613e84565b606091505b5091509150613e94828286613ea5565b979650505050505050565b3b151590565b60608315613eb4575081610ffc565b825115613ec45782518084602001fd5b60405162461bcd60e51b8152602060048201818152845160248401528451859391928392604401919085019080838360008315612b86578181015183820152602001612b6e56fe45524332303a207472616e7366657220746f20746865207a65726f20616464726573735265656e7472616e637947756172643a207265656e7472616e742063616c6c0045524332303a206275726e20616d6f756e7420657863656564732062616c616e6365000000000000000000000000c02aaa39b223fe8d0a0e5c4f27ead9083c756cc24f776e61626c653a206e6577206f776e657220697320746865207a65726f206164647265737345524332303a20617070726f766520746f20746865207a65726f206164647265737345524332303a207472616e7366657220616d6f756e7420657863656564732062616c616e6365416464726573733a20756e61626c6520746f2073656e642076616c75652c20726563697069656e74206d61792068617665207265766572746564416464726573733a20696e73756666696369656e742062616c616e636520666f722063616c6c536166654d6174683a206d756c7469706c69636174696f6e206f766572666c6f7745524332303a207472616e7366657220616d6f756e74206578636565647320616c6c6f77616e63654f776e61626c653a2063616c6c6572206973206e6f7420746865206f776e657245524332303a206275726e2066726f6d20746865207a65726f206164647265737345524332303a207472616e736665722066726f6d20746865207a65726f206164647265737345524332303a20617070726f76652066726f6d20746865207a65726f20616464726573735361666545524332303a204552433230206f7065726174696f6e20646964206e6f74207375636365656445524332303a2064656372656173656420616c6c6f77616e63652062656c6f77207a65726fa2646970667358221220f3794e00f92a63d76acbbe76162485b16852a2d7dcfeab13f62996e4defe56c364736f6c63430007060033",
  "linkReferences": {},
  "deployedLinkReferences": {}
}