{
  "_format": "hh-sol-artifact-1",
  "contractName": "NexusLPSushi",
  "sourceName": "contracts/NexusLPSushi.sol",
  "abi": [
    {
      "anonymous": false,
      "inputs": [
        {
          "indexed": true,
          "internalType": "address",
          "name": "owner",
          "type": "address"
        },
        {
          "indexed": true,
          "internalType": "address",
          "name": "spender",
          "type": "address"
        },
        {
          "indexed": false,
          "internalType": "uint256",
          "name": "value",
          "type": "uint256"
        }
      ],
      "name": "Approval",
      "type": "event"
    },
    {
      "anonymous": false,
      "inputs": [
        {
          "indexed": true,
          "internalType": "address",
          "name": "sender",
          "type": "address"
        },
        {
          "indexed": true,
          "internalType": "address",
          "name": "beneficiary",
          "type": "address"
        },
        {
          "indexed": false,
          "internalType": "uint256",
          "name": "exitUSDC",
          "type": "uint256"
        },
        {
          "indexed": false,
          "internalType": "uint256",
          "name": "exitETH",
          "type": "uint256"
        },
        {
          "indexed": false,
          "internalType": "uint256",
          "name": "liquidity",
          "type": "uint256"
        },
        {
          "indexed": false,
          "internalType": "uint256",
          "name": "shares",
          "type": "uint256"
        }
      ],
      "name": "Burn",
      "type": "event"
    },
    {
      "anonymous": false,
      "inputs": [
        {
          "indexed": true,
          "internalType": "address",
          "name": "sender",
          "type": "address"
        },
        {
          "indexed": false,
          "internalType": "uint256",
          "name": "amount",
          "type": "uint256"
        }
      ],
      "name": "ClaimRewards",
      "type": "event"
    },
    {
      "anonymous": false,
      "inputs": [
        {
          "indexed": true,
          "internalType": "address",
          "name": "sender",
          "type": "address"
        },
        {
          "indexed": false,
          "internalType": "uint256",
          "name": "liquidity",
          "type": "uint256"
        }
      ],
      "name": "CompoundProfits",
      "type": "event"
    },
    {
      "anonymous": false,
      "inputs": [
        {
          "indexed": true,
          "internalType": "address",
          "name": "sender",
          "type": "address"
        },
        {
          "indexed": true,
          "internalType": "address",
          "name": "beneficiary",
          "type": "address"
        },
        {
          "indexed": false,
          "internalType": "uint256",
          "name": "liquidity",
          "type": "uint256"
        },
        {
          "indexed": false,
          "internalType": "uint256",
          "name": "shares",
          "type": "uint256"
        }
      ],
      "name": "Mint",
      "type": "event"
    },
    {
      "anonymous": false,
      "inputs": [
        {
          "indexed": true,
          "internalType": "address",
          "name": "previousOwner",
          "type": "address"
        },
        {
          "indexed": true,
          "internalType": "address",
          "name": "newOwner",
          "type": "address"
        }
      ],
      "name": "OwnershipTransferred",
      "type": "event"
    },
    {
      "anonymous": false,
      "inputs": [
        {
          "indexed": false,
          "internalType": "address",
          "name": "account",
          "type": "address"
        }
      ],
      "name": "Paused",
      "type": "event"
    },
    {
      "anonymous": false,
      "inputs": [
        {
          "indexed": true,
          "internalType": "address",
          "name": "from",
          "type": "address"
        },
        {
          "indexed": true,
          "internalType": "address",
          "name": "to",
          "type": "address"
        },
        {
          "indexed": false,
          "internalType": "uint256",
          "name": "value",
          "type": "uint256"
        }
      ],
      "name": "Transfer",
      "type": "event"
    },
    {
      "anonymous": false,
      "inputs": [
        {
          "indexed": false,
          "internalType": "address",
          "name": "account",
          "type": "address"
        }
      ],
      "name": "Unpaused",
      "type": "event"
    },
    {
      "inputs": [],
      "name": "MASTERCHEF",
      "outputs": [
        {
          "internalType": "address",
          "name": "",
          "type": "address"
        }
      ],
      "stateMutability": "view",
      "type": "function"
    },
    {
      "inputs": [],
      "name": "POOL_ID",
      "outputs": [
        {
          "internalType": "uint256",
          "name": "",
          "type": "uint256"
        }
      ],
      "stateMutability": "view",
      "type": "function"
    },
    {
      "inputs": [],
      "name": "REWARD",
      "outputs": [
        {
          "internalType": "address",
          "name": "",
          "type": "address"
        }
      ],
      "stateMutability": "view",
      "type": "function"
    },
    {
      "inputs": [],
      "name": "ROUTER",
      "outputs": [
        {
          "internalType": "address",
          "name": "",
          "type": "address"
        }
      ],
      "stateMutability": "view",
      "type": "function"
    },
    {
      "inputs": [],
      "name": "SLP",
      "outputs": [
        {
          "internalType": "address",
          "name": "",
          "type": "address"
        }
      ],
      "stateMutability": "view",
      "type": "function"
    },
    {
      "inputs": [],
      "name": "USDC",
      "outputs": [
        {
          "internalType": "address",
          "name": "",
          "type": "address"
        }
      ],
      "stateMutability": "view",
      "type": "function"
    },
    {
      "inputs": [],
      "name": "WETH",
      "outputs": [
        {
          "internalType": "address",
          "name": "",
          "type": "address"
        }
      ],
      "stateMutability": "view",
      "type": "function"
    },
    {
      "inputs": [
        {
          "internalType": "address",
          "name": "beneficiary",
          "type": "address"
        },
        {
          "internalType": "uint256",
          "name": "amountETH",
          "type": "uint256"
        },
        {
          "internalType": "uint256",
          "name": "deadline",
          "type": "uint256"
        }
      ],
      "name": "addLiquidity",
      "outputs": [
        {
          "internalType": "uint256",
          "name": "addedUSDC",
          "type": "uint256"
        },
        {
          "internalType": "uint256",
          "name": "addedETH",
          "type": "uint256"
        },
        {
          "internalType": "uint256",
          "name": "shares",
          "type": "uint256"
        }
      ],
      "stateMutability": "nonpayable",
      "type": "function"
    },
    {
      "inputs": [
        {
          "internalType": "address",
          "name": "beneficiary",
          "type": "address"
        },
        {
          "internalType": "uint256",
          "name": "deadline",
          "type": "uint256"
        }
      ],
      "name": "addLiquidityETH",
      "outputs": [
        {
          "internalType": "uint256",
          "name": "addedUSDC",
          "type": "uint256"
        },
        {
          "internalType": "uint256",
          "name": "addedETH",
          "type": "uint256"
        },
        {
          "internalType": "uint256",
          "name": "shares",
          "type": "uint256"
        }
      ],
      "stateMutability": "payable",
      "type": "function"
    },
    {
      "inputs": [
        {
          "internalType": "address",
          "name": "owner",
          "type": "address"
        },
        {
          "internalType": "address",
          "name": "spender",
          "type": "address"
        }
      ],
      "name": "allowance",
      "outputs": [
        {
          "internalType": "uint256",
          "name": "",
          "type": "uint256"
        }
      ],
      "stateMutability": "view",
      "type": "function"
    },
    {
      "inputs": [
        {
          "internalType": "uint256",
          "name": "outUSDC",
          "type": "uint256"
        }
      ],
      "name": "amountInETHForRequestedOutUSDC",
      "outputs": [
        {
          "internalType": "uint256",
          "name": "inETH",
          "type": "uint256"
        }
      ],
      "stateMutability": "view",
      "type": "function"
    },
    {
      "inputs": [
        {
          "internalType": "address",
          "name": "spender",
          "type": "address"
        },
        {
          "internalType": "uint256",
          "name": "amount",
          "type": "uint256"
        }
      ],
      "name": "approve",
      "outputs": [
        {
          "internalType": "bool",
          "name": "",
          "type": "bool"
        }
      ],
      "stateMutability": "nonpayable",
      "type": "function"
    },
    {
      "inputs": [],
      "name": "availableSpaceToDepositETH",
      "outputs": [
        {
          "internalType": "uint256",
          "name": "amountETH",
          "type": "uint256"
        }
      ],
      "stateMutability": "view",
      "type": "function"
    },
    {
      "inputs": [
        {
          "internalType": "address",
          "name": "account",
          "type": "address"
        }
      ],
      "name": "balanceOf",
      "outputs": [
        {
          "internalType": "uint256",
          "name": "",
          "type": "uint256"
        }
      ],
      "stateMutability": "view",
      "type": "function"
    },
    {
      "inputs": [],
      "name": "claimRewards",
      "outputs": [],
      "stateMutability": "nonpayable",
      "type": "function"
    },
    {
      "inputs": [
        {
          "internalType": "uint256",
          "name": "amountETH",
          "type": "uint256"
        },
        {
          "internalType": "uint256",
          "name": "capitalProviderRewardPercentmil",
          "type": "uint256"
        }
      ],
      "name": "compoundProfits",
      "outputs": [
        {
          "internalType": "uint256",
          "name": "addedUSDC",
          "type": "uint256"
        },
        {
          "internalType": "uint256",
          "name": "addedETH",
          "type": "uint256"
        },
        {
          "internalType": "uint256",
          "name": "liquidity",
          "type": "uint256"
        }
      ],
      "stateMutability": "nonpayable",
      "type": "function"
    },
    {
      "inputs": [],
      "name": "decimals",
      "outputs": [
        {
          "internalType": "uint8",
          "name": "",
          "type": "uint8"
        }
      ],
      "stateMutability": "view",
      "type": "function"
    },
    {
      "inputs": [
        {
          "internalType": "address",
          "name": "spender",
          "type": "address"
        },
        {
          "internalType": "uint256",
          "name": "subtractedValue",
          "type": "uint256"
        }
      ],
      "name": "decreaseAllowance",
      "outputs": [
        {
          "internalType": "bool",
          "name": "",
          "type": "bool"
        }
      ],
      "stateMutability": "nonpayable",
      "type": "function"
    },
    {
      "inputs": [],
      "name": "depositAllCapital",
      "outputs": [],
      "stateMutability": "nonpayable",
      "type": "function"
    },
    {
      "inputs": [
        {
          "internalType": "uint256",
          "name": "amount",
          "type": "uint256"
        }
      ],
      "name": "depositCapital",
      "outputs": [],
      "stateMutability": "nonpayable",
      "type": "function"
    },
    {
      "inputs": [
        {
          "internalType": "address[]",
          "name": "_minters",
          "type": "address[]"
        }
      ],
      "name": "emergencyExit",
      "outputs": [],
      "stateMutability": "nonpayable",
      "type": "function"
    },
    {
      "inputs": [],
      "name": "governance",
      "outputs": [
        {
          "internalType": "address",
          "name": "",
          "type": "address"
        }
      ],
      "stateMutability": "view",
      "type": "function"
    },
    {
      "inputs": [
        {
          "internalType": "address",
          "name": "spender",
          "type": "address"
        },
        {
          "internalType": "uint256",
          "name": "addedValue",
          "type": "uint256"
        }
      ],
      "name": "increaseAllowance",
      "outputs": [
        {
          "internalType": "bool",
          "name": "",
          "type": "bool"
        }
      ],
      "stateMutability": "nonpayable",
      "type": "function"
    },
    {
      "inputs": [
        {
          "internalType": "address",
          "name": "",
          "type": "address"
        }
      ],
      "name": "minters",
      "outputs": [
        {
          "internalType": "uint256",
          "name": "entryETH",
          "type": "uint256"
        },
        {
          "internalType": "uint256",
          "name": "entryUSDC",
          "type": "uint256"
        },
        {
          "internalType": "uint256",
          "name": "shares",
          "type": "uint256"
        }
      ],
      "stateMutability": "view",
      "type": "function"
    },
    {
      "inputs": [],
      "name": "name",
      "outputs": [
        {
          "internalType": "string",
          "name": "",
          "type": "string"
        }
      ],
      "stateMutability": "view",
      "type": "function"
    },
    {
      "inputs": [],
      "name": "owner",
      "outputs": [
        {
          "internalType": "address",
          "name": "",
          "type": "address"
        }
      ],
      "stateMutability": "view",
      "type": "function"
    },
    {
      "inputs": [
        {
          "internalType": "uint256",
          "name": "",
          "type": "uint256"
        }
      ],
      "name": "pathToETH",
      "outputs": [
        {
          "internalType": "address",
          "name": "",
          "type": "address"
        }
      ],
      "stateMutability": "view",
      "type": "function"
    },
    {
      "inputs": [
        {
          "internalType": "uint256",
          "name": "",
          "type": "uint256"
        }
      ],
      "name": "pathToUSDC",
      "outputs": [
        {
          "internalType": "address",
          "name": "",
          "type": "address"
        }
      ],
      "stateMutability": "view",
      "type": "function"
    },
    {
      "inputs": [],
      "name": "pause",
      "outputs": [],
      "stateMutability": "nonpayable",
      "type": "function"
    },
    {
      "inputs": [],
      "name": "paused",
      "outputs": [
        {
          "internalType": "bool",
          "name": "",
          "type": "bool"
        }
      ],
      "stateMutability": "view",
      "type": "function"
    },
    {
      "inputs": [],
      "name": "pricePerFullShare",
      "outputs": [
        {
          "internalType": "uint256",
          "name": "",
          "type": "uint256"
        }
      ],
      "stateMutability": "view",
      "type": "function"
    },
    {
      "inputs": [
        {
          "internalType": "uint256",
          "name": "inETH",
          "type": "uint256"
        }
      ],
      "name": "quote",
      "outputs": [
        {
          "internalType": "uint256",
          "name": "outUSDC",
          "type": "uint256"
        }
      ],
      "stateMutability": "view",
      "type": "function"
    },
    {
      "inputs": [
        {
          "internalType": "uint256",
          "name": "inUSDC",
          "type": "uint256"
        }
      ],
      "name": "quoteInverse",
      "outputs": [
        {
          "internalType": "uint256",
          "name": "outETH",
          "type": "uint256"
        }
      ],
      "stateMutability": "view",
      "type": "function"
    },
    {
      "inputs": [
        {
          "internalType": "address",
          "name": "beneficiary",
          "type": "address"
        },
        {
          "internalType": "uint256",
          "name": "deadline",
          "type": "uint256"
        }
      ],
      "name": "removeAllLiquidity",
      "outputs": [
        {
          "internalType": "uint256",
          "name": "exitETH",
          "type": "uint256"
        }
      ],
      "stateMutability": "nonpayable",
      "type": "function"
    },
    {
      "inputs": [
        {
          "internalType": "address payable",
          "name": "beneficiary",
          "type": "address"
        },
        {
          "internalType": "uint256",
          "name": "deadline",
          "type": "uint256"
        }
      ],
      "name": "removeAllLiquidityETH",
      "outputs": [
        {
          "internalType": "uint256",
          "name": "exitETH",
          "type": "uint256"
        }
      ],
      "stateMutability": "nonpayable",
      "type": "function"
    },
    {
      "inputs": [
        {
          "internalType": "address",
          "name": "beneficiary",
          "type": "address"
        },
        {
          "internalType": "uint256",
          "name": "shares",
          "type": "uint256"
        },
        {
          "internalType": "uint256",
          "name": "deadline",
          "type": "uint256"
        }
      ],
      "name": "removeLiquidity",
      "outputs": [
        {
          "internalType": "uint256",
          "name": "exitETH",
          "type": "uint256"
        }
      ],
      "stateMutability": "nonpayable",
      "type": "function"
    },
    {
      "inputs": [
        {
          "internalType": "address payable",
          "name": "beneficiary",
          "type": "address"
        },
        {
          "internalType": "uint256",
          "name": "shares",
          "type": "uint256"
        },
        {
          "internalType": "uint256",
          "name": "deadline",
          "type": "uint256"
        }
      ],
      "name": "removeLiquidityETH",
      "outputs": [
        {
          "internalType": "uint256",
          "name": "exitETH",
          "type": "uint256"
        }
      ],
      "stateMutability": "nonpayable",
      "type": "function"
    },
    {
      "inputs": [],
      "name": "renounceOwnership",
      "outputs": [],
      "stateMutability": "nonpayable",
      "type": "function"
    },
    {
      "inputs": [
        {
          "internalType": "address[]",
          "name": "tokens_",
          "type": "address[]"
        }
      ],
      "name": "salvage",
      "outputs": [],
      "stateMutability": "nonpayable",
      "type": "function"
    },
    {
      "inputs": [
        {
          "internalType": "address",
          "name": "_governance",
          "type": "address"
        }
      ],
      "name": "setGovernance",
      "outputs": [],
      "stateMutability": "nonpayable",
      "type": "function"
    },
    {
      "inputs": [],
      "name": "symbol",
      "outputs": [
        {
          "internalType": "string",
          "name": "",
          "type": "string"
        }
      ],
      "stateMutability": "view",
      "type": "function"
    },
    {
      "inputs": [],
      "name": "totalInvestedETH",
      "outputs": [
        {
          "internalType": "uint256",
          "name": "",
          "type": "uint256"
        }
      ],
      "stateMutability": "view",
      "type": "function"
    },
    {
      "inputs": [],
      "name": "totalInvestedUSDC",
      "outputs": [
        {
          "internalType": "uint256",
          "name": "",
          "type": "uint256"
        }
      ],
      "stateMutability": "view",
      "type": "function"
    },
    {
      "inputs": [],
      "name": "totalLiquidity",
      "outputs": [
        {
          "internalType": "uint256",
          "name": "",
          "type": "uint256"
        }
      ],
      "stateMutability": "view",
      "type": "function"
    },
    {
      "inputs": [],
      "name": "totalSupply",
      "outputs": [
        {
          "internalType": "uint256",
          "name": "",
          "type": "uint256"
        }
      ],
      "stateMutability": "view",
      "type": "function"
    },
    {
      "inputs": [
        {
          "internalType": "address",
          "name": "recipient",
          "type": "address"
        },
        {
          "internalType": "uint256",
          "name": "amount",
          "type": "uint256"
        }
      ],
      "name": "transfer",
      "outputs": [
        {
          "internalType": "bool",
          "name": "",
          "type": "bool"
        }
      ],
      "stateMutability": "nonpayable",
      "type": "function"
    },
    {
      "inputs": [
        {
          "internalType": "address",
          "name": "sender",
          "type": "address"
        },
        {
          "internalType": "address",
          "name": "recipient",
          "type": "address"
        },
        {
          "internalType": "uint256",
          "name": "amount",
          "type": "uint256"
        }
      ],
      "name": "transferFrom",
      "outputs": [
        {
          "internalType": "bool",
          "name": "",
          "type": "bool"
        }
      ],
      "stateMutability": "nonpayable",
      "type": "function"
    },
    {
      "inputs": [
        {
          "internalType": "address",
          "name": "newOwner",
          "type": "address"
        }
      ],
      "name": "transferOwnership",
      "outputs": [],
      "stateMutability": "nonpayable",
      "type": "function"
    },
    {
      "inputs": [],
      "name": "unpause",
      "outputs": [],
      "stateMutability": "nonpayable",
      "type": "function"
    },
    {
      "inputs": [],
      "name": "withdrawFreeCapital",
      "outputs": [],
      "stateMutability": "nonpayable",
      "type": "function"
    },
    {
      "stateMutability": "payable",
      "type": "receive"
    }
  ],
  "bytecode": "0x6002608081815260e060405290816020016020820280368337505081516200002f92600892506020019062000546565b506040805160028082526060820183529091602083019080368337505081516200006192600992506020019062000546565b503480156200006f57600080fd5b50604080518082018252601b81527f4e65787573204c5020537573686953776170204554482f55534443000000000060208083019182528351808501909452600484526304e534c560e41b908401528151919291620000d191600391620005b0565b508051620000e7906004906020840190620005b0565b50506005805460ff191660121790555060006200010362000542565b60058054610100600160a81b0319166101006001600160a01b03841690810291909117909155604051919250906000907f8be0079c531659141344cd1fd0a4f28419497f9722a3daafe3b4186f6b6457e0908290a3506005805460ff60a81b191690556001600655600780546001600160a01b031916331790556009805473c02aaa39b223fe8d0a0e5c4f27ead9083c756cc29190600090620001a257fe5b9060005260206000200160006101000a8154816001600160a01b0302191690836001600160a01b0316021790555073a0b86991c6218b36c1d19d4a2e9eb0ce3606eb486009600181548110620001f457fe5b9060005260206000200160006101000a8154816001600160a01b0302191690836001600160a01b0316021790555073a0b86991c6218b36c1d19d4a2e9eb0ce3606eb4860086000815481106200024657fe5b9060005260206000200160006101000a8154816001600160a01b0302191690836001600160a01b0316021790555073c02aaa39b223fe8d0a0e5c4f27ead9083c756cc260086001815481106200029857fe5b600091825260208083209190910180546001600160a01b0319166001600160a01b0394909416939093179092556040805163095ea7b360e01b815273d9e1ce17f2641f24ae83637ab66a2cca9c378b9f60048201526000196024820152905173a0b86991c6218b36c1d19d4a2e9eb0ce3606eb489363095ea7b3936044808501949293928390030190829087803b1580156200033357600080fd5b505af115801562000348573d6000803e3d6000fd5b505050506040513d60208110156200035f57600080fd5b50506040805163095ea7b360e01b815273d9e1ce17f2641f24ae83637ab66a2cca9c378b9f60048201526000196024820152905173c02aaa39b223fe8d0a0e5c4f27ead9083c756cc29163095ea7b39160448083019260209291908290030181600087803b158015620003d157600080fd5b505af1158015620003e6573d6000803e3d6000fd5b505050506040513d6020811015620003fd57600080fd5b50506040805163095ea7b360e01b815273d9e1ce17f2641f24ae83637ab66a2cca9c378b9f60048201526000196024820152905173397ff1542f962076d0bfe58ea045ffa2d347aca09163095ea7b39160448083019260209291908290030181600087803b1580156200046f57600080fd5b505af115801562000484573d6000803e3d6000fd5b505050506040513d60208110156200049b57600080fd5b50506040805163095ea7b360e01b815273c2edad668740f1aa35e4d8f227fb8e17dca888cd60048201526000196024820152905173397ff1542f962076d0bfe58ea045ffa2d347aca09163095ea7b39160448083019260209291908290030181600087803b1580156200050d57600080fd5b505af115801562000522573d6000803e3d6000fd5b505050506040513d60208110156200053957600080fd5b506200064a9050565b3390565b8280548282559060005260206000209081019282156200059e579160200282015b828111156200059e57825182546001600160a01b0319166001600160a01b0390911617825560209092019160019091019062000567565b50620005ac92915062000633565b5090565b828054600181600116156101000203166002900490600052602060002090601f016020900481019282620005e857600085556200059e565b82601f106200060357805160ff19168380011785556200059e565b828001600101855582156200059e579182015b828111156200059e57825182559160200191906001019062000616565b5b80821115620005ac576000815560010162000634565b613f5e806200065a6000396000f3fe6080604052600436106102cd5760003560e01c806389a3027111610175578063bf5c29ce116100dc578063e0d7d0e911610095578063ed1bd76c1161006f578063ed1bd76c14610b3f578063f2fde38b14610b69578063f46eccc414610b9c578063fd46a17114610bcf576102d4565b8063e0d7d0e914610ad6578063e3692c3614610aeb578063e38192e314610b00576102d4565b8063bf5c29ce1461095a578063ca08d23714610993578063cab34c08146109a8578063d29f902a146109bd578063d85d515e146109ed578063dd62ed3e14610a9b576102d4565b8063a457c2d71161012e578063a457c2d7146107c8578063a9059cbb14610801578063ab033ea91461083a578063ad5c46481461086d578063af33fc6214610882578063b1eb535214610930576102d4565b806389a30271146107355780638da5cb5b1461074a578063900d10991461075f57806395d89b41146107745780639e11ef44146107895780639f98b66e146107b3576102d4565b8063372500ab116102345780635c975abb116101ed57806370a08231116101c757806370a08231146106ac578063715018a6146106df5780637282d548146106f45780638456cb5914610720576102d4565b80635c975abb14610634578063662fd8041461064957806366e2d97e14610673576102d4565b8063372500ab14610548578063386fed691461055f57806339509351146105745780633f4ba83a146105ad57806355776b77146105c25780635aa6e6751461061f576102d4565b806320ec7d7c1161028657806320ec7d7c1461045c57806323b872dd1461049b5780632509f1b9146104de5780632aad5edd146104f3578063313ce5671461050857806332fe7b2614610533576102d4565b806306fdde03146102d9578063095ea7b31461036357806314b4218c146103b057806315770f92146103f65780631598b7f81461041d57806318160ddd14610447576102d4565b366102d457005b600080fd5b3480156102e557600080fd5b506102ee610be4565b6040805160208082528351818301528351919283929083019185019080838360005b83811015610328578181015183820152602001610310565b50505050905090810190601f1680156103555780820380516001836020036101000a031916815260200191505b509250505060405180910390f35b34801561036f57600080fd5b5061039c6004803603604081101561038657600080fd5b506001600160a01b038135169060200135610c7b565b604080519115158252519081900360200190f35b3480156103bc57600080fd5b506103da600480360360208110156103d357600080fd5b5035610c99565b604080516001600160a01b039092168252519081900360200190f35b34801561040257600080fd5b5061040b610cc3565b60408051918252519081900360200190f35b34801561042957600080fd5b5061040b6004803603602081101561044057600080fd5b5035610cc9565b34801561045357600080fd5b5061040b610dec565b34801561046857600080fd5b5061040b6004803603606081101561047f57600080fd5b506001600160a01b038135169060208101359060400135610df2565b3480156104a757600080fd5b5061039c600480360360608110156104be57600080fd5b506001600160a01b03813581169160208101359091169060400135610ecf565b3480156104ea57600080fd5b506103da610f57565b3480156104ff57600080fd5b5061040b610f6f565b34801561051457600080fd5b5061051d610f75565b6040805160ff9092168252519081900360200190f35b34801561053f57600080fd5b506103da610f7e565b34801561055457600080fd5b5061055d610f96565b005b34801561056b57600080fd5b5061055d61111a565b34801561058057600080fd5b5061039c6004803603604081101561059757600080fd5b506001600160a01b038135169060200135611205565b3480156105b957600080fd5b5061055d611253565b3480156105ce57600080fd5b50610601600480360360608110156105e557600080fd5b506001600160a01b0381351690602081013590604001356112bd565b60408051938452602084019290925282820152519081900360600190f35b34801561062b57600080fd5b506103da611393565b34801561064057600080fd5b5061039c6113a2565b34801561065557600080fd5b506103da6004803603602081101561066c57600080fd5b50356113b2565b34801561067f57600080fd5b5061040b6004803603604081101561069657600080fd5b506001600160a01b0381351690602001356113c2565b3480156106b857600080fd5b5061040b600480360360208110156106cf57600080fd5b50356001600160a01b0316611449565b3480156106eb57600080fd5b5061055d611468565b6106016004803603604081101561070a57600080fd5b506001600160a01b03813516906020013561151a565b34801561072c57600080fd5b5061055d611629565b34801561074157600080fd5b506103da611693565b34801561075657600080fd5b506103da6116ab565b34801561076b57600080fd5b5061055d6116bf565b34801561078057600080fd5b506102ee6117cc565b34801561079557600080fd5b5061055d600480360360208110156107ac57600080fd5b503561182d565b3480156107bf57600080fd5b5061040b6118b5565b3480156107d457600080fd5b5061039c600480360360408110156107eb57600080fd5b506001600160a01b0381351690602001356118f7565b34801561080d57600080fd5b5061039c6004803603604081101561082457600080fd5b506001600160a01b03813516906020013561195f565b34801561084657600080fd5b5061055d6004803603602081101561085d57600080fd5b50356001600160a01b0316611973565b34801561087957600080fd5b506103da611a33565b34801561088e57600080fd5b5061055d600480360360208110156108a557600080fd5b810190602081018135600160201b8111156108bf57600080fd5b8201836020820111156108d157600080fd5b803590602001918460208302840111600160201b831117156108f257600080fd5b919080806020026020016040519081016040528093929190818152602001838360200280828437600092019190915250929550611a45945050505050565b34801561093c57600080fd5b5061040b6004803603602081101561095357600080fd5b5035611b13565b34801561096657600080fd5b5061040b6004803603604081101561097d57600080fd5b506001600160a01b038135169060200135611ca0565b34801561099f57600080fd5b5061040b611d73565b3480156109b457600080fd5b506103da611dfc565b3480156109c957600080fd5b50610601600480360360408110156109e057600080fd5b5080359060200135611e14565b3480156109f957600080fd5b5061055d60048036036020811015610a1057600080fd5b810190602081018135600160201b811115610a2a57600080fd5b820183602082011115610a3c57600080fd5b803590602001918460208302840111600160201b83111715610a5d57600080fd5b919080806020026020016040519081016040528093929190818152602001838360200280828437600092019190915250929550612101945050505050565b348015610aa757600080fd5b5061040b60048036036040811015610abe57600080fd5b506001600160a01b0381358116916020013516612277565b348015610ae257600080fd5b5061040b6122a2565b348015610af757600080fd5b506103da6122a7565b348015610b0c57600080fd5b5061040b60048036036060811015610b2357600080fd5b506001600160a01b0381351690602081013590604001356122bf565b348015610b4b57600080fd5b5061040b60048036036020811015610b6257600080fd5b5035612333565b348015610b7557600080fd5b5061055d60048036036020811015610b8c57600080fd5b50356001600160a01b0316612422565b348015610ba857600080fd5b5061060160048036036020811015610bbf57600080fd5b50356001600160a01b0316612530565b348015610bdb57600080fd5b5061040b612551565b60038054604080516020601f6002600019610100600188161502019095169490940493840181900481028201810190925282815260609390929091830182828015610c705780601f10610c4557610100808354040283529160200191610c70565b820191906000526020600020905b815481529060010190602001808311610c5357829003601f168201915b505050505090505b90565b6000610c8f610c88612557565b848461255b565b5060015b92915050565b60098181548110610ca957600080fd5b6000918252602090912001546001600160a01b0316905081565b600a5481565b600080600073397ff1542f962076d0bfe58ea045ffa2d347aca06001600160a01b0316630902f1ac6040518163ffffffff1660e01b815260040160606040518083038186803b158015610d1b57600080fd5b505afa158015610d2f573d6000803e3d6000fd5b505050506040513d6060811015610d4557600080fd5b50805160209182015160408051632b58577b60e21b8152600481018990526001600160701b03808516602483015283166044820152905192955090935073d9e1ce17f2641f24ae83637ab66a2cca9c378b9f9263ad615dec92606480840193829003018186803b158015610db857600080fd5b505afa158015610dcc573d6000803e3d6000fd5b505050506040513d6020811015610de257600080fd5b5051949350505050565b60025490565b600060026006541415610e3a576040805162461bcd60e51b815260206004820152601f6024820152600080516020613cd7833981519152604482015290519081900360640190fd5b6002600655610e4b33858585612647565b9050600080516020613d198339815191526001600160a01b0316632e1a7d4d826040518263ffffffff1660e01b815260040180828152602001915050600060405180830381600087803b158015610ea157600080fd5b505af1158015610eb5573d6000803e3d6000fd5b50505050610ec3848261281c565b60016006559392505050565b6000610edc848484612906565b610f4c84610ee8612557565b610f4785604051806060016040528060288152602001613e28602891396001600160a01b038a16600090815260016020526040812090610f26612557565b6001600160a01b031681526020810191909152604001600020549190612a61565b61255b565b5060015b9392505050565b73397ff1542f962076d0bfe58ea045ffa2d347aca081565b600b5481565b60055460ff1690565b73d9e1ce17f2641f24ae83637ab66a2cca9c378b9f81565b60026006541415610fdc576040805162461bcd60e51b815260206004820152601f6024820152600080516020613cd7833981519152604482015290519081900360640190fd5b60026006556007546001600160a01b03163314611032576040805162461bcd60e51b815260206004820152600f60248201526e6f6e6c7920676f7665726e616e636560881b604482015290519081900360640190fd5b61103a612af8565b604080516370a0823160e01b81523060048201529051600091736b3595068778dd592e39a122f4f5a5cf09c90fe2916370a0823191602480820192602092909190829003018186803b15801561108f57600080fd5b505afa1580156110a3573d6000803e3d6000fd5b505050506040513d60208110156110b957600080fd5b505190506110dc736b3595068778dd592e39a122f4f5a5cf09c90fe23383612b6a565b60408051828152905133917f1f89f96333d3133000ee447473151fa9606543368f02271c9d95ae14f13bcc67919081900360200190a2506001600655565b611122612557565b6001600160a01b03166111336116ab565b6001600160a01b03161461117c576040805162461bcd60e51b81526020600482018190526024820152600080516020613e50833981519152604482015290519081900360640190fd5b604080516370a0823160e01b815233600482015290516112039173a0b86991c6218b36c1d19d4a2e9eb0ce3606eb48916370a0823191602480820192602092909190829003018186803b1580156111d257600080fd5b505afa1580156111e6573d6000803e3d6000fd5b505050506040513d60208110156111fc57600080fd5b505161182d565b565b6000610c8f611212612557565b84610f478560016000611223612557565b6001600160a01b03908116825260208083019390935260409182016000908120918c168152925290205490612bbc565b61125b612557565b6001600160a01b031661126c6116ab565b6001600160a01b0316146112b5576040805162461bcd60e51b81526020600482018190526024820152600080516020613e50833981519152604482015290519081900360640190fd5b611203612c16565b600080600060026006541415611308576040805162461bcd60e51b815260206004820152601f6024820152600080516020613cd7833981519152604482015290519081900360640190fd5b60026006556113156113a2565b1561135a576040805162461bcd60e51b815260206004820152601060248201526f14185d5cd8589b194e881c185d5cd95960821b604482015290519081900360640190fd5b611374600080516020613d19833981519152333088612cb9565b61137f868686612d13565b600160065591989097509095509350505050565b6007546001600160a01b031681565b600554600160a81b900460ff1690565b60088181548110610ca957600080fd5b60006002600654141561140a576040805162461bcd60e51b815260206004820152601f6024820152600080516020613cd7833981519152604482015290519081900360640190fd5b6002600655611423338461141d82611449565b85612647565b905061143e600080516020613d198339815191528483612b6a565b600160065592915050565b6001600160a01b0381166000908152602081905260409020545b919050565b611470612557565b6001600160a01b03166114816116ab565b6001600160a01b0316146114ca576040805162461bcd60e51b81526020600482018190526024820152600080516020613e50833981519152604482015290519081900360640190fd5b60055460405160009161010090046001600160a01b0316907f8be0079c531659141344cd1fd0a4f28419497f9722a3daafe3b4186f6b6457e0908390a360058054610100600160a81b0319169055565b600080600060026006541415611565576040805162461bcd60e51b815260206004820152601f6024820152600080516020613cd7833981519152604482015290519081900360640190fd5b60026006556115726113a2565b156115b7576040805162461bcd60e51b815260206004820152601060248201526f14185d5cd8589b194e881c185d5cd95960821b604482015290519081900360640190fd5b6000349050600080516020613d198339815191526001600160a01b031663d0e30db0826040518263ffffffff1660e01b81526004016000604051808303818588803b15801561160557600080fd5b505af1158015611619573d6000803e3d6000fd5b505050505061137f868287612d13565b611631612557565b6001600160a01b03166116426116ab565b6001600160a01b03161461168b576040805162461bcd60e51b81526020600482018190526024820152600080516020613e50833981519152604482015290519081900360640190fd5b611203612e34565b73a0b86991c6218b36c1d19d4a2e9eb0ce3606eb4881565b60055461010090046001600160a01b031690565b6116c7612557565b6001600160a01b03166116d86116ab565b6001600160a01b031614611721576040805162461bcd60e51b81526020600482018190526024820152600080516020613e50833981519152604482015290519081900360640190fd5b604080516370a0823160e01b8152306004820152905160009173a0b86991c6218b36c1d19d4a2e9eb0ce3606eb48916370a0823191602480820192602092909190829003018186803b15801561177657600080fd5b505afa15801561178a573d6000803e3d6000fd5b505050506040513d60208110156117a057600080fd5b5051905080156117c9576117c973a0b86991c6218b36c1d19d4a2e9eb0ce3606eb483383612b6a565b50565b60048054604080516020601f6002600019610100600188161502019095169490940493840181900481028201810190925282815260609390929091830182828015610c705780601f10610c4557610100808354040283529160200191610c70565b611835612557565b6001600160a01b03166118466116ab565b6001600160a01b03161461188f576040805162461bcd60e51b81526020600482018190526024820152600080516020613e50833981519152604482015290519081900360640190fd5b80156117c9576117c973a0b86991c6218b36c1d19d4a2e9eb0ce3606eb48333084612cb9565b60006118bf610dec565b6118cb57506000610c78565b6118f26118d6610dec565b600a546118ec90670de0b6b3a764000090612ebd565b90612f16565b905090565b6000610c8f611904612557565b84610f4785604051806060016040528060258152602001613f04602591396001600061192e612557565b6001600160a01b03908116825260208083019390935260409182016000908120918d16815292529020549190612a61565b6000610c8f61196c612557565b8484612906565b6007546001600160a01b031633146119c4576040805162461bcd60e51b815260206004820152600f60248201526e6f6e6c7920676f7665726e616e636560881b604482015290519081900360640190fd5b6001600160a01b038116611a11576040805162461bcd60e51b815260206004820152600f60248201526e6e756c6c20676f7665726e616e636560881b604482015290519081900360640190fd5b600780546001600160a01b0319166001600160a01b0392909216919091179055565b600080516020613d1983398151915281565b611a4d612557565b6001600160a01b0316611a5e6116ab565b6001600160a01b031614611aa7576040805162461bcd60e51b81526020600482018190526024820152600080516020613e50833981519152604482015290519081900360640190fd5b611aaf6113a2565b611abb57611abb612e34565b60005b8151811015611b0a576000828281518110611ad557fe5b602002602001015190506000611aea82611449565b90508015611b0057611afe82838342612647565b505b5050600101611abe565b506117c96116bf565b600073d9e1ce17f2641f24ae83637ab66a2cca9c378b9f6001600160a01b0316631f00ca748360096040518363ffffffff1660e01b815260040180838152602001806020018281038252838181548152602001915080548015611b9f57602002820191906000526020600020905b81546001600160a01b03168152600190910190602001808311611b81575b5050935050505060006040518083038186803b158015611bbe57600080fd5b505afa158015611bd2573d6000803e3d6000fd5b505050506040513d6000823e601f3d908101601f191682016040526020811015611bfb57600080fd5b8101908080516040519392919084600160201b821115611c1a57600080fd5b908301906020820185811115611c2f57600080fd5b82518660208202830111600160201b82111715611c4b57600080fd5b82525081516020918201928201910280838360005b83811015611c78578181015183820152602001611c60565b50505050905001604052505050600081518110611c9157fe5b60200260200101519050919050565b600060026006541415611ce8576040805162461bcd60e51b815260206004820152601f6024820152600080516020613cd7833981519152604482015290519081900360640190fd5b6002600655611cfb338461141d82611449565b9050600080516020613d198339815191526001600160a01b0316632e1a7d4d826040518263ffffffff1660e01b815260040180828152602001915050600060405180830381600087803b158015611d5157600080fd5b505af1158015611d65573d6000803e3d6000fd5b5050505061143e838261281c565b604080516370a0823160e01b815230600482015290516000916118f29173a0b86991c6218b36c1d19d4a2e9eb0ce3606eb48916370a08231916024808301926020929190829003018186803b158015611dcb57600080fd5b505afa158015611ddf573d6000803e3d6000fd5b505050506040513d6020811015611df557600080fd5b5051610cc9565b736b3595068778dd592e39a122f4f5a5cf09c90fe281565b600080600060026006541415611e5f576040805162461bcd60e51b815260206004820152601f6024820152600080516020613cd7833981519152604482015290519081900360640190fd5b60026006556007546001600160a01b03163314611eb5576040805162461bcd60e51b815260206004820152600f60248201526e6f6e6c7920676f7665726e616e636560881b604482015290519081900360640190fd5b611ecf600080516020613d19833981519152333088612cb9565b604080516370a0823160e01b81523060048201529051600091600080516020613d19833981519152916370a0823191602480820192602092909190829003018186803b158015611f1e57600080fd5b505afa158015611f32573d6000803e3d6000fd5b505050506040513d6020811015611f4857600080fd5b505190508415611fec576000611f65620186a06118ec8489612ebd565b9050611f7081612f7d565b50604080516370a0823160e01b81523060048201529051600080516020613d19833981519152916370a08231916024808301926020929190829003018186803b158015611fbc57600080fd5b505afa158015611fd0573d6000803e3d6000fd5b505050506040513d6020811015611fe657600080fd5b50519150505b611fff611ffa826002612f16565b612f7d565b50604080516370a0823160e01b81523060048201529051600080516020613d19833981519152916370a08231916024808301926020929190829003018186803b15801561204b57600080fd5b505afa15801561205f573d6000803e3d6000fd5b505050506040513d602081101561207557600080fd5b505190506120838142613141565b600b5492965090945092506120989085612bbc565b600b55600c546120a89084612bbc565b600c55600a546120b89083612bbc565b600a5560408051838152905133917ff1c12aad057a0fa9c03151851242f7e4b0ab1952166ab967451e72a1a69e5210919081900360200190a25060016006819055509250925092565b612109612557565b6001600160a01b031661211a6116ab565b6001600160a01b031614612163576040805162461bcd60e51b81526020600482018190526024820152600080516020613e50833981519152604482015290519081900360640190fd5b60005b815181101561227357600082828151811061217d57fe5b6020026020010151905061219081613454565b6121d2576040805162461bcd60e51b815260206004820152600e60248201526d6e6f742073616c76616761626c6560901b604482015290519081900360640190fd5b6000816001600160a01b03166370a08231306040518263ffffffff1660e01b815260040180826001600160a01b0316815260200191505060206040518083038186803b15801561222157600080fd5b505afa158015612235573d6000803e3d6000fd5b505050506040513d602081101561224b57600080fd5b505190508015612269576122696001600160a01b0383163383612b6a565b5050600101612166565b5050565b6001600160a01b03918216600090815260016020908152604080832093909416825291909152205490565b600181565b73c2edad668740f1aa35e4d8f227fb8e17dca888cd81565b600060026006541415612307576040805162461bcd60e51b815260206004820152601f6024820152600080516020613cd7833981519152604482015290519081900360640190fd5b600260065561231833858585612647565b9050610ec3600080516020613d198339815191528583612b6a565b600080600073397ff1542f962076d0bfe58ea045ffa2d347aca06001600160a01b0316630902f1ac6040518163ffffffff1660e01b815260040160606040518083038186803b15801561238557600080fd5b505afa158015612399573d6000803e3d6000fd5b505050506040513d60608110156123af57600080fd5b50805160209182015160408051632b58577b60e21b8152600481018990526001600160701b03808416602483015284166044820152905192955090935073d9e1ce17f2641f24ae83637ab66a2cca9c378b9f9263ad615dec92606480840193829003018186803b158015610db857600080fd5b61242a612557565b6001600160a01b031661243b6116ab565b6001600160a01b031614612484576040805162461bcd60e51b81526020600482018190526024820152600080516020613e50833981519152604482015290519081900360640190fd5b6001600160a01b0381166124c95760405162461bcd60e51b8152600401808060200182810382526026815260200180613d396026913960400191505060405180910390fd5b6005546040516001600160a01b0380841692610100900416907f8be0079c531659141344cd1fd0a4f28419497f9722a3daafe3b4186f6b6457e090600090a3600580546001600160a01b0390921661010002610100600160a81b0319909216919091179055565b600d6020526000908152604090208054600182015460029092015490919083565b600c5481565b3390565b6001600160a01b0383166125a05760405162461bcd60e51b8152600401808060200182810382526024815260200180613eb66024913960400191505060405180910390fd5b6001600160a01b0382166125e55760405162461bcd60e51b8152600401808060200182810382526022815260200180613d5f6022913960400191505060405180910390fd5b6001600160a01b03808416600081815260016020908152604080832094871680845294825291829020859055815185815291517f8c5be1e5ebec7d5bd14f71427d1e84f3dd0314c0f7b2291e5b200ac8c7c3b9259281900390910190a3505050565b6001600160a01b0384166000908152600d60205260408120600281015461266f9085906134b6565b9350600084116126be576040805162461bcd60e51b815260206004820152601560248201527473656e646572206e6f7420696e206d696e7465727360581b604482015290519081900360640190fd5b60006126d96126cb610dec565b600a546118ec908890612ebd565b90506126e587866134cc565b6000806126f283876135c8565b91509150600061271785600201546118ec8a8860010154612ebd90919063ffffffff16565b9050600061273a86600201546118ec8b8960000154612ebd90919063ffffffff16565b9050600061274a8486858561372b565b600189015490995090915061275f90846137b3565b6001880155865461277090836137b3565b87556002870154612781908b6137b3565b6002880155600b5461279390846137b3565b600b55600c546127a390836137b3565b600c55600a546127b390876137b3565b600a5560408051828152602081018a9052808201889052606081018c905290516001600160a01b03808e1692908f16917f661f25a08ee5c15fc997f7288c9cd798e1905052f21d761925800799791f130b9181900360800190a350505050505050949350505050565b80471015612871576040805162461bcd60e51b815260206004820152601d60248201527f416464726573733a20696e73756666696369656e742062616c616e6365000000604482015290519081900360640190fd5b6040516000906001600160a01b0384169083908381818185875af1925050503d80600081146128bc576040519150601f19603f3d011682016040523d82523d6000602084013e6128c1565b606091505b50509050806129015760405162461bcd60e51b815260040180806020018281038252603a815260200180613da7603a913960400191505060405180910390fd5b505050565b6001600160a01b03831661294b5760405162461bcd60e51b8152600401808060200182810382526025815260200180613e916025913960400191505060405180910390fd5b6001600160a01b0382166129905760405162461bcd60e51b8152600401808060200182810382526023815260200180613cb46023913960400191505060405180910390fd5b61299b838383612901565b6129d881604051806060016040528060268152602001613d81602691396001600160a01b0386166000908152602081905260409020549190612a61565b6001600160a01b038085166000908152602081905260408082209390935590841681522054612a079082612bbc565b6001600160a01b038084166000818152602081815260409182902094909455805185815290519193928716927fddf252ad1be2c89b69c2b068fc378daa952ba7f163c4a11628f55a4df523b3ef92918290030190a3505050565b60008184841115612af05760405162461bcd60e51b81526004018080602001828103825283818151815260200191508051906020019080838360005b83811015612ab5578181015183820152602001612a9d565b50505050905090810190601f168015612ae25780820380516001836020036101000a031916815260200191505b509250505060405180910390fd5b505050900390565b60408051631c57762b60e31b815260016004820152600060248201819052915173c2edad668740f1aa35e4d8f227fb8e17dca888cd9263e2bbb158926044808201939182900301818387803b158015612b5057600080fd5b505af1158015612b64573d6000803e3d6000fd5b50505050565b604080516001600160a01b038416602482015260448082018490528251808303909101815260649091019091526020810180516001600160e01b031663a9059cbb60e01b179052612901908490613810565b600082820183811015610f50576040805162461bcd60e51b815260206004820152601b60248201527f536166654d6174683a206164646974696f6e206f766572666c6f770000000000604482015290519081900360640190fd5b612c1e6113a2565b612c66576040805162461bcd60e51b815260206004820152601460248201527314185d5cd8589b194e881b9bdd081c185d5cd95960621b604482015290519081900360640190fd5b6005805460ff60a81b191690557f5db9ee0a495bf2e6ff9c91a7834c1ba4fdd244a5e8aa4e537bd38aeae4b073aa612c9c612557565b604080516001600160a01b039092168252519081900360200190a1565b604080516001600160a01b0380861660248301528416604482015260648082018490528251808303909101815260849091019091526020810180516001600160e01b03166323b872dd60e01b179052612b64908590613810565b600080600080612d238686613141565b91955093509050612d32610dec565b612d3e57809150612d59565b612d56600a546118ec612d4f610dec565b8490612ebd565b91505b600b54612d669085612bbc565b600b55600c54612d769084612bbc565b600c55600a54612d869082612bbc565b600a556001600160a01b0387166000908152600d602052604090206001810154612db09086612bbc565b60018201558054612dc19085612bbc565b81556002810154612dd29084612bbc565b6002820155612de188846138c1565b604080518381526020810185905281516001600160a01b038b169233927f2f00e3cdd69a77be7ed215ec7b2a36784dd158f921fca79ac29deffa353fe6ee929081900390910190a3505093509350939050565b612e3c6113a2565b15612e81576040805162461bcd60e51b815260206004820152601060248201526f14185d5cd8589b194e881c185d5cd95960821b604482015290519081900360640190fd5b6005805460ff60a81b1916600160a81b1790557f62e78cea01bee320cd4e420270b5ea74000d11b0c9f74754ebdbfc544b05a258612c9c612557565b600082612ecc57506000610c93565b82820282848281612ed957fe5b0414610f505760405162461bcd60e51b8152600401808060200182810382526021815260200180613e076021913960400191505060405180910390fd5b6000808211612f6c576040805162461bcd60e51b815260206004820152601a60248201527f536166654d6174683a206469766973696f6e206279207a65726f000000000000604482015290519081900360640190fd5b818381612f7557fe5b049392505050565b600081612f8c57506000611463565b600073d9e1ce17f2641f24ae83637ab66a2cca9c378b9f6001600160a01b03166338ed1739846000600930426040518663ffffffff1660e01b81526004018086815260200185815260200180602001846001600160a01b03168152602001838152602001828103825285818154815260200191508054801561303757602002820191906000526020600020905b81546001600160a01b03168152600190910190602001808311613019575b50509650505050505050600060405180830381600087803b15801561305b57600080fd5b505af115801561306f573d6000803e3d6000fd5b505050506040513d6000823e601f3d908101601f19168201604052602081101561309857600080fd5b8101908080516040519392919084600160201b8211156130b757600080fd5b9083019060208201858111156130cc57600080fd5b82518660208202830111600160201b821117156130e857600080fd5b82525081516020918201928201910280838360005b838110156131155781810151838201526020016130fd565b5050505090500160405250505090508060018151811061313157fe5b6020026020010151915050919050565b600080600084600080516020613d198339815191526001600160a01b03166370a08231306040518263ffffffff1660e01b815260040180826001600160a01b0316815260200191505060206040518083038186803b1580156131a257600080fd5b505afa1580156131b6573d6000803e3d6000fd5b505050506040513d60208110156131cc57600080fd5b50511015613213576040805162461bcd60e51b815260206004820152600f60248201526e0dcdee840cadcdeeaced040ae8aa89608b1b604482015290519081900360640190fd5b600061321e86612333565b604080516370a0823160e01b81523060048201529051919250829173a0b86991c6218b36c1d19d4a2e9eb0ce3606eb48916370a08231916024808301926020929190829003018186803b15801561327457600080fd5b505afa158015613288573d6000803e3d6000fd5b505050506040513d602081101561329e57600080fd5b505110156132f3576040805162461bcd60e51b815260206004820152601760248201527f6e6f7420656e6f7567682066726565206361706974616c000000000000000000604482015290519081900360640190fd5b6040805162e8e33760e81b8152600080516020613d19833981519152600482015273a0b86991c6218b36c1d19d4a2e9eb0ce3606eb486024820152604481018890526064810183905260848101889052600060a482018190523060c483015260e48201889052915173d9e1ce17f2641f24ae83637ab66a2cca9c378b9f9263e8e337009261010480820193606093909283900390910190829087803b15801561339b57600080fd5b505af11580156133af573d6000803e3d6000fd5b505050506040513d60608110156133c557600080fd5b50805160208201516040928301518351631c57762b60e31b81526001600482015260248101829052935191975091955090935073c2edad668740f1aa35e4d8f227fb8e17dca888cd9163e2bbb15891604480830192600092919082900301818387803b15801561343457600080fd5b505af1158015613448573d6000803e3d6000fd5b50505050509250925092565b600061345f826139b1565b801561348857506001600160a01b03821673397ff1542f962076d0bfe58ea045ffa2d347aca014155b8015610c9357506001600160a01b038216736b3595068778dd592e39a122f4f5a5cf09c90fe2141592915050565b60008183106134c55781610f50565b5090919050565b6001600160a01b0382166135115760405162461bcd60e51b8152600401808060200182810382526021815260200180613e706021913960400191505060405180910390fd5b61351d82600083612901565b61355a81604051806060016040528060228152602001613cf7602291396001600160a01b0385166000908152602081905260409020549190612a61565b6001600160a01b03831660009081526020819052604090205560025461358090826137b3565b6002556040805182815290516000916001600160a01b038516917fddf252ad1be2c89b69c2b068fc378daa952ba7f163c4a11628f55a4df523b3ef9181900360200190a35050565b600080836135db57506000905080613724565b60408051630441a3e760e41b81526001600482015260248101869052905173c2edad668740f1aa35e4d8f227fb8e17dca888cd9163441a3e7091604480830192600092919082900301818387803b15801561363557600080fd5b505af1158015613649573d6000803e3d6000fd5b505060408051635d5155ef60e11b8152600080516020613d19833981519152600482015273a0b86991c6218b36c1d19d4a2e9eb0ce3606eb48602482015260448101889052600060648201819052608482018190523060a483015260c48201889052825173d9e1ce17f2641f24ae83637ab66a2cca9c378b9f955063baa2abde945060e480840194939192918390030190829087803b1580156136eb57600080fd5b505af11580156136ff573d6000803e3d6000fd5b505050506040513d604081101561371557600080fd5b50805160209091015190925090505b9250929050565b6000808386111561376257600061374287866137b3565b9050613757613750826139f9565b8790612bbc565b9150849250506137aa565b600061376e85886137b3565b905060006137848761377f84611b13565b6134b6565b905061379961379282612f7d565b8990612bbc565b93506137a587826137b3565b925050505b94509492505050565b60008282111561380a576040805162461bcd60e51b815260206004820152601e60248201527f536166654d6174683a207375627472616374696f6e206f766572666c6f770000604482015290519081900360640190fd5b50900390565b6000613865826040518060400160405280602081526020017f5361666545524332303a206c6f772d6c6576656c2063616c6c206661696c6564815250856001600160a01b0316613ad59092919063ffffffff16565b8051909150156129015780806020019051602081101561388457600080fd5b50516129015760405162461bcd60e51b815260040180806020018281038252602a815260200180613eda602a913960400191505060405180910390fd5b6001600160a01b03821661391c576040805162461bcd60e51b815260206004820152601f60248201527f45524332303a206d696e7420746f20746865207a65726f206164647265737300604482015290519081900360640190fd5b61392860008383612901565b6002546139359082612bbc565b6002556001600160a01b03821660009081526020819052604090205461395b9082612bbc565b6001600160a01b0383166000818152602081815260408083209490945583518581529351929391927fddf252ad1be2c89b69c2b068fc378daa952ba7f163c4a11628f55a4df523b3ef9281900390910190a35050565b60006001600160a01b038216600080516020613d1983398151915214801590610c935750506001600160a01b031673a0b86991c6218b36c1d19d4a2e9eb0ce3606eb48141590565b600081613a0857506000611463565b600073d9e1ce17f2641f24ae83637ab66a2cca9c378b9f6001600160a01b03166338ed1739846000600830426040518663ffffffff1660e01b81526004018086815260200185815260200180602001846001600160a01b031681526020018381526020018281038252858181548152602001915080548015613037576020028201919060005260206000209081546001600160a01b031681526001909101906020018083116130195750509650505050505050600060405180830381600087803b15801561305b57600080fd5b6060613ae48484600085613aec565b949350505050565b606082471015613b2d5760405162461bcd60e51b8152600401808060200182810382526026815260200180613de16026913960400191505060405180910390fd5b613b3685613c47565b613b87576040805162461bcd60e51b815260206004820152601d60248201527f416464726573733a2063616c6c20746f206e6f6e2d636f6e7472616374000000604482015290519081900360640190fd5b600080866001600160a01b031685876040518082805190602001908083835b60208310613bc55780518252601f199092019160209182019101613ba6565b6001836020036101000a03801982511681845116808217855250505050505090500191505060006040518083038185875af1925050503d8060008114613c27576040519150601f19603f3d011682016040523d82523d6000602084013e613c2c565b606091505b5091509150613c3c828286613c4d565b979650505050505050565b3b151590565b60608315613c5c575081610f50565b825115613c6c5782518084602001fd5b60405162461bcd60e51b8152602060048201818152845160248401528451859391928392604401919085019080838360008315612ab5578181015183820152602001612a9d56fe45524332303a207472616e7366657220746f20746865207a65726f20616464726573735265656e7472616e637947756172643a207265656e7472616e742063616c6c0045524332303a206275726e20616d6f756e7420657863656564732062616c616e6365000000000000000000000000c02aaa39b223fe8d0a0e5c4f27ead9083c756cc24f776e61626c653a206e6577206f776e657220697320746865207a65726f206164647265737345524332303a20617070726f766520746f20746865207a65726f206164647265737345524332303a207472616e7366657220616d6f756e7420657863656564732062616c616e6365416464726573733a20756e61626c6520746f2073656e642076616c75652c20726563697069656e74206d61792068617665207265766572746564416464726573733a20696e73756666696369656e742062616c616e636520666f722063616c6c536166654d6174683a206d756c7469706c69636174696f6e206f766572666c6f7745524332303a207472616e7366657220616d6f756e74206578636565647320616c6c6f77616e63654f776e61626c653a2063616c6c6572206973206e6f7420746865206f776e657245524332303a206275726e2066726f6d20746865207a65726f206164647265737345524332303a207472616e736665722066726f6d20746865207a65726f206164647265737345524332303a20617070726f76652066726f6d20746865207a65726f20616464726573735361666545524332303a204552433230206f7065726174696f6e20646964206e6f74207375636365656445524332303a2064656372656173656420616c6c6f77616e63652062656c6f77207a65726fa2646970667358221220259d07d0905794d7935f8714ff6fc2e9703d55b9d3b2531b6c0c321ab77f014764736f6c63430007060033",
  "linkReferences": {},
  "deployedLinkReferences": {}
}