{
  "_format": "hh-sol-artifact-1",
  "contractName": "RebalancingStrategy2",
  "sourceName": "contracts/RebalancingStrategy2.sol",
  "abi": [
    {
      "anonymous": false,
      "inputs": [
        {
          "indexed": true,
          "internalType": "address",
          "name": "previousOwner",
          "type": "address"
        },
        {
          "indexed": true,
          "internalType": "address",
          "name": "newOwner",
          "type": "address"
        }
      ],
      "name": "OwnershipTransferred",
      "type": "event"
    },
    {
      "anonymous": false,
      "inputs": [
        {
          "indexed": false,
          "internalType": "address",
          "name": "account",
          "type": "address"
        }
      ],
      "name": "Paused",
      "type": "event"
    },
    {
      "anonymous": false,
      "inputs": [
        {
          "indexed": false,
          "internalType": "address",
          "name": "account",
          "type": "address"
        }
      ],
      "name": "Unpaused",
      "type": "event"
    },
    {
      "inputs": [],
      "name": "BASE_PERCENTMIL",
      "outputs": [
        {
          "internalType": "uint256",
          "name": "",
          "type": "uint256"
        }
      ],
      "stateMutability": "view",
      "type": "function"
    },
    {
      "inputs": [],
      "name": "MASTERCHEF",
      "outputs": [
        {
          "internalType": "address",
          "name": "",
          "type": "address"
        }
      ],
      "stateMutability": "view",
      "type": "function"
    },
    {
      "inputs": [],
      "name": "POOL_ID",
      "outputs": [
        {
          "internalType": "uint256",
          "name": "",
          "type": "uint256"
        }
      ],
      "stateMutability": "view",
      "type": "function"
    },
    {
      "inputs": [],
      "name": "REWARD",
      "outputs": [
        {
          "internalType": "address",
          "name": "",
          "type": "address"
        }
      ],
      "stateMutability": "view",
      "type": "function"
    },
    {
      "inputs": [],
      "name": "ROUTER",
      "outputs": [
        {
          "internalType": "address",
          "name": "",
          "type": "address"
        }
      ],
      "stateMutability": "view",
      "type": "function"
    },
    {
      "inputs": [],
      "name": "SLP",
      "outputs": [
        {
          "internalType": "address",
          "name": "",
          "type": "address"
        }
      ],
      "stateMutability": "view",
      "type": "function"
    },
    {
      "inputs": [],
      "name": "USDC",
      "outputs": [
        {
          "internalType": "address",
          "name": "",
          "type": "address"
        }
      ],
      "stateMutability": "view",
      "type": "function"
    },
    {
      "inputs": [],
      "name": "WETH",
      "outputs": [
        {
          "internalType": "address",
          "name": "",
          "type": "address"
        }
      ],
      "stateMutability": "view",
      "type": "function"
    },
    {
      "inputs": [
        {
          "internalType": "uint256",
          "name": "outUSDC",
          "type": "uint256"
        }
      ],
      "name": "amountInETHForRequestedOutUSDC",
      "outputs": [
        {
          "internalType": "uint256",
          "name": "inETH",
          "type": "uint256"
        }
      ],
      "stateMutability": "view",
      "type": "function"
    },
    {
      "inputs": [],
      "name": "depositAllCapital",
      "outputs": [],
      "stateMutability": "nonpayable",
      "type": "function"
    },
    {
      "inputs": [
        {
          "internalType": "uint256",
          "name": "amount",
          "type": "uint256"
        }
      ],
      "name": "depositCapital",
      "outputs": [],
      "stateMutability": "nonpayable",
      "type": "function"
    },
    {
      "inputs": [],
      "name": "governance",
      "outputs": [
        {
          "internalType": "address",
          "name": "",
          "type": "address"
        }
      ],
      "stateMutability": "view",
      "type": "function"
    },
    {
      "inputs": [],
      "name": "owner",
      "outputs": [
        {
          "internalType": "address",
          "name": "",
          "type": "address"
        }
      ],
      "stateMutability": "view",
      "type": "function"
    },
    {
      "inputs": [],
      "name": "ownerRewardsPercentmil",
      "outputs": [
        {
          "internalType": "uint256",
          "name": "",
          "type": "uint256"
        }
      ],
      "stateMutability": "view",
      "type": "function"
    },
    {
      "inputs": [
        {
          "internalType": "uint256",
          "name": "",
          "type": "uint256"
        }
      ],
      "name": "pathToETH",
      "outputs": [
        {
          "internalType": "address",
          "name": "",
          "type": "address"
        }
      ],
      "stateMutability": "view",
      "type": "function"
    },
    {
      "inputs": [
        {
          "internalType": "uint256",
          "name": "",
          "type": "uint256"
        }
      ],
      "name": "pathToUSDC",
      "outputs": [
        {
          "internalType": "address",
          "name": "",
          "type": "address"
        }
      ],
      "stateMutability": "view",
      "type": "function"
    },
    {
      "inputs": [],
      "name": "pause",
      "outputs": [],
      "stateMutability": "nonpayable",
      "type": "function"
    },
    {
      "inputs": [],
      "name": "paused",
      "outputs": [
        {
          "internalType": "bool",
          "name": "",
          "type": "bool"
        }
      ],
      "stateMutability": "view",
      "type": "function"
    },
    {
      "inputs": [
        {
          "internalType": "uint256",
          "name": "inETH",
          "type": "uint256"
        }
      ],
      "name": "quote",
      "outputs": [
        {
          "internalType": "uint256",
          "name": "outUSDC",
          "type": "uint256"
        }
      ],
      "stateMutability": "view",
      "type": "function"
    },
    {
      "inputs": [
        {
          "internalType": "uint256",
          "name": "inUSDC",
          "type": "uint256"
        }
      ],
      "name": "quoteInverse",
      "outputs": [
        {
          "internalType": "uint256",
          "name": "outETH",
          "type": "uint256"
        }
      ],
      "stateMutability": "view",
      "type": "function"
    },
    {
      "inputs": [],
      "name": "renounceOwnership",
      "outputs": [],
      "stateMutability": "nonpayable",
      "type": "function"
    },
    {
      "inputs": [
        {
          "internalType": "address[]",
          "name": "tokens_",
          "type": "address[]"
        }
      ],
      "name": "salvage",
      "outputs": [],
      "stateMutability": "nonpayable",
      "type": "function"
    },
    {
      "inputs": [
        {
          "internalType": "address",
          "name": "_governance",
          "type": "address"
        }
      ],
      "name": "setGovernance",
      "outputs": [],
      "stateMutability": "nonpayable",
      "type": "function"
    },
    {
      "inputs": [
        {
          "internalType": "uint256",
          "name": "_ownerRewardsPercentmil",
          "type": "uint256"
        }
      ],
      "name": "setOwnerRewardsPercentmil",
      "outputs": [],
      "stateMutability": "nonpayable",
      "type": "function"
    },
    {
      "inputs": [
        {
          "internalType": "address",
          "name": "newOwner",
          "type": "address"
        }
      ],
      "name": "transferOwnership",
      "outputs": [],
      "stateMutability": "nonpayable",
      "type": "function"
    },
    {
      "inputs": [],
      "name": "unpause",
      "outputs": [],
      "stateMutability": "nonpayable",
      "type": "function"
    },
    {
      "inputs": [],
      "name": "withdrawFreeCapital",
      "outputs": [],
      "stateMutability": "nonpayable",
      "type": "function"
    },
    {
      "stateMutability": "payable",
      "type": "receive"
    }
  ],
  "bytecode": "0x6002608081815260e060405290816020016020820280368337505081516200002f926004925060200190620004af565b5060408051600280825260608201835290916020830190803683375050815162000061926005925060200190620004af565b503480156200006f57600080fd5b5060006200007c620004ab565b600080546001600160a01b0319166001600160a01b0383169081178255604051929350917f8be0079c531659141344cd1fd0a4f28419497f9722a3daafe3b4186f6b6457e0908290a3506000805460ff60a01b1916815560018055600280546001600160a01b031916331790556005805473c02aaa39b223fe8d0a0e5c4f27ead9083c756cc292906200010b57fe5b9060005260206000200160006101000a8154816001600160a01b0302191690836001600160a01b0316021790555073a0b86991c6218b36c1d19d4a2e9eb0ce3606eb4860056001815481106200015d57fe5b9060005260206000200160006101000a8154816001600160a01b0302191690836001600160a01b0316021790555073a0b86991c6218b36c1d19d4a2e9eb0ce3606eb486004600081548110620001af57fe5b9060005260206000200160006101000a8154816001600160a01b0302191690836001600160a01b0316021790555073c02aaa39b223fe8d0a0e5c4f27ead9083c756cc260046001815481106200020157fe5b600091825260208083209190910180546001600160a01b0319166001600160a01b0394909416939093179092556040805163095ea7b360e01b815273d9e1ce17f2641f24ae83637ab66a2cca9c378b9f60048201526000196024820152905173a0b86991c6218b36c1d19d4a2e9eb0ce3606eb489363095ea7b3936044808501949293928390030190829087803b1580156200029c57600080fd5b505af1158015620002b1573d6000803e3d6000fd5b505050506040513d6020811015620002c857600080fd5b50506040805163095ea7b360e01b815273d9e1ce17f2641f24ae83637ab66a2cca9c378b9f60048201526000196024820152905173c02aaa39b223fe8d0a0e5c4f27ead9083c756cc29163095ea7b39160448083019260209291908290030181600087803b1580156200033a57600080fd5b505af11580156200034f573d6000803e3d6000fd5b505050506040513d60208110156200036657600080fd5b50506040805163095ea7b360e01b815273d9e1ce17f2641f24ae83637ab66a2cca9c378b9f60048201526000196024820152905173397ff1542f962076d0bfe58ea045ffa2d347aca09163095ea7b39160448083019260209291908290030181600087803b158015620003d857600080fd5b505af1158015620003ed573d6000803e3d6000fd5b505050506040513d60208110156200040457600080fd5b50506040805163095ea7b360e01b815273c2edad668740f1aa35e4d8f227fb8e17dca888cd60048201526000196024820152905173397ff1542f962076d0bfe58ea045ffa2d347aca09163095ea7b39160448083019260209291908290030181600087803b1580156200047657600080fd5b505af11580156200048b573d6000803e3d6000fd5b505050506040513d6020811015620004a257600080fd5b50620005309050565b3390565b82805482825590600052602060002090810192821562000507579160200282015b828111156200050757825182546001600160a01b0319166001600160a01b03909116178255602090920191600190910190620004d0565b506200051592915062000519565b5090565b5b808211156200051557600081556001016200051a565b6117fd80620005406000396000f3fe6080604052600436106101a05760003560e01c80638456cb59116100ec578063b1eb53521161008a578063e0d7d0e911610064578063e0d7d0e91461050a578063e3692c361461051f578063ed1bd76c14610534578063f2fde38b1461055e576101a7565b8063b1eb53521461041b578063cab34c0814610445578063d85d515e1461045a576101a7565b8063900d1099116100c6578063900d1099146103945780639e11ef44146103a9578063ab033ea9146103d3578063ad5c464814610406576101a7565b80638456cb591461035557806389a302711461036a5780638da5cb5b1461037f576101a7565b8063386fed69116101595780635aa6e675116101335780635aa6e675146102d85780635c975abb146102ed578063662fd80414610316578063715018a614610340576101a7565b8063386fed69146102825780633f4ba83a1461029957806354115590146102ae576101a7565b8063131331b1146101ac57806314b4218c146101d35780631598b7f81461021957806318761232146102435780632509f1b91461025857806332fe7b261461026d576101a7565b366101a757005b600080fd5b3480156101b857600080fd5b506101c1610591565b60408051918252519081900360200190f35b3480156101df57600080fd5b506101fd600480360360208110156101f657600080fd5b5035610597565b604080516001600160a01b039092168252519081900360200190f35b34801561022557600080fd5b506101c16004803603602081101561023c57600080fd5b50356105c1565b34801561024f57600080fd5b506101c16106e4565b34801561026457600080fd5b506101fd6106eb565b34801561027957600080fd5b506101fd610703565b34801561028e57600080fd5b5061029761071b565b005b3480156102a557600080fd5b50610297610806565b3480156102ba57600080fd5b50610297600480360360208110156102d157600080fd5b5035610870565b3480156102e457600080fd5b506101fd6108c6565b3480156102f957600080fd5b506103026108d5565b604080519115158252519081900360200190f35b34801561032257600080fd5b506101fd6004803603602081101561033957600080fd5b50356108e5565b34801561034c57600080fd5b506102976108f5565b34801561036157600080fd5b506102976109a1565b34801561037657600080fd5b506101fd610a0b565b34801561038b57600080fd5b506101fd610a23565b3480156103a057600080fd5b50610297610a32565b3480156103b557600080fd5b50610297600480360360208110156103cc57600080fd5b5035610b3f565b3480156103df57600080fd5b50610297600480360360208110156103f657600080fd5b50356001600160a01b0316610bc7565b34801561041257600080fd5b506101fd610c87565b34801561042757600080fd5b506101c16004803603602081101561043e57600080fd5b5035610c9f565b34801561045157600080fd5b506101fd610e2e565b34801561046657600080fd5b506102976004803603602081101561047d57600080fd5b81019060208101813564010000000081111561049857600080fd5b8201836020820111156104aa57600080fd5b803590602001918460208302840111640100000000831117156104cc57600080fd5b919080806020026020016040519081016040528093929190818152602001838360200280828437600092019190915250929550610e46945050505050565b34801561051657600080fd5b506101c1610fbc565b34801561052b57600080fd5b506101fd610fc1565b34801561054057600080fd5b506101c16004803603602081101561055757600080fd5b5035610fd9565b34801561056a57600080fd5b506102976004803603602081101561058157600080fd5b50356001600160a01b03166110c8565b60035481565b600581815481106105a757600080fd5b6000918252602090912001546001600160a01b0316905081565b600080600073397ff1542f962076d0bfe58ea045ffa2d347aca06001600160a01b0316630902f1ac6040518163ffffffff1660e01b815260040160606040518083038186803b15801561061357600080fd5b505afa158015610627573d6000803e3d6000fd5b505050506040513d606081101561063d57600080fd5b50805160209182015160408051632b58577b60e21b8152600481018990526001600160701b03808516602483015283166044820152905192955090935073d9e1ce17f2641f24ae83637ab66a2cca9c378b9f9263ad615dec92606480840193829003018186803b1580156106b057600080fd5b505afa1580156106c4573d6000803e3d6000fd5b505050506040513d60208110156106da57600080fd5b5051949350505050565b620186a081565b73397ff1542f962076d0bfe58ea045ffa2d347aca081565b73d9e1ce17f2641f24ae83637ab66a2cca9c378b9f81565b6107236111ca565b6001600160a01b0316610734610a23565b6001600160a01b03161461077d576040805162461bcd60e51b8152602060048201819052602482015260008051602061177e833981519152604482015290519081900360640190fd5b604080516370a0823160e01b815233600482015290516108049173a0b86991c6218b36c1d19d4a2e9eb0ce3606eb48916370a0823191602480820192602092909190829003018186803b1580156107d357600080fd5b505afa1580156107e7573d6000803e3d6000fd5b505050506040513d60208110156107fd57600080fd5b5051610b3f565b565b61080e6111ca565b6001600160a01b031661081f610a23565b6001600160a01b031614610868576040805162461bcd60e51b8152602060048201819052602482015260008051602061177e833981519152604482015290519081900360640190fd5b6108046111ce565b6002546001600160a01b031633146108c1576040805162461bcd60e51b815260206004820152600f60248201526e6f6e6c7920676f7665726e616e636560881b604482015290519081900360640190fd5b600355565b6002546001600160a01b031681565b600054600160a01b900460ff1690565b600481815481106105a757600080fd5b6108fd6111ca565b6001600160a01b031661090e610a23565b6001600160a01b031614610957576040805162461bcd60e51b8152602060048201819052602482015260008051602061177e833981519152604482015290519081900360640190fd5b600080546040516001600160a01b03909116907f8be0079c531659141344cd1fd0a4f28419497f9722a3daafe3b4186f6b6457e0908390a3600080546001600160a01b0319169055565b6109a96111ca565b6001600160a01b03166109ba610a23565b6001600160a01b031614610a03576040805162461bcd60e51b8152602060048201819052602482015260008051602061177e833981519152604482015290519081900360640190fd5b610804611271565b73a0b86991c6218b36c1d19d4a2e9eb0ce3606eb4881565b6000546001600160a01b031690565b610a3a6111ca565b6001600160a01b0316610a4b610a23565b6001600160a01b031614610a94576040805162461bcd60e51b8152602060048201819052602482015260008051602061177e833981519152604482015290519081900360640190fd5b604080516370a0823160e01b8152306004820152905160009173a0b86991c6218b36c1d19d4a2e9eb0ce3606eb48916370a0823191602480820192602092909190829003018186803b158015610ae957600080fd5b505afa158015610afd573d6000803e3d6000fd5b505050506040513d6020811015610b1357600080fd5b505190508015610b3c57610b3c73a0b86991c6218b36c1d19d4a2e9eb0ce3606eb4833836112fa565b50565b610b476111ca565b6001600160a01b0316610b58610a23565b6001600160a01b031614610ba1576040805162461bcd60e51b8152602060048201819052602482015260008051602061177e833981519152604482015290519081900360640190fd5b8015610b3c57610b3c73a0b86991c6218b36c1d19d4a2e9eb0ce3606eb48333084611351565b6002546001600160a01b03163314610c18576040805162461bcd60e51b815260206004820152600f60248201526e6f6e6c7920676f7665726e616e636560881b604482015290519081900360640190fd5b6001600160a01b038116610c65576040805162461bcd60e51b815260206004820152600f60248201526e6e756c6c20676f7665726e616e636560881b604482015290519081900360640190fd5b600280546001600160a01b0319166001600160a01b0392909216919091179055565b73c02aaa39b223fe8d0a0e5c4f27ead9083c756cc281565b600073d9e1ce17f2641f24ae83637ab66a2cca9c378b9f6001600160a01b0316631f00ca748360056040518363ffffffff1660e01b815260040180838152602001806020018281038252838181548152602001915080548015610d2b57602002820191906000526020600020905b81546001600160a01b03168152600190910190602001808311610d0d575b5050935050505060006040518083038186803b158015610d4a57600080fd5b505afa158015610d5e573d6000803e3d6000fd5b505050506040513d6000823e601f3d908101601f191682016040526020811015610d8757600080fd5b8101908080516040519392919084640100000000821115610da757600080fd5b908301906020820185811115610dbc57600080fd5b8251866020820283011164010000000082111715610dd957600080fd5b82525081516020918201928201910280838360005b83811015610e06578181015183820152602001610dee565b50505050905001604052505050600081518110610e1f57fe5b60200260200101519050919050565b736b3595068778dd592e39a122f4f5a5cf09c90fe281565b610e4e6111ca565b6001600160a01b0316610e5f610a23565b6001600160a01b031614610ea8576040805162461bcd60e51b8152602060048201819052602482015260008051602061177e833981519152604482015290519081900360640190fd5b60005b8151811015610fb8576000828281518110610ec257fe5b60200260200101519050610ed5816113b1565b610f17576040805162461bcd60e51b815260206004820152600e60248201526d6e6f742073616c76616761626c6560901b604482015290519081900360640190fd5b6000816001600160a01b03166370a08231306040518263ffffffff1660e01b815260040180826001600160a01b0316815260200191505060206040518083038186803b158015610f6657600080fd5b505afa158015610f7a573d6000803e3d6000fd5b505050506040513d6020811015610f9057600080fd5b505190508015610fae57610fae6001600160a01b03831633836112fa565b5050600101610eab565b5050565b600181565b73c2edad668740f1aa35e4d8f227fb8e17dca888cd81565b600080600073397ff1542f962076d0bfe58ea045ffa2d347aca06001600160a01b0316630902f1ac6040518163ffffffff1660e01b815260040160606040518083038186803b15801561102b57600080fd5b505afa15801561103f573d6000803e3d6000fd5b505050506040513d606081101561105557600080fd5b50805160209182015160408051632b58577b60e21b8152600481018990526001600160701b03808416602483015284166044820152905192955090935073d9e1ce17f2641f24ae83637ab66a2cca9c378b9f9263ad615dec92606480840193829003018186803b1580156106b057600080fd5b6110d06111ca565b6001600160a01b03166110e1610a23565b6001600160a01b03161461112a576040805162461bcd60e51b8152602060048201819052602482015260008051602061177e833981519152604482015290519081900360640190fd5b6001600160a01b03811661116f5760405162461bcd60e51b81526004018080602001828103825260268152602001806117326026913960400191505060405180910390fd5b600080546040516001600160a01b03808516939216917f8be0079c531659141344cd1fd0a4f28419497f9722a3daafe3b4186f6b6457e091a3600080546001600160a01b0319166001600160a01b0392909216919091179055565b3390565b6111d66108d5565b61121e576040805162461bcd60e51b815260206004820152601460248201527314185d5cd8589b194e881b9bdd081c185d5cd95960621b604482015290519081900360640190fd5b6000805460ff60a01b191690557f5db9ee0a495bf2e6ff9c91a7834c1ba4fdd244a5e8aa4e537bd38aeae4b073aa6112546111ca565b604080516001600160a01b039092168252519081900360200190a1565b6112796108d5565b156112be576040805162461bcd60e51b815260206004820152601060248201526f14185d5cd8589b194e881c185d5cd95960821b604482015290519081900360640190fd5b6000805460ff60a01b1916600160a01b1790557f62e78cea01bee320cd4e420270b5ea74000d11b0c9f74754ebdbfc544b05a2586112546111ca565b604080516001600160a01b038416602482015260448082018490528251808303909101815260649091019091526020810180516001600160e01b031663a9059cbb60e01b17905261134c908490611414565b505050565b604080516001600160a01b0380861660248301528416604482015260648082018490528251808303909101815260849091019091526020810180516001600160e01b03166323b872dd60e01b1790526113ab908590611414565b50505050565b60006113bc826114c5565b80156113e557506001600160a01b03821673397ff1542f962076d0bfe58ea045ffa2d347aca014155b801561140e57506001600160a01b038216736b3595068778dd592e39a122f4f5a5cf09c90fe214155b92915050565b6000611469826040518060400160405280602081526020017f5361666545524332303a206c6f772d6c6576656c2063616c6c206661696c6564815250856001600160a01b03166115139092919063ffffffff16565b80519091501561134c5780806020019051602081101561148857600080fd5b505161134c5760405162461bcd60e51b815260040180806020018281038252602a81526020018061179e602a913960400191505060405180910390fd5b60006001600160a01b03821673c02aaa39b223fe8d0a0e5c4f27ead9083c756cc21480159061140e5750506001600160a01b031673a0b86991c6218b36c1d19d4a2e9eb0ce3606eb48141590565b6060611522848460008561152c565b90505b9392505050565b60608247101561156d5760405162461bcd60e51b81526004018080602001828103825260268152602001806117586026913960400191505060405180910390fd5b61157685611687565b6115c7576040805162461bcd60e51b815260206004820152601d60248201527f416464726573733a2063616c6c20746f206e6f6e2d636f6e7472616374000000604482015290519081900360640190fd5b600080866001600160a01b031685876040518082805190602001908083835b602083106116055780518252601f1990920191602091820191016115e6565b6001836020036101000a03801982511681845116808217855250505050505090500191505060006040518083038185875af1925050503d8060008114611667576040519150601f19603f3d011682016040523d82523d6000602084013e61166c565b606091505b509150915061167c82828661168d565b979650505050505050565b3b151590565b6060831561169c575081611525565b8251156116ac5782518084602001fd5b8160405162461bcd60e51b81526004018080602001828103825283818151815260200191508051906020019080838360005b838110156116f65781810151838201526020016116de565b50505050905090810190601f1680156117235780820380516001836020036101000a031916815260200191505b509250505060405180910390fdfe4f776e61626c653a206e6577206f776e657220697320746865207a65726f2061646472657373416464726573733a20696e73756666696369656e742062616c616e636520666f722063616c6c4f776e61626c653a2063616c6c6572206973206e6f7420746865206f776e65725361666545524332303a204552433230206f7065726174696f6e20646964206e6f742073756363656564a26469706673582212200cae1330ad37ab45e98d109aecfa0844bd6aebdacbde9c1e5c16ff564983dd1864736f6c63430007060033",
  "linkReferences": {},
  "deployedLinkReferences": {}
}