{
  "_format": "hh-sol-artifact-1",
  "contractName": "RebalancingStrategy3",
  "sourceName": "contracts/RebalancingStrategy3.sol",
  "abi": [
    {
      "anonymous": false,
      "inputs": [
        {
          "indexed": true,
          "internalType": "address",
          "name": "previousOwner",
          "type": "address"
        },
        {
          "indexed": true,
          "internalType": "address",
          "name": "newOwner",
          "type": "address"
        }
      ],
      "name": "OwnershipTransferred",
      "type": "event"
    },
    {
      "anonymous": false,
      "inputs": [
        {
          "indexed": false,
          "internalType": "address",
          "name": "account",
          "type": "address"
        }
      ],
      "name": "Paused",
      "type": "event"
    },
    {
      "anonymous": false,
      "inputs": [
        {
          "indexed": false,
          "internalType": "address",
          "name": "account",
          "type": "address"
        }
      ],
      "name": "Unpaused",
      "type": "event"
    },
    {
      "inputs": [],
      "name": "MASTERCHEF",
      "outputs": [
        {
          "internalType": "address",
          "name": "",
          "type": "address"
        }
      ],
      "stateMutability": "view",
      "type": "function"
    },
    {
      "inputs": [],
      "name": "POOL_ID",
      "outputs": [
        {
          "internalType": "uint256",
          "name": "",
          "type": "uint256"
        }
      ],
      "stateMutability": "view",
      "type": "function"
    },
    {
      "inputs": [],
      "name": "SLP",
      "outputs": [
        {
          "internalType": "address",
          "name": "",
          "type": "address"
        }
      ],
      "stateMutability": "view",
      "type": "function"
    },
    {
      "inputs": [],
      "name": "SROUTER",
      "outputs": [
        {
          "internalType": "address",
          "name": "",
          "type": "address"
        }
      ],
      "stateMutability": "view",
      "type": "function"
    },
    {
      "inputs": [],
      "name": "SUSHI",
      "outputs": [
        {
          "internalType": "address",
          "name": "",
          "type": "address"
        }
      ],
      "stateMutability": "view",
      "type": "function"
    },
    {
      "inputs": [],
      "name": "USDC",
      "outputs": [
        {
          "internalType": "address",
          "name": "",
          "type": "address"
        }
      ],
      "stateMutability": "view",
      "type": "function"
    },
    {
      "inputs": [],
      "name": "WETH",
      "outputs": [
        {
          "internalType": "address",
          "name": "",
          "type": "address"
        }
      ],
      "stateMutability": "view",
      "type": "function"
    },
    {
      "inputs": [
        {
          "internalType": "uint256",
          "name": "outUSDC",
          "type": "uint256"
        }
      ],
      "name": "amountInETHForRequestedOutUSDC",
      "outputs": [
        {
          "internalType": "uint256",
          "name": "inETH",
          "type": "uint256"
        }
      ],
      "stateMutability": "view",
      "type": "function"
    },
    {
      "inputs": [],
      "name": "depositAllCapital",
      "outputs": [],
      "stateMutability": "nonpayable",
      "type": "function"
    },
    {
      "inputs": [
        {
          "internalType": "uint256",
          "name": "amount",
          "type": "uint256"
        }
      ],
      "name": "depositCapital",
      "outputs": [],
      "stateMutability": "nonpayable",
      "type": "function"
    },
    {
      "inputs": [],
      "name": "governance",
      "outputs": [
        {
          "internalType": "address",
          "name": "",
          "type": "address"
        }
      ],
      "stateMutability": "view",
      "type": "function"
    },
    {
      "inputs": [],
      "name": "owner",
      "outputs": [
        {
          "internalType": "address",
          "name": "",
          "type": "address"
        }
      ],
      "stateMutability": "view",
      "type": "function"
    },
    {
      "inputs": [
        {
          "internalType": "uint256",
          "name": "",
          "type": "uint256"
        }
      ],
      "name": "pathToETH",
      "outputs": [
        {
          "internalType": "address",
          "name": "",
          "type": "address"
        }
      ],
      "stateMutability": "view",
      "type": "function"
    },
    {
      "inputs": [
        {
          "internalType": "uint256",
          "name": "",
          "type": "uint256"
        }
      ],
      "name": "pathToUSDC",
      "outputs": [
        {
          "internalType": "address",
          "name": "",
          "type": "address"
        }
      ],
      "stateMutability": "view",
      "type": "function"
    },
    {
      "inputs": [],
      "name": "pause",
      "outputs": [],
      "stateMutability": "nonpayable",
      "type": "function"
    },
    {
      "inputs": [],
      "name": "paused",
      "outputs": [
        {
          "internalType": "bool",
          "name": "",
          "type": "bool"
        }
      ],
      "stateMutability": "view",
      "type": "function"
    },
    {
      "inputs": [
        {
          "internalType": "uint256",
          "name": "inETH",
          "type": "uint256"
        }
      ],
      "name": "quote",
      "outputs": [
        {
          "internalType": "uint256",
          "name": "outUSDC",
          "type": "uint256"
        }
      ],
      "stateMutability": "view",
      "type": "function"
    },
    {
      "inputs": [],
      "name": "renounceOwnership",
      "outputs": [],
      "stateMutability": "nonpayable",
      "type": "function"
    },
    {
      "inputs": [
        {
          "internalType": "address[]",
          "name": "tokens_",
          "type": "address[]"
        }
      ],
      "name": "salvage",
      "outputs": [],
      "stateMutability": "nonpayable",
      "type": "function"
    },
    {
      "inputs": [
        {
          "internalType": "address",
          "name": "newOwner",
          "type": "address"
        }
      ],
      "name": "transferOwnership",
      "outputs": [],
      "stateMutability": "nonpayable",
      "type": "function"
    },
    {
      "inputs": [],
      "name": "unpause",
      "outputs": [],
      "stateMutability": "nonpayable",
      "type": "function"
    },
    {
      "inputs": [],
      "name": "withdrawFreeCapital",
      "outputs": [],
      "stateMutability": "nonpayable",
      "type": "function"
    },
    {
      "stateMutability": "payable",
      "type": "receive"
    }
  ],
  "bytecode": "0x6002608081815260e060405290816020016020820280368337505081516200002f926003925060200190620004af565b5060408051600280825260608201835290916020830190803683375050815162000061926004925060200190620004af565b503480156200006f57600080fd5b5060006200007c620004ab565b600080546001600160a01b0319166001600160a01b0383169081178255604051929350917f8be0079c531659141344cd1fd0a4f28419497f9722a3daafe3b4186f6b6457e0908290a3506000805460ff60a01b1916815560018055600280546001600160a01b031916331790556004805473c02aaa39b223fe8d0a0e5c4f27ead9083c756cc292906200010b57fe5b9060005260206000200160006101000a8154816001600160a01b0302191690836001600160a01b0316021790555073a0b86991c6218b36c1d19d4a2e9eb0ce3606eb4860046001815481106200015d57fe5b9060005260206000200160006101000a8154816001600160a01b0302191690836001600160a01b0316021790555073a0b86991c6218b36c1d19d4a2e9eb0ce3606eb486003600081548110620001af57fe5b9060005260206000200160006101000a8154816001600160a01b0302191690836001600160a01b0316021790555073c02aaa39b223fe8d0a0e5c4f27ead9083c756cc260036001815481106200020157fe5b600091825260208083209190910180546001600160a01b0319166001600160a01b0394909416939093179092556040805163095ea7b360e01b815273d9e1ce17f2641f24ae83637ab66a2cca9c378b9f60048201526000196024820152905173a0b86991c6218b36c1d19d4a2e9eb0ce3606eb489363095ea7b3936044808501949293928390030190829087803b1580156200029c57600080fd5b505af1158015620002b1573d6000803e3d6000fd5b505050506040513d6020811015620002c857600080fd5b50506040805163095ea7b360e01b815273d9e1ce17f2641f24ae83637ab66a2cca9c378b9f60048201526000196024820152905173c02aaa39b223fe8d0a0e5c4f27ead9083c756cc29163095ea7b39160448083019260209291908290030181600087803b1580156200033a57600080fd5b505af11580156200034f573d6000803e3d6000fd5b505050506040513d60208110156200036657600080fd5b50506040805163095ea7b360e01b815273d9e1ce17f2641f24ae83637ab66a2cca9c378b9f60048201526000196024820152905173397ff1542f962076d0bfe58ea045ffa2d347aca09163095ea7b39160448083019260209291908290030181600087803b158015620003d857600080fd5b505af1158015620003ed573d6000803e3d6000fd5b505050506040513d60208110156200040457600080fd5b50506040805163095ea7b360e01b815273c2edad668740f1aa35e4d8f227fb8e17dca888cd60048201526000196024820152905173397ff1542f962076d0bfe58ea045ffa2d347aca09163095ea7b39160448083019260209291908290030181600087803b1580156200047657600080fd5b505af11580156200048b573d6000803e3d6000fd5b505050506040513d6020811015620004a257600080fd5b50620005309050565b3390565b82805482825590600052602060002090810192821562000507579160200282015b828111156200050757825182546001600160a01b0319166001600160a01b03909116178255602090920191600190910190620004d0565b506200051592915062000519565b5090565b5b808211156200051557600081556001016200051a565b61143480620005406000396000f3fe6080604052600436106101395760003560e01c80638da5cb5b116100ab578063b1eb53521161006f578063b1eb535214610306578063d85d515e14610342578063e0d7d0e9146103f2578063e3692c3614610407578063ed1bd76c1461041c578063f2fde38b1461044657610140565b80638da5cb5b14610288578063900d10991461029d5780639e11ef44146102b2578063ab560e10146102dc578063ad5c4648146102f157610140565b80635c975abb116100fd5780635c975abb146101e1578063662fd8041461020a578063715018a61461023457806374969bf9146102495780638456cb591461025e57806389a302711461027357610140565b806314b4218c146101455780632509f1b91461018b578063386fed69146101a05780633f4ba83a146101b75780635aa6e675146101cc57610140565b3661014057005b600080fd5b34801561015157600080fd5b5061016f6004803603602081101561016857600080fd5b5035610479565b604080516001600160a01b039092168252519081900360200190f35b34801561019757600080fd5b5061016f6104a3565b3480156101ac57600080fd5b506101b56104bb565b005b3480156101c357600080fd5b506101b56105a6565b3480156101d857600080fd5b5061016f610610565b3480156101ed57600080fd5b506101f661061f565b604080519115158252519081900360200190f35b34801561021657600080fd5b5061016f6004803603602081101561022d57600080fd5b503561062f565b34801561024057600080fd5b506101b561063f565b34801561025557600080fd5b5061016f6106eb565b34801561026a57600080fd5b506101b5610703565b34801561027f57600080fd5b5061016f61076d565b34801561029457600080fd5b5061016f610785565b3480156102a957600080fd5b506101b5610794565b3480156102be57600080fd5b506101b5600480360360208110156102d557600080fd5b50356108a1565b3480156102e857600080fd5b5061016f610929565b3480156102fd57600080fd5b5061016f610941565b34801561031257600080fd5b506103306004803603602081101561032957600080fd5b5035610959565b60408051918252519081900360200190f35b34801561034e57600080fd5b506101b56004803603602081101561036557600080fd5b81019060208101813564010000000081111561038057600080fd5b82018360208201111561039257600080fd5b803590602001918460208302840111640100000000831117156103b457600080fd5b919080806020026020016040519081016040528093929190818152602001838360200280828437600092019190915250929550610ae8945050505050565b3480156103fe57600080fd5b50610330610c6e565b34801561041357600080fd5b5061016f610c73565b34801561042857600080fd5b506103306004803603602081101561043f57600080fd5b5035610c8b565b34801561045257600080fd5b506101b56004803603602081101561046957600080fd5b50356001600160a01b0316610db5565b6004818154811061048957600080fd5b6000918252602090912001546001600160a01b0316905081565b73397ff1542f962076d0bfe58ea045ffa2d347aca081565b6104c3610eb7565b6001600160a01b03166104d4610785565b6001600160a01b03161461051d576040805162461bcd60e51b815260206004820181905260248201526000805160206113b5833981519152604482015290519081900360640190fd5b604080516370a0823160e01b815233600482015290516105a49173a0b86991c6218b36c1d19d4a2e9eb0ce3606eb48916370a0823191602480820192602092909190829003018186803b15801561057357600080fd5b505afa158015610587573d6000803e3d6000fd5b505050506040513d602081101561059d57600080fd5b50516108a1565b565b6105ae610eb7565b6001600160a01b03166105bf610785565b6001600160a01b031614610608576040805162461bcd60e51b815260206004820181905260248201526000805160206113b5833981519152604482015290519081900360640190fd5b6105a4610ebb565b6002546001600160a01b031681565b600054600160a01b900460ff1690565b6003818154811061048957600080fd5b610647610eb7565b6001600160a01b0316610658610785565b6001600160a01b0316146106a1576040805162461bcd60e51b815260206004820181905260248201526000805160206113b5833981519152604482015290519081900360640190fd5b600080546040516001600160a01b03909116907f8be0079c531659141344cd1fd0a4f28419497f9722a3daafe3b4186f6b6457e0908390a3600080546001600160a01b0319169055565b73d9e1ce17f2641f24ae83637ab66a2cca9c378b9f81565b61070b610eb7565b6001600160a01b031661071c610785565b6001600160a01b031614610765576040805162461bcd60e51b815260206004820181905260248201526000805160206113b5833981519152604482015290519081900360640190fd5b6105a4610f5e565b73a0b86991c6218b36c1d19d4a2e9eb0ce3606eb4881565b6000546001600160a01b031690565b61079c610eb7565b6001600160a01b03166107ad610785565b6001600160a01b0316146107f6576040805162461bcd60e51b815260206004820181905260248201526000805160206113b5833981519152604482015290519081900360640190fd5b604080516370a0823160e01b8152306004820152905160009173a0b86991c6218b36c1d19d4a2e9eb0ce3606eb48916370a0823191602480820192602092909190829003018186803b15801561084b57600080fd5b505afa15801561085f573d6000803e3d6000fd5b505050506040513d602081101561087557600080fd5b50519050801561089e5761089e73a0b86991c6218b36c1d19d4a2e9eb0ce3606eb483383610fe7565b50565b6108a9610eb7565b6001600160a01b03166108ba610785565b6001600160a01b031614610903576040805162461bcd60e51b815260206004820181905260248201526000805160206113b5833981519152604482015290519081900360640190fd5b801561089e5761089e73a0b86991c6218b36c1d19d4a2e9eb0ce3606eb48333084611039565b736b3595068778dd592e39a122f4f5a5cf09c90fe281565b73c02aaa39b223fe8d0a0e5c4f27ead9083c756cc281565b600073d9e1ce17f2641f24ae83637ab66a2cca9c378b9f6001600160a01b0316631f00ca748360046040518363ffffffff1660e01b8152600401808381526020018060200182810382528381815481526020019150805480156109e557602002820191906000526020600020905b81546001600160a01b031681526001909101906020018083116109c7575b5050935050505060006040518083038186803b158015610a0457600080fd5b505afa158015610a18573d6000803e3d6000fd5b505050506040513d6000823e601f3d908101601f191682016040526020811015610a4157600080fd5b8101908080516040519392919084640100000000821115610a6157600080fd5b908301906020820185811115610a7657600080fd5b8251866020820283011164010000000082111715610a9357600080fd5b82525081516020918201928201910280838360005b83811015610ac0578181015183820152602001610aa8565b50505050905001604052505050600081518110610ad957fe5b60200260200101519050919050565b610af0610eb7565b6001600160a01b0316610b01610785565b6001600160a01b031614610b4a576040805162461bcd60e51b815260206004820181905260248201526000805160206113b5833981519152604482015290519081900360640190fd5b805160005b81811015610c69576000838281518110610b6557fe5b6020026020010151905073c02aaa39b223fe8d0a0e5c4f27ead9083c756cc26001600160a01b0316816001600160a01b031614158015610bc257506001600160a01b03811673a0b86991c6218b36c1d19d4a2e9eb0ce3606eb4814155b15610c60576000816001600160a01b03166370a08231306040518263ffffffff1660e01b815260040180826001600160a01b0316815260200191505060206040518083038186803b158015610c1657600080fd5b505afa158015610c2a573d6000803e3d6000fd5b505050506040513d6020811015610c4057600080fd5b505190508015610c5e57610c5e6001600160a01b0383163383610fe7565b505b50600101610b4f565b505050565b600181565b73c2edad668740f1aa35e4d8f227fb8e17dca888cd81565b600080600073397ff1542f962076d0bfe58ea045ffa2d347aca06001600160a01b0316630902f1ac6040518163ffffffff1660e01b815260040160606040518083038186803b158015610cdd57600080fd5b505afa158015610cf1573d6000803e3d6000fd5b505050506040513d6060811015610d0757600080fd5b50805160209182015160408051632b58577b60e21b8152600481018990526dffffffffffffffffffffffffffff808416602483015284166044820152905192955090935073d9e1ce17f2641f24ae83637ab66a2cca9c378b9f9263ad615dec92606480840193829003018186803b158015610d8157600080fd5b505afa158015610d95573d6000803e3d6000fd5b505050506040513d6020811015610dab57600080fd5b5051949350505050565b610dbd610eb7565b6001600160a01b0316610dce610785565b6001600160a01b031614610e17576040805162461bcd60e51b815260206004820181905260248201526000805160206113b5833981519152604482015290519081900360640190fd5b6001600160a01b038116610e5c5760405162461bcd60e51b81526004018080602001828103825260268152602001806113696026913960400191505060405180910390fd5b600080546040516001600160a01b03808516939216917f8be0079c531659141344cd1fd0a4f28419497f9722a3daafe3b4186f6b6457e091a3600080546001600160a01b0319166001600160a01b0392909216919091179055565b3390565b610ec361061f565b610f0b576040805162461bcd60e51b815260206004820152601460248201527314185d5cd8589b194e881b9bdd081c185d5cd95960621b604482015290519081900360640190fd5b6000805460ff60a01b191690557f5db9ee0a495bf2e6ff9c91a7834c1ba4fdd244a5e8aa4e537bd38aeae4b073aa610f41610eb7565b604080516001600160a01b039092168252519081900360200190a1565b610f6661061f565b15610fab576040805162461bcd60e51b815260206004820152601060248201526f14185d5cd8589b194e881c185d5cd95960821b604482015290519081900360640190fd5b6000805460ff60a01b1916600160a01b1790557f62e78cea01bee320cd4e420270b5ea74000d11b0c9f74754ebdbfc544b05a258610f41610eb7565b604080516001600160a01b038416602482015260448082018490528251808303909101815260649091019091526020810180516001600160e01b031663a9059cbb60e01b179052610c69908490611099565b604080516001600160a01b0380861660248301528416604482015260648082018490528251808303909101815260849091019091526020810180516001600160e01b03166323b872dd60e01b179052611093908590611099565b50505050565b60006110ee826040518060400160405280602081526020017f5361666545524332303a206c6f772d6c6576656c2063616c6c206661696c6564815250856001600160a01b031661114a9092919063ffffffff16565b805190915015610c695780806020019051602081101561110d57600080fd5b5051610c695760405162461bcd60e51b815260040180806020018281038252602a8152602001806113d5602a913960400191505060405180910390fd5b60606111598484600085611163565b90505b9392505050565b6060824710156111a45760405162461bcd60e51b815260040180806020018281038252602681526020018061138f6026913960400191505060405180910390fd5b6111ad856112be565b6111fe576040805162461bcd60e51b815260206004820152601d60248201527f416464726573733a2063616c6c20746f206e6f6e2d636f6e7472616374000000604482015290519081900360640190fd5b600080866001600160a01b031685876040518082805190602001908083835b6020831061123c5780518252601f19909201916020918201910161121d565b6001836020036101000a03801982511681845116808217855250505050505090500191505060006040518083038185875af1925050503d806000811461129e576040519150601f19603f3d011682016040523d82523d6000602084013e6112a3565b606091505b50915091506112b38282866112c4565b979650505050505050565b3b151590565b606083156112d357508161115c565b8251156112e35782518084602001fd5b8160405162461bcd60e51b81526004018080602001828103825283818151815260200191508051906020019080838360005b8381101561132d578181015183820152602001611315565b50505050905090810190601f16801561135a5780820380516001836020036101000a031916815260200191505b509250505060405180910390fdfe4f776e61626c653a206e6577206f776e657220697320746865207a65726f2061646472657373416464726573733a20696e73756666696369656e742062616c616e636520666f722063616c6c4f776e61626c653a2063616c6c6572206973206e6f7420746865206f776e65725361666545524332303a204552433230206f7065726174696f6e20646964206e6f742073756363656564a26469706673582212200ea616e4873316784dca68e65e99ab06c998ab1bf2466d3a42b4e6033bdd1b9964736f6c63430007060033",
  "linkReferences": {},
  "deployedLinkReferences": {}
}