{
  "_format": "hh-sol-artifact-1",
  "contractName": "LiquidityNexusSushiLP",
  "sourceName": "contracts/LiquidityNexusSushiLP.sol",
  "abi": [
    {
      "anonymous": false,
      "inputs": [
        {
          "indexed": true,
          "internalType": "address",
          "name": "owner",
          "type": "address"
        },
        {
          "indexed": true,
          "internalType": "address",
          "name": "spender",
          "type": "address"
        },
        {
          "indexed": false,
          "internalType": "uint256",
          "name": "value",
          "type": "uint256"
        }
      ],
      "name": "Approval",
      "type": "event"
    },
    {
      "anonymous": false,
      "inputs": [
        {
          "indexed": true,
          "internalType": "address",
          "name": "sender",
          "type": "address"
        },
        {
          "indexed": false,
          "internalType": "uint256",
          "name": "amountUSDC",
          "type": "uint256"
        },
        {
          "indexed": false,
          "internalType": "uint256",
          "name": "amountETH",
          "type": "uint256"
        },
        {
          "indexed": false,
          "internalType": "uint256",
          "name": "liquidity",
          "type": "uint256"
        },
        {
          "indexed": false,
          "internalType": "uint256",
          "name": "shares",
          "type": "uint256"
        },
        {
          "indexed": true,
          "internalType": "address",
          "name": "to",
          "type": "address"
        }
      ],
      "name": "Burn",
      "type": "event"
    },
    {
      "anonymous": false,
      "inputs": [
        {
          "indexed": true,
          "internalType": "address",
          "name": "sender",
          "type": "address"
        },
        {
          "indexed": false,
          "internalType": "uint256",
          "name": "amountUSDC",
          "type": "uint256"
        },
        {
          "indexed": false,
          "internalType": "uint256",
          "name": "amountETH",
          "type": "uint256"
        },
        {
          "indexed": false,
          "internalType": "uint256",
          "name": "liquidity",
          "type": "uint256"
        },
        {
          "indexed": false,
          "internalType": "uint256",
          "name": "shares",
          "type": "uint256"
        }
      ],
      "name": "Mint",
      "type": "event"
    },
    {
      "anonymous": false,
      "inputs": [
        {
          "indexed": true,
          "internalType": "address",
          "name": "previousOwner",
          "type": "address"
        },
        {
          "indexed": true,
          "internalType": "address",
          "name": "newOwner",
          "type": "address"
        }
      ],
      "name": "OwnershipTransferred",
      "type": "event"
    },
    {
      "anonymous": false,
      "inputs": [
        {
          "indexed": false,
          "internalType": "address",
          "name": "account",
          "type": "address"
        }
      ],
      "name": "Paused",
      "type": "event"
    },
    {
      "anonymous": false,
      "inputs": [
        {
          "indexed": true,
          "internalType": "address",
          "name": "from",
          "type": "address"
        },
        {
          "indexed": true,
          "internalType": "address",
          "name": "to",
          "type": "address"
        },
        {
          "indexed": false,
          "internalType": "uint256",
          "name": "value",
          "type": "uint256"
        }
      ],
      "name": "Transfer",
      "type": "event"
    },
    {
      "anonymous": false,
      "inputs": [
        {
          "indexed": false,
          "internalType": "address",
          "name": "account",
          "type": "address"
        }
      ],
      "name": "Unpaused",
      "type": "event"
    },
    {
      "inputs": [],
      "name": "MASTERCHEF",
      "outputs": [
        {
          "internalType": "address",
          "name": "",
          "type": "address"
        }
      ],
      "stateMutability": "view",
      "type": "function"
    },
    {
      "inputs": [],
      "name": "POOL_ID",
      "outputs": [
        {
          "internalType": "uint256",
          "name": "",
          "type": "uint256"
        }
      ],
      "stateMutability": "view",
      "type": "function"
    },
    {
      "inputs": [],
      "name": "SLP",
      "outputs": [
        {
          "internalType": "address",
          "name": "",
          "type": "address"
        }
      ],
      "stateMutability": "view",
      "type": "function"
    },
    {
      "inputs": [],
      "name": "SROUTER",
      "outputs": [
        {
          "internalType": "address",
          "name": "",
          "type": "address"
        }
      ],
      "stateMutability": "view",
      "type": "function"
    },
    {
      "inputs": [],
      "name": "SUSHI",
      "outputs": [
        {
          "internalType": "address",
          "name": "",
          "type": "address"
        }
      ],
      "stateMutability": "view",
      "type": "function"
    },
    {
      "inputs": [],
      "name": "USDC",
      "outputs": [
        {
          "internalType": "address",
          "name": "",
          "type": "address"
        }
      ],
      "stateMutability": "view",
      "type": "function"
    },
    {
      "inputs": [],
      "name": "WETH",
      "outputs": [
        {
          "internalType": "address",
          "name": "",
          "type": "address"
        }
      ],
      "stateMutability": "view",
      "type": "function"
    },
    {
      "inputs": [
        {
          "internalType": "uint256",
          "name": "amountETH",
          "type": "uint256"
        },
        {
          "internalType": "uint256",
          "name": "deadline",
          "type": "uint256"
        }
      ],
      "name": "addLiquidity",
      "outputs": [
        {
          "internalType": "uint256",
          "name": "addedUSDC",
          "type": "uint256"
        },
        {
          "internalType": "uint256",
          "name": "addedETH",
          "type": "uint256"
        },
        {
          "internalType": "uint256",
          "name": "shares",
          "type": "uint256"
        }
      ],
      "stateMutability": "nonpayable",
      "type": "function"
    },
    {
      "inputs": [
        {
          "internalType": "uint256",
          "name": "deadline",
          "type": "uint256"
        }
      ],
      "name": "addLiquidityETH",
      "outputs": [
        {
          "internalType": "uint256",
          "name": "addedUSDC",
          "type": "uint256"
        },
        {
          "internalType": "uint256",
          "name": "addedETH",
          "type": "uint256"
        },
        {
          "internalType": "uint256",
          "name": "shares",
          "type": "uint256"
        }
      ],
      "stateMutability": "payable",
      "type": "function"
    },
    {
      "inputs": [
        {
          "internalType": "address",
          "name": "owner",
          "type": "address"
        },
        {
          "internalType": "address",
          "name": "spender",
          "type": "address"
        }
      ],
      "name": "allowance",
      "outputs": [
        {
          "internalType": "uint256",
          "name": "",
          "type": "uint256"
        }
      ],
      "stateMutability": "view",
      "type": "function"
    },
    {
      "inputs": [
        {
          "internalType": "uint256",
          "name": "outUSDC",
          "type": "uint256"
        }
      ],
      "name": "amountInETHForRequestedOutUSDC",
      "outputs": [
        {
          "internalType": "uint256",
          "name": "inETH",
          "type": "uint256"
        }
      ],
      "stateMutability": "view",
      "type": "function"
    },
    {
      "inputs": [
        {
          "internalType": "address",
          "name": "spender",
          "type": "address"
        },
        {
          "internalType": "uint256",
          "name": "amount",
          "type": "uint256"
        }
      ],
      "name": "approve",
      "outputs": [
        {
          "internalType": "bool",
          "name": "",
          "type": "bool"
        }
      ],
      "stateMutability": "nonpayable",
      "type": "function"
    },
    {
      "inputs": [
        {
          "internalType": "address",
          "name": "account",
          "type": "address"
        }
      ],
      "name": "balanceOf",
      "outputs": [
        {
          "internalType": "uint256",
          "name": "",
          "type": "uint256"
        }
      ],
      "stateMutability": "view",
      "type": "function"
    },
    {
      "inputs": [],
      "name": "claimRewards",
      "outputs": [],
      "stateMutability": "nonpayable",
      "type": "function"
    },
    {
      "inputs": [
        {
          "internalType": "uint256",
          "name": "amountETH",
          "type": "uint256"
        }
      ],
      "name": "compoundProfits",
      "outputs": [
        {
          "internalType": "uint256",
          "name": "addedUSDC",
          "type": "uint256"
        },
        {
          "internalType": "uint256",
          "name": "addedETH",
          "type": "uint256"
        },
        {
          "internalType": "uint256",
          "name": "liquidity",
          "type": "uint256"
        }
      ],
      "stateMutability": "nonpayable",
      "type": "function"
    },
    {
      "inputs": [],
      "name": "decimals",
      "outputs": [
        {
          "internalType": "uint8",
          "name": "",
          "type": "uint8"
        }
      ],
      "stateMutability": "view",
      "type": "function"
    },
    {
      "inputs": [
        {
          "internalType": "address",
          "name": "spender",
          "type": "address"
        },
        {
          "internalType": "uint256",
          "name": "subtractedValue",
          "type": "uint256"
        }
      ],
      "name": "decreaseAllowance",
      "outputs": [
        {
          "internalType": "bool",
          "name": "",
          "type": "bool"
        }
      ],
      "stateMutability": "nonpayable",
      "type": "function"
    },
    {
      "inputs": [],
      "name": "depositAllCapital",
      "outputs": [],
      "stateMutability": "nonpayable",
      "type": "function"
    },
    {
      "inputs": [
        {
          "internalType": "uint256",
          "name": "amount",
          "type": "uint256"
        }
      ],
      "name": "depositCapital",
      "outputs": [],
      "stateMutability": "nonpayable",
      "type": "function"
    },
    {
      "inputs": [],
      "name": "emergencyExit",
      "outputs": [],
      "stateMutability": "nonpayable",
      "type": "function"
    },
    {
      "inputs": [],
      "name": "governance",
      "outputs": [
        {
          "internalType": "address",
          "name": "",
          "type": "address"
        }
      ],
      "stateMutability": "view",
      "type": "function"
    },
    {
      "inputs": [
        {
          "internalType": "address",
          "name": "spender",
          "type": "address"
        },
        {
          "internalType": "uint256",
          "name": "addedValue",
          "type": "uint256"
        }
      ],
      "name": "increaseAllowance",
      "outputs": [
        {
          "internalType": "bool",
          "name": "",
          "type": "bool"
        }
      ],
      "stateMutability": "nonpayable",
      "type": "function"
    },
    {
      "inputs": [
        {
          "internalType": "address",
          "name": "",
          "type": "address"
        }
      ],
      "name": "minters",
      "outputs": [
        {
          "internalType": "uint256",
          "name": "entryETH",
          "type": "uint256"
        },
        {
          "internalType": "uint256",
          "name": "entryUSDC",
          "type": "uint256"
        },
        {
          "internalType": "uint256",
          "name": "shares",
          "type": "uint256"
        }
      ],
      "stateMutability": "view",
      "type": "function"
    },
    {
      "inputs": [],
      "name": "name",
      "outputs": [
        {
          "internalType": "string",
          "name": "",
          "type": "string"
        }
      ],
      "stateMutability": "view",
      "type": "function"
    },
    {
      "inputs": [],
      "name": "owner",
      "outputs": [
        {
          "internalType": "address",
          "name": "",
          "type": "address"
        }
      ],
      "stateMutability": "view",
      "type": "function"
    },
    {
      "inputs": [
        {
          "internalType": "uint256",
          "name": "",
          "type": "uint256"
        }
      ],
      "name": "pathToETH",
      "outputs": [
        {
          "internalType": "address",
          "name": "",
          "type": "address"
        }
      ],
      "stateMutability": "view",
      "type": "function"
    },
    {
      "inputs": [
        {
          "internalType": "uint256",
          "name": "",
          "type": "uint256"
        }
      ],
      "name": "pathToUSDC",
      "outputs": [
        {
          "internalType": "address",
          "name": "",
          "type": "address"
        }
      ],
      "stateMutability": "view",
      "type": "function"
    },
    {
      "inputs": [],
      "name": "pause",
      "outputs": [],
      "stateMutability": "nonpayable",
      "type": "function"
    },
    {
      "inputs": [],
      "name": "paused",
      "outputs": [
        {
          "internalType": "bool",
          "name": "",
          "type": "bool"
        }
      ],
      "stateMutability": "view",
      "type": "function"
    },
    {
      "inputs": [
        {
          "internalType": "uint256",
          "name": "inETH",
          "type": "uint256"
        }
      ],
      "name": "quote",
      "outputs": [
        {
          "internalType": "uint256",
          "name": "outUSDC",
          "type": "uint256"
        }
      ],
      "stateMutability": "view",
      "type": "function"
    },
    {
      "inputs": [],
      "name": "removeAllLiquidity",
      "outputs": [
        {
          "internalType": "uint256",
          "name": "exitETH",
          "type": "uint256"
        }
      ],
      "stateMutability": "nonpayable",
      "type": "function"
    },
    {
      "inputs": [],
      "name": "removeAllLiquidityETH",
      "outputs": [
        {
          "internalType": "uint256",
          "name": "exitETH",
          "type": "uint256"
        }
      ],
      "stateMutability": "nonpayable",
      "type": "function"
    },
    {
      "inputs": [
        {
          "internalType": "uint256",
          "name": "shares",
          "type": "uint256"
        },
        {
          "internalType": "uint256",
          "name": "deadline",
          "type": "uint256"
        }
      ],
      "name": "removeLiquidity",
      "outputs": [
        {
          "internalType": "uint256",
          "name": "exitETH",
          "type": "uint256"
        }
      ],
      "stateMutability": "nonpayable",
      "type": "function"
    },
    {
      "inputs": [
        {
          "internalType": "uint256",
          "name": "shares",
          "type": "uint256"
        },
        {
          "internalType": "uint256",
          "name": "deadline",
          "type": "uint256"
        }
      ],
      "name": "removeLiquidityETH",
      "outputs": [
        {
          "internalType": "uint256",
          "name": "exitETH",
          "type": "uint256"
        }
      ],
      "stateMutability": "nonpayable",
      "type": "function"
    },
    {
      "inputs": [],
      "name": "renounceOwnership",
      "outputs": [],
      "stateMutability": "nonpayable",
      "type": "function"
    },
    {
      "inputs": [
        {
          "internalType": "address[]",
          "name": "tokens_",
          "type": "address[]"
        }
      ],
      "name": "salvage",
      "outputs": [],
      "stateMutability": "nonpayable",
      "type": "function"
    },
    {
      "inputs": [
        {
          "internalType": "address",
          "name": "_governance",
          "type": "address"
        }
      ],
      "name": "setGovernance",
      "outputs": [],
      "stateMutability": "nonpayable",
      "type": "function"
    },
    {
      "inputs": [],
      "name": "symbol",
      "outputs": [
        {
          "internalType": "string",
          "name": "",
          "type": "string"
        }
      ],
      "stateMutability": "view",
      "type": "function"
    },
    {
      "inputs": [],
      "name": "totalInvestedETH",
      "outputs": [
        {
          "internalType": "uint256",
          "name": "",
          "type": "uint256"
        }
      ],
      "stateMutability": "view",
      "type": "function"
    },
    {
      "inputs": [],
      "name": "totalInvestedUSDC",
      "outputs": [
        {
          "internalType": "uint256",
          "name": "",
          "type": "uint256"
        }
      ],
      "stateMutability": "view",
      "type": "function"
    },
    {
      "inputs": [],
      "name": "totalLiquidity",
      "outputs": [
        {
          "internalType": "uint256",
          "name": "",
          "type": "uint256"
        }
      ],
      "stateMutability": "view",
      "type": "function"
    },
    {
      "inputs": [],
      "name": "totalSupply",
      "outputs": [
        {
          "internalType": "uint256",
          "name": "",
          "type": "uint256"
        }
      ],
      "stateMutability": "view",
      "type": "function"
    },
    {
      "inputs": [
        {
          "internalType": "address",
          "name": "recipient",
          "type": "address"
        },
        {
          "internalType": "uint256",
          "name": "amount",
          "type": "uint256"
        }
      ],
      "name": "transfer",
      "outputs": [
        {
          "internalType": "bool",
          "name": "",
          "type": "bool"
        }
      ],
      "stateMutability": "nonpayable",
      "type": "function"
    },
    {
      "inputs": [
        {
          "internalType": "address",
          "name": "sender",
          "type": "address"
        },
        {
          "internalType": "address",
          "name": "recipient",
          "type": "address"
        },
        {
          "internalType": "uint256",
          "name": "amount",
          "type": "uint256"
        }
      ],
      "name": "transferFrom",
      "outputs": [
        {
          "internalType": "bool",
          "name": "",
          "type": "bool"
        }
      ],
      "stateMutability": "nonpayable",
      "type": "function"
    },
    {
      "inputs": [
        {
          "internalType": "address",
          "name": "newOwner",
          "type": "address"
        }
      ],
      "name": "transferOwnership",
      "outputs": [],
      "stateMutability": "nonpayable",
      "type": "function"
    },
    {
      "inputs": [],
      "name": "unpause",
      "outputs": [],
      "stateMutability": "nonpayable",
      "type": "function"
    },
    {
      "inputs": [],
      "name": "withdrawFreeCapital",
      "outputs": [],
      "stateMutability": "nonpayable",
      "type": "function"
    },
    {
      "stateMutability": "payable",
      "type": "receive"
    }
  ],
  "bytecode": "0x6002608081815260e060405290816020016020820280368337505081516200002f92600892506020019062000547565b506040805160028082526060820183529091602083019080368337505081516200006192600992506020019062000547565b503480156200006f57600080fd5b50604080518082018252601581527f4c69717569646974794e6578757353757368694c50000000000000000000000060208083019182528351808501909452600584526404c4e534c560dc1b908401528151919291620000d291600391620005b1565b508051620000e8906004906020840190620005b1565b50506005805460ff191660121790555060006200010462000543565b60058054610100600160a81b0319166101006001600160a01b03841690810291909117909155604051919250906000907f8be0079c531659141344cd1fd0a4f28419497f9722a3daafe3b4186f6b6457e0908290a3506005805460ff60a81b191690556001600655600780546001600160a01b031916331790556009805473c02aaa39b223fe8d0a0e5c4f27ead9083c756cc29190600090620001a357fe5b9060005260206000200160006101000a8154816001600160a01b0302191690836001600160a01b0316021790555073a0b86991c6218b36c1d19d4a2e9eb0ce3606eb486009600181548110620001f557fe5b9060005260206000200160006101000a8154816001600160a01b0302191690836001600160a01b0316021790555073a0b86991c6218b36c1d19d4a2e9eb0ce3606eb4860086000815481106200024757fe5b9060005260206000200160006101000a8154816001600160a01b0302191690836001600160a01b0316021790555073c02aaa39b223fe8d0a0e5c4f27ead9083c756cc260086001815481106200029957fe5b600091825260208083209190910180546001600160a01b0319166001600160a01b0394909416939093179092556040805163095ea7b360e01b815273d9e1ce17f2641f24ae83637ab66a2cca9c378b9f60048201526000196024820152905173a0b86991c6218b36c1d19d4a2e9eb0ce3606eb489363095ea7b3936044808501949293928390030190829087803b1580156200033457600080fd5b505af115801562000349573d6000803e3d6000fd5b505050506040513d60208110156200036057600080fd5b50506040805163095ea7b360e01b815273d9e1ce17f2641f24ae83637ab66a2cca9c378b9f60048201526000196024820152905173c02aaa39b223fe8d0a0e5c4f27ead9083c756cc29163095ea7b39160448083019260209291908290030181600087803b158015620003d257600080fd5b505af1158015620003e7573d6000803e3d6000fd5b505050506040513d6020811015620003fe57600080fd5b50506040805163095ea7b360e01b815273d9e1ce17f2641f24ae83637ab66a2cca9c378b9f60048201526000196024820152905173397ff1542f962076d0bfe58ea045ffa2d347aca09163095ea7b39160448083019260209291908290030181600087803b1580156200047057600080fd5b505af115801562000485573d6000803e3d6000fd5b505050506040513d60208110156200049c57600080fd5b50506040805163095ea7b360e01b815273c2edad668740f1aa35e4d8f227fb8e17dca888cd60048201526000196024820152905173397ff1542f962076d0bfe58ea045ffa2d347aca09163095ea7b39160448083019260209291908290030181600087803b1580156200050e57600080fd5b505af115801562000523573d6000803e3d6000fd5b505050506040513d60208110156200053a57600080fd5b506200064b9050565b3390565b8280548282559060005260206000209081019282156200059f579160200282015b828111156200059f57825182546001600160a01b0319166001600160a01b0390911617825560209092019160019091019062000568565b50620005ad92915062000634565b5090565b828054600181600116156101000203166002900490600052602060002090601f016020900481019282620005e957600085556200059f565b82601f106200060457805160ff19168380011785556200059f565b828001600101855582156200059f579182015b828111156200059f57825182559160200191906001019062000617565b5b80821115620005ad576000815560010162000635565b613aea806200065b6000396000f3fe60806040526004361061028c5760003560e01c80638da5cb5b1161015a578063ad5c4648116100c1578063e0d7d0e91161007a578063e0d7d0e91461095f578063e3692c3614610974578063ed1bd76c14610989578063f2fde38b146109b3578063f46eccc4146109e6578063fd46a17114610a1957610293565b8063ad5c464814610803578063b1eb535214610818578063c945954014610842578063d06d04cc14610857578063d85d515e14610874578063dd62ed3e1461092457610293565b8063a328b22811610113578063a328b228146106ef578063a457c2d71461071f578063a9059cbb14610758578063a90915ea14610791578063ab033ea9146107bb578063ab560e10146107ee57610293565b80638da5cb5b14610608578063900d10991461061d57806395d89b41146106325780639cd441da146106475780639d7de6b3146106955780639e11ef44146106c557610293565b806339509351116101fe57806370a08231116101b757806370a082311461056c578063715018a61461059f57806374969bf9146105b45780638456cb59146105c957806388a780e5146105de57806389a30271146105f357610293565b806339509351146104b55780633f4ba83a146104ee5780635641ec03146105035780635aa6e675146105185780635c975abb1461052d578063662fd8041461054257610293565b806323b872dd1161025057806323b872dd146103f15780632509f1b9146104345780632aad5edd14610449578063313ce5671461045e578063372500ab14610489578063386fed69146104a057610293565b806306fdde0314610298578063095ea7b31461032257806314b4218c1461036f57806315770f92146103b557806318160ddd146103dc57610293565b3661029357005b600080fd5b3480156102a457600080fd5b506102ad610a2e565b6040805160208082528351818301528351919283929083019185019080838360005b838110156102e75781810151838201526020016102cf565b50505050905090810190601f1680156103145780820380516001836020036101000a031916815260200191505b509250505060405180910390f35b34801561032e57600080fd5b5061035b6004803603604081101561034557600080fd5b506001600160a01b038135169060200135610ac4565b604080519115158252519081900360200190f35b34801561037b57600080fd5b506103996004803603602081101561039257600080fd5b5035610ae2565b604080516001600160a01b039092168252519081900360200190f35b3480156103c157600080fd5b506103ca610b0c565b60408051918252519081900360200190f35b3480156103e857600080fd5b506103ca610b12565b3480156103fd57600080fd5b5061035b6004803603606081101561041457600080fd5b506001600160a01b03813581169160208101359091169060400135610b18565b34801561044057600080fd5b50610399610ba0565b34801561045557600080fd5b506103ca610bb8565b34801561046a57600080fd5b50610473610bbe565b6040805160ff9092168252519081900360200190f35b34801561049557600080fd5b5061049e610bc7565b005b3480156104ac57600080fd5b5061049e610d5e565b3480156104c157600080fd5b5061035b600480360360408110156104d857600080fd5b506001600160a01b038135169060200135610e49565b3480156104fa57600080fd5b5061049e610e97565b34801561050f57600080fd5b5061049e610f01565b34801561052457600080fd5b50610399610f85565b34801561053957600080fd5b5061035b610f94565b34801561054e57600080fd5b506103996004803603602081101561056557600080fd5b5035610fa4565b34801561057857600080fd5b506103ca6004803603602081101561058f57600080fd5b50356001600160a01b0316610fb4565b3480156105ab57600080fd5b5061049e610fd3565b3480156105c057600080fd5b50610399611085565b3480156105d557600080fd5b5061049e61109d565b3480156105ea57600080fd5b506103ca611107565b3480156105ff57600080fd5b506103996111d6565b34801561061457600080fd5b506103996111ee565b34801561062957600080fd5b5061049e611202565b34801561063e57600080fd5b506102ad61130f565b34801561065357600080fd5b506106776004803603604081101561066a57600080fd5b5080359060200135611370565b60408051938452602084019290925282820152519081900360600190f35b3480156106a157600080fd5b506103ca600480360360408110156106b857600080fd5b5080359060200135611444565b3480156106d157600080fd5b5061049e600480360360208110156106e857600080fd5b503561150e565b3480156106fb57600080fd5b506103ca6004803603604081101561071257600080fd5b5080359060200135611596565b34801561072b57600080fd5b5061035b6004803603604081101561074257600080fd5b506001600160a01b0381351690602001356116e1565b34801561076457600080fd5b5061035b6004803603604081101561077b57600080fd5b506001600160a01b038135169060200135611749565b34801561079d57600080fd5b50610677600480360360208110156107b457600080fd5b503561175d565b3480156107c757600080fd5b5061049e600480360360208110156107de57600080fd5b50356001600160a01b03166119be565b3480156107fa57600080fd5b50610399611a7e565b34801561080f57600080fd5b50610399611a96565b34801561082457600080fd5b506103ca6004803603602081101561083b57600080fd5b5035611aa8565b34801561084e57600080fd5b506103ca611c37565b6106776004803603602081101561086d57600080fd5b5035611d81565b34801561088057600080fd5b5061049e6004803603602081101561089757600080fd5b8101906020810181356401000000008111156108b257600080fd5b8201836020820111156108c457600080fd5b803590602001918460208302840111640100000000831117156108e657600080fd5b919080806020026020016040519081016040528093929190818152602001838360200280828437600092019190915250929550611ea2945050505050565b34801561093057600080fd5b506103ca6004803603604081101561094757600080fd5b506001600160a01b0381358116916020013516612022565b34801561096b57600080fd5b506103ca61204d565b34801561098057600080fd5b50610399612052565b34801561099557600080fd5b506103ca600480360360208110156109ac57600080fd5b503561206a565b3480156109bf57600080fd5b5061049e600480360360208110156109d657600080fd5b50356001600160a01b0316612194565b3480156109f257600080fd5b5061067760048036036020811015610a0957600080fd5b50356001600160a01b03166122a2565b348015610a2557600080fd5b506103ca6122c3565b60038054604080516020601f6002600019610100600188161502019095169490940493840181900481028201810190925282815260609390929091830182828015610aba5780601f10610a8f57610100808354040283529160200191610aba565b820191906000526020600020905b815481529060010190602001808311610a9d57829003601f168201915b5050505050905090565b6000610ad8610ad16122c9565b84846122cd565b5060015b92915050565b60098181548110610af257600080fd5b6000918252602090912001546001600160a01b0316905081565b600a5481565b60025490565b6000610b258484846123b9565b610b9584610b316122c9565b610b90856040518060600160405280602881526020016139b4602891396001600160a01b038a16600090815260016020526040812090610b6f6122c9565b6001600160a01b031681526020810191909152604001600020549190612514565b6122cd565b5060015b9392505050565b73397ff1542f962076d0bfe58ea045ffa2d347aca081565b600b5481565b60055460ff1690565b60026006541415610c0d576040805162461bcd60e51b815260206004820152601f602482015260008051602061389d833981519152604482015290519081900360640190fd5b6002600655610c1a610f94565b15610c5f576040805162461bcd60e51b815260206004820152601060248201526f14185d5cd8589b194e881c185d5cd95960821b604482015290519081900360640190fd5b6007546001600160a01b03163314610cb0576040805162461bcd60e51b815260206004820152600f60248201526e6f6e6c7920676f7665726e616e636560881b604482015290519081900360640190fd5b610cb86125ab565b604080516370a0823160e01b81523060048201529051610d57913391736b3595068778dd592e39a122f4f5a5cf09c90fe2916370a08231916024808301926020929190829003018186803b158015610d0f57600080fd5b505afa158015610d23573d6000803e3d6000fd5b505050506040513d6020811015610d3957600080fd5b5051736b3595068778dd592e39a122f4f5a5cf09c90fe2919061261d565b6001600655565b610d666122c9565b6001600160a01b0316610d776111ee565b6001600160a01b031614610dc0576040805162461bcd60e51b815260206004820181905260248201526000805160206139dc833981519152604482015290519081900360640190fd5b604080516370a0823160e01b81523360048201529051610e479173a0b86991c6218b36c1d19d4a2e9eb0ce3606eb48916370a0823191602480820192602092909190829003018186803b158015610e1657600080fd5b505afa158015610e2a573d6000803e3d6000fd5b505050506040513d6020811015610e4057600080fd5b505161150e565b565b6000610ad8610e566122c9565b84610b908560016000610e676122c9565b6001600160a01b03908116825260208083019390935260409182016000908120918c16815292529020549061266f565b610e9f6122c9565b6001600160a01b0316610eb06111ee565b6001600160a01b031614610ef9576040805162461bcd60e51b815260206004820181905260248201526000805160206139dc833981519152604482015290519081900360640190fd5b610e476126c9565b610f096122c9565b6001600160a01b0316610f1a6111ee565b6001600160a01b031614610f63576040805162461bcd60e51b815260206004820181905260248201526000805160206139dc833981519152604482015290519081900360640190fd5b610f6f600a544261276c565b5050610f79611202565b6000600a819055600b55565b6007546001600160a01b031681565b600554600160a81b900460ff1690565b60088181548110610af257600080fd5b6001600160a01b0381166000908152602081905260409020545b919050565b610fdb6122c9565b6001600160a01b0316610fec6111ee565b6001600160a01b031614611035576040805162461bcd60e51b815260206004820181905260248201526000805160206139dc833981519152604482015290519081900360640190fd5b60055460405160009161010090046001600160a01b0316907f8be0079c531659141344cd1fd0a4f28419497f9722a3daafe3b4186f6b6457e0908390a360058054610100600160a81b0319169055565b73d9e1ce17f2641f24ae83637ab66a2cca9c378b9f81565b6110a56122c9565b6001600160a01b03166110b66111ee565b6001600160a01b0316146110ff576040805162461bcd60e51b815260206004820181905260248201526000805160206139dc833981519152604482015290519081900360640190fd5b610e476128cf565b60006002600654141561114f576040805162461bcd60e51b815260206004820152601f602482015260008051602061389d833981519152604482015290519081900360640190fd5b600260065561115c610f94565b156111a1576040805162461bcd60e51b815260206004820152601060248201526f14185d5cd8589b194e881c185d5cd95960821b604482015290519081900360640190fd5b6111b36111ad33610fb4565b42612958565b90506111ce6000805160206138df833981519152338361261d565b600160065590565b73a0b86991c6218b36c1d19d4a2e9eb0ce3606eb4881565b60055461010090046001600160a01b031690565b61120a6122c9565b6001600160a01b031661121b6111ee565b6001600160a01b031614611264576040805162461bcd60e51b815260206004820181905260248201526000805160206139dc833981519152604482015290519081900360640190fd5b604080516370a0823160e01b8152306004820152905160009173a0b86991c6218b36c1d19d4a2e9eb0ce3606eb48916370a0823191602480820192602092909190829003018186803b1580156112b957600080fd5b505afa1580156112cd573d6000803e3d6000fd5b505050506040513d60208110156112e357600080fd5b50519050801561130c5761130c73a0b86991c6218b36c1d19d4a2e9eb0ce3606eb48338361261d565b50565b60048054604080516020601f6002600019610100600188161502019095169490940493840181900481028201810190925282815260609390929091830182828015610aba5780601f10610a8f57610100808354040283529160200191610aba565b6000806000600260065414156113bb576040805162461bcd60e51b815260206004820152601f602482015260008051602061389d833981519152604482015290519081900360640190fd5b60026006556113c8610f94565b1561140d576040805162461bcd60e51b815260206004820152601060248201526f14185d5cd8589b194e881c185d5cd95960821b604482015290519081900360640190fd5b6114276000805160206138df833981519152333088612b1c565b6114318585612b76565b6001600655919790965090945092505050565b60006002600654141561148c576040805162461bcd60e51b815260206004820152601f602482015260008051602061389d833981519152604482015290519081900360640190fd5b6002600655611499610f94565b156114de576040805162461bcd60e51b815260206004820152601060248201526f14185d5cd8589b194e881c185d5cd95960821b604482015290519081900360640190fd5b6114e88383612958565b90506115036000805160206138df833981519152338361261d565b600160065592915050565b6115166122c9565b6001600160a01b03166115276111ee565b6001600160a01b031614611570576040805162461bcd60e51b815260206004820181905260248201526000805160206139dc833981519152604482015290519081900360640190fd5b801561130c5761130c73a0b86991c6218b36c1d19d4a2e9eb0ce3606eb48333084612b1c565b6000600260065414156115de576040805162461bcd60e51b815260206004820152601f602482015260008051602061389d833981519152604482015290519081900360640190fd5b60026006556115eb610f94565b15611630576040805162461bcd60e51b815260206004820152601060248201526f14185d5cd8589b194e881c185d5cd95960821b604482015290519081900360640190fd5b61163a8383612958565b90506000805160206138df8339815191526001600160a01b0316632e1a7d4d826040518263ffffffff1660e01b815260040180828152602001915050600060405180830381600087803b15801561169057600080fd5b505af11580156116a4573d6000803e3d6000fd5b505060405133925083156108fc02915083906000818181858888f193505050501580156116d5573d6000803e3d6000fd5b50600160065592915050565b6000610ad86116ee6122c9565b84610b9085604051806060016040528060258152602001613a9060259139600160006117186122c9565b6001600160a01b03908116825260208083019390935260409182016000908120918d16815292529020549190612514565b6000610ad86117566122c9565b84846123b9565b6000806000600260065414156117a8576040805162461bcd60e51b815260206004820152601f602482015260008051602061389d833981519152604482015290519081900360640190fd5b60026006556117b5610f94565b156117fa576040805162461bcd60e51b815260206004820152601060248201526f14185d5cd8589b194e881c185d5cd95960821b604482015290519081900360640190fd5b6007546001600160a01b0316331461184b576040805162461bcd60e51b815260206004820152600f60248201526e6f6e6c7920676f7665726e616e636560881b604482015290519081900360640190fd5b6118656000805160206138df833981519152333087612b1c565b604080516370a0823160e01b815230600482015290516000916000805160206138df833981519152916370a0823191602480820192602092909190829003018186803b1580156118b457600080fd5b505afa1580156118c8573d6000803e3d6000fd5b505050506040513d60208110156118de57600080fd5b505190506118f56118f0826002612c8e565b612cf5565b50604080516370a0823160e01b815230600482015290516000805160206138df833981519152916370a08231916024808301926020929190829003018186803b15801561194157600080fd5b505afa158015611955573d6000803e3d6000fd5b505050506040513d602081101561196b57600080fd5b505190506119798142612ebb565b600b54929650909450925061198e908561266f565b600b55600c5461199e908461266f565b600c55600a546119ae908361266f565b600a555060016006559193909250565b6007546001600160a01b03163314611a0f576040805162461bcd60e51b815260206004820152600f60248201526e6f6e6c7920676f7665726e616e636560881b604482015290519081900360640190fd5b6001600160a01b038116611a5c576040805162461bcd60e51b815260206004820152600f60248201526e6e756c6c20676f7665726e616e636560881b604482015290519081900360640190fd5b600780546001600160a01b0319166001600160a01b0392909216919091179055565b736b3595068778dd592e39a122f4f5a5cf09c90fe281565b6000805160206138df83398151915281565b600073d9e1ce17f2641f24ae83637ab66a2cca9c378b9f6001600160a01b0316631f00ca748360096040518363ffffffff1660e01b815260040180838152602001806020018281038252838181548152602001915080548015611b3457602002820191906000526020600020905b81546001600160a01b03168152600190910190602001808311611b16575b5050935050505060006040518083038186803b158015611b5357600080fd5b505afa158015611b67573d6000803e3d6000fd5b505050506040513d6000823e601f3d908101601f191682016040526020811015611b9057600080fd5b8101908080516040519392919084640100000000821115611bb057600080fd5b908301906020820185811115611bc557600080fd5b8251866020820283011164010000000082111715611be257600080fd5b82525081516020918201928201910280838360005b83811015611c0f578181015183820152602001611bf7565b50505050905001604052505050600081518110611c2857fe5b60200260200101519050919050565b600060026006541415611c7f576040805162461bcd60e51b815260206004820152601f602482015260008051602061389d833981519152604482015290519081900360640190fd5b6002600655611c8c610f94565b15611cd1576040805162461bcd60e51b815260206004820152601060248201526f14185d5cd8589b194e881c185d5cd95960821b604482015290519081900360640190fd5b611cdd6111ad33610fb4565b90506000805160206138df8339815191526001600160a01b0316632e1a7d4d826040518263ffffffff1660e01b815260040180828152602001915050600060405180830381600087803b158015611d3357600080fd5b505af1158015611d47573d6000803e3d6000fd5b505060405133925083156108fc02915083906000818181858888f19350505050158015611d78573d6000803e3d6000fd5b50600160065590565b600080600060026006541415611dcc576040805162461bcd60e51b815260206004820152601f602482015260008051602061389d833981519152604482015290519081900360640190fd5b6002600655611dd9610f94565b15611e1e576040805162461bcd60e51b815260206004820152601060248201526f14185d5cd8589b194e881c185d5cd95960821b604482015290519081900360640190fd5b60003490506000805160206138df8339815191526001600160a01b031663d0e30db0826040518263ffffffff1660e01b81526004016000604051808303818588803b158015611e6c57600080fd5b505af1158015611e80573d6000803e3d6000fd5b5050505050611e8f8186612b76565b9350935093505060016006559193909250565b611eaa6122c9565b6001600160a01b0316611ebb6111ee565b6001600160a01b031614611f04576040805162461bcd60e51b815260206004820181905260248201526000805160206139dc833981519152604482015290519081900360640190fd5b805160005b8181101561201d576000838281518110611f1f57fe5b602002602001015190506000805160206138df8339815191526001600160a01b0316816001600160a01b031614158015611f7657506001600160a01b03811673a0b86991c6218b36c1d19d4a2e9eb0ce3606eb4814155b15612014576000816001600160a01b03166370a08231306040518263ffffffff1660e01b815260040180826001600160a01b0316815260200191505060206040518083038186803b158015611fca57600080fd5b505afa158015611fde573d6000803e3d6000fd5b505050506040513d6020811015611ff457600080fd5b505190508015612012576120126001600160a01b038316338361261d565b505b50600101611f09565b505050565b6001600160a01b03918216600090815260016020908152604080832093909416825291909152205490565b600181565b73c2edad668740f1aa35e4d8f227fb8e17dca888cd81565b600080600073397ff1542f962076d0bfe58ea045ffa2d347aca06001600160a01b0316630902f1ac6040518163ffffffff1660e01b815260040160606040518083038186803b1580156120bc57600080fd5b505afa1580156120d0573d6000803e3d6000fd5b505050506040513d60608110156120e657600080fd5b50805160209182015160408051632b58577b60e21b8152600481018990526dffffffffffffffffffffffffffff808416602483015284166044820152905192955090935073d9e1ce17f2641f24ae83637ab66a2cca9c378b9f9263ad615dec92606480840193829003018186803b15801561216057600080fd5b505afa158015612174573d6000803e3d6000fd5b505050506040513d602081101561218a57600080fd5b5051949350505050565b61219c6122c9565b6001600160a01b03166121ad6111ee565b6001600160a01b0316146121f6576040805162461bcd60e51b815260206004820181905260248201526000805160206139dc833981519152604482015290519081900360640190fd5b6001600160a01b03811661223b5760405162461bcd60e51b81526004018080602001828103825260268152602001806138ff6026913960400191505060405180910390fd5b6005546040516001600160a01b0380841692610100900416907f8be0079c531659141344cd1fd0a4f28419497f9722a3daafe3b4186f6b6457e090600090a3600580546001600160a01b0390921661010002610100600160a81b0319909216919091179055565b600d6020526000908152604090208054600182015460029092015490919083565b600c5481565b3390565b6001600160a01b0383166123125760405162461bcd60e51b8152600401808060200182810382526024815260200180613a426024913960400191505060405180910390fd5b6001600160a01b0382166123575760405162461bcd60e51b81526004018080602001828103825260228152602001806139256022913960400191505060405180910390fd5b6001600160a01b03808416600081815260016020908152604080832094871680845294825291829020859055815185815291517f8c5be1e5ebec7d5bd14f71427d1e84f3dd0314c0f7b2291e5b200ac8c7c3b9259281900390910190a3505050565b6001600160a01b0383166123fe5760405162461bcd60e51b8152600401808060200182810382526025815260200180613a1d6025913960400191505060405180910390fd5b6001600160a01b0382166124435760405162461bcd60e51b815260040180806020018281038252602381526020018061387a6023913960400191505060405180910390fd5b61244e83838361201d565b61248b81604051806060016040528060268152602001613947602691396001600160a01b0386166000908152602081905260409020549190612514565b6001600160a01b0380851660009081526020819052604080822093909355908416815220546124ba908261266f565b6001600160a01b038084166000818152602081815260409182902094909455805185815290519193928716927fddf252ad1be2c89b69c2b068fc378daa952ba7f163c4a11628f55a4df523b3ef92918290030190a3505050565b600081848411156125a35760405162461bcd60e51b81526004018080602001828103825283818151815260200191508051906020019080838360005b83811015612568578181015183820152602001612550565b50505050905090810190601f1680156125955780820380516001836020036101000a031916815260200191505b509250505060405180910390fd5b505050900390565b60408051631c57762b60e31b815260016004820152600060248201819052915173c2edad668740f1aa35e4d8f227fb8e17dca888cd9263e2bbb158926044808201939182900301818387803b15801561260357600080fd5b505af1158015612617573d6000803e3d6000fd5b50505050565b604080516001600160a01b038416602482015260448082018490528251808303909101815260649091019091526020810180516001600160e01b031663a9059cbb60e01b17905261201d9084906131ce565b600082820183811015610b99576040805162461bcd60e51b815260206004820152601b60248201527f536166654d6174683a206164646974696f6e206f766572666c6f770000000000604482015290519081900360640190fd5b6126d1610f94565b612719576040805162461bcd60e51b815260206004820152601460248201527314185d5cd8589b194e881b9bdd081c185d5cd95960621b604482015290519081900360640190fd5b6005805460ff60a81b191690557f5db9ee0a495bf2e6ff9c91a7834c1ba4fdd244a5e8aa4e537bd38aeae4b073aa61274f6122c9565b604080516001600160a01b039092168252519081900360200190a1565b6000808361277f575060009050806128c8565b60408051630441a3e760e41b81526001600482015260248101869052905173c2edad668740f1aa35e4d8f227fb8e17dca888cd9163441a3e7091604480830192600092919082900301818387803b1580156127d957600080fd5b505af11580156127ed573d6000803e3d6000fd5b505060408051635d5155ef60e11b81526000805160206138df833981519152600482015273a0b86991c6218b36c1d19d4a2e9eb0ce3606eb48602482015260448101889052600060648201819052608482018190523060a483015260c48201889052825173d9e1ce17f2641f24ae83637ab66a2cca9c378b9f955063baa2abde945060e480840194939192918390030190829087803b15801561288f57600080fd5b505af11580156128a3573d6000803e3d6000fd5b505050506040513d60408110156128b957600080fd5b50805160209091015190925090505b9250929050565b6128d7610f94565b1561291c576040805162461bcd60e51b815260206004820152601060248201526f14185d5cd8589b194e881c185d5cd95960821b604482015290519081900360640190fd5b6005805460ff60a81b1916600160a81b1790557f62e78cea01bee320cd4e420270b5ea74000d11b0c9f74754ebdbfc544b05a25861274f6122c9565b336000908152600d60205260408120600281015461297790859061327f565b9350600084116129c6576040805162461bcd60e51b815260206004820152601560248201527473656e646572206e6f7420696e206d696e7465727360581b604482015290519081900360640190fd5b60006129e76129d3610b12565b600a546129e1908890613295565b90612c8e565b90506129f333866132ee565b600080612a00838761276c565b915091506000612a2585600201546129e18a886001015461329590919063ffffffff16565b90506000612a4886600201546129e18b896000015461329590919063ffffffff16565b90506000612a58848685856133ea565b6001890154909950909150612a6d9084613472565b60018801558654612a7e9083613472565b87556002870154612a8f908b613472565b6002880155600b54612aa19084613472565b600b55600c54612ab19083613472565b600c55600a54612ac19087613472565b600a5560408051828152602081018a9052808201889052606081018c90529051339182917fa6a919b3314fbbdb84c4a64d62f381f104d0c1747b789163262d2fcfeec292689181900360800190a35050505050505092915050565b604080516001600160a01b0380861660248301528416604482015260648082018490528251808303909101815260849091019091526020810180516001600160e01b03166323b872dd60e01b1790526126179085906131ce565b600080600080612b868686612ebb565b91955093509050612b95610b12565b612ba157809150612bbc565b612bb9600a546129e1612bb2610b12565b8490613295565b91505b600b54612bc9908561266f565b600b55600c54612bd9908461266f565b600c55600a54612be9908261266f565b600a55336000908152600d602052604090206001810154612c0a908661266f565b60018201558054612c1b908561266f565b81556002810154612c2c908461266f565b6002820155612c3b33846134cf565b604080518681526020810186905280820184905260608101859052905133917f94c792774c59479f7bd68442f3af3691c02123a5aabee8b6f9116d8af8aa6669919081900360800190a250509250925092565b6000808211612ce4576040805162461bcd60e51b815260206004820152601a60248201527f536166654d6174683a206469766973696f6e206279207a65726f000000000000604482015290519081900360640190fd5b818381612ced57fe5b049392505050565b600081612d0457506000610fce565b600073d9e1ce17f2641f24ae83637ab66a2cca9c378b9f6001600160a01b03166338ed1739846000600930426040518663ffffffff1660e01b81526004018086815260200185815260200180602001846001600160a01b031681526020018381526020018281038252858181548152602001915080548015612daf57602002820191906000526020600020905b81546001600160a01b03168152600190910190602001808311612d91575b50509650505050505050600060405180830381600087803b158015612dd357600080fd5b505af1158015612de7573d6000803e3d6000fd5b505050506040513d6000823e601f3d908101601f191682016040526020811015612e1057600080fd5b8101908080516040519392919084640100000000821115612e3057600080fd5b908301906020820185811115612e4557600080fd5b8251866020820283011164010000000082111715612e6257600080fd5b82525081516020918201928201910280838360005b83811015612e8f578181015183820152602001612e77565b50505050905001604052505050905080600181518110612eab57fe5b6020026020010151915050919050565b6000806000846000805160206138df8339815191526001600160a01b03166370a08231306040518263ffffffff1660e01b815260040180826001600160a01b0316815260200191505060206040518083038186803b158015612f1c57600080fd5b505afa158015612f30573d6000803e3d6000fd5b505050506040513d6020811015612f4657600080fd5b50511015612f8d576040805162461bcd60e51b815260206004820152600f60248201526e0dcdee840cadcdeeaced040ae8aa89608b1b604482015290519081900360640190fd5b6000612f988661206a565b604080516370a0823160e01b81523060048201529051919250829173a0b86991c6218b36c1d19d4a2e9eb0ce3606eb48916370a08231916024808301926020929190829003018186803b158015612fee57600080fd5b505afa158015613002573d6000803e3d6000fd5b505050506040513d602081101561301857600080fd5b5051101561306d576040805162461bcd60e51b815260206004820152601760248201527f6e6f7420656e6f7567682066726565206361706974616c000000000000000000604482015290519081900360640190fd5b6040805162e8e33760e81b81526000805160206138df833981519152600482015273a0b86991c6218b36c1d19d4a2e9eb0ce3606eb486024820152604481018890526064810183905260848101889052600060a482018190523060c483015260e48201889052915173d9e1ce17f2641f24ae83637ab66a2cca9c378b9f9263e8e337009261010480820193606093909283900390910190829087803b15801561311557600080fd5b505af1158015613129573d6000803e3d6000fd5b505050506040513d606081101561313f57600080fd5b50805160208201516040928301518351631c57762b60e31b81526001600482015260248101829052935191975091955090935073c2edad668740f1aa35e4d8f227fb8e17dca888cd9163e2bbb15891604480830192600092919082900301818387803b1580156131ae57600080fd5b505af11580156131c2573d6000803e3d6000fd5b50505050509250925092565b6000613223826040518060400160405280602081526020017f5361666545524332303a206c6f772d6c6576656c2063616c6c206661696c6564815250856001600160a01b03166135bf9092919063ffffffff16565b80519091501561201d5780806020019051602081101561324257600080fd5b505161201d5760405162461bcd60e51b815260040180806020018281038252602a815260200180613a66602a913960400191505060405180910390fd5b600081831061328e5781610b99565b5090919050565b6000826132a457506000610adc565b828202828482816132b157fe5b0414610b995760405162461bcd60e51b81526004018080602001828103825260218152602001806139936021913960400191505060405180910390fd5b6001600160a01b0382166133335760405162461bcd60e51b81526004018080602001828103825260218152602001806139fc6021913960400191505060405180910390fd5b61333f8260008361201d565b61337c816040518060600160405280602281526020016138bd602291396001600160a01b0385166000908152602081905260409020549190612514565b6001600160a01b0383166000908152602081905260409020556002546133a29082613472565b6002556040805182815290516000916001600160a01b038516917fddf252ad1be2c89b69c2b068fc378daa952ba7f163c4a11628f55a4df523b3ef9181900360200190a35050565b600080838611156134215760006134018786613472565b905061341661340f826135d6565b879061266f565b915084925050613469565b600061342d8588613472565b905060006134438761343e84611aa8565b61327f565b905061345861345182612cf5565b899061266f565b93506134648782613472565b925050505b94509492505050565b6000828211156134c9576040805162461bcd60e51b815260206004820152601e60248201527f536166654d6174683a207375627472616374696f6e206f766572666c6f770000604482015290519081900360640190fd5b50900390565b6001600160a01b03821661352a576040805162461bcd60e51b815260206004820152601f60248201527f45524332303a206d696e7420746f20746865207a65726f206164647265737300604482015290519081900360640190fd5b6135366000838361201d565b600254613543908261266f565b6002556001600160a01b038216600090815260208190526040902054613569908261266f565b6001600160a01b0383166000818152602081815260408083209490945583518581529351929391927fddf252ad1be2c89b69c2b068fc378daa952ba7f163c4a11628f55a4df523b3ef9281900390910190a35050565b60606135ce84846000856136b2565b949350505050565b6000816135e557506000610fce565b600073d9e1ce17f2641f24ae83637ab66a2cca9c378b9f6001600160a01b03166338ed1739846000600830426040518663ffffffff1660e01b81526004018086815260200185815260200180602001846001600160a01b031681526020018381526020018281038252858181548152602001915080548015612daf576020028201919060005260206000209081546001600160a01b03168152600190910190602001808311612d915750509650505050505050600060405180830381600087803b158015612dd357600080fd5b6060824710156136f35760405162461bcd60e51b815260040180806020018281038252602681526020018061396d6026913960400191505060405180910390fd5b6136fc8561380d565b61374d576040805162461bcd60e51b815260206004820152601d60248201527f416464726573733a2063616c6c20746f206e6f6e2d636f6e7472616374000000604482015290519081900360640190fd5b600080866001600160a01b031685876040518082805190602001908083835b6020831061378b5780518252601f19909201916020918201910161376c565b6001836020036101000a03801982511681845116808217855250505050505090500191505060006040518083038185875af1925050503d80600081146137ed576040519150601f19603f3d011682016040523d82523d6000602084013e6137f2565b606091505b5091509150613802828286613813565b979650505050505050565b3b151590565b60608315613822575081610b99565b8251156138325782518084602001fd5b60405162461bcd60e51b815260206004820181815284516024840152845185939192839260440191908501908083836000831561256857818101518382015260200161255056fe45524332303a207472616e7366657220746f20746865207a65726f20616464726573735265656e7472616e637947756172643a207265656e7472616e742063616c6c0045524332303a206275726e20616d6f756e7420657863656564732062616c616e6365000000000000000000000000c02aaa39b223fe8d0a0e5c4f27ead9083c756cc24f776e61626c653a206e6577206f776e657220697320746865207a65726f206164647265737345524332303a20617070726f766520746f20746865207a65726f206164647265737345524332303a207472616e7366657220616d6f756e7420657863656564732062616c616e6365416464726573733a20696e73756666696369656e742062616c616e636520666f722063616c6c536166654d6174683a206d756c7469706c69636174696f6e206f766572666c6f7745524332303a207472616e7366657220616d6f756e74206578636565647320616c6c6f77616e63654f776e61626c653a2063616c6c6572206973206e6f7420746865206f776e657245524332303a206275726e2066726f6d20746865207a65726f206164647265737345524332303a207472616e736665722066726f6d20746865207a65726f206164647265737345524332303a20617070726f76652066726f6d20746865207a65726f20616464726573735361666545524332303a204552433230206f7065726174696f6e20646964206e6f74207375636365656445524332303a2064656372656173656420616c6c6f77616e63652062656c6f77207a65726fa264697066735822122081d8c33beb7892a51a9d957b2a8de6c4fc7f105c925381f6d0a85d53d6dbea3a64736f6c63430007060033",
  "linkReferences": {},
  "deployedLinkReferences": {}
}