{
  "_format": "hh-sol-artifact-1",
  "contractName": "LiquidityNexusSushiLP",
  "sourceName": "contracts/LiquidityNexusSushiLP.sol",
  "abi": [
    {
      "anonymous": false,
      "inputs": [
        {
          "indexed": true,
          "internalType": "address",
          "name": "owner",
          "type": "address"
        },
        {
          "indexed": true,
          "internalType": "address",
          "name": "spender",
          "type": "address"
        },
        {
          "indexed": false,
          "internalType": "uint256",
          "name": "value",
          "type": "uint256"
        }
      ],
      "name": "Approval",
      "type": "event"
    },
    {
      "anonymous": false,
      "inputs": [
        {
          "indexed": true,
          "internalType": "address",
          "name": "sender",
          "type": "address"
        },
        {
          "indexed": false,
          "internalType": "uint256",
          "name": "amountUSDC",
          "type": "uint256"
        },
        {
          "indexed": false,
          "internalType": "uint256",
          "name": "amountETH",
          "type": "uint256"
        },
        {
          "indexed": false,
          "internalType": "uint256",
          "name": "liquidity",
          "type": "uint256"
        },
        {
          "indexed": false,
          "internalType": "uint256",
          "name": "shares",
          "type": "uint256"
        },
        {
          "indexed": true,
          "internalType": "address",
          "name": "to",
          "type": "address"
        }
      ],
      "name": "Burn",
      "type": "event"
    },
    {
      "anonymous": false,
      "inputs": [
        {
          "indexed": true,
          "internalType": "address",
          "name": "sender",
          "type": "address"
        },
        {
          "indexed": false,
          "internalType": "uint256",
          "name": "amountUSDC",
          "type": "uint256"
        },
        {
          "indexed": false,
          "internalType": "uint256",
          "name": "amountETH",
          "type": "uint256"
        },
        {
          "indexed": false,
          "internalType": "uint256",
          "name": "liquidity",
          "type": "uint256"
        },
        {
          "indexed": false,
          "internalType": "uint256",
          "name": "shares",
          "type": "uint256"
        }
      ],
      "name": "Mint",
      "type": "event"
    },
    {
      "anonymous": false,
      "inputs": [
        {
          "indexed": true,
          "internalType": "address",
          "name": "previousOwner",
          "type": "address"
        },
        {
          "indexed": true,
          "internalType": "address",
          "name": "newOwner",
          "type": "address"
        }
      ],
      "name": "OwnershipTransferred",
      "type": "event"
    },
    {
      "anonymous": false,
      "inputs": [
        {
          "indexed": false,
          "internalType": "address",
          "name": "account",
          "type": "address"
        }
      ],
      "name": "Paused",
      "type": "event"
    },
    {
      "anonymous": false,
      "inputs": [
        {
          "indexed": true,
          "internalType": "address",
          "name": "from",
          "type": "address"
        },
        {
          "indexed": true,
          "internalType": "address",
          "name": "to",
          "type": "address"
        },
        {
          "indexed": false,
          "internalType": "uint256",
          "name": "value",
          "type": "uint256"
        }
      ],
      "name": "Transfer",
      "type": "event"
    },
    {
      "anonymous": false,
      "inputs": [
        {
          "indexed": false,
          "internalType": "address",
          "name": "account",
          "type": "address"
        }
      ],
      "name": "Unpaused",
      "type": "event"
    },
    {
      "inputs": [],
      "name": "MASTERCHEF",
      "outputs": [
        {
          "internalType": "address",
          "name": "",
          "type": "address"
        }
      ],
      "stateMutability": "view",
      "type": "function"
    },
    {
      "inputs": [],
      "name": "POOL_ID",
      "outputs": [
        {
          "internalType": "uint256",
          "name": "",
          "type": "uint256"
        }
      ],
      "stateMutability": "view",
      "type": "function"
    },
    {
      "inputs": [],
      "name": "SLP",
      "outputs": [
        {
          "internalType": "address",
          "name": "",
          "type": "address"
        }
      ],
      "stateMutability": "view",
      "type": "function"
    },
    {
      "inputs": [],
      "name": "SROUTER",
      "outputs": [
        {
          "internalType": "address",
          "name": "",
          "type": "address"
        }
      ],
      "stateMutability": "view",
      "type": "function"
    },
    {
      "inputs": [],
      "name": "SUSHI",
      "outputs": [
        {
          "internalType": "address",
          "name": "",
          "type": "address"
        }
      ],
      "stateMutability": "view",
      "type": "function"
    },
    {
      "inputs": [],
      "name": "USDC",
      "outputs": [
        {
          "internalType": "address",
          "name": "",
          "type": "address"
        }
      ],
      "stateMutability": "view",
      "type": "function"
    },
    {
      "inputs": [],
      "name": "WETH",
      "outputs": [
        {
          "internalType": "address",
          "name": "",
          "type": "address"
        }
      ],
      "stateMutability": "view",
      "type": "function"
    },
    {
      "inputs": [
        {
          "internalType": "uint256",
          "name": "amountETH",
          "type": "uint256"
        },
        {
          "internalType": "uint256",
          "name": "deadline",
          "type": "uint256"
        }
      ],
      "name": "addLiquidity",
      "outputs": [
        {
          "internalType": "uint256",
          "name": "addedUSDC",
          "type": "uint256"
        },
        {
          "internalType": "uint256",
          "name": "addedETH",
          "type": "uint256"
        },
        {
          "internalType": "uint256",
          "name": "shares",
          "type": "uint256"
        }
      ],
      "stateMutability": "nonpayable",
      "type": "function"
    },
    {
      "inputs": [
        {
          "internalType": "uint256",
          "name": "deadline",
          "type": "uint256"
        }
      ],
      "name": "addLiquidityETH",
      "outputs": [
        {
          "internalType": "uint256",
          "name": "addedUSDC",
          "type": "uint256"
        },
        {
          "internalType": "uint256",
          "name": "addedETH",
          "type": "uint256"
        },
        {
          "internalType": "uint256",
          "name": "shares",
          "type": "uint256"
        }
      ],
      "stateMutability": "payable",
      "type": "function"
    },
    {
      "inputs": [
        {
          "internalType": "address",
          "name": "owner",
          "type": "address"
        },
        {
          "internalType": "address",
          "name": "spender",
          "type": "address"
        }
      ],
      "name": "allowance",
      "outputs": [
        {
          "internalType": "uint256",
          "name": "",
          "type": "uint256"
        }
      ],
      "stateMutability": "view",
      "type": "function"
    },
    {
      "inputs": [
        {
          "internalType": "uint256",
          "name": "outUSDC",
          "type": "uint256"
        }
      ],
      "name": "amountInETHForRequestedOutUSDC",
      "outputs": [
        {
          "internalType": "uint256",
          "name": "inETH",
          "type": "uint256"
        }
      ],
      "stateMutability": "view",
      "type": "function"
    },
    {
      "inputs": [
        {
          "internalType": "address",
          "name": "spender",
          "type": "address"
        },
        {
          "internalType": "uint256",
          "name": "amount",
          "type": "uint256"
        }
      ],
      "name": "approve",
      "outputs": [
        {
          "internalType": "bool",
          "name": "",
          "type": "bool"
        }
      ],
      "stateMutability": "nonpayable",
      "type": "function"
    },
    {
      "inputs": [
        {
          "internalType": "address",
          "name": "account",
          "type": "address"
        }
      ],
      "name": "balanceOf",
      "outputs": [
        {
          "internalType": "uint256",
          "name": "",
          "type": "uint256"
        }
      ],
      "stateMutability": "view",
      "type": "function"
    },
    {
      "inputs": [],
      "name": "claimRewards",
      "outputs": [],
      "stateMutability": "nonpayable",
      "type": "function"
    },
    {
      "inputs": [],
      "name": "compoundProfits",
      "outputs": [
        {
          "internalType": "uint256",
          "name": "addedUSDC",
          "type": "uint256"
        },
        {
          "internalType": "uint256",
          "name": "addedETH",
          "type": "uint256"
        },
        {
          "internalType": "uint256",
          "name": "liquidity",
          "type": "uint256"
        }
      ],
      "stateMutability": "nonpayable",
      "type": "function"
    },
    {
      "inputs": [],
      "name": "decimals",
      "outputs": [
        {
          "internalType": "uint8",
          "name": "",
          "type": "uint8"
        }
      ],
      "stateMutability": "view",
      "type": "function"
    },
    {
      "inputs": [
        {
          "internalType": "address",
          "name": "spender",
          "type": "address"
        },
        {
          "internalType": "uint256",
          "name": "subtractedValue",
          "type": "uint256"
        }
      ],
      "name": "decreaseAllowance",
      "outputs": [
        {
          "internalType": "bool",
          "name": "",
          "type": "bool"
        }
      ],
      "stateMutability": "nonpayable",
      "type": "function"
    },
    {
      "inputs": [],
      "name": "depositAllCapital",
      "outputs": [],
      "stateMutability": "nonpayable",
      "type": "function"
    },
    {
      "inputs": [
        {
          "internalType": "uint256",
          "name": "amount",
          "type": "uint256"
        }
      ],
      "name": "depositCapital",
      "outputs": [],
      "stateMutability": "nonpayable",
      "type": "function"
    },
    {
      "inputs": [],
      "name": "emergencyExit",
      "outputs": [],
      "stateMutability": "nonpayable",
      "type": "function"
    },
    {
      "inputs": [],
      "name": "governance",
      "outputs": [
        {
          "internalType": "address",
          "name": "",
          "type": "address"
        }
      ],
      "stateMutability": "view",
      "type": "function"
    },
    {
      "inputs": [
        {
          "internalType": "address",
          "name": "spender",
          "type": "address"
        },
        {
          "internalType": "uint256",
          "name": "addedValue",
          "type": "uint256"
        }
      ],
      "name": "increaseAllowance",
      "outputs": [
        {
          "internalType": "bool",
          "name": "",
          "type": "bool"
        }
      ],
      "stateMutability": "nonpayable",
      "type": "function"
    },
    {
      "inputs": [
        {
          "internalType": "address",
          "name": "",
          "type": "address"
        }
      ],
      "name": "minters",
      "outputs": [
        {
          "internalType": "uint256",
          "name": "entryETH",
          "type": "uint256"
        },
        {
          "internalType": "uint256",
          "name": "entryUSDC",
          "type": "uint256"
        },
        {
          "internalType": "uint256",
          "name": "shares",
          "type": "uint256"
        }
      ],
      "stateMutability": "view",
      "type": "function"
    },
    {
      "inputs": [],
      "name": "name",
      "outputs": [
        {
          "internalType": "string",
          "name": "",
          "type": "string"
        }
      ],
      "stateMutability": "view",
      "type": "function"
    },
    {
      "inputs": [],
      "name": "owner",
      "outputs": [
        {
          "internalType": "address",
          "name": "",
          "type": "address"
        }
      ],
      "stateMutability": "view",
      "type": "function"
    },
    {
      "inputs": [
        {
          "internalType": "uint256",
          "name": "",
          "type": "uint256"
        }
      ],
      "name": "pathToETH",
      "outputs": [
        {
          "internalType": "address",
          "name": "",
          "type": "address"
        }
      ],
      "stateMutability": "view",
      "type": "function"
    },
    {
      "inputs": [
        {
          "internalType": "uint256",
          "name": "",
          "type": "uint256"
        }
      ],
      "name": "pathToUSDC",
      "outputs": [
        {
          "internalType": "address",
          "name": "",
          "type": "address"
        }
      ],
      "stateMutability": "view",
      "type": "function"
    },
    {
      "inputs": [],
      "name": "pause",
      "outputs": [],
      "stateMutability": "nonpayable",
      "type": "function"
    },
    {
      "inputs": [],
      "name": "paused",
      "outputs": [
        {
          "internalType": "bool",
          "name": "",
          "type": "bool"
        }
      ],
      "stateMutability": "view",
      "type": "function"
    },
    {
      "inputs": [
        {
          "internalType": "uint256",
          "name": "inETH",
          "type": "uint256"
        }
      ],
      "name": "quote",
      "outputs": [
        {
          "internalType": "uint256",
          "name": "outUSDC",
          "type": "uint256"
        }
      ],
      "stateMutability": "view",
      "type": "function"
    },
    {
      "inputs": [],
      "name": "removeAllLiquidity",
      "outputs": [
        {
          "internalType": "uint256",
          "name": "exitETH",
          "type": "uint256"
        }
      ],
      "stateMutability": "nonpayable",
      "type": "function"
    },
    {
      "inputs": [],
      "name": "removeAllLiquidityETH",
      "outputs": [
        {
          "internalType": "uint256",
          "name": "exitETH",
          "type": "uint256"
        }
      ],
      "stateMutability": "nonpayable",
      "type": "function"
    },
    {
      "inputs": [
        {
          "internalType": "uint256",
          "name": "shares",
          "type": "uint256"
        },
        {
          "internalType": "uint256",
          "name": "deadline",
          "type": "uint256"
        }
      ],
      "name": "removeLiquidity",
      "outputs": [
        {
          "internalType": "uint256",
          "name": "exitETH",
          "type": "uint256"
        }
      ],
      "stateMutability": "nonpayable",
      "type": "function"
    },
    {
      "inputs": [
        {
          "internalType": "uint256",
          "name": "shares",
          "type": "uint256"
        },
        {
          "internalType": "uint256",
          "name": "deadline",
          "type": "uint256"
        }
      ],
      "name": "removeLiquidityETH",
      "outputs": [
        {
          "internalType": "uint256",
          "name": "exitETH",
          "type": "uint256"
        }
      ],
      "stateMutability": "nonpayable",
      "type": "function"
    },
    {
      "inputs": [],
      "name": "renounceOwnership",
      "outputs": [],
      "stateMutability": "nonpayable",
      "type": "function"
    },
    {
      "inputs": [
        {
          "internalType": "address[]",
          "name": "tokens_",
          "type": "address[]"
        }
      ],
      "name": "salvage",
      "outputs": [],
      "stateMutability": "nonpayable",
      "type": "function"
    },
    {
      "inputs": [],
      "name": "symbol",
      "outputs": [
        {
          "internalType": "string",
          "name": "",
          "type": "string"
        }
      ],
      "stateMutability": "view",
      "type": "function"
    },
    {
      "inputs": [],
      "name": "totalInvestedETH",
      "outputs": [
        {
          "internalType": "uint256",
          "name": "",
          "type": "uint256"
        }
      ],
      "stateMutability": "view",
      "type": "function"
    },
    {
      "inputs": [],
      "name": "totalInvestedUSDC",
      "outputs": [
        {
          "internalType": "uint256",
          "name": "",
          "type": "uint256"
        }
      ],
      "stateMutability": "view",
      "type": "function"
    },
    {
      "inputs": [],
      "name": "totalLiquidity",
      "outputs": [
        {
          "internalType": "uint256",
          "name": "",
          "type": "uint256"
        }
      ],
      "stateMutability": "view",
      "type": "function"
    },
    {
      "inputs": [],
      "name": "totalSupply",
      "outputs": [
        {
          "internalType": "uint256",
          "name": "",
          "type": "uint256"
        }
      ],
      "stateMutability": "view",
      "type": "function"
    },
    {
      "inputs": [
        {
          "internalType": "address",
          "name": "recipient",
          "type": "address"
        },
        {
          "internalType": "uint256",
          "name": "amount",
          "type": "uint256"
        }
      ],
      "name": "transfer",
      "outputs": [
        {
          "internalType": "bool",
          "name": "",
          "type": "bool"
        }
      ],
      "stateMutability": "nonpayable",
      "type": "function"
    },
    {
      "inputs": [
        {
          "internalType": "address",
          "name": "sender",
          "type": "address"
        },
        {
          "internalType": "address",
          "name": "recipient",
          "type": "address"
        },
        {
          "internalType": "uint256",
          "name": "amount",
          "type": "uint256"
        }
      ],
      "name": "transferFrom",
      "outputs": [
        {
          "internalType": "bool",
          "name": "",
          "type": "bool"
        }
      ],
      "stateMutability": "nonpayable",
      "type": "function"
    },
    {
      "inputs": [
        {
          "internalType": "address",
          "name": "newOwner",
          "type": "address"
        }
      ],
      "name": "transferOwnership",
      "outputs": [],
      "stateMutability": "nonpayable",
      "type": "function"
    },
    {
      "inputs": [],
      "name": "unpause",
      "outputs": [],
      "stateMutability": "nonpayable",
      "type": "function"
    },
    {
      "inputs": [],
      "name": "withdrawFreeCapital",
      "outputs": [],
      "stateMutability": "nonpayable",
      "type": "function"
    },
    {
      "stateMutability": "payable",
      "type": "receive"
    }
  ],
  "bytecode": "0x6002608081815260e060405290816020016020820280368337505081516200002f92600892506020019062000547565b506040805160028082526060820183529091602083019080368337505081516200006192600992506020019062000547565b503480156200006f57600080fd5b50604080518082018252601581527f4c69717569646974794e6578757353757368694c50000000000000000000000060208083019182528351808501909452600584526404c4e534c560dc1b908401528151919291620000d291600391620005b1565b508051620000e8906004906020840190620005b1565b50506005805460ff191660121790555060006200010462000543565b60058054610100600160a81b0319166101006001600160a01b03841690810291909117909155604051919250906000907f8be0079c531659141344cd1fd0a4f28419497f9722a3daafe3b4186f6b6457e0908290a3506005805460ff60a81b191690556001600655600780546001600160a01b031916331790556009805473c02aaa39b223fe8d0a0e5c4f27ead9083c756cc29190600090620001a357fe5b9060005260206000200160006101000a8154816001600160a01b0302191690836001600160a01b0316021790555073a0b86991c6218b36c1d19d4a2e9eb0ce3606eb486009600181548110620001f557fe5b9060005260206000200160006101000a8154816001600160a01b0302191690836001600160a01b0316021790555073a0b86991c6218b36c1d19d4a2e9eb0ce3606eb4860086000815481106200024757fe5b9060005260206000200160006101000a8154816001600160a01b0302191690836001600160a01b0316021790555073c02aaa39b223fe8d0a0e5c4f27ead9083c756cc260086001815481106200029957fe5b600091825260208083209190910180546001600160a01b0319166001600160a01b0394909416939093179092556040805163095ea7b360e01b815273d9e1ce17f2641f24ae83637ab66a2cca9c378b9f60048201526000196024820152905173a0b86991c6218b36c1d19d4a2e9eb0ce3606eb489363095ea7b3936044808501949293928390030190829087803b1580156200033457600080fd5b505af115801562000349573d6000803e3d6000fd5b505050506040513d60208110156200036057600080fd5b50506040805163095ea7b360e01b815273d9e1ce17f2641f24ae83637ab66a2cca9c378b9f60048201526000196024820152905173c02aaa39b223fe8d0a0e5c4f27ead9083c756cc29163095ea7b39160448083019260209291908290030181600087803b158015620003d257600080fd5b505af1158015620003e7573d6000803e3d6000fd5b505050506040513d6020811015620003fe57600080fd5b50506040805163095ea7b360e01b815273d9e1ce17f2641f24ae83637ab66a2cca9c378b9f60048201526000196024820152905173397ff1542f962076d0bfe58ea045ffa2d347aca09163095ea7b39160448083019260209291908290030181600087803b1580156200047057600080fd5b505af115801562000485573d6000803e3d6000fd5b505050506040513d60208110156200049c57600080fd5b50506040805163095ea7b360e01b815273c2edad668740f1aa35e4d8f227fb8e17dca888cd60048201526000196024820152905173397ff1542f962076d0bfe58ea045ffa2d347aca09163095ea7b39160448083019260209291908290030181600087803b1580156200050e57600080fd5b505af115801562000523573d6000803e3d6000fd5b505050506040513d60208110156200053a57600080fd5b506200064b9050565b3390565b8280548282559060005260206000209081019282156200059f579160200282015b828111156200059f57825182546001600160a01b0319166001600160a01b0390911617825560209092019160019091019062000568565b50620005ad92915062000634565b5090565b828054600181600116156101000203166002900490600052602060002090601f016020900481019282620005e957600085556200059f565b82601f106200060457805160ff19168380011785556200059f565b828001600101855582156200059f579182015b828111156200059f57825182559160200191906001019062000617565b5b80821115620005ad576000815560010162000635565b613a02806200065b6000396000f3fe6080604052600436106102815760003560e01c806389a302711161014f578063ad5c4648116100c1578063e0d7d0e91161007a578063e0d7d0e91461090c578063e3692c3614610921578063ed1bd76c14610936578063f2fde38b14610960578063f46eccc414610993578063fd46a171146109c657610288565b8063ad5c4648146107b0578063b1eb5352146107c5578063c9459540146107ef578063d06d04cc14610804578063d85d515e14610821578063dd62ed3e146108d157610288565b80639d7de6b3116101135780639d7de6b31461069f5780639e11ef44146106cf578063a328b228146106f9578063a457c2d714610729578063a9059cbb14610762578063ab560e101461079b57610288565b806389a302711461061b5780638da5cb5b14610630578063900d10991461064557806395d89b411461065a5780639cd441da1461066f57610288565b8063386fed69116101f3578063662fd804116101ac578063662fd8041461056a57806370a0823114610594578063715018a6146105c757806374969bf9146105dc5780638456cb59146105f157806388a780e51461060657610288565b8063386fed69146104c857806339509351146104dd5780633f4ba83a146105165780635641ec031461052b5780635aa6e675146105405780635c975abb1461055557610288565b806323b872dd1161024557806323b872dd146103e65780632509f1b9146104295780632aad5edd1461043e578063313ce567146104535780633205b07c1461047e578063372500ab146104b157610288565b806306fdde031461028d578063095ea7b31461031757806314b4218c1461036457806315770f92146103aa57806318160ddd146103d157610288565b3661028857005b600080fd5b34801561029957600080fd5b506102a26109db565b6040805160208082528351818301528351919283929083019185019080838360005b838110156102dc5781810151838201526020016102c4565b50505050905090810190601f1680156103095780820380516001836020036101000a031916815260200191505b509250505060405180910390f35b34801561032357600080fd5b506103506004803603604081101561033a57600080fd5b506001600160a01b038135169060200135610a71565b604080519115158252519081900360200190f35b34801561037057600080fd5b5061038e6004803603602081101561038757600080fd5b5035610a8f565b604080516001600160a01b039092168252519081900360200190f35b3480156103b657600080fd5b506103bf610ab9565b60408051918252519081900360200190f35b3480156103dd57600080fd5b506103bf610abf565b3480156103f257600080fd5b506103506004803603606081101561040957600080fd5b506001600160a01b03813581169160208101359091169060400135610ac5565b34801561043557600080fd5b5061038e610b4d565b34801561044a57600080fd5b506103bf610b65565b34801561045f57600080fd5b50610468610b6b565b6040805160ff9092168252519081900360200190f35b34801561048a57600080fd5b50610493610b74565b60408051938452602084019290925282820152519081900360600190f35b3480156104bd57600080fd5b506104c6610e00565b005b3480156104d457600080fd5b506104c6610f97565b3480156104e957600080fd5b506103506004803603604081101561050057600080fd5b506001600160a01b038135169060200135611082565b34801561052257600080fd5b506104c66110d0565b34801561053757600080fd5b506104c661113a565b34801561054c57600080fd5b5061038e6111be565b34801561056157600080fd5b506103506111cd565b34801561057657600080fd5b5061038e6004803603602081101561058d57600080fd5b50356111dd565b3480156105a057600080fd5b506103bf600480360360208110156105b757600080fd5b50356001600160a01b03166111ed565b3480156105d357600080fd5b506104c661120c565b3480156105e857600080fd5b5061038e6112be565b3480156105fd57600080fd5b506104c66112d6565b34801561061257600080fd5b506103bf611340565b34801561062757600080fd5b5061038e61140f565b34801561063c57600080fd5b5061038e611427565b34801561065157600080fd5b506104c661143b565b34801561066657600080fd5b506102a2611548565b34801561067b57600080fd5b506104936004803603604081101561069257600080fd5b50803590602001356115a9565b3480156106ab57600080fd5b506103bf600480360360408110156106c257600080fd5b508035906020013561167d565b3480156106db57600080fd5b506104c6600480360360208110156106f257600080fd5b5035611747565b34801561070557600080fd5b506103bf6004803603604081101561071c57600080fd5b50803590602001356117cf565b34801561073557600080fd5b506103506004803603604081101561074c57600080fd5b506001600160a01b03813516906020013561191a565b34801561076e57600080fd5b506103506004803603604081101561078557600080fd5b506001600160a01b038135169060200135611982565b3480156107a757600080fd5b5061038e611996565b3480156107bc57600080fd5b5061038e6119ae565b3480156107d157600080fd5b506103bf600480360360208110156107e857600080fd5b50356119c0565b3480156107fb57600080fd5b506103bf611b4f565b6104936004803603602081101561081a57600080fd5b5035611c99565b34801561082d57600080fd5b506104c66004803603602081101561084457600080fd5b81019060208101813564010000000081111561085f57600080fd5b82018360208201111561087157600080fd5b8035906020019184602083028401116401000000008311171561089357600080fd5b919080806020026020016040519081016040528093929190818152602001838360200280828437600092019190915250929550611dba945050505050565b3480156108dd57600080fd5b506103bf600480360360408110156108f457600080fd5b506001600160a01b0381358116916020013516611f3a565b34801561091857600080fd5b506103bf611f65565b34801561092d57600080fd5b5061038e611f6a565b34801561094257600080fd5b506103bf6004803603602081101561095957600080fd5b5035611f82565b34801561096c57600080fd5b506104c66004803603602081101561098357600080fd5b50356001600160a01b03166120ac565b34801561099f57600080fd5b50610493600480360360208110156109b657600080fd5b50356001600160a01b03166121ba565b3480156109d257600080fd5b506103bf6121db565b60038054604080516020601f6002600019610100600188161502019095169490940493840181900481028201810190925282815260609390929091830182828015610a675780601f10610a3c57610100808354040283529160200191610a67565b820191906000526020600020905b815481529060010190602001808311610a4a57829003601f168201915b5050505050905090565b6000610a85610a7e6121e1565b84846121e5565b5060015b92915050565b60098181548110610a9f57600080fd5b6000918252602090912001546001600160a01b0316905081565b600a5481565b60025490565b6000610ad28484846122d1565b610b4284610ade6121e1565b610b3d856040518060600160405280602881526020016138cc602891396001600160a01b038a16600090815260016020526040812090610b1c6121e1565b6001600160a01b03168152602081019190915260400160002054919061242c565b6121e5565b5060015b9392505050565b73397ff1542f962076d0bfe58ea045ffa2d347aca081565b600b5481565b60055460ff1690565b600080600060026006541415610bbf576040805162461bcd60e51b815260206004820152601f60248201526000805160206137b5833981519152604482015290519081900360640190fd5b6002600655610bcc6111cd565b15610c11576040805162461bcd60e51b815260206004820152601060248201526f14185d5cd8589b194e881c185d5cd95960821b604482015290519081900360640190fd5b6007546001600160a01b03163314610c62576040805162461bcd60e51b815260206004820152600f60248201526e6f6e6c7920676f7665726e616e636560881b604482015290519081900360640190fd5b604080516370a0823160e01b815230600482015290516000916000805160206137f7833981519152916370a0823191602480820192602092909190829003018186803b158015610cb157600080fd5b505afa158015610cc5573d6000803e3d6000fd5b505050506040513d6020811015610cdb57600080fd5b505190506103e88111610d24576040805162461bcd60e51b815260206004820152600c60248201526b06d696e696d756d20313030360a41b604482015290519081900360640190fd5b610d37610d328260026124c3565b61252a565b50604080516370a0823160e01b815230600482015290516000805160206137f7833981519152916370a08231916024808301926020929190829003018186803b158015610d8357600080fd5b505afa158015610d97573d6000803e3d6000fd5b505050506040513d6020811015610dad57600080fd5b50519050610dbb81426126f0565b600b549296509094509250610dd09085612a03565b600b55600c54610de09084612a03565b600c55600a54610df09083612a03565b600a555060016006559192909190565b60026006541415610e46576040805162461bcd60e51b815260206004820152601f60248201526000805160206137b5833981519152604482015290519081900360640190fd5b6002600655610e536111cd565b15610e98576040805162461bcd60e51b815260206004820152601060248201526f14185d5cd8589b194e881c185d5cd95960821b604482015290519081900360640190fd5b6007546001600160a01b03163314610ee9576040805162461bcd60e51b815260206004820152600f60248201526e6f6e6c7920676f7665726e616e636560881b604482015290519081900360640190fd5b610ef1612a5d565b604080516370a0823160e01b81523060048201529051610f90913391736b3595068778dd592e39a122f4f5a5cf09c90fe2916370a08231916024808301926020929190829003018186803b158015610f4857600080fd5b505afa158015610f5c573d6000803e3d6000fd5b505050506040513d6020811015610f7257600080fd5b5051736b3595068778dd592e39a122f4f5a5cf09c90fe29190612acf565b6001600655565b610f9f6121e1565b6001600160a01b0316610fb0611427565b6001600160a01b031614610ff9576040805162461bcd60e51b815260206004820181905260248201526000805160206138f4833981519152604482015290519081900360640190fd5b604080516370a0823160e01b815233600482015290516110809173a0b86991c6218b36c1d19d4a2e9eb0ce3606eb48916370a0823191602480820192602092909190829003018186803b15801561104f57600080fd5b505afa158015611063573d6000803e3d6000fd5b505050506040513d602081101561107957600080fd5b5051611747565b565b6000610a8561108f6121e1565b84610b3d85600160006110a06121e1565b6001600160a01b03908116825260208083019390935260409182016000908120918c168152925290205490612a03565b6110d86121e1565b6001600160a01b03166110e9611427565b6001600160a01b031614611132576040805162461bcd60e51b815260206004820181905260248201526000805160206138f4833981519152604482015290519081900360640190fd5b611080612b21565b6111426121e1565b6001600160a01b0316611153611427565b6001600160a01b03161461119c576040805162461bcd60e51b815260206004820181905260248201526000805160206138f4833981519152604482015290519081900360640190fd5b6111a8600a5442612bc4565b50506111b261143b565b6000600a819055600b55565b6007546001600160a01b031681565b600554600160a81b900460ff1690565b60088181548110610a9f57600080fd5b6001600160a01b0381166000908152602081905260409020545b919050565b6112146121e1565b6001600160a01b0316611225611427565b6001600160a01b03161461126e576040805162461bcd60e51b815260206004820181905260248201526000805160206138f4833981519152604482015290519081900360640190fd5b60055460405160009161010090046001600160a01b0316907f8be0079c531659141344cd1fd0a4f28419497f9722a3daafe3b4186f6b6457e0908390a360058054610100600160a81b0319169055565b73d9e1ce17f2641f24ae83637ab66a2cca9c378b9f81565b6112de6121e1565b6001600160a01b03166112ef611427565b6001600160a01b031614611338576040805162461bcd60e51b815260206004820181905260248201526000805160206138f4833981519152604482015290519081900360640190fd5b611080612d27565b600060026006541415611388576040805162461bcd60e51b815260206004820152601f60248201526000805160206137b5833981519152604482015290519081900360640190fd5b60026006556113956111cd565b156113da576040805162461bcd60e51b815260206004820152601060248201526f14185d5cd8589b194e881c185d5cd95960821b604482015290519081900360640190fd5b6113ec6113e6336111ed565b42612db0565b90506114076000805160206137f78339815191523383612acf565b600160065590565b73a0b86991c6218b36c1d19d4a2e9eb0ce3606eb4881565b60055461010090046001600160a01b031690565b6114436121e1565b6001600160a01b0316611454611427565b6001600160a01b03161461149d576040805162461bcd60e51b815260206004820181905260248201526000805160206138f4833981519152604482015290519081900360640190fd5b604080516370a0823160e01b8152306004820152905160009173a0b86991c6218b36c1d19d4a2e9eb0ce3606eb48916370a0823191602480820192602092909190829003018186803b1580156114f257600080fd5b505afa158015611506573d6000803e3d6000fd5b505050506040513d602081101561151c57600080fd5b5051905080156115455761154573a0b86991c6218b36c1d19d4a2e9eb0ce3606eb483383612acf565b50565b60048054604080516020601f6002600019610100600188161502019095169490940493840181900481028201810190925282815260609390929091830182828015610a675780601f10610a3c57610100808354040283529160200191610a67565b6000806000600260065414156115f4576040805162461bcd60e51b815260206004820152601f60248201526000805160206137b5833981519152604482015290519081900360640190fd5b60026006556116016111cd565b15611646576040805162461bcd60e51b815260206004820152601060248201526f14185d5cd8589b194e881c185d5cd95960821b604482015290519081900360640190fd5b6116606000805160206137f7833981519152333088612f74565b61166a8585612fce565b6001600655919790965090945092505050565b6000600260065414156116c5576040805162461bcd60e51b815260206004820152601f60248201526000805160206137b5833981519152604482015290519081900360640190fd5b60026006556116d26111cd565b15611717576040805162461bcd60e51b815260206004820152601060248201526f14185d5cd8589b194e881c185d5cd95960821b604482015290519081900360640190fd5b6117218383612db0565b905061173c6000805160206137f78339815191523383612acf565b600160065592915050565b61174f6121e1565b6001600160a01b0316611760611427565b6001600160a01b0316146117a9576040805162461bcd60e51b815260206004820181905260248201526000805160206138f4833981519152604482015290519081900360640190fd5b80156115455761154573a0b86991c6218b36c1d19d4a2e9eb0ce3606eb48333084612f74565b600060026006541415611817576040805162461bcd60e51b815260206004820152601f60248201526000805160206137b5833981519152604482015290519081900360640190fd5b60026006556118246111cd565b15611869576040805162461bcd60e51b815260206004820152601060248201526f14185d5cd8589b194e881c185d5cd95960821b604482015290519081900360640190fd5b6118738383612db0565b90506000805160206137f78339815191526001600160a01b0316632e1a7d4d826040518263ffffffff1660e01b815260040180828152602001915050600060405180830381600087803b1580156118c957600080fd5b505af11580156118dd573d6000803e3d6000fd5b505060405133925083156108fc02915083906000818181858888f1935050505015801561190e573d6000803e3d6000fd5b50600160065592915050565b6000610a856119276121e1565b84610b3d856040518060600160405280602581526020016139a860259139600160006119516121e1565b6001600160a01b03908116825260208083019390935260409182016000908120918d1681529252902054919061242c565b6000610a8561198f6121e1565b84846122d1565b736b3595068778dd592e39a122f4f5a5cf09c90fe281565b6000805160206137f783398151915281565b600073d9e1ce17f2641f24ae83637ab66a2cca9c378b9f6001600160a01b0316631f00ca748360096040518363ffffffff1660e01b815260040180838152602001806020018281038252838181548152602001915080548015611a4c57602002820191906000526020600020905b81546001600160a01b03168152600190910190602001808311611a2e575b5050935050505060006040518083038186803b158015611a6b57600080fd5b505afa158015611a7f573d6000803e3d6000fd5b505050506040513d6000823e601f3d908101601f191682016040526020811015611aa857600080fd5b8101908080516040519392919084640100000000821115611ac857600080fd5b908301906020820185811115611add57600080fd5b8251866020820283011164010000000082111715611afa57600080fd5b82525081516020918201928201910280838360005b83811015611b27578181015183820152602001611b0f565b50505050905001604052505050600081518110611b4057fe5b60200260200101519050919050565b600060026006541415611b97576040805162461bcd60e51b815260206004820152601f60248201526000805160206137b5833981519152604482015290519081900360640190fd5b6002600655611ba46111cd565b15611be9576040805162461bcd60e51b815260206004820152601060248201526f14185d5cd8589b194e881c185d5cd95960821b604482015290519081900360640190fd5b611bf56113e6336111ed565b90506000805160206137f78339815191526001600160a01b0316632e1a7d4d826040518263ffffffff1660e01b815260040180828152602001915050600060405180830381600087803b158015611c4b57600080fd5b505af1158015611c5f573d6000803e3d6000fd5b505060405133925083156108fc02915083906000818181858888f19350505050158015611c90573d6000803e3d6000fd5b50600160065590565b600080600060026006541415611ce4576040805162461bcd60e51b815260206004820152601f60248201526000805160206137b5833981519152604482015290519081900360640190fd5b6002600655611cf16111cd565b15611d36576040805162461bcd60e51b815260206004820152601060248201526f14185d5cd8589b194e881c185d5cd95960821b604482015290519081900360640190fd5b60003490506000805160206137f78339815191526001600160a01b031663d0e30db0826040518263ffffffff1660e01b81526004016000604051808303818588803b158015611d8457600080fd5b505af1158015611d98573d6000803e3d6000fd5b5050505050611da78186612fce565b9350935093505060016006559193909250565b611dc26121e1565b6001600160a01b0316611dd3611427565b6001600160a01b031614611e1c576040805162461bcd60e51b815260206004820181905260248201526000805160206138f4833981519152604482015290519081900360640190fd5b805160005b81811015611f35576000838281518110611e3757fe5b602002602001015190506000805160206137f78339815191526001600160a01b0316816001600160a01b031614158015611e8e57506001600160a01b03811673a0b86991c6218b36c1d19d4a2e9eb0ce3606eb4814155b15611f2c576000816001600160a01b03166370a08231306040518263ffffffff1660e01b815260040180826001600160a01b0316815260200191505060206040518083038186803b158015611ee257600080fd5b505afa158015611ef6573d6000803e3d6000fd5b505050506040513d6020811015611f0c57600080fd5b505190508015611f2a57611f2a6001600160a01b0383163383612acf565b505b50600101611e21565b505050565b6001600160a01b03918216600090815260016020908152604080832093909416825291909152205490565b600181565b73c2edad668740f1aa35e4d8f227fb8e17dca888cd81565b600080600073397ff1542f962076d0bfe58ea045ffa2d347aca06001600160a01b0316630902f1ac6040518163ffffffff1660e01b815260040160606040518083038186803b158015611fd457600080fd5b505afa158015611fe8573d6000803e3d6000fd5b505050506040513d6060811015611ffe57600080fd5b50805160209182015160408051632b58577b60e21b8152600481018990526dffffffffffffffffffffffffffff808416602483015284166044820152905192955090935073d9e1ce17f2641f24ae83637ab66a2cca9c378b9f9263ad615dec92606480840193829003018186803b15801561207857600080fd5b505afa15801561208c573d6000803e3d6000fd5b505050506040513d60208110156120a257600080fd5b5051949350505050565b6120b46121e1565b6001600160a01b03166120c5611427565b6001600160a01b03161461210e576040805162461bcd60e51b815260206004820181905260248201526000805160206138f4833981519152604482015290519081900360640190fd5b6001600160a01b0381166121535760405162461bcd60e51b81526004018080602001828103825260268152602001806138176026913960400191505060405180910390fd5b6005546040516001600160a01b0380841692610100900416907f8be0079c531659141344cd1fd0a4f28419497f9722a3daafe3b4186f6b6457e090600090a3600580546001600160a01b0390921661010002610100600160a81b0319909216919091179055565b600d6020526000908152604090208054600182015460029092015490919083565b600c5481565b3390565b6001600160a01b03831661222a5760405162461bcd60e51b815260040180806020018281038252602481526020018061395a6024913960400191505060405180910390fd5b6001600160a01b03821661226f5760405162461bcd60e51b815260040180806020018281038252602281526020018061383d6022913960400191505060405180910390fd5b6001600160a01b03808416600081815260016020908152604080832094871680845294825291829020859055815185815291517f8c5be1e5ebec7d5bd14f71427d1e84f3dd0314c0f7b2291e5b200ac8c7c3b9259281900390910190a3505050565b6001600160a01b0383166123165760405162461bcd60e51b81526004018080602001828103825260258152602001806139356025913960400191505060405180910390fd5b6001600160a01b03821661235b5760405162461bcd60e51b81526004018080602001828103825260238152602001806137926023913960400191505060405180910390fd5b612366838383611f35565b6123a38160405180606001604052806026815260200161385f602691396001600160a01b038616600090815260208190526040902054919061242c565b6001600160a01b0380851660009081526020819052604080822093909355908416815220546123d29082612a03565b6001600160a01b038084166000818152602081815260409182902094909455805185815290519193928716927fddf252ad1be2c89b69c2b068fc378daa952ba7f163c4a11628f55a4df523b3ef92918290030190a3505050565b600081848411156124bb5760405162461bcd60e51b81526004018080602001828103825283818151815260200191508051906020019080838360005b83811015612480578181015183820152602001612468565b50505050905090810190601f1680156124ad5780820380516001836020036101000a031916815260200191505b509250505060405180910390fd5b505050900390565b6000808211612519576040805162461bcd60e51b815260206004820152601a60248201527f536166654d6174683a206469766973696f6e206279207a65726f000000000000604482015290519081900360640190fd5b81838161252257fe5b049392505050565b60008161253957506000611207565b600073d9e1ce17f2641f24ae83637ab66a2cca9c378b9f6001600160a01b03166338ed1739846000600930426040518663ffffffff1660e01b81526004018086815260200185815260200180602001846001600160a01b0316815260200183815260200182810382528581815481526020019150805480156125e457602002820191906000526020600020905b81546001600160a01b031681526001909101906020018083116125c6575b50509650505050505050600060405180830381600087803b15801561260857600080fd5b505af115801561261c573d6000803e3d6000fd5b505050506040513d6000823e601f3d908101601f19168201604052602081101561264557600080fd5b810190808051604051939291908464010000000082111561266557600080fd5b90830190602082018581111561267a57600080fd5b825186602082028301116401000000008211171561269757600080fd5b82525081516020918201928201910280838360005b838110156126c45781810151838201526020016126ac565b505050509050016040525050509050806001815181106126e057fe5b6020026020010151915050919050565b6000806000846000805160206137f78339815191526001600160a01b03166370a08231306040518263ffffffff1660e01b815260040180826001600160a01b0316815260200191505060206040518083038186803b15801561275157600080fd5b505afa158015612765573d6000803e3d6000fd5b505050506040513d602081101561277b57600080fd5b505110156127c2576040805162461bcd60e51b815260206004820152600f60248201526e0dcdee840cadcdeeaced040ae8aa89608b1b604482015290519081900360640190fd5b60006127cd86611f82565b604080516370a0823160e01b81523060048201529051919250829173a0b86991c6218b36c1d19d4a2e9eb0ce3606eb48916370a08231916024808301926020929190829003018186803b15801561282357600080fd5b505afa158015612837573d6000803e3d6000fd5b505050506040513d602081101561284d57600080fd5b505110156128a2576040805162461bcd60e51b815260206004820152601760248201527f6e6f7420656e6f7567682066726565206361706974616c000000000000000000604482015290519081900360640190fd5b6040805162e8e33760e81b81526000805160206137f7833981519152600482015273a0b86991c6218b36c1d19d4a2e9eb0ce3606eb486024820152604481018890526064810183905260848101889052600060a482018190523060c483015260e48201889052915173d9e1ce17f2641f24ae83637ab66a2cca9c378b9f9263e8e337009261010480820193606093909283900390910190829087803b15801561294a57600080fd5b505af115801561295e573d6000803e3d6000fd5b505050506040513d606081101561297457600080fd5b50805160208201516040928301518351631c57762b60e31b81526001600482015260248101829052935191975091955090935073c2edad668740f1aa35e4d8f227fb8e17dca888cd9163e2bbb15891604480830192600092919082900301818387803b1580156129e357600080fd5b505af11580156129f7573d6000803e3d6000fd5b50505050509250925092565b600082820183811015610b46576040805162461bcd60e51b815260206004820152601b60248201527f536166654d6174683a206164646974696f6e206f766572666c6f770000000000604482015290519081900360640190fd5b60408051631c57762b60e31b815260016004820152600060248201819052915173c2edad668740f1aa35e4d8f227fb8e17dca888cd9263e2bbb158926044808201939182900301818387803b158015612ab557600080fd5b505af1158015612ac9573d6000803e3d6000fd5b50505050565b604080516001600160a01b038416602482015260448082018490528251808303909101815260649091019091526020810180516001600160e01b031663a9059cbb60e01b179052611f359084906130e6565b612b296111cd565b612b71576040805162461bcd60e51b815260206004820152601460248201527314185d5cd8589b194e881b9bdd081c185d5cd95960621b604482015290519081900360640190fd5b6005805460ff60a81b191690557f5db9ee0a495bf2e6ff9c91a7834c1ba4fdd244a5e8aa4e537bd38aeae4b073aa612ba76121e1565b604080516001600160a01b039092168252519081900360200190a1565b60008083612bd757506000905080612d20565b60408051630441a3e760e41b81526001600482015260248101869052905173c2edad668740f1aa35e4d8f227fb8e17dca888cd9163441a3e7091604480830192600092919082900301818387803b158015612c3157600080fd5b505af1158015612c45573d6000803e3d6000fd5b505060408051635d5155ef60e11b81526000805160206137f7833981519152600482015273a0b86991c6218b36c1d19d4a2e9eb0ce3606eb48602482015260448101889052600060648201819052608482018190523060a483015260c48201889052825173d9e1ce17f2641f24ae83637ab66a2cca9c378b9f955063baa2abde945060e480840194939192918390030190829087803b158015612ce757600080fd5b505af1158015612cfb573d6000803e3d6000fd5b505050506040513d6040811015612d1157600080fd5b50805160209091015190925090505b9250929050565b612d2f6111cd565b15612d74576040805162461bcd60e51b815260206004820152601060248201526f14185d5cd8589b194e881c185d5cd95960821b604482015290519081900360640190fd5b6005805460ff60a81b1916600160a81b1790557f62e78cea01bee320cd4e420270b5ea74000d11b0c9f74754ebdbfc544b05a258612ba76121e1565b336000908152600d602052604081206002810154612dcf908590613197565b935060008411612e1e576040805162461bcd60e51b815260206004820152601560248201527473656e646572206e6f7420696e206d696e7465727360581b604482015290519081900360640190fd5b6000612e3f612e2b610abf565b600a54612e399088906131ad565b906124c3565b9050612e4b3386613206565b600080612e588387612bc4565b915091506000612e7d8560020154612e398a88600101546131ad90919063ffffffff16565b90506000612ea08660020154612e398b89600001546131ad90919063ffffffff16565b90506000612eb084868585613302565b6001890154909950909150612ec5908461338a565b60018801558654612ed6908361338a565b87556002870154612ee7908b61338a565b6002880155600b54612ef9908461338a565b600b55600c54612f09908361338a565b600c55600a54612f19908761338a565b600a5560408051828152602081018a9052808201889052606081018c90529051339182917fa6a919b3314fbbdb84c4a64d62f381f104d0c1747b789163262d2fcfeec292689181900360800190a35050505050505092915050565b604080516001600160a01b0380861660248301528416604482015260648082018490528251808303909101815260849091019091526020810180516001600160e01b03166323b872dd60e01b179052612ac99085906130e6565b600080600080612fde86866126f0565b91955093509050612fed610abf565b612ff957809150613014565b613011600a54612e3961300a610abf565b84906131ad565b91505b600b546130219085612a03565b600b55600c546130319084612a03565b600c55600a546130419082612a03565b600a55336000908152600d6020526040902060018101546130629086612a03565b600182015580546130739085612a03565b815560028101546130849084612a03565b600282015561309333846133e7565b604080518681526020810186905280820184905260608101859052905133917f94c792774c59479f7bd68442f3af3691c02123a5aabee8b6f9116d8af8aa6669919081900360800190a250509250925092565b600061313b826040518060400160405280602081526020017f5361666545524332303a206c6f772d6c6576656c2063616c6c206661696c6564815250856001600160a01b03166134d79092919063ffffffff16565b805190915015611f355780806020019051602081101561315a57600080fd5b5051611f355760405162461bcd60e51b815260040180806020018281038252602a81526020018061397e602a913960400191505060405180910390fd5b60008183106131a65781610b46565b5090919050565b6000826131bc57506000610a89565b828202828482816131c957fe5b0414610b465760405162461bcd60e51b81526004018080602001828103825260218152602001806138ab6021913960400191505060405180910390fd5b6001600160a01b03821661324b5760405162461bcd60e51b81526004018080602001828103825260218152602001806139146021913960400191505060405180910390fd5b61325782600083611f35565b613294816040518060600160405280602281526020016137d5602291396001600160a01b038516600090815260208190526040902054919061242c565b6001600160a01b0383166000908152602081905260409020556002546132ba908261338a565b6002556040805182815290516000916001600160a01b038516917fddf252ad1be2c89b69c2b068fc378daa952ba7f163c4a11628f55a4df523b3ef9181900360200190a35050565b60008083861115613339576000613319878661338a565b905061332e613327826134ee565b8790612a03565b915084925050613381565b6000613345858861338a565b9050600061335b87613356846119c0565b613197565b90506133706133698261252a565b8990612a03565b935061337c878261338a565b925050505b94509492505050565b6000828211156133e1576040805162461bcd60e51b815260206004820152601e60248201527f536166654d6174683a207375627472616374696f6e206f766572666c6f770000604482015290519081900360640190fd5b50900390565b6001600160a01b038216613442576040805162461bcd60e51b815260206004820152601f60248201527f45524332303a206d696e7420746f20746865207a65726f206164647265737300604482015290519081900360640190fd5b61344e60008383611f35565b60025461345b9082612a03565b6002556001600160a01b0382166000908152602081905260409020546134819082612a03565b6001600160a01b0383166000818152602081815260408083209490945583518581529351929391927fddf252ad1be2c89b69c2b068fc378daa952ba7f163c4a11628f55a4df523b3ef9281900390910190a35050565b60606134e684846000856135ca565b949350505050565b6000816134fd57506000611207565b600073d9e1ce17f2641f24ae83637ab66a2cca9c378b9f6001600160a01b03166338ed1739846000600830426040518663ffffffff1660e01b81526004018086815260200185815260200180602001846001600160a01b0316815260200183815260200182810382528581815481526020019150805480156125e4576020028201919060005260206000209081546001600160a01b031681526001909101906020018083116125c65750509650505050505050600060405180830381600087803b15801561260857600080fd5b60608247101561360b5760405162461bcd60e51b81526004018080602001828103825260268152602001806138856026913960400191505060405180910390fd5b61361485613725565b613665576040805162461bcd60e51b815260206004820152601d60248201527f416464726573733a2063616c6c20746f206e6f6e2d636f6e7472616374000000604482015290519081900360640190fd5b600080866001600160a01b031685876040518082805190602001908083835b602083106136a35780518252601f199092019160209182019101613684565b6001836020036101000a03801982511681845116808217855250505050505090500191505060006040518083038185875af1925050503d8060008114613705576040519150601f19603f3d011682016040523d82523d6000602084013e61370a565b606091505b509150915061371a82828661372b565b979650505050505050565b3b151590565b6060831561373a575081610b46565b82511561374a5782518084602001fd5b60405162461bcd60e51b815260206004820181815284516024840152845185939192839260440191908501908083836000831561248057818101518382015260200161246856fe45524332303a207472616e7366657220746f20746865207a65726f20616464726573735265656e7472616e637947756172643a207265656e7472616e742063616c6c0045524332303a206275726e20616d6f756e7420657863656564732062616c616e6365000000000000000000000000c02aaa39b223fe8d0a0e5c4f27ead9083c756cc24f776e61626c653a206e6577206f776e657220697320746865207a65726f206164647265737345524332303a20617070726f766520746f20746865207a65726f206164647265737345524332303a207472616e7366657220616d6f756e7420657863656564732062616c616e6365416464726573733a20696e73756666696369656e742062616c616e636520666f722063616c6c536166654d6174683a206d756c7469706c69636174696f6e206f766572666c6f7745524332303a207472616e7366657220616d6f756e74206578636565647320616c6c6f77616e63654f776e61626c653a2063616c6c6572206973206e6f7420746865206f776e657245524332303a206275726e2066726f6d20746865207a65726f206164647265737345524332303a207472616e736665722066726f6d20746865207a65726f206164647265737345524332303a20617070726f76652066726f6d20746865207a65726f20616464726573735361666545524332303a204552433230206f7065726174696f6e20646964206e6f74207375636365656445524332303a2064656372656173656420616c6c6f77616e63652062656c6f77207a65726fa26469706673582212206c7ea44e6174ccdeba9cd2a1dd2c0e20c1411c4a2ba86fd6d113a2f4d00b42ea64736f6c63430007060033",
  "linkReferences": {},
  "deployedLinkReferences": {}
}