{
  "_format": "hh-sol-artifact-1",
  "contractName": "SushiswapIntegration",
  "sourceName": "contracts/base/SushiswapIntegration.sol",
  "abi": [
    {
      "inputs": [],
      "stateMutability": "nonpayable",
      "type": "constructor"
    },
    {
      "anonymous": false,
      "inputs": [
        {
          "indexed": true,
          "internalType": "address",
          "name": "previousOwner",
          "type": "address"
        },
        {
          "indexed": true,
          "internalType": "address",
          "name": "newOwner",
          "type": "address"
        }
      ],
      "name": "OwnershipTransferred",
      "type": "event"
    },
    {
      "anonymous": false,
      "inputs": [
        {
          "indexed": false,
          "internalType": "address",
          "name": "account",
          "type": "address"
        }
      ],
      "name": "Paused",
      "type": "event"
    },
    {
      "anonymous": false,
      "inputs": [
        {
          "indexed": false,
          "internalType": "address",
          "name": "account",
          "type": "address"
        }
      ],
      "name": "Unpaused",
      "type": "event"
    },
    {
      "inputs": [],
      "name": "MASTERCHEF",
      "outputs": [
        {
          "internalType": "address",
          "name": "",
          "type": "address"
        }
      ],
      "stateMutability": "view",
      "type": "function"
    },
    {
      "inputs": [],
      "name": "POOL_ID",
      "outputs": [
        {
          "internalType": "uint256",
          "name": "",
          "type": "uint256"
        }
      ],
      "stateMutability": "view",
      "type": "function"
    },
    {
      "inputs": [],
      "name": "SLP",
      "outputs": [
        {
          "internalType": "address",
          "name": "",
          "type": "address"
        }
      ],
      "stateMutability": "view",
      "type": "function"
    },
    {
      "inputs": [],
      "name": "SROUTER",
      "outputs": [
        {
          "internalType": "address",
          "name": "",
          "type": "address"
        }
      ],
      "stateMutability": "view",
      "type": "function"
    },
    {
      "inputs": [],
      "name": "SUSHI",
      "outputs": [
        {
          "internalType": "address",
          "name": "",
          "type": "address"
        }
      ],
      "stateMutability": "view",
      "type": "function"
    },
    {
      "inputs": [],
      "name": "USDC",
      "outputs": [
        {
          "internalType": "address",
          "name": "",
          "type": "address"
        }
      ],
      "stateMutability": "view",
      "type": "function"
    },
    {
      "inputs": [],
      "name": "WETH",
      "outputs": [
        {
          "internalType": "address",
          "name": "",
          "type": "address"
        }
      ],
      "stateMutability": "view",
      "type": "function"
    },
    {
      "inputs": [
        {
          "internalType": "uint256",
          "name": "outUSDC",
          "type": "uint256"
        }
      ],
      "name": "amountInETHForRequestedOutUSDC",
      "outputs": [
        {
          "internalType": "uint256",
          "name": "inETH",
          "type": "uint256"
        }
      ],
      "stateMutability": "view",
      "type": "function"
    },
    {
      "inputs": [],
      "name": "depositAllCapital",
      "outputs": [],
      "stateMutability": "nonpayable",
      "type": "function"
    },
    {
      "inputs": [
        {
          "internalType": "uint256",
          "name": "amount",
          "type": "uint256"
        }
      ],
      "name": "depositCapital",
      "outputs": [],
      "stateMutability": "nonpayable",
      "type": "function"
    },
    {
      "inputs": [],
      "name": "governance",
      "outputs": [
        {
          "internalType": "address",
          "name": "",
          "type": "address"
        }
      ],
      "stateMutability": "view",
      "type": "function"
    },
    {
      "inputs": [],
      "name": "owner",
      "outputs": [
        {
          "internalType": "address",
          "name": "",
          "type": "address"
        }
      ],
      "stateMutability": "view",
      "type": "function"
    },
    {
      "inputs": [
        {
          "internalType": "uint256",
          "name": "",
          "type": "uint256"
        }
      ],
      "name": "pathToETH",
      "outputs": [
        {
          "internalType": "address",
          "name": "",
          "type": "address"
        }
      ],
      "stateMutability": "view",
      "type": "function"
    },
    {
      "inputs": [
        {
          "internalType": "uint256",
          "name": "",
          "type": "uint256"
        }
      ],
      "name": "pathToUSDC",
      "outputs": [
        {
          "internalType": "address",
          "name": "",
          "type": "address"
        }
      ],
      "stateMutability": "view",
      "type": "function"
    },
    {
      "inputs": [],
      "name": "pause",
      "outputs": [],
      "stateMutability": "nonpayable",
      "type": "function"
    },
    {
      "inputs": [],
      "name": "paused",
      "outputs": [
        {
          "internalType": "bool",
          "name": "",
          "type": "bool"
        }
      ],
      "stateMutability": "view",
      "type": "function"
    },
    {
      "inputs": [
        {
          "internalType": "uint256",
          "name": "inETH",
          "type": "uint256"
        }
      ],
      "name": "quote",
      "outputs": [
        {
          "internalType": "uint256",
          "name": "outUSDC",
          "type": "uint256"
        }
      ],
      "stateMutability": "view",
      "type": "function"
    },
    {
      "inputs": [],
      "name": "renounceOwnership",
      "outputs": [],
      "stateMutability": "nonpayable",
      "type": "function"
    },
    {
      "inputs": [
        {
          "internalType": "address[]",
          "name": "tokens_",
          "type": "address[]"
        }
      ],
      "name": "salvage",
      "outputs": [],
      "stateMutability": "nonpayable",
      "type": "function"
    },
    {
      "inputs": [
        {
          "internalType": "address",
          "name": "_governance",
          "type": "address"
        }
      ],
      "name": "setGovernance",
      "outputs": [],
      "stateMutability": "nonpayable",
      "type": "function"
    },
    {
      "inputs": [
        {
          "internalType": "address",
          "name": "newOwner",
          "type": "address"
        }
      ],
      "name": "transferOwnership",
      "outputs": [],
      "stateMutability": "nonpayable",
      "type": "function"
    },
    {
      "inputs": [],
      "name": "unpause",
      "outputs": [],
      "stateMutability": "nonpayable",
      "type": "function"
    },
    {
      "inputs": [],
      "name": "withdrawFreeCapital",
      "outputs": [],
      "stateMutability": "nonpayable",
      "type": "function"
    },
    {
      "stateMutability": "payable",
      "type": "receive"
    }
  ],
  "bytecode": "0x6002608081815260e060405290816020016020820280368337505081516200002f926003925060200190620004af565b5060408051600280825260608201835290916020830190803683375050815162000061926004925060200190620004af565b503480156200006f57600080fd5b5060006200007c620004ab565b600080546001600160a01b0319166001600160a01b0383169081178255604051929350917f8be0079c531659141344cd1fd0a4f28419497f9722a3daafe3b4186f6b6457e0908290a3506000805460ff60a01b1916815560018055600280546001600160a01b031916331790556004805473c02aaa39b223fe8d0a0e5c4f27ead9083c756cc292906200010b57fe5b9060005260206000200160006101000a8154816001600160a01b0302191690836001600160a01b0316021790555073a0b86991c6218b36c1d19d4a2e9eb0ce3606eb4860046001815481106200015d57fe5b9060005260206000200160006101000a8154816001600160a01b0302191690836001600160a01b0316021790555073a0b86991c6218b36c1d19d4a2e9eb0ce3606eb486003600081548110620001af57fe5b9060005260206000200160006101000a8154816001600160a01b0302191690836001600160a01b0316021790555073c02aaa39b223fe8d0a0e5c4f27ead9083c756cc260036001815481106200020157fe5b600091825260208083209190910180546001600160a01b0319166001600160a01b0394909416939093179092556040805163095ea7b360e01b815273d9e1ce17f2641f24ae83637ab66a2cca9c378b9f60048201526000196024820152905173a0b86991c6218b36c1d19d4a2e9eb0ce3606eb489363095ea7b3936044808501949293928390030190829087803b1580156200029c57600080fd5b505af1158015620002b1573d6000803e3d6000fd5b505050506040513d6020811015620002c857600080fd5b50506040805163095ea7b360e01b815273d9e1ce17f2641f24ae83637ab66a2cca9c378b9f60048201526000196024820152905173c02aaa39b223fe8d0a0e5c4f27ead9083c756cc29163095ea7b39160448083019260209291908290030181600087803b1580156200033a57600080fd5b505af11580156200034f573d6000803e3d6000fd5b505050506040513d60208110156200036657600080fd5b50506040805163095ea7b360e01b815273d9e1ce17f2641f24ae83637ab66a2cca9c378b9f60048201526000196024820152905173397ff1542f962076d0bfe58ea045ffa2d347aca09163095ea7b39160448083019260209291908290030181600087803b158015620003d857600080fd5b505af1158015620003ed573d6000803e3d6000fd5b505050506040513d60208110156200040457600080fd5b50506040805163095ea7b360e01b815273c2edad668740f1aa35e4d8f227fb8e17dca888cd60048201526000196024820152905173397ff1542f962076d0bfe58ea045ffa2d347aca09163095ea7b39160448083019260209291908290030181600087803b1580156200047657600080fd5b505af11580156200048b573d6000803e3d6000fd5b505050506040513d6020811015620004a257600080fd5b50620005309050565b3390565b82805482825590600052602060002090810192821562000507579160200282015b828111156200050757825182546001600160a01b0319166001600160a01b03909116178255602090920191600190910190620004d0565b506200051592915062000519565b5090565b5b808211156200051557600081556001016200051a565b61153280620005406000396000f3fe6080604052600436106101445760003560e01c80638da5cb5b116100b6578063b1eb53521161006f578063b1eb535214610344578063d85d515e14610380578063e0d7d0e914610430578063e3692c3614610445578063ed1bd76c1461045a578063f2fde38b146104845761014b565b80638da5cb5b14610293578063900d1099146102a85780639e11ef44146102bd578063ab033ea9146102e7578063ab560e101461031a578063ad5c46481461032f5761014b565b80635c975abb116101085780635c975abb146101ec578063662fd80414610215578063715018a61461023f57806374969bf9146102545780638456cb591461026957806389a302711461027e5761014b565b806314b4218c146101505780632509f1b914610196578063386fed69146101ab5780633f4ba83a146101c25780635aa6e675146101d75761014b565b3661014b57005b600080fd5b34801561015c57600080fd5b5061017a6004803603602081101561017357600080fd5b50356104b7565b604080516001600160a01b039092168252519081900360200190f35b3480156101a257600080fd5b5061017a6104e1565b3480156101b757600080fd5b506101c06104f9565b005b3480156101ce57600080fd5b506101c06105e4565b3480156101e357600080fd5b5061017a61064e565b3480156101f857600080fd5b5061020161065d565b604080519115158252519081900360200190f35b34801561022157600080fd5b5061017a6004803603602081101561023857600080fd5b503561066d565b34801561024b57600080fd5b506101c061067d565b34801561026057600080fd5b5061017a610729565b34801561027557600080fd5b506101c0610741565b34801561028a57600080fd5b5061017a6107ab565b34801561029f57600080fd5b5061017a6107c3565b3480156102b457600080fd5b506101c06107d2565b3480156102c957600080fd5b506101c0600480360360208110156102e057600080fd5b50356108df565b3480156102f357600080fd5b506101c06004803603602081101561030a57600080fd5b50356001600160a01b0316610967565b34801561032657600080fd5b5061017a610a27565b34801561033b57600080fd5b5061017a610a3f565b34801561035057600080fd5b5061036e6004803603602081101561036757600080fd5b5035610a57565b60408051918252519081900360200190f35b34801561038c57600080fd5b506101c0600480360360208110156103a357600080fd5b8101906020810181356401000000008111156103be57600080fd5b8201836020820111156103d057600080fd5b803590602001918460208302840111640100000000831117156103f257600080fd5b919080806020026020016040519081016040528093929190818152602001838360200280828437600092019190915250929550610be6945050505050565b34801561043c57600080fd5b5061036e610d6c565b34801561045157600080fd5b5061017a610d71565b34801561046657600080fd5b5061036e6004803603602081101561047d57600080fd5b5035610d89565b34801561049057600080fd5b506101c0600480360360208110156104a757600080fd5b50356001600160a01b0316610eb3565b600481815481106104c757600080fd5b6000918252602090912001546001600160a01b0316905081565b73397ff1542f962076d0bfe58ea045ffa2d347aca081565b610501610fb5565b6001600160a01b03166105126107c3565b6001600160a01b03161461055b576040805162461bcd60e51b815260206004820181905260248201526000805160206114b3833981519152604482015290519081900360640190fd5b604080516370a0823160e01b815233600482015290516105e29173a0b86991c6218b36c1d19d4a2e9eb0ce3606eb48916370a0823191602480820192602092909190829003018186803b1580156105b157600080fd5b505afa1580156105c5573d6000803e3d6000fd5b505050506040513d60208110156105db57600080fd5b50516108df565b565b6105ec610fb5565b6001600160a01b03166105fd6107c3565b6001600160a01b031614610646576040805162461bcd60e51b815260206004820181905260248201526000805160206114b3833981519152604482015290519081900360640190fd5b6105e2610fb9565b6002546001600160a01b031681565b600054600160a01b900460ff1690565b600381815481106104c757600080fd5b610685610fb5565b6001600160a01b03166106966107c3565b6001600160a01b0316146106df576040805162461bcd60e51b815260206004820181905260248201526000805160206114b3833981519152604482015290519081900360640190fd5b600080546040516001600160a01b03909116907f8be0079c531659141344cd1fd0a4f28419497f9722a3daafe3b4186f6b6457e0908390a3600080546001600160a01b0319169055565b73d9e1ce17f2641f24ae83637ab66a2cca9c378b9f81565b610749610fb5565b6001600160a01b031661075a6107c3565b6001600160a01b0316146107a3576040805162461bcd60e51b815260206004820181905260248201526000805160206114b3833981519152604482015290519081900360640190fd5b6105e261105c565b73a0b86991c6218b36c1d19d4a2e9eb0ce3606eb4881565b6000546001600160a01b031690565b6107da610fb5565b6001600160a01b03166107eb6107c3565b6001600160a01b031614610834576040805162461bcd60e51b815260206004820181905260248201526000805160206114b3833981519152604482015290519081900360640190fd5b604080516370a0823160e01b8152306004820152905160009173a0b86991c6218b36c1d19d4a2e9eb0ce3606eb48916370a0823191602480820192602092909190829003018186803b15801561088957600080fd5b505afa15801561089d573d6000803e3d6000fd5b505050506040513d60208110156108b357600080fd5b5051905080156108dc576108dc73a0b86991c6218b36c1d19d4a2e9eb0ce3606eb4833836110e5565b50565b6108e7610fb5565b6001600160a01b03166108f86107c3565b6001600160a01b031614610941576040805162461bcd60e51b815260206004820181905260248201526000805160206114b3833981519152604482015290519081900360640190fd5b80156108dc576108dc73a0b86991c6218b36c1d19d4a2e9eb0ce3606eb48333084611137565b6002546001600160a01b031633146109b8576040805162461bcd60e51b815260206004820152600f60248201526e6f6e6c7920676f7665726e616e636560881b604482015290519081900360640190fd5b6001600160a01b038116610a05576040805162461bcd60e51b815260206004820152600f60248201526e6e756c6c20676f7665726e616e636560881b604482015290519081900360640190fd5b600280546001600160a01b0319166001600160a01b0392909216919091179055565b736b3595068778dd592e39a122f4f5a5cf09c90fe281565b73c02aaa39b223fe8d0a0e5c4f27ead9083c756cc281565b600073d9e1ce17f2641f24ae83637ab66a2cca9c378b9f6001600160a01b0316631f00ca748360046040518363ffffffff1660e01b815260040180838152602001806020018281038252838181548152602001915080548015610ae357602002820191906000526020600020905b81546001600160a01b03168152600190910190602001808311610ac5575b5050935050505060006040518083038186803b158015610b0257600080fd5b505afa158015610b16573d6000803e3d6000fd5b505050506040513d6000823e601f3d908101601f191682016040526020811015610b3f57600080fd5b8101908080516040519392919084640100000000821115610b5f57600080fd5b908301906020820185811115610b7457600080fd5b8251866020820283011164010000000082111715610b9157600080fd5b82525081516020918201928201910280838360005b83811015610bbe578181015183820152602001610ba6565b50505050905001604052505050600081518110610bd757fe5b60200260200101519050919050565b610bee610fb5565b6001600160a01b0316610bff6107c3565b6001600160a01b031614610c48576040805162461bcd60e51b815260206004820181905260248201526000805160206114b3833981519152604482015290519081900360640190fd5b805160005b81811015610d67576000838281518110610c6357fe5b6020026020010151905073c02aaa39b223fe8d0a0e5c4f27ead9083c756cc26001600160a01b0316816001600160a01b031614158015610cc057506001600160a01b03811673a0b86991c6218b36c1d19d4a2e9eb0ce3606eb4814155b15610d5e576000816001600160a01b03166370a08231306040518263ffffffff1660e01b815260040180826001600160a01b0316815260200191505060206040518083038186803b158015610d1457600080fd5b505afa158015610d28573d6000803e3d6000fd5b505050506040513d6020811015610d3e57600080fd5b505190508015610d5c57610d5c6001600160a01b03831633836110e5565b505b50600101610c4d565b505050565b600181565b73c2edad668740f1aa35e4d8f227fb8e17dca888cd81565b600080600073397ff1542f962076d0bfe58ea045ffa2d347aca06001600160a01b0316630902f1ac6040518163ffffffff1660e01b815260040160606040518083038186803b158015610ddb57600080fd5b505afa158015610def573d6000803e3d6000fd5b505050506040513d6060811015610e0557600080fd5b50805160209182015160408051632b58577b60e21b8152600481018990526dffffffffffffffffffffffffffff808416602483015284166044820152905192955090935073d9e1ce17f2641f24ae83637ab66a2cca9c378b9f9263ad615dec92606480840193829003018186803b158015610e7f57600080fd5b505afa158015610e93573d6000803e3d6000fd5b505050506040513d6020811015610ea957600080fd5b5051949350505050565b610ebb610fb5565b6001600160a01b0316610ecc6107c3565b6001600160a01b031614610f15576040805162461bcd60e51b815260206004820181905260248201526000805160206114b3833981519152604482015290519081900360640190fd5b6001600160a01b038116610f5a5760405162461bcd60e51b81526004018080602001828103825260268152602001806114676026913960400191505060405180910390fd5b600080546040516001600160a01b03808516939216917f8be0079c531659141344cd1fd0a4f28419497f9722a3daafe3b4186f6b6457e091a3600080546001600160a01b0319166001600160a01b0392909216919091179055565b3390565b610fc161065d565b611009576040805162461bcd60e51b815260206004820152601460248201527314185d5cd8589b194e881b9bdd081c185d5cd95960621b604482015290519081900360640190fd5b6000805460ff60a01b191690557f5db9ee0a495bf2e6ff9c91a7834c1ba4fdd244a5e8aa4e537bd38aeae4b073aa61103f610fb5565b604080516001600160a01b039092168252519081900360200190a1565b61106461065d565b156110a9576040805162461bcd60e51b815260206004820152601060248201526f14185d5cd8589b194e881c185d5cd95960821b604482015290519081900360640190fd5b6000805460ff60a01b1916600160a01b1790557f62e78cea01bee320cd4e420270b5ea74000d11b0c9f74754ebdbfc544b05a25861103f610fb5565b604080516001600160a01b038416602482015260448082018490528251808303909101815260649091019091526020810180516001600160e01b031663a9059cbb60e01b179052610d67908490611197565b604080516001600160a01b0380861660248301528416604482015260648082018490528251808303909101815260849091019091526020810180516001600160e01b03166323b872dd60e01b179052611191908590611197565b50505050565b60006111ec826040518060400160405280602081526020017f5361666545524332303a206c6f772d6c6576656c2063616c6c206661696c6564815250856001600160a01b03166112489092919063ffffffff16565b805190915015610d675780806020019051602081101561120b57600080fd5b5051610d675760405162461bcd60e51b815260040180806020018281038252602a8152602001806114d3602a913960400191505060405180910390fd5b60606112578484600085611261565b90505b9392505050565b6060824710156112a25760405162461bcd60e51b815260040180806020018281038252602681526020018061148d6026913960400191505060405180910390fd5b6112ab856113bc565b6112fc576040805162461bcd60e51b815260206004820152601d60248201527f416464726573733a2063616c6c20746f206e6f6e2d636f6e7472616374000000604482015290519081900360640190fd5b600080866001600160a01b031685876040518082805190602001908083835b6020831061133a5780518252601f19909201916020918201910161131b565b6001836020036101000a03801982511681845116808217855250505050505090500191505060006040518083038185875af1925050503d806000811461139c576040519150601f19603f3d011682016040523d82523d6000602084013e6113a1565b606091505b50915091506113b18282866113c2565b979650505050505050565b3b151590565b606083156113d157508161125a565b8251156113e15782518084602001fd5b8160405162461bcd60e51b81526004018080602001828103825283818151815260200191508051906020019080838360005b8381101561142b578181015183820152602001611413565b50505050905090810190601f1680156114585780820380516001836020036101000a031916815260200191505b509250505060405180910390fdfe4f776e61626c653a206e6577206f776e657220697320746865207a65726f2061646472657373416464726573733a20696e73756666696369656e742062616c616e636520666f722063616c6c4f776e61626c653a2063616c6c6572206973206e6f7420746865206f776e65725361666545524332303a204552433230206f7065726174696f6e20646964206e6f742073756363656564a264697066735822122028ddc6912349e74056ba4360292ecc1f8a6917e111526cf83876ffc70bf3fbcd64736f6c63430007060033",
  "linkReferences": {},
  "deployedLinkReferences": {}
}