{
  "_format": "hh-sol-artifact-1",
  "contractName": "RebalancingStrategy3",
  "sourceName": "contracts/RebalancingStrategy3.sol",
  "abi": [
    {
      "anonymous": false,
      "inputs": [
        {
          "indexed": true,
          "internalType": "address",
          "name": "previousOwner",
          "type": "address"
        },
        {
          "indexed": true,
          "internalType": "address",
          "name": "newOwner",
          "type": "address"
        }
      ],
      "name": "OwnershipTransferred",
      "type": "event"
    },
    {
      "anonymous": false,
      "inputs": [
        {
          "indexed": false,
          "internalType": "address",
          "name": "account",
          "type": "address"
        }
      ],
      "name": "Paused",
      "type": "event"
    },
    {
      "anonymous": false,
      "inputs": [
        {
          "indexed": false,
          "internalType": "address",
          "name": "account",
          "type": "address"
        }
      ],
      "name": "Unpaused",
      "type": "event"
    },
    {
      "inputs": [],
      "name": "MASTERCHEF",
      "outputs": [
        {
          "internalType": "address",
          "name": "",
          "type": "address"
        }
      ],
      "stateMutability": "view",
      "type": "function"
    },
    {
      "inputs": [],
      "name": "POOL_ID",
      "outputs": [
        {
          "internalType": "uint256",
          "name": "",
          "type": "uint256"
        }
      ],
      "stateMutability": "view",
      "type": "function"
    },
    {
      "inputs": [],
      "name": "REWARD",
      "outputs": [
        {
          "internalType": "address",
          "name": "",
          "type": "address"
        }
      ],
      "stateMutability": "view",
      "type": "function"
    },
    {
      "inputs": [],
      "name": "ROUTER",
      "outputs": [
        {
          "internalType": "address",
          "name": "",
          "type": "address"
        }
      ],
      "stateMutability": "view",
      "type": "function"
    },
    {
      "inputs": [],
      "name": "SLP",
      "outputs": [
        {
          "internalType": "address",
          "name": "",
          "type": "address"
        }
      ],
      "stateMutability": "view",
      "type": "function"
    },
    {
      "inputs": [],
      "name": "USDC",
      "outputs": [
        {
          "internalType": "address",
          "name": "",
          "type": "address"
        }
      ],
      "stateMutability": "view",
      "type": "function"
    },
    {
      "inputs": [],
      "name": "WETH",
      "outputs": [
        {
          "internalType": "address",
          "name": "",
          "type": "address"
        }
      ],
      "stateMutability": "view",
      "type": "function"
    },
    {
      "inputs": [
        {
          "internalType": "uint256",
          "name": "outUSDC",
          "type": "uint256"
        }
      ],
      "name": "amountInETHForRequestedOutUSDC",
      "outputs": [
        {
          "internalType": "uint256",
          "name": "inETH",
          "type": "uint256"
        }
      ],
      "stateMutability": "view",
      "type": "function"
    },
    {
      "inputs": [],
      "name": "depositAllCapital",
      "outputs": [],
      "stateMutability": "nonpayable",
      "type": "function"
    },
    {
      "inputs": [
        {
          "internalType": "uint256",
          "name": "amount",
          "type": "uint256"
        }
      ],
      "name": "depositCapital",
      "outputs": [],
      "stateMutability": "nonpayable",
      "type": "function"
    },
    {
      "inputs": [],
      "name": "governance",
      "outputs": [
        {
          "internalType": "address",
          "name": "",
          "type": "address"
        }
      ],
      "stateMutability": "view",
      "type": "function"
    },
    {
      "inputs": [],
      "name": "owner",
      "outputs": [
        {
          "internalType": "address",
          "name": "",
          "type": "address"
        }
      ],
      "stateMutability": "view",
      "type": "function"
    },
    {
      "inputs": [
        {
          "internalType": "uint256",
          "name": "",
          "type": "uint256"
        }
      ],
      "name": "pathToETH",
      "outputs": [
        {
          "internalType": "address",
          "name": "",
          "type": "address"
        }
      ],
      "stateMutability": "view",
      "type": "function"
    },
    {
      "inputs": [
        {
          "internalType": "uint256",
          "name": "",
          "type": "uint256"
        }
      ],
      "name": "pathToUSDC",
      "outputs": [
        {
          "internalType": "address",
          "name": "",
          "type": "address"
        }
      ],
      "stateMutability": "view",
      "type": "function"
    },
    {
      "inputs": [],
      "name": "pause",
      "outputs": [],
      "stateMutability": "nonpayable",
      "type": "function"
    },
    {
      "inputs": [],
      "name": "paused",
      "outputs": [
        {
          "internalType": "bool",
          "name": "",
          "type": "bool"
        }
      ],
      "stateMutability": "view",
      "type": "function"
    },
    {
      "inputs": [
        {
          "internalType": "uint256",
          "name": "inETH",
          "type": "uint256"
        }
      ],
      "name": "quote",
      "outputs": [
        {
          "internalType": "uint256",
          "name": "outUSDC",
          "type": "uint256"
        }
      ],
      "stateMutability": "view",
      "type": "function"
    },
    {
      "inputs": [
        {
          "internalType": "uint256",
          "name": "inUSDC",
          "type": "uint256"
        }
      ],
      "name": "quoteInverse",
      "outputs": [
        {
          "internalType": "uint256",
          "name": "outETH",
          "type": "uint256"
        }
      ],
      "stateMutability": "view",
      "type": "function"
    },
    {
      "inputs": [],
      "name": "renounceOwnership",
      "outputs": [],
      "stateMutability": "nonpayable",
      "type": "function"
    },
    {
      "inputs": [
        {
          "internalType": "address[]",
          "name": "tokens_",
          "type": "address[]"
        }
      ],
      "name": "salvage",
      "outputs": [],
      "stateMutability": "nonpayable",
      "type": "function"
    },
    {
      "inputs": [
        {
          "internalType": "address",
          "name": "_governance",
          "type": "address"
        }
      ],
      "name": "setGovernance",
      "outputs": [],
      "stateMutability": "nonpayable",
      "type": "function"
    },
    {
      "inputs": [
        {
          "internalType": "address",
          "name": "newOwner",
          "type": "address"
        }
      ],
      "name": "transferOwnership",
      "outputs": [],
      "stateMutability": "nonpayable",
      "type": "function"
    },
    {
      "inputs": [],
      "name": "unpause",
      "outputs": [],
      "stateMutability": "nonpayable",
      "type": "function"
    },
    {
      "inputs": [],
      "name": "withdrawFreeCapital",
      "outputs": [],
      "stateMutability": "nonpayable",
      "type": "function"
    },
    {
      "stateMutability": "payable",
      "type": "receive"
    }
  ],
  "bytecode": "0x6002608081815260e060405290816020016020820280368337505081516200002f926003925060200190620004af565b5060408051600280825260608201835290916020830190803683375050815162000061926004925060200190620004af565b503480156200006f57600080fd5b5060006200007c620004ab565b600080546001600160a01b0319166001600160a01b0383169081178255604051929350917f8be0079c531659141344cd1fd0a4f28419497f9722a3daafe3b4186f6b6457e0908290a3506000805460ff60a01b1916815560018055600280546001600160a01b031916331790556004805473c02aaa39b223fe8d0a0e5c4f27ead9083c756cc292906200010b57fe5b9060005260206000200160006101000a8154816001600160a01b0302191690836001600160a01b0316021790555073a0b86991c6218b36c1d19d4a2e9eb0ce3606eb4860046001815481106200015d57fe5b9060005260206000200160006101000a8154816001600160a01b0302191690836001600160a01b0316021790555073a0b86991c6218b36c1d19d4a2e9eb0ce3606eb486003600081548110620001af57fe5b9060005260206000200160006101000a8154816001600160a01b0302191690836001600160a01b0316021790555073c02aaa39b223fe8d0a0e5c4f27ead9083c756cc260036001815481106200020157fe5b600091825260208083209190910180546001600160a01b0319166001600160a01b0394909416939093179092556040805163095ea7b360e01b815273d9e1ce17f2641f24ae83637ab66a2cca9c378b9f60048201526000196024820152905173a0b86991c6218b36c1d19d4a2e9eb0ce3606eb489363095ea7b3936044808501949293928390030190829087803b1580156200029c57600080fd5b505af1158015620002b1573d6000803e3d6000fd5b505050506040513d6020811015620002c857600080fd5b50506040805163095ea7b360e01b815273d9e1ce17f2641f24ae83637ab66a2cca9c378b9f60048201526000196024820152905173c02aaa39b223fe8d0a0e5c4f27ead9083c756cc29163095ea7b39160448083019260209291908290030181600087803b1580156200033a57600080fd5b505af11580156200034f573d6000803e3d6000fd5b505050506040513d60208110156200036657600080fd5b50506040805163095ea7b360e01b815273d9e1ce17f2641f24ae83637ab66a2cca9c378b9f60048201526000196024820152905173397ff1542f962076d0bfe58ea045ffa2d347aca09163095ea7b39160448083019260209291908290030181600087803b158015620003d857600080fd5b505af1158015620003ed573d6000803e3d6000fd5b505050506040513d60208110156200040457600080fd5b50506040805163095ea7b360e01b815273c2edad668740f1aa35e4d8f227fb8e17dca888cd60048201526000196024820152905173397ff1542f962076d0bfe58ea045ffa2d347aca09163095ea7b39160448083019260209291908290030181600087803b1580156200047657600080fd5b505af11580156200048b573d6000803e3d6000fd5b505050506040513d6020811015620004a257600080fd5b50620005309050565b3390565b82805482825590600052602060002090810192821562000507579160200282015b828111156200050757825182546001600160a01b0319166001600160a01b03909116178255602090920191600190910190620004d0565b506200051592915062000519565b5090565b5b808211156200051557600081556001016200051a565b6116f580620005406000396000f3fe60806040526004361061014f5760003560e01c80638da5cb5b116100b6578063cab34c081161006f578063cab34c08146103a0578063d85d515e146103b5578063e0d7d0e914610465578063e3692c361461047a578063ed1bd76c1461048f578063f2fde38b146104b957610156565b80638da5cb5b146102da578063900d1099146102ef5780639e11ef4414610304578063ab033ea91461032e578063ad5c464814610361578063b1eb53521461037657610156565b80635aa6e675116101085780635aa6e675146102335780635c975abb14610248578063662fd80414610271578063715018a61461029b5780638456cb59146102b057806389a30271146102c557610156565b806314b4218c1461015b5780631598b7f8146101a15780632509f1b9146101dd57806332fe7b26146101f2578063386fed69146102075780633f4ba83a1461021e57610156565b3661015657005b600080fd5b34801561016757600080fd5b506101856004803603602081101561017e57600080fd5b50356104ec565b604080516001600160a01b039092168252519081900360200190f35b3480156101ad57600080fd5b506101cb600480360360208110156101c457600080fd5b5035610516565b60408051918252519081900360200190f35b3480156101e957600080fd5b50610185610639565b3480156101fe57600080fd5b50610185610651565b34801561021357600080fd5b5061021c610669565b005b34801561022a57600080fd5b5061021c610754565b34801561023f57600080fd5b506101856107be565b34801561025457600080fd5b5061025d6107cd565b604080519115158252519081900360200190f35b34801561027d57600080fd5b506101856004803603602081101561029457600080fd5b50356107dd565b3480156102a757600080fd5b5061021c6107ed565b3480156102bc57600080fd5b5061021c610899565b3480156102d157600080fd5b50610185610903565b3480156102e657600080fd5b5061018561091b565b3480156102fb57600080fd5b5061021c61092a565b34801561031057600080fd5b5061021c6004803603602081101561032757600080fd5b5035610a37565b34801561033a57600080fd5b5061021c6004803603602081101561035157600080fd5b50356001600160a01b0316610abf565b34801561036d57600080fd5b50610185610b7f565b34801561038257600080fd5b506101cb6004803603602081101561039957600080fd5b5035610b97565b3480156103ac57600080fd5b50610185610d26565b3480156103c157600080fd5b5061021c600480360360208110156103d857600080fd5b8101906020810181356401000000008111156103f357600080fd5b82018360208201111561040557600080fd5b8035906020019184602083028401116401000000008311171561042757600080fd5b919080806020026020016040519081016040528093929190818152602001838360200280828437600092019190915250929550610d3e945050505050565b34801561047157600080fd5b506101cb610eb4565b34801561048657600080fd5b50610185610eb9565b34801561049b57600080fd5b506101cb600480360360208110156104b257600080fd5b5035610ed1565b3480156104c557600080fd5b5061021c600480360360208110156104dc57600080fd5b50356001600160a01b0316610fc0565b600481815481106104fc57600080fd5b6000918252602090912001546001600160a01b0316905081565b600080600073397ff1542f962076d0bfe58ea045ffa2d347aca06001600160a01b0316630902f1ac6040518163ffffffff1660e01b815260040160606040518083038186803b15801561056857600080fd5b505afa15801561057c573d6000803e3d6000fd5b505050506040513d606081101561059257600080fd5b50805160209182015160408051632b58577b60e21b8152600481018990526001600160701b03808516602483015283166044820152905192955090935073d9e1ce17f2641f24ae83637ab66a2cca9c378b9f9263ad615dec92606480840193829003018186803b15801561060557600080fd5b505afa158015610619573d6000803e3d6000fd5b505050506040513d602081101561062f57600080fd5b5051949350505050565b73397ff1542f962076d0bfe58ea045ffa2d347aca081565b73d9e1ce17f2641f24ae83637ab66a2cca9c378b9f81565b6106716110c2565b6001600160a01b031661068261091b565b6001600160a01b0316146106cb576040805162461bcd60e51b81526020600482018190526024820152600080516020611676833981519152604482015290519081900360640190fd5b604080516370a0823160e01b815233600482015290516107529173a0b86991c6218b36c1d19d4a2e9eb0ce3606eb48916370a0823191602480820192602092909190829003018186803b15801561072157600080fd5b505afa158015610735573d6000803e3d6000fd5b505050506040513d602081101561074b57600080fd5b5051610a37565b565b61075c6110c2565b6001600160a01b031661076d61091b565b6001600160a01b0316146107b6576040805162461bcd60e51b81526020600482018190526024820152600080516020611676833981519152604482015290519081900360640190fd5b6107526110c6565b6002546001600160a01b031681565b600054600160a01b900460ff1690565b600381815481106104fc57600080fd5b6107f56110c2565b6001600160a01b031661080661091b565b6001600160a01b03161461084f576040805162461bcd60e51b81526020600482018190526024820152600080516020611676833981519152604482015290519081900360640190fd5b600080546040516001600160a01b03909116907f8be0079c531659141344cd1fd0a4f28419497f9722a3daafe3b4186f6b6457e0908390a3600080546001600160a01b0319169055565b6108a16110c2565b6001600160a01b03166108b261091b565b6001600160a01b0316146108fb576040805162461bcd60e51b81526020600482018190526024820152600080516020611676833981519152604482015290519081900360640190fd5b610752611169565b73a0b86991c6218b36c1d19d4a2e9eb0ce3606eb4881565b6000546001600160a01b031690565b6109326110c2565b6001600160a01b031661094361091b565b6001600160a01b03161461098c576040805162461bcd60e51b81526020600482018190526024820152600080516020611676833981519152604482015290519081900360640190fd5b604080516370a0823160e01b8152306004820152905160009173a0b86991c6218b36c1d19d4a2e9eb0ce3606eb48916370a0823191602480820192602092909190829003018186803b1580156109e157600080fd5b505afa1580156109f5573d6000803e3d6000fd5b505050506040513d6020811015610a0b57600080fd5b505190508015610a3457610a3473a0b86991c6218b36c1d19d4a2e9eb0ce3606eb4833836111f2565b50565b610a3f6110c2565b6001600160a01b0316610a5061091b565b6001600160a01b031614610a99576040805162461bcd60e51b81526020600482018190526024820152600080516020611676833981519152604482015290519081900360640190fd5b8015610a3457610a3473a0b86991c6218b36c1d19d4a2e9eb0ce3606eb48333084611249565b6002546001600160a01b03163314610b10576040805162461bcd60e51b815260206004820152600f60248201526e6f6e6c7920676f7665726e616e636560881b604482015290519081900360640190fd5b6001600160a01b038116610b5d576040805162461bcd60e51b815260206004820152600f60248201526e6e756c6c20676f7665726e616e636560881b604482015290519081900360640190fd5b600280546001600160a01b0319166001600160a01b0392909216919091179055565b73c02aaa39b223fe8d0a0e5c4f27ead9083c756cc281565b600073d9e1ce17f2641f24ae83637ab66a2cca9c378b9f6001600160a01b0316631f00ca748360046040518363ffffffff1660e01b815260040180838152602001806020018281038252838181548152602001915080548015610c2357602002820191906000526020600020905b81546001600160a01b03168152600190910190602001808311610c05575b5050935050505060006040518083038186803b158015610c4257600080fd5b505afa158015610c56573d6000803e3d6000fd5b505050506040513d6000823e601f3d908101601f191682016040526020811015610c7f57600080fd5b8101908080516040519392919084640100000000821115610c9f57600080fd5b908301906020820185811115610cb457600080fd5b8251866020820283011164010000000082111715610cd157600080fd5b82525081516020918201928201910280838360005b83811015610cfe578181015183820152602001610ce6565b50505050905001604052505050600081518110610d1757fe5b60200260200101519050919050565b736b3595068778dd592e39a122f4f5a5cf09c90fe281565b610d466110c2565b6001600160a01b0316610d5761091b565b6001600160a01b031614610da0576040805162461bcd60e51b81526020600482018190526024820152600080516020611676833981519152604482015290519081900360640190fd5b60005b8151811015610eb0576000828281518110610dba57fe5b60200260200101519050610dcd816112a9565b610e0f576040805162461bcd60e51b815260206004820152600e60248201526d6e6f742073616c76616761626c6560901b604482015290519081900360640190fd5b6000816001600160a01b03166370a08231306040518263ffffffff1660e01b815260040180826001600160a01b0316815260200191505060206040518083038186803b158015610e5e57600080fd5b505afa158015610e72573d6000803e3d6000fd5b505050506040513d6020811015610e8857600080fd5b505190508015610ea657610ea66001600160a01b03831633836111f2565b5050600101610da3565b5050565b600181565b73c2edad668740f1aa35e4d8f227fb8e17dca888cd81565b600080600073397ff1542f962076d0bfe58ea045ffa2d347aca06001600160a01b0316630902f1ac6040518163ffffffff1660e01b815260040160606040518083038186803b158015610f2357600080fd5b505afa158015610f37573d6000803e3d6000fd5b505050506040513d6060811015610f4d57600080fd5b50805160209182015160408051632b58577b60e21b8152600481018990526001600160701b03808416602483015284166044820152905192955090935073d9e1ce17f2641f24ae83637ab66a2cca9c378b9f9263ad615dec92606480840193829003018186803b15801561060557600080fd5b610fc86110c2565b6001600160a01b0316610fd961091b565b6001600160a01b031614611022576040805162461bcd60e51b81526020600482018190526024820152600080516020611676833981519152604482015290519081900360640190fd5b6001600160a01b0381166110675760405162461bcd60e51b815260040180806020018281038252602681526020018061162a6026913960400191505060405180910390fd5b600080546040516001600160a01b03808516939216917f8be0079c531659141344cd1fd0a4f28419497f9722a3daafe3b4186f6b6457e091a3600080546001600160a01b0319166001600160a01b0392909216919091179055565b3390565b6110ce6107cd565b611116576040805162461bcd60e51b815260206004820152601460248201527314185d5cd8589b194e881b9bdd081c185d5cd95960621b604482015290519081900360640190fd5b6000805460ff60a01b191690557f5db9ee0a495bf2e6ff9c91a7834c1ba4fdd244a5e8aa4e537bd38aeae4b073aa61114c6110c2565b604080516001600160a01b039092168252519081900360200190a1565b6111716107cd565b156111b6576040805162461bcd60e51b815260206004820152601060248201526f14185d5cd8589b194e881c185d5cd95960821b604482015290519081900360640190fd5b6000805460ff60a01b1916600160a01b1790557f62e78cea01bee320cd4e420270b5ea74000d11b0c9f74754ebdbfc544b05a25861114c6110c2565b604080516001600160a01b038416602482015260448082018490528251808303909101815260649091019091526020810180516001600160e01b031663a9059cbb60e01b17905261124490849061130c565b505050565b604080516001600160a01b0380861660248301528416604482015260648082018490528251808303909101815260849091019091526020810180516001600160e01b03166323b872dd60e01b1790526112a390859061130c565b50505050565b60006112b4826113bd565b80156112dd57506001600160a01b03821673397ff1542f962076d0bfe58ea045ffa2d347aca014155b801561130657506001600160a01b038216736b3595068778dd592e39a122f4f5a5cf09c90fe214155b92915050565b6000611361826040518060400160405280602081526020017f5361666545524332303a206c6f772d6c6576656c2063616c6c206661696c6564815250856001600160a01b031661140b9092919063ffffffff16565b8051909150156112445780806020019051602081101561138057600080fd5b50516112445760405162461bcd60e51b815260040180806020018281038252602a815260200180611696602a913960400191505060405180910390fd5b60006001600160a01b03821673c02aaa39b223fe8d0a0e5c4f27ead9083c756cc2148015906113065750506001600160a01b031673a0b86991c6218b36c1d19d4a2e9eb0ce3606eb48141590565b606061141a8484600085611424565b90505b9392505050565b6060824710156114655760405162461bcd60e51b81526004018080602001828103825260268152602001806116506026913960400191505060405180910390fd5b61146e8561157f565b6114bf576040805162461bcd60e51b815260206004820152601d60248201527f416464726573733a2063616c6c20746f206e6f6e2d636f6e7472616374000000604482015290519081900360640190fd5b600080866001600160a01b031685876040518082805190602001908083835b602083106114fd5780518252601f1990920191602091820191016114de565b6001836020036101000a03801982511681845116808217855250505050505090500191505060006040518083038185875af1925050503d806000811461155f576040519150601f19603f3d011682016040523d82523d6000602084013e611564565b606091505b5091509150611574828286611585565b979650505050505050565b3b151590565b6060831561159457508161141d565b8251156115a45782518084602001fd5b8160405162461bcd60e51b81526004018080602001828103825283818151815260200191508051906020019080838360005b838110156115ee5781810151838201526020016115d6565b50505050905090810190601f16801561161b5780820380516001836020036101000a031916815260200191505b509250505060405180910390fdfe4f776e61626c653a206e6577206f776e657220697320746865207a65726f2061646472657373416464726573733a20696e73756666696369656e742062616c616e636520666f722063616c6c4f776e61626c653a2063616c6c6572206973206e6f7420746865206f776e65725361666545524332303a204552433230206f7065726174696f6e20646964206e6f742073756363656564a26469706673582212207053dcdcd1d07b7ec575b45de1378a056d8fc4b3227f0134bccd1c7945e4121064736f6c63430007060033",
  "linkReferences": {},
  "deployedLinkReferences": {}
}